{
  "_format": "hh-sol-artifact-1",
  "contractName": "SecondaryMarketplace",
  "sourceName": "contracts/secondary.sol",
  "abi": [
    {
      "inputs": [
        {
          "internalType": "address",
          "name": "_factoryAddress",
          "type": "address"
        }
      ],
      "stateMutability": "nonpayable",
      "type": "constructor"
    },
    {
      "inputs": [
        {
          "internalType": "address",
          "name": "token",
          "type": "address"
        }
      ],
      "name": "SafeERC20FailedOperation",
      "type": "error"
    },
    {
      "anonymous": false,
      "inputs": [
        {
          "indexed": true,
          "internalType": "address",
          "name": "previousOwner",
          "type": "address"
        },
        {
          "indexed": true,
          "internalType": "address",
          "name": "newOwner",
          "type": "address"
        }
      ],
      "name": "OwnershipTransferred",
      "type": "event"
    },
    {
      "anonymous": false,
      "inputs": [
        {
          "indexed": false,
          "internalType": "uint256",
          "name": "nftId",
          "type": "uint256"
        },
        {
          "indexed": false,
          "internalType": "address",
          "name": "createdBy",
          "type": "address"
        },
        {
          "indexed": false,
          "internalType": "address",
          "name": "nftSource",
          "type": "address"
        },
        {
          "indexed": false,
          "internalType": "uint256",
          "name": "amount",
          "type": "uint256"
        },
        {
          "indexed": false,
          "internalType": "uint256",
          "name": "price",
          "type": "uint256"
        },
        {
          "indexed": false,
          "internalType": "uint256",
          "name": "auctionTime",
          "type": "uint256"
        }
      ],
      "name": "newAuction",
      "type": "event"
    },
    {
      "anonymous": false,
      "inputs": [
        {
          "indexed": false,
          "internalType": "address",
          "name": "buyer",
          "type": "address"
        },
        {
          "indexed": false,
          "internalType": "address",
          "name": "collection",
          "type": "address"
        },
        {
          "indexed": false,
          "internalType": "uint256",
          "name": "nftId",
          "type": "uint256"
        },
        {
          "indexed": false,
          "internalType": "uint256",
          "name": "index",
          "type": "uint256"
        },
        {
          "indexed": false,
          "internalType": "uint256",
          "name": "_bid",
          "type": "uint256"
        }
      ],
      "name": "newBidOnAuction",
      "type": "event"
    },
    {
      "anonymous": false,
      "inputs": [
        {
          "indexed": false,
          "internalType": "uint256",
          "name": "nftId",
          "type": "uint256"
        },
        {
          "indexed": false,
          "internalType": "address",
          "name": "createdBy",
          "type": "address"
        },
        {
          "indexed": false,
          "internalType": "address",
          "name": "nftSource",
          "type": "address"
        },
        {
          "indexed": false,
          "internalType": "uint256",
          "name": "amount",
          "type": "uint256"
        },
        {
          "indexed": false,
          "internalType": "uint256",
          "name": "price",
          "type": "uint256"
        }
      ],
      "name": "newListing",
      "type": "event"
    },
    {
      "anonymous": false,
      "inputs": [
        {
          "indexed": false,
          "internalType": "address",
          "name": "nftAddress",
          "type": "address"
        },
        {
          "indexed": false,
          "internalType": "address",
          "name": "_creator",
          "type": "address"
        },
        {
          "indexed": false,
          "internalType": "uint256",
          "name": "_nftID",
          "type": "uint256"
        },
        {
          "indexed": false,
          "internalType": "uint256",
          "name": "_index",
          "type": "uint256"
        }
      ],
      "name": "nftAuctionCancelled",
      "type": "event"
    },
    {
      "anonymous": false,
      "inputs": [
        {
          "indexed": false,
          "internalType": "address",
          "name": "Buyer",
          "type": "address"
        },
        {
          "indexed": false,
          "internalType": "address",
          "name": "collection",
          "type": "address"
        },
        {
          "indexed": false,
          "internalType": "uint256",
          "name": "nftId",
          "type": "uint256"
        },
        {
          "indexed": false,
          "internalType": "uint256",
          "name": "index",
          "type": "uint256"
        },
        {
          "indexed": false,
          "internalType": "uint256",
          "name": "amount",
          "type": "uint256"
        }
      ],
      "name": "nftClaimed",
      "type": "event"
    },
    {
      "anonymous": false,
      "inputs": [
        {
          "indexed": false,
          "internalType": "address",
          "name": "nftAddress",
          "type": "address"
        },
        {
          "indexed": false,
          "internalType": "address",
          "name": "_creator",
          "type": "address"
        },
        {
          "indexed": false,
          "internalType": "uint256",
          "name": "_nftID",
          "type": "uint256"
        },
        {
          "indexed": false,
          "internalType": "uint256",
          "name": "_amount",
          "type": "uint256"
        }
      ],
      "name": "nftListingCancelled",
      "type": "event"
    },
    {
      "anonymous": false,
      "inputs": [
        {
          "indexed": false,
          "internalType": "address",
          "name": "buyer",
          "type": "address"
        },
        {
          "indexed": false,
          "internalType": "address",
          "name": "collection",
          "type": "address"
        },
        {
          "indexed": false,
          "internalType": "uint256",
          "name": "nftId",
          "type": "uint256"
        },
        {
          "indexed": false,
          "internalType": "uint256",
          "name": "amount",
          "type": "uint256"
        },
        {
          "indexed": false,
          "internalType": "uint256",
          "name": "_price",
          "type": "uint256"
        }
      ],
      "name": "nftSold",
      "type": "event"
    },
    {
      "anonymous": false,
      "inputs": [
        {
          "indexed": false,
          "internalType": "address",
          "name": "owner",
          "type": "address"
        },
        {
          "indexed": false,
          "internalType": "address",
          "name": "nftAddress",
          "type": "address"
        },
        {
          "indexed": false,
          "internalType": "uint256",
          "name": "nftId",
          "type": "uint256"
        },
        {
          "indexed": false,
          "internalType": "uint256",
          "name": "price",
          "type": "uint256"
        }
      ],
      "name": "priceUpdated",
      "type": "event"
    },
    {
      "inputs": [
        {
          "internalType": "address",
          "name": "_buyer",
          "type": "address"
        },
        {
          "internalType": "address",
          "name": "nftAddress",
          "type": "address"
        },
        {
          "internalType": "address",
          "name": "nftOwner",
          "type": "address"
        },
        {
          "internalType": "uint256",
          "name": "_nftId",
          "type": "uint256"
        },
        {
          "internalType": "uint256",
          "name": "_index",
          "type": "uint256"
        },
        {
          "internalType": "uint256",
          "name": "_newBid",
          "type": "uint256"
        },
        {
          "internalType": "bool",
          "name": "isRelayer",
          "type": "bool"
        }
      ],
      "name": "buyNFTOnAuction",
      "outputs": [],
      "stateMutability": "nonpayable",
      "type": "function"
    },
    {
      "inputs": [
        {
          "internalType": "address",
          "name": "_buyer",
          "type": "address"
        },
        {
          "internalType": "address",
          "name": "nftAddress",
          "type": "address"
        },
        {
          "internalType": "address",
          "name": "nftOwner",
          "type": "address"
        },
        {
          "internalType": "uint256",
          "name": "_nftId",
          "type": "uint256"
        },
        {
          "internalType": "uint256",
          "name": "_amount",
          "type": "uint256"
        },
        {
          "internalType": "bool",
          "name": "isRelayer",
          "type": "bool"
        }
      ],
      "name": "buyNFTOnSale",
      "outputs": [],
      "stateMutability": "nonpayable",
      "type": "function"
    },
    {
      "inputs": [
        {
          "internalType": "address",
          "name": "_creator",
          "type": "address"
        },
        {
          "internalType": "address",
          "name": "_nftSource",
          "type": "address"
        },
        {
          "internalType": "uint256",
          "name": "_nftId",
          "type": "uint256"
        },
        {
          "internalType": "bool",
          "name": "isAuction",
          "type": "bool"
        },
        {
          "internalType": "uint256",
          "name": "_index",
          "type": "uint256"
        },
        {
          "internalType": "uint256",
          "name": "_amount",
          "type": "uint256"
        },
        {
          "internalType": "bool",
          "name": "isRelayer",
          "type": "bool"
        }
      ],
      "name": "cancelNFTListing",
      "outputs": [],
      "stateMutability": "nonpayable",
      "type": "function"
    },
    {
      "inputs": [
        {
          "internalType": "address",
          "name": "_factoryAddress",
          "type": "address"
        }
      ],
      "name": "changeFactoryAddress",
      "outputs": [],
      "stateMutability": "nonpayable",
      "type": "function"
    },
    {
      "inputs": [
        {
          "internalType": "uint256",
          "name": "_newFee",
          "type": "uint256"
        }
      ],
      "name": "changeFee",
      "outputs": [],
      "stateMutability": "nonpayable",
      "type": "function"
    },
    {
      "inputs": [
        {
          "internalType": "address",
          "name": "_user",
          "type": "address"
        },
        {
          "internalType": "address",
          "name": "_nftAddress",
          "type": "address"
        },
        {
          "internalType": "uint256",
          "name": "_nftId",
          "type": "uint256"
        },
        {
          "internalType": "uint256",
          "name": "_index",
          "type": "uint256"
        }
      ],
      "name": "claimAmount",
      "outputs": [
        {
          "internalType": "uint256",
          "name": "",
          "type": "uint256"
        }
      ],
      "stateMutability": "view",
      "type": "function"
    },
    {
      "inputs": [
        {
          "internalType": "address",
          "name": "_buyer",
          "type": "address"
        },
        {
          "internalType": "address",
          "name": "nftOwner",
          "type": "address"
        },
        {
          "internalType": "address",
          "name": "nftAddress",
          "type": "address"
        },
        {
          "internalType": "uint256",
          "name": "_nftId",
          "type": "uint256"
        },
        {
          "internalType": "uint256",
          "name": "_index",
          "type": "uint256"
        },
        {
          "internalType": "bool",
          "name": "isRelayer",
          "type": "bool"
        }
      ],
      "name": "claimNFT",
      "outputs": [],
      "stateMutability": "nonpayable",
      "type": "function"
    },
    {
      "inputs": [],
      "name": "factoryAddress",
      "outputs": [
        {
          "internalType": "address",
          "name": "",
          "type": "address"
        }
      ],
      "stateMutability": "view",
      "type": "function"
    },
    {
      "inputs": [],
      "name": "fee",
      "outputs": [
        {
          "internalType": "uint256",
          "name": "",
          "type": "uint256"
        }
      ],
      "stateMutability": "view",
      "type": "function"
    },
    {
      "inputs": [
        {
          "internalType": "address",
          "name": "_user",
          "type": "address"
        }
      ],
      "name": "getAllAuctionsOfUser",
      "outputs": [
        {
          "components": [
            {
              "internalType": "uint256",
              "name": "id",
              "type": "uint256"
            },
            {
              "internalType": "address",
              "name": "creator",
              "type": "address"
            },
            {
              "internalType": "address",
              "name": "nftAddress",
              "type": "address"
            },
            {
              "internalType": "uint256",
              "name": "nfts",
              "type": "uint256"
            },
            {
              "internalType": "uint256",
              "name": "index",
              "type": "uint256"
            }
          ],
          "internalType": "struct SecondaryMarketplace.AuctionInfo[]",
          "name": "",
          "type": "tuple[]"
        }
      ],
      "stateMutability": "view",
      "type": "function"
    },
    {
      "inputs": [
        {
          "internalType": "address",
          "name": "user",
          "type": "address"
        }
      ],
      "name": "getAllNFTsForUser",
      "outputs": [
        {
          "components": [
            {
              "internalType": "uint256",
              "name": "nftId",
              "type": "uint256"
            },
            {
              "internalType": "address",
              "name": "creator",
              "type": "address"
            },
            {
              "internalType": "address",
              "name": "nftSource",
              "type": "address"
            },
            {
              "internalType": "uint256",
              "name": "amount",
              "type": "uint256"
            },
            {
              "internalType": "uint256",
              "name": "priceOfNFT",
              "type": "uint256"
            }
          ],
          "internalType": "struct SecondaryMarketplace.NFTDetail[]",
          "name": "",
          "type": "tuple[]"
        }
      ],
      "stateMutability": "view",
      "type": "function"
    },
    {
      "inputs": [
        {
          "internalType": "address",
          "name": "_owner",
          "type": "address"
        },
        {
          "internalType": "address",
          "name": "_nftAddress",
          "type": "address"
        },
        {
          "internalType": "uint256",
          "name": "_nftId",
          "type": "uint256"
        },
        {
          "internalType": "uint256",
          "name": "_index",
          "type": "uint256"
        }
      ],
      "name": "getAuctionDetails",
      "outputs": [
        {
          "internalType": "uint256",
          "name": "",
          "type": "uint256"
        },
        {
          "internalType": "uint256",
          "name": "",
          "type": "uint256"
        },
        {
          "internalType": "uint256",
          "name": "",
          "type": "uint256"
        },
        {
          "internalType": "uint256",
          "name": "",
          "type": "uint256"
        },
        {
          "internalType": "uint256",
          "name": "",
          "type": "uint256"
        },
        {
          "internalType": "address",
          "name": "",
          "type": "address"
        }
      ],
      "stateMutability": "view",
      "type": "function"
    },
    {
      "inputs": [],
      "name": "getUSDTAddress",
      "outputs": [
        {
          "internalType": "address",
          "name": "",
          "type": "address"
        }
      ],
      "stateMutability": "view",
      "type": "function"
    },
    {
      "inputs": [
        {
          "internalType": "address",
          "name": "_owner",
          "type": "address"
        },
        {
          "internalType": "address",
          "name": "_nftAddress",
          "type": "address"
        },
        {
          "internalType": "uint256",
          "name": "_nftId",
          "type": "uint256"
        },
        {
          "internalType": "uint256",
          "name": "_index",
          "type": "uint256"
        }
      ],
      "name": "isOpen",
      "outputs": [
        {
          "internalType": "bool",
          "name": "",
          "type": "bool"
        }
      ],
      "stateMutability": "view",
      "type": "function"
    },
    {
      "inputs": [
        {
          "internalType": "address",
          "name": "_creator",
          "type": "address"
        },
        {
          "internalType": "address",
          "name": "_nftSource",
          "type": "address"
        },
        {
          "internalType": "uint256",
          "name": "_nftId",
          "type": "uint256"
        },
        {
          "internalType": "uint256",
          "name": "_amount",
          "type": "uint256"
        },
        {
          "internalType": "uint256",
          "name": "_nftPrice",
          "type": "uint256"
        },
        {
          "internalType": "bool",
          "name": "forAuction",
          "type": "bool"
        },
        {
          "internalType": "uint256",
          "name": "_timeForAuction",
          "type": "uint256"
        },
        {
          "internalType": "bool",
          "name": "isRelayer",
          "type": "bool"
        }
      ],
      "name": "list",
      "outputs": [],
      "stateMutability": "nonpayable",
      "type": "function"
    },
    {
      "inputs": [
        {
          "internalType": "address",
          "name": "_creator",
          "type": "address"
        },
        {
          "internalType": "address",
          "name": "_nftAddress",
          "type": "address"
        },
        {
          "internalType": "uint256",
          "name": "_nftId",
          "type": "uint256"
        }
      ],
      "name": "listedOnAuction",
      "outputs": [
        {
          "internalType": "uint256",
          "name": "",
          "type": "uint256"
        },
        {
          "internalType": "address",
          "name": "",
          "type": "address"
        },
        {
          "internalType": "address",
          "name": "",
          "type": "address"
        },
        {
          "internalType": "uint256",
          "name": "",
          "type": "uint256"
        },
        {
          "internalType": "uint256",
          "name": "",
          "type": "uint256"
        }
      ],
      "stateMutability": "view",
      "type": "function"
    },
    {
      "inputs": [],
      "name": "owner",
      "outputs": [
        {
          "internalType": "address",
          "name": "",
          "type": "address"
        }
      ],
      "stateMutability": "view",
      "type": "function"
    },
    {
      "inputs": [],
      "name": "renounceOwnership",
      "outputs": [],
      "stateMutability": "nonpayable",
      "type": "function"
    },
    {
      "inputs": [],
      "name": "retrieveCollections",
      "outputs": [
        {
          "internalType": "address[]",
          "name": "",
          "type": "address[]"
        }
      ],
      "stateMutability": "view",
      "type": "function"
    },
    {
      "inputs": [
        {
          "internalType": "address",
          "name": "_relayer",
          "type": "address"
        }
      ],
      "name": "retrieveRelayerListers",
      "outputs": [
        {
          "internalType": "address[]",
          "name": "",
          "type": "address[]"
        }
      ],
      "stateMutability": "view",
      "type": "function"
    },
    {
      "inputs": [],
      "name": "retrieveRelayers",
      "outputs": [
        {
          "internalType": "address[]",
          "name": "",
          "type": "address[]"
        }
      ],
      "stateMutability": "view",
      "type": "function"
    },
    {
      "inputs": [
        {
          "internalType": "address",
          "name": "newOwner",
          "type": "address"
        }
      ],
      "name": "transferOwnership",
      "outputs": [],
      "stateMutability": "nonpayable",
      "type": "function"
    },
    {
      "inputs": [
        {
          "internalType": "address",
          "name": "_creator",
          "type": "address"
        },
        {
          "internalType": "uint256",
          "name": "_nftId",
          "type": "uint256"
        },
        {
          "internalType": "uint256",
          "name": "_price",
          "type": "uint256"
        },
        {
          "internalType": "address",
          "name": "_nftAddress",
          "type": "address"
        },
        {
          "internalType": "bool",
          "name": "isRelayer",
          "type": "bool"
        }
      ],
      "name": "updatePriceOfNFT",
      "outputs": [],
      "stateMutability": "nonpayable",
      "type": "function"
    }
  ],
  "bytecode": "0x60806040523480156200001157600080fd5b5060405162006a6a38038062006a6a83398181016040528101906200003791906200031a565b620000576200004b6200014960201b60201c565b6200015160201b60201c565b6001808190555080600360006101000a81548173ffffffffffffffffffffffffffffffffffffffff021916908373ffffffffffffffffffffffffffffffffffffffff160217905550620000af6200021560201b60201c565b73ffffffffffffffffffffffffffffffffffffffff1663313ce5676040518163ffffffff1660e01b8152600401602060405180830381865afa158015620000fa573d6000803e3d6000fd5b505050506040513d601f19601f820116820180604052508101906200012091906200038a565b600a6200012e919062000549565b60016200013c91906200059a565b60048190555050620005e5565b600033905090565b60008060009054906101000a900473ffffffffffffffffffffffffffffffffffffffff169050816000806101000a81548173ffffffffffffffffffffffffffffffffffffffff021916908373ffffffffffffffffffffffffffffffffffffffff1602179055508173ffffffffffffffffffffffffffffffffffffffff168173ffffffffffffffffffffffffffffffffffffffff167f8be0079c531659141344cd1fd0a4f28419497f9722a3daafe3b4186f6b6457e060405160405180910390a35050565b6000600360009054906101000a900473ffffffffffffffffffffffffffffffffffffffff1673ffffffffffffffffffffffffffffffffffffffff1663581592f16040518163ffffffff1660e01b8152600401602060405180830381865afa15801562000285573d6000803e3d6000fd5b505050506040513d601f19601f82011682018060405250810190620002ab91906200031a565b905090565b600080fd5b600073ffffffffffffffffffffffffffffffffffffffff82169050919050565b6000620002e282620002b5565b9050919050565b620002f481620002d5565b81146200030057600080fd5b50565b6000815190506200031481620002e9565b92915050565b600060208284031215620003335762000332620002b0565b5b6000620003438482850162000303565b91505092915050565b600060ff82169050919050565b62000364816200034c565b81146200037057600080fd5b50565b600081519050620003848162000359565b92915050565b600060208284031215620003a357620003a2620002b0565b5b6000620003b38482850162000373565b91505092915050565b7f4e487b7100000000000000000000000000000000000000000000000000000000600052601160045260246000fd5b60008160011c9050919050565b6000808291508390505b60018511156200044a57808604811115620004225762000421620003bc565b5b6001851615620004325780820291505b80810290506200044285620003eb565b945062000402565b94509492505050565b60008262000465576001905062000538565b8162000475576000905062000538565b81600181146200048e57600281146200049957620004cf565b600191505062000538565b60ff841115620004ae57620004ad620003bc565b5b8360020a915084821115620004c857620004c7620003bc565b5b5062000538565b5060208310610133831016604e8410600b8410161715620005095782820a905083811115620005035762000502620003bc565b5b62000538565b620005188484846001620003f8565b92509050818404811115620005325762000531620003bc565b5b81810290505b9392505050565b6000819050919050565b600062000556826200053f565b915062000563836200034c565b9250620005927fffffffffffffffffffffffffffffffffffffffffffffffffffffffffffffffff848462000453565b905092915050565b6000620005a7826200053f565b9150620005b4836200053f565b9250828202620005c4816200053f565b91508282048414831517620005de57620005dd620003bc565b5b5092915050565b61647580620005f56000396000f3fe608060405234801561001057600080fd5b506004361061014d5760003560e01c80638af3c40e116100c3578063c611b2c61161007c578063c611b2c61461038e578063c6b09ee9146103be578063cf022c58146103f3578063ddca3f431461040f578063f2fde38b1461042d578063f415dfac146104495761014d565b80638af3c40e146102cc5780638da5cb5b146102ea578063966dae0e14610308578063a3d81bdf14610326578063a4601fa914610342578063b6d470fb146103725761014d565b80636b5aeb92116101155780636b5aeb92146102205780636d069be91461023c578063715018a61461026c57806372ab7e4014610276578063830066451461029257806385bb6e9d146102b05761014d565b806305993adf1461015257806318ac3eb914610170578063213b6b29146101a057806326c316a2146101d05780636a1db1bf14610204575b600080fd5b61015a610465565b6040516101679190614a65565b60405180910390f35b61018a60048036038101906101859190614ac7565b610502565b6040516101979190614c24565b60405180910390f35b6101ba60048036038101906101b59190614ac7565b61066a565b6040516101c79190614d5d565b60405180910390f35b6101ea60048036038101906101e59190614dab565b61093c565b6040516101fb959493929190614e1c565b60405180910390f35b61021e60048036038101906102199190614e6f565b610c10565b005b61023a60048036038101906102359190614ed4565b610c22565b005b61025660048036038101906102519190614ac7565b611153565b6040516102639190614a65565b60405180910390f35b610274611220565b005b610290600480360381019061028b9190614ac7565b611234565b005b61029a611280565b6040516102a79190614a65565b60405180910390f35b6102ca60048036038101906102c59190614f8a565b61130e565b005b6102d4611924565b6040516102e19190615017565b60405180910390f35b6102f26119bc565b6040516102ff9190615017565b60405180910390f35b6103106119e5565b60405161031d9190615017565b60405180910390f35b610340600480360381019061033b9190615032565b611a0b565b005b61035c600480360381019061035791906150d4565b61203c565b604051610369919061514a565b60405180910390f35b61038c60048036038101906103879190615165565b612212565b005b6103a860048036038101906103a391906150d4565b6123e1565b6040516103b591906151e0565b60405180910390f35b6103d860048036038101906103d391906150d4565b61248c565b6040516103ea969594939291906151fb565b60405180910390f35b61040d60048036038101906104089190614f8a565b612817565b005b610417612c51565b60405161042491906151e0565b60405180910390f35b61044760048036038101906104429190614ac7565b612c57565b005b610463600480360381019061045e919061525c565b612cda565b005b6060600360009054906101000a900473ffffffffffffffffffffffffffffffffffffffff1673ffffffffffffffffffffffffffffffffffffffff166305993adf6040518163ffffffff1660e01b8152600401600060405180830381865afa1580156104d4573d6000803e3d6000fd5b505050506040513d6000823e3d601f19601f820116820180604052508101906104fd919061546c565b905090565b6060600560008373ffffffffffffffffffffffffffffffffffffffff1673ffffffffffffffffffffffffffffffffffffffff168152602001908152602001600020805480602002602001604051908101604052809291908181526020016000905b8282101561065f57838290600052602060002090600502016040518060a0016040529081600082015481526020016001820160009054906101000a900473ffffffffffffffffffffffffffffffffffffffff1673ffffffffffffffffffffffffffffffffffffffff1673ffffffffffffffffffffffffffffffffffffffff1681526020016002820160009054906101000a900473ffffffffffffffffffffffffffffffffffffffff1673ffffffffffffffffffffffffffffffffffffffff1673ffffffffffffffffffffffffffffffffffffffff1681526020016003820154815260200160048201548152505081526020019060010190610563565b505050509050919050565b60606000600660008473ffffffffffffffffffffffffffffffffffffffff1673ffffffffffffffffffffffffffffffffffffffff16815260200190815260200160002090506000818054905067ffffffffffffffff8111156106cf576106ce615314565b5b60405190808252806020026020018201604052801561070857816020015b6106f56148ce565b8152602001906001900390816106ed5790505b50905060005b82805490508110156109315782818154811061072d5761072c6154b5565b5b90600052602060002090600b020160000154828281518110610752576107516154b5565b5b60200260200101516000018181525050828181548110610775576107746154b5565b5b90600052602060002090600b020160010160009054906101000a900473ffffffffffffffffffffffffffffffffffffffff168282815181106107ba576107b96154b5565b5b60200260200101516020019073ffffffffffffffffffffffffffffffffffffffff16908173ffffffffffffffffffffffffffffffffffffffff168152505082818154811061080b5761080a6154b5565b5b90600052602060002090600b020160020160009054906101000a900473ffffffffffffffffffffffffffffffffffffffff168282815181106108505761084f6154b5565b5b60200260200101516040019073ffffffffffffffffffffffffffffffffffffffff16908173ffffffffffffffffffffffffffffffffffffffff16815250508281815481106108a1576108a06154b5565b5b90600052602060002090600b0201600301548282815181106108c6576108c56154b5565b5b602002602001015160600181815250508281815481106108e9576108e86154b5565b5b90600052602060002090600b02016004015482828151811061090e5761090d6154b5565b5b60200260200101516080018181525050808061092990615513565b91505061070e565b508092505050919050565b600080600080600061094c6148ce565b6000600660008b73ffffffffffffffffffffffffffffffffffffffff1673ffffffffffffffffffffffffffffffffffffffff168152602001908152602001600020905060005b8180549050811015610bdf578973ffffffffffffffffffffffffffffffffffffffff168282815481106109c8576109c76154b5565b5b90600052602060002090600b020160020160009054906101000a900473ffffffffffffffffffffffffffffffffffffffff1673ffffffffffffffffffffffffffffffffffffffff16148015610a40575088828281548110610a2c57610a2b6154b5565b5b90600052602060002090600b020160000154145b15610bcc57818181548110610a5857610a576154b5565b5b90600052602060002090600b020160000154836000018181525050818181548110610a8657610a856154b5565b5b90600052602060002090600b020160010160009054906101000a900473ffffffffffffffffffffffffffffffffffffffff16836020019073ffffffffffffffffffffffffffffffffffffffff16908173ffffffffffffffffffffffffffffffffffffffff1681525050818181548110610b0257610b016154b5565b5b90600052602060002090600b020160020160009054906101000a900473ffffffffffffffffffffffffffffffffffffffff16836040019073ffffffffffffffffffffffffffffffffffffffff16908173ffffffffffffffffffffffffffffffffffffffff1681525050818181548110610b7e57610b7d6154b5565b5b90600052602060002090600b020160030154836060018181525050818181548110610bac57610bab6154b5565b5b90600052602060002090600b020160040154836080018181525050610bdf565b8080610bd790615513565b915050610992565b5081600001518260200151836040015184606001518560800151965096509650965096505050939792965093509350565b610c186135da565b8060048190555050565b610c2a613658565b60008511610c6d576040517f08c379a0000000000000000000000000000000000000000000000000000000008152600401610c64906155b8565b60405180910390fd5b610c79888888886136a7565b8015610cc857610c88336137f9565b610cc7576040517f08c379a0000000000000000000000000000000000000000000000000000000008152600401610cbe90615624565b60405180910390fd5b5b8215610ce157610cdc88888888888761388d565b611136565b6000805b600560008b73ffffffffffffffffffffffffffffffffffffffff1673ffffffffffffffffffffffffffffffffffffffff16815260200190815260200160002080549050811015610f4e578873ffffffffffffffffffffffffffffffffffffffff16600560008c73ffffffffffffffffffffffffffffffffffffffff1673ffffffffffffffffffffffffffffffffffffffff1681526020019081526020016000208281548110610d9757610d966154b5565b5b906000526020600020906005020160020160009054906101000a900473ffffffffffffffffffffffffffffffffffffffff1673ffffffffffffffffffffffffffffffffffffffff16148015610e4d575087600560008c73ffffffffffffffffffffffffffffffffffffffff1673ffffffffffffffffffffffffffffffffffffffff1681526020019081526020016000208281548110610e3957610e386154b5565b5b906000526020600020906005020160000154145b15610f3b5786600560008c73ffffffffffffffffffffffffffffffffffffffff1673ffffffffffffffffffffffffffffffffffffffff1681526020019081526020016000208281548110610ea457610ea36154b5565b5b90600052602060002090600502016003016000828254610ec49190615644565b9250508190555085600560008c73ffffffffffffffffffffffffffffffffffffffff1673ffffffffffffffffffffffffffffffffffffffff1681526020019081526020016000208281548110610f1d57610f1c6154b5565b5b90600052602060002090600502016004018190555060019150610f4e565b8080610f4690615513565b915050610ce5565b50610f86610f5a611924565b33600360009054906101000a900473ffffffffffffffffffffffffffffffffffffffff16600454613f86565b806110f557600560008a73ffffffffffffffffffffffffffffffffffffffff1673ffffffffffffffffffffffffffffffffffffffff1681526020019081526020016000206040518060a001604052808981526020018b73ffffffffffffffffffffffffffffffffffffffff1681526020018a73ffffffffffffffffffffffffffffffffffffffff1681526020018881526020018781525090806001815401808255809150506001900390600052602060002090600502016000909190919091506000820151816000015560208201518160010160006101000a81548173ffffffffffffffffffffffffffffffffffffffff021916908373ffffffffffffffffffffffffffffffffffffffff16021790555060408201518160020160006101000a81548173ffffffffffffffffffffffffffffffffffffffff021916908373ffffffffffffffffffffffffffffffffffffffff160217905550606082015181600301556080820151816004015550505b7f307cad54d612739002c1d3fb9e45beec3961cc4a645f5f6c66e2d60f8a08d83c87338a898960405161112c959493929190614e1c565b60405180910390a1505b611141878983614008565b611149614127565b5050505050505050565b6060600860008373ffffffffffffffffffffffffffffffffffffffff1673ffffffffffffffffffffffffffffffffffffffff16815260200190815260200160002080548060200260200160405190810160405280929190818152602001828054801561121457602002820191906000526020600020905b8160009054906101000a900473ffffffffffffffffffffffffffffffffffffffff1673ffffffffffffffffffffffffffffffffffffffff16815260200190600101908083116111ca575b50505050509050919050565b6112286135da565b6112326000614130565b565b61123c6135da565b80600360006101000a81548173ffffffffffffffffffffffffffffffffffffffff021916908373ffffffffffffffffffffffffffffffffffffffff16021790555050565b6060600280548060200260200160405190810160405280929190818152602001828054801561130457602002820191906000526020600020905b8160009054906101000a900473ffffffffffffffffffffffffffffffffffffffff1673ffffffffffffffffffffffffffffffffffffffff16815260200190600101908083116112ba575b5050505050905090565b611316613658565b801561136557611325336137f9565b611364576040517f08c379a000000000000000000000000000000000000000000000000000000000815260040161135b90615624565b60405180910390fd5b5b6000600660008773ffffffffffffffffffffffffffffffffffffffff1673ffffffffffffffffffffffffffffffffffffffff16815260200190815260200160002090506000805b82805490508110156118d2578673ffffffffffffffffffffffffffffffffffffffff168382815481106113e2576113e16154b5565b5b90600052602060002090600b020160020160009054906101000a900473ffffffffffffffffffffffffffffffffffffffff1673ffffffffffffffffffffffffffffffffffffffff1614801561145a575085838281548110611446576114456154b5565b5b90600052602060002090600b020160000154145b156118bf5784838281548110611473576114726154b5565b5b90600052602060002090600b02016004015410156114c6576040517f08c379a00000000000000000000000000000000000000000000000000000000081526004016114bd906156c4565b60405180910390fd5b428382815481106114da576114d96154b5565b5b90600052602060002090600b02016008016000878152602001908152602001600020541061153d576040517f08c379a000000000000000000000000000000000000000000000000000000000815260040161153490615730565b60405180910390fd5b8873ffffffffffffffffffffffffffffffffffffffff16838281548110611567576115666154b5565b5b90600052602060002090600b0201600a01600087815260200190815260200160002060009054906101000a900473ffffffffffffffffffffffffffffffffffffffff1673ffffffffffffffffffffffffffffffffffffffff1614611600576040517f08c379a00000000000000000000000000000000000000000000000000000000081526004016115f79061579c565b60405180910390fd5b600760008a73ffffffffffffffffffffffffffffffffffffffff1673ffffffffffffffffffffffffffffffffffffffff16815260200190815260200160002060008873ffffffffffffffffffffffffffffffffffffffff1673ffffffffffffffffffffffffffffffffffffffff16815260200190815260200160002060008781526020019081526020016000206000868152602001908152602001600020549150600082116116e4576040517f08c379a00000000000000000000000000000000000000000000000000000000081526004016116db90615808565b60405180910390fd5b600760008a73ffffffffffffffffffffffffffffffffffffffff1673ffffffffffffffffffffffffffffffffffffffff16815260200190815260200160002060008873ffffffffffffffffffffffffffffffffffffffff1673ffffffffffffffffffffffffffffffffffffffff1681526020019081526020016000206000878152602001908152602001600020600086815260200190815260200160002060009055600083828154811061179b5761179a6154b5565b5b90600052602060002090600b0201600501600087815260200190815260200160002081905550818382815481106117d5576117d46154b5565b5b90600052602060002090600b020160030160008282546117f59190615828565b925050819055506000838281548110611811576118106154b5565b5b90600052602060002090600b02016009016000878152602001908152602001600020549050611848611841611924565b8a836141f4565b8773ffffffffffffffffffffffffffffffffffffffff1663f242432a8a8c8a876040518563ffffffff1660e01b81526004016118879493929190615893565b600060405180830381600087803b1580156118a157600080fd5b505af11580156118b5573d6000803e3d6000fd5b50505050506118d2565b80806118ca90615513565b9150506113ac565b507ffe295173675471be3a6be105179cfac18a83ae8cf6ec5054fcd9ecbcc5457ef9888787878560405161190a9594939291906158eb565b60405180910390a1505061191c614127565b505050505050565b6000600360009054906101000a900473ffffffffffffffffffffffffffffffffffffffff1673ffffffffffffffffffffffffffffffffffffffff1663581592f16040518163ffffffff1660e01b8152600401602060405180830381865afa158015611993573d6000803e3d6000fd5b505050506040513d601f19601f820116820180604052508101906119b7919061593e565b905090565b60008060009054906101000a900473ffffffffffffffffffffffffffffffffffffffff16905090565b600360009054906101000a900473ffffffffffffffffffffffffffffffffffffffff1681565b611a13613658565b8015611a6257611a22336137f9565b611a61576040517f08c379a0000000000000000000000000000000000000000000000000000000008152600401611a5890615624565b60405180910390fd5b5b8315611e38576000611a763388888761203c565b90506000611a868989898861248c565b9550505050505081158015611ac75750600073ffffffffffffffffffffffffffffffffffffffff168173ffffffffffffffffffffffffffffffffffffffff16145b611b06576040517f08c379a0000000000000000000000000000000000000000000000000000000008152600401611afd906159b7565b60405180910390fd5b60005b600660008b73ffffffffffffffffffffffffffffffffffffffff1673ffffffffffffffffffffffffffffffffffffffff16815260200190815260200160002080549050811015611df3578873ffffffffffffffffffffffffffffffffffffffff16600660008c73ffffffffffffffffffffffffffffffffffffffff1673ffffffffffffffffffffffffffffffffffffffff1681526020019081526020016000208281548110611bbb57611bba6154b5565b5b90600052602060002090600b020160020160009054906101000a900473ffffffffffffffffffffffffffffffffffffffff1673ffffffffffffffffffffffffffffffffffffffff16148015611c71575087600660008c73ffffffffffffffffffffffffffffffffffffffff1673ffffffffffffffffffffffffffffffffffffffff1681526020019081526020016000208281548110611c5d57611c5c6154b5565b5b90600052602060002090600b020160000154145b15611de057600660008b73ffffffffffffffffffffffffffffffffffffffff1673ffffffffffffffffffffffffffffffffffffffff1681526020019081526020016000208181548110611cc757611cc66154b5565b5b90600052602060002090600b0201600501600087815260200190815260200160002054600660008c73ffffffffffffffffffffffffffffffffffffffff1673ffffffffffffffffffffffffffffffffffffffff1681526020019081526020016000208281548110611d3b57611d3a6154b5565b5b90600052602060002090600b02016003016000828254611d5b9190615828565b925050819055506000600660008c73ffffffffffffffffffffffffffffffffffffffff1673ffffffffffffffffffffffffffffffffffffffff1681526020019081526020016000208281548110611db557611db46154b5565b5b90600052602060002090600b0201600501600088815260200190815260200160002081905550611df3565b8080611deb90615513565b915050611b09565b507f67104f3a9b94a13c56d394c14076e2399304c60d2bee428cbe84863bd330d6af888a8988604051611e2994939291906159d7565b60405180910390a1505061202b565b6000600560008973ffffffffffffffffffffffffffffffffffffffff1673ffffffffffffffffffffffffffffffffffffffff168152602001908152602001600020905060005b8180549050811015611feb578773ffffffffffffffffffffffffffffffffffffffff16828281548110611eb457611eb36154b5565b5b906000526020600020906005020160020160009054906101000a900473ffffffffffffffffffffffffffffffffffffffff1673ffffffffffffffffffffffffffffffffffffffff16148015611f2c575086828281548110611f1857611f176154b5565b5b906000526020600020906005020160000154145b15611fd8576000828281548110611f4657611f456154b5565b5b90600052602060002090600502016003015411611f98576040517f08c379a0000000000000000000000000000000000000000000000000000000008152600401611f8f90615a68565b60405180910390fd5b83828281548110611fac57611fab6154b5565b5b90600052602060002090600502016003016000828254611fcc9190615828565b92505081905550611feb565b8080611fe390615513565b915050611e7e565b507fdf075e97cea3587d82974c12c97b97faad6a0fcadc4e07142136505f54f8be828789888660405161202194939291906159d7565b60405180910390a1505b612033614127565b50505050505050565b600080600660008773ffffffffffffffffffffffffffffffffffffffff1673ffffffffffffffffffffffffffffffffffffffff168152602001908152602001600020905060005b8180549050811015612203578573ffffffffffffffffffffffffffffffffffffffff168282815481106120b9576120b86154b5565b5b90600052602060002090600b020160020160009054906101000a900473ffffffffffffffffffffffffffffffffffffffff1673ffffffffffffffffffffffffffffffffffffffff1614801561213157508482828154811061211d5761211c6154b5565b5b90600052602060002090600b020160000154145b156121f057818181548110612149576121486154b5565b5b90600052602060002090600b02016004015484111561219d576040517f08c379a000000000000000000000000000000000000000000000000000000000815260040161219490615ad4565b60405180910390fd5b8181815481106121b0576121af6154b5565b5b90600052602060002090600b02016008016000858152602001908152602001600020544210156121e55760019250505061220a565b60009250505061220a565b80806121fb90615513565b915050612083565b5060009150505b949350505050565b801561226157612221336137f9565b612260576040517f08c379a000000000000000000000000000000000000000000000000000000000815260040161225790615624565b60405180910390fd5b5b6000600560008773ffffffffffffffffffffffffffffffffffffffff1673ffffffffffffffffffffffffffffffffffffffff168152602001908152602001600020905060005b818054905081101561239b578373ffffffffffffffffffffffffffffffffffffffff168282815481106122dd576122dc6154b5565b5b906000526020600020906005020160020160009054906101000a900473ffffffffffffffffffffffffffffffffffffffff1673ffffffffffffffffffffffffffffffffffffffff16148015612355575085828281548110612341576123406154b5565b5b906000526020600020906005020160000154145b15612388578482828154811061236e5761236d6154b5565b5b90600052602060002090600502016004018190555061239b565b808061239390615513565b9150506122a7565b507f04eecd91127013bc902e735b247ba0ae90395fa531361d369bac351caffb5da7868487876040516123d194939291906159d7565b60405180910390a1505050505050565b6000600760008673ffffffffffffffffffffffffffffffffffffffff1673ffffffffffffffffffffffffffffffffffffffff16815260200190815260200160002060008573ffffffffffffffffffffffffffffffffffffffff1673ffffffffffffffffffffffffffffffffffffffff16815260200190815260200160002060008481526020019081526020016000206000838152602001908152602001600020549050949350505050565b6000806000806000806000600660008c73ffffffffffffffffffffffffffffffffffffffff1673ffffffffffffffffffffffffffffffffffffffff16815260200190815260200160002090506124e0614929565b60005b82805490508110156127dd578b73ffffffffffffffffffffffffffffffffffffffff16838281548110612519576125186154b5565b5b90600052602060002090600b020160020160009054906101000a900473ffffffffffffffffffffffffffffffffffffffff1673ffffffffffffffffffffffffffffffffffffffff1614801561259157508a83828154811061257d5761257c6154b5565b5b90600052602060002090600b020160000154145b156127ca578281815481106125a9576125a86154b5565b5b90600052602060002090600b0201600401548a11156125fd576040517f08c379a00000000000000000000000000000000000000000000000000000000081526004016125f490615ad4565b60405180910390fd5b8281815481106126105761260f6154b5565b5b90600052602060002090600b020160050160008b81526020019081526020016000205482600001818152505082818154811061264f5761264e6154b5565b5b90600052602060002090600b020160060160008b81526020019081526020016000205482602001818152505082818154811061268e5761268d6154b5565b5b90600052602060002090600b020160070160008b8152602001908152602001600020548260400181815250508281815481106126cd576126cc6154b5565b5b90600052602060002090600b020160080160008b81526020019081526020016000205482606001818152505082818154811061270c5761270b6154b5565b5b90600052602060002090600b020160090160008b81526020019081526020016000205482608001818152505082818154811061274b5761274a6154b5565b5b90600052602060002090600b0201600a0160008b815260200190815260200160002060009054906101000a900473ffffffffffffffffffffffffffffffffffffffff168260a0019073ffffffffffffffffffffffffffffffffffffffff16908173ffffffffffffffffffffffffffffffffffffffff16815250506127dd565b80806127d590615513565b9150506124e3565b50806000015181602001518260400151836060015184608001518560a0015197509750975097509750975050509499939850945094509450565b61281f613658565b6000600560008673ffffffffffffffffffffffffffffffffffffffff1673ffffffffffffffffffffffffffffffffffffffff168152602001908152602001600020905081156128bb57612871336137f9565b6128b0576040517f08c379a00000000000000000000000000000000000000000000000000000000081526004016128a790615624565b60405180910390fd5b6128ba3388614273565b5b600080600090505b8280549050811015612bff578773ffffffffffffffffffffffffffffffffffffffff168382815481106128f9576128f86154b5565b5b906000526020600020906005020160020160009054906101000a900473ffffffffffffffffffffffffffffffffffffffff1673ffffffffffffffffffffffffffffffffffffffff1614801561297157508583828154811061295d5761295c6154b5565b5b906000526020600020906005020160000154145b15612bec573373ffffffffffffffffffffffffffffffffffffffff168382815481106129a05761299f6154b5565b5b906000526020600020906005020160010160009054906101000a900473ffffffffffffffffffffffffffffffffffffffff1673ffffffffffffffffffffffffffffffffffffffff1603612a28576040517f08c379a0000000000000000000000000000000000000000000000000000000008152600401612a1f90615b40565b60405180910390fd5b6000838281548110612a3d57612a3c6154b5565b5b90600052602060002090600502016003015411612a8f576040517f08c379a0000000000000000000000000000000000000000000000000000000008152600401612a8690615bac565b60405180910390fd5b84838281548110612aa357612aa26154b5565b5b9060005260206000209060050201600301541015612af6576040517f08c379a0000000000000000000000000000000000000000000000000000000008152600401612aed90615c18565b60405180910390fd5b84838281548110612b0a57612b096154b5565b5b906000526020600020906005020160040154612b269190615c38565b915084838281548110612b3c57612b3b6154b5565b5b90600052602060002090600502016003016000828254612b5c9190615828565b92505081905550612b76612b6e611924565b338985613f86565b8773ffffffffffffffffffffffffffffffffffffffff1663f242432a888b89896040518563ffffffff1660e01b8152600401612bb59493929190615893565b600060405180830381600087803b158015612bcf57600080fd5b505af1158015612be3573d6000803e3d6000fd5b50505050612bff565b8080612bf790615513565b9150506128c3565b507ffea90976318dc167aabe2786e507167f352220d27bd39ca54aba4af02793a2848888878785604051612c379594939291906158eb565b60405180910390a15050612c49614127565b505050505050565b60045481565b612c5f6135da565b600073ffffffffffffffffffffffffffffffffffffffff168173ffffffffffffffffffffffffffffffffffffffff1603612cce576040517f08c379a0000000000000000000000000000000000000000000000000000000008152600401612cc590615cec565b60405180910390fd5b612cd781614130565b50565b612ce2613658565b8015612d3b57612cf1336137f9565b612d30576040517f08c379a0000000000000000000000000000000000000000000000000000000008152600401612d2790615624565b60405180910390fd5b612d3a3388614273565b5b6000600660008773ffffffffffffffffffffffffffffffffffffffff1673ffffffffffffffffffffffffffffffffffffffff168152602001908152602001600020905060005b8180549050811015613588578773ffffffffffffffffffffffffffffffffffffffff16828281548110612db757612db66154b5565b5b90600052602060002090600b020160020160009054906101000a900473ffffffffffffffffffffffffffffffffffffffff1673ffffffffffffffffffffffffffffffffffffffff16148015612e2f575085828281548110612e1b57612e1a6154b5565b5b90600052602060002090600b020160000154145b156135755784828281548110612e4857612e476154b5565b5b90600052602060002090600b0201600401541015612e9b576040517f08c379a0000000000000000000000000000000000000000000000000000000008152600401612e9290615d58565b60405180910390fd5b3373ffffffffffffffffffffffffffffffffffffffff16828281548110612ec557612ec46154b5565b5b90600052602060002090600b020160010160009054906101000a900473ffffffffffffffffffffffffffffffffffffffff1673ffffffffffffffffffffffffffffffffffffffff1603612f4d576040517f08c379a0000000000000000000000000000000000000000000000000000000008152600401612f4490615dc4565b60405180910390fd5b6000828281548110612f6257612f616154b5565b5b90600052602060002090600b020160050160008781526020019081526020016000205411612fc5576040517f08c379a0000000000000000000000000000000000000000000000000000000008152600401612fbc90615bac565b60405180910390fd5b42828281548110612fd957612fd86154b5565b5b90600052602060002090600b0201600801600087815260200190815260200160002054101561303d576040517f08c379a000000000000000000000000000000000000000000000000000000000815260040161303490615e30565b60405180910390fd5b6000828281548110613052576130516154b5565b5b90600052602060002090600b02016007016000878152602001908152602001600020540361313d57600082828154811061308f5761308e6154b5565b5b90600052602060002090600b02016005016000878152602001908152602001600020548383815481106130c5576130c46154b5565b5b90600052602060002090600b02016006016000888152602001908152602001600020546130f29190615c38565b905080851015613137576040517f08c379a000000000000000000000000000000000000000000000000000000000815260040161312e90615e9c565b60405180910390fd5b506131bb565b6000828281548110613152576131516154b5565b5b90600052602060002090600b020160090160008781526020019081526020016000205490508085116131b9576040517f08c379a00000000000000000000000000000000000000000000000000000000081526004016131b090615f08565b60405180910390fd5b505b60006131c5611924565b90506131d381333088613f86565b60008383815481106131e8576131e76154b5565b5b90600052602060002090600b0201600701600088815260200190815260200160002054111561339e5760076000848481548110613228576132276154b5565b5b90600052602060002090600b0201600a01600089815260200190815260200160002060009054906101000a900473ffffffffffffffffffffffffffffffffffffffff1673ffffffffffffffffffffffffffffffffffffffff1673ffffffffffffffffffffffffffffffffffffffff16815260200190815260200160002060008a73ffffffffffffffffffffffffffffffffffffffff1673ffffffffffffffffffffffffffffffffffffffff168152602001908152602001600020600088815260200190815260200160002060008781526020019081526020016000206000905561339d8184848154811061331f5761331e6154b5565b5b90600052602060002090600b0201600a01600089815260200190815260200160002060009054906101000a900473ffffffffffffffffffffffffffffffffffffffff16858581548110613375576133746154b5565b5b90600052602060002090600b020160090160008a8152602001908152602001600020546141f4565b5b8282815481106133b1576133b06154b5565b5b90600052602060002090600b0201600701600087815260200190815260200160002060008154809291906133e490615513565b9190505550848383815481106133fd576133fc6154b5565b5b90600052602060002090600b020160090160008881526020019081526020016000208190555089838381548110613437576134366154b5565b5b90600052602060002090600b0201600a01600088815260200190815260200160002060006101000a81548173ffffffffffffffffffffffffffffffffffffffff021916908373ffffffffffffffffffffffffffffffffffffffff1602179055508282815481106134aa576134a96154b5565b5b90600052602060002090600b0201600501600087815260200190815260200160002054600760008c73ffffffffffffffffffffffffffffffffffffffff1673ffffffffffffffffffffffffffffffffffffffff16815260200190815260200160002060008b73ffffffffffffffffffffffffffffffffffffffff1673ffffffffffffffffffffffffffffffffffffffff168152602001908152602001600020600089815260200190815260200160002060008881526020019081526020016000208190555050613588565b808061358090615513565b915050612d81565b507fa3047e96219c80ddde81c30b3e88a85038423f604f663a4b4f8d0bb9c48fc0c588888787876040516135c09594939291906158eb565b60405180910390a1506135d1614127565b50505050505050565b6135e26143ff565b73ffffffffffffffffffffffffffffffffffffffff166136006119bc565b73ffffffffffffffffffffffffffffffffffffffff1614613656576040517f08c379a000000000000000000000000000000000000000000000000000000000815260040161364d90615f74565b60405180910390fd5b565b60026001540361369d576040517f08c379a000000000000000000000000000000000000000000000000000000000815260040161369490615fe0565b60405180910390fd5b6002600181905550565b600083905060008173ffffffffffffffffffffffffffffffffffffffff1662fdd58e87866040518363ffffffff1660e01b81526004016136e8929190616000565b602060405180830381865afa158015613705573d6000803e3d6000fd5b505050506040513d601f19601f82011682018060405250810190613729919061603e565b90506000811161376e576040517f08c379a0000000000000000000000000000000000000000000000000000000008152600401613765906160b7565b60405180910390fd5b600061377b878787614407565b9050600061378a88888861093c565b509350505050600085828461379f9190615644565b6137a99190615644565b9050838111156137ee576040517f08c379a00000000000000000000000000000000000000000000000000000000081526004016137e590616123565b60405180910390fd5b505050505050505050565b600080613804610465565b90506000805b82518160ff161015613882578473ffffffffffffffffffffffffffffffffffffffff16838260ff1681518110613843576138426154b5565b5b602002602001015173ffffffffffffffffffffffffffffffffffffffff160361386f5760019150613882565b808061387a90616150565b91505061380a565b508092505050919050565b6000805b600660008973ffffffffffffffffffffffffffffffffffffffff1673ffffffffffffffffffffffffffffffffffffffff16815260200190815260200160002080549050811015613ce6578673ffffffffffffffffffffffffffffffffffffffff16600660008a73ffffffffffffffffffffffffffffffffffffffff1673ffffffffffffffffffffffffffffffffffffffff1681526020019081526020016000208281548110613943576139426154b5565b5b90600052602060002090600b020160020160009054906101000a900473ffffffffffffffffffffffffffffffffffffffff1673ffffffffffffffffffffffffffffffffffffffff161480156139f9575085600660008a73ffffffffffffffffffffffffffffffffffffffff1673ffffffffffffffffffffffffffffffffffffffff16815260200190815260200160002082815481106139e5576139e46154b5565b5b90600052602060002090600b020160000154145b15613cd35784600660008a73ffffffffffffffffffffffffffffffffffffffff1673ffffffffffffffffffffffffffffffffffffffff1681526020019081526020016000208281548110613a5057613a4f6154b5565b5b90600052602060002090600b02016003016000828254613a709190615644565b925050819055506000600660008a73ffffffffffffffffffffffffffffffffffffffff1673ffffffffffffffffffffffffffffffffffffffff1681526020019081526020016000208281548110613aca57613ac96154b5565b5b90600052602060002090600b020160040154905085600660008b73ffffffffffffffffffffffffffffffffffffffff1673ffffffffffffffffffffffffffffffffffffffff1681526020019081526020016000208381548110613b3057613b2f6154b5565b5b90600052602060002090600b020160050160008381526020019081526020016000208190555084600660008b73ffffffffffffffffffffffffffffffffffffffff1673ffffffffffffffffffffffffffffffffffffffff1681526020019081526020016000208381548110613ba857613ba76154b5565b5b90600052602060002090600b02016006016000838152602001908152602001600020819055508342613bda9190615644565b600660008b73ffffffffffffffffffffffffffffffffffffffff1673ffffffffffffffffffffffffffffffffffffffff1681526020019081526020016000208381548110613c2b57613c2a6154b5565b5b90600052602060002090600b0201600801600083815260200190815260200160002081905550600660008a73ffffffffffffffffffffffffffffffffffffffff1673ffffffffffffffffffffffffffffffffffffffff1681526020019081526020016000208281548110613ca257613ca16154b5565b5b90600052602060002090600b02016004016000815480929190613cc490615513565b91905055506001925050613ce6565b8080613cde90615513565b915050613891565b50613d1e613cf2611924565b33600360009054906101000a900473ffffffffffffffffffffffffffffffffffffffff16600454613f86565b80613f3c57600660008873ffffffffffffffffffffffffffffffffffffffff1673ffffffffffffffffffffffffffffffffffffffff168152602001908152602001600020600181600181540180825580915050039060005260206000209050506000600660008973ffffffffffffffffffffffffffffffffffffffff1673ffffffffffffffffffffffffffffffffffffffff1681526020019081526020016000206001600660008b73ffffffffffffffffffffffffffffffffffffffff1673ffffffffffffffffffffffffffffffffffffffff16815260200190815260200160002080549050613e0e9190615828565b81548110613e1f57613e1e6154b5565b5b90600052602060002090600b02019050858160000181905550878160010160006101000a81548173ffffffffffffffffffffffffffffffffffffffff021916908373ffffffffffffffffffffffffffffffffffffffff160217905550868160020160006101000a81548173ffffffffffffffffffffffffffffffffffffffff021916908373ffffffffffffffffffffffffffffffffffffffff160217905550848160030181905550806004016000815480929190613edc90615513565b9190505550848160050160008081526020019081526020016000208190555083816006016000808152602001908152602001600020819055508242613f219190615644565b81600801600080815260200190815260200160002081905550505b7f0e45a2babb6779d6e254ede6c298fdc197bd09963869c5ad95a1a5ca2e6e29c3853388878787604051613f7596959493929190616179565b60405180910390a150505050505050565b614002848573ffffffffffffffffffffffffffffffffffffffff166323b872dd868686604051602401613fbb939291906161da565b604051602081830303815290604052915060e01b6020820180517bffffffffffffffffffffffffffffffffffffffffffffffffffffffff8381831617835250505050614636565b50505050565b6000805b6002805490508110156140a6578473ffffffffffffffffffffffffffffffffffffffff1660028281548110614044576140436154b5565b5b9060005260206000200160009054906101000a900473ffffffffffffffffffffffffffffffffffffffff1673ffffffffffffffffffffffffffffffffffffffff160361409357600191506140a6565b808061409e90615513565b91505061400c565b5080614110576002849080600181540180825580915050600190039060005260206000200160009091909190916101000a81548173ffffffffffffffffffffffffffffffffffffffff021916908373ffffffffffffffffffffffffffffffffffffffff1602179055505b8115614121576141203384614273565b5b50505050565b60018081905550565b60008060009054906101000a900473ffffffffffffffffffffffffffffffffffffffff169050816000806101000a81548173ffffffffffffffffffffffffffffffffffffffff021916908373ffffffffffffffffffffffffffffffffffffffff1602179055508173ffffffffffffffffffffffffffffffffffffffff168173ffffffffffffffffffffffffffffffffffffffff167f8be0079c531659141344cd1fd0a4f28419497f9722a3daafe3b4186f6b6457e060405160405180910390a35050565b61426e838473ffffffffffffffffffffffffffffffffffffffff1663a9059cbb8585604051602401614227929190616000565b604051602081830303815290604052915060e01b6020820180517bffffffffffffffffffffffffffffffffffffffffffffffffffffffff8381831617835250505050614636565b505050565b600080600860008573ffffffffffffffffffffffffffffffffffffffff1673ffffffffffffffffffffffffffffffffffffffff168152602001908152602001600020905060005b8180549050811015614352578373ffffffffffffffffffffffffffffffffffffffff168282815481106142f0576142ef6154b5565b5b9060005260206000200160009054906101000a900473ffffffffffffffffffffffffffffffffffffffff1673ffffffffffffffffffffffffffffffffffffffff160361433f5760019250614352565b808061434a90615513565b9150506142ba565b50816143f957600860008573ffffffffffffffffffffffffffffffffffffffff1673ffffffffffffffffffffffffffffffffffffffff168152602001908152602001600020839080600181540180825580915050600190039060005260206000200160009091909190916101000a81548173ffffffffffffffffffffffffffffffffffffffff021916908373ffffffffffffffffffffffffffffffffffffffff1602179055505b50505050565b600033905090565b6000806000600560008773ffffffffffffffffffffffffffffffffffffffff1673ffffffffffffffffffffffffffffffffffffffff168152602001908152602001600020805480602002602001604051908101604052809291908181526020016000905b8282101561456757838290600052602060002090600502016040518060a0016040529081600082015481526020016001820160009054906101000a900473ffffffffffffffffffffffffffffffffffffffff1673ffffffffffffffffffffffffffffffffffffffff1673ffffffffffffffffffffffffffffffffffffffff1681526020016002820160009054906101000a900473ffffffffffffffffffffffffffffffffffffffff1673ffffffffffffffffffffffffffffffffffffffff1673ffffffffffffffffffffffffffffffffffffffff168152602001600382015481526020016004820154815250508152602001906001019061446b565b50505050905060005b8151811015614629578573ffffffffffffffffffffffffffffffffffffffff168282815181106145a3576145a26154b5565b5b60200260200101516040015173ffffffffffffffffffffffffffffffffffffffff161480156145ef5750848282815181106145e1576145e06154b5565b5b602002602001015160000151145b1561461657818181518110614607576146066154b5565b5b60200260200101516060015192505b808061462190615513565b915050614570565b5081925050509392505050565b6000614661828473ffffffffffffffffffffffffffffffffffffffff166146cd90919063ffffffff16565b905060008151141580156146865750808060200190518101906146849190616226565b155b156146c857826040517f5274afe70000000000000000000000000000000000000000000000000000000081526004016146bf9190615017565b60405180910390fd5b505050565b6060614711838360006040518060400160405280601e81526020017f416464726573733a206c6f772d6c6576656c2063616c6c206661696c65640000815250614719565b905092915050565b60608247101561475e576040517f08c379a0000000000000000000000000000000000000000000000000000000008152600401614755906162c5565b60405180910390fd5b6000808673ffffffffffffffffffffffffffffffffffffffff1685876040516147879190616356565b60006040518083038185875af1925050503d80600081146147c4576040519150601f19603f3d011682016040523d82523d6000602084013e6147c9565b606091505b50915091506147da878383876147e6565b92505050949350505050565b60608315614848576000835103614840576148008561485b565b61483f576040517f08c379a0000000000000000000000000000000000000000000000000000000008152600401614836906163b9565b60405180910390fd5b5b829050614853565b614852838361487e565b5b949350505050565b6000808273ffffffffffffffffffffffffffffffffffffffff163b119050919050565b6000825111156148915781518083602001fd5b806040517f08c379a00000000000000000000000000000000000000000000000000000000081526004016148c5919061641d565b60405180910390fd5b6040518060a0016040528060008152602001600073ffffffffffffffffffffffffffffffffffffffff168152602001600073ffffffffffffffffffffffffffffffffffffffff16815260200160008152602001600081525090565b6040518060c001604052806000815260200160008152602001600081526020016000815260200160008152602001600073ffffffffffffffffffffffffffffffffffffffff1681525090565b600081519050919050565b600082825260208201905092915050565b6000819050602082019050919050565b600073ffffffffffffffffffffffffffffffffffffffff82169050919050565b60006149cc826149a1565b9050919050565b6149dc816149c1565b82525050565b60006149ee83836149d3565b60208301905092915050565b6000602082019050919050565b6000614a1282614975565b614a1c8185614980565b9350614a2783614991565b8060005b83811015614a58578151614a3f88826149e2565b9750614a4a836149fa565b925050600181019050614a2b565b5085935050505092915050565b60006020820190508181036000830152614a7f8184614a07565b905092915050565b6000604051905090565b600080fd5b600080fd5b614aa4816149c1565b8114614aaf57600080fd5b50565b600081359050614ac181614a9b565b92915050565b600060208284031215614add57614adc614a91565b5b6000614aeb84828501614ab2565b91505092915050565b600081519050919050565b600082825260208201905092915050565b6000819050602082019050919050565b6000819050919050565b614b3381614b20565b82525050565b60a082016000820151614b4f6000850182614b2a565b506020820151614b6260208501826149d3565b506040820151614b7560408501826149d3565b506060820151614b886060850182614b2a565b506080820151614b9b6080850182614b2a565b50505050565b6000614bad8383614b39565b60a08301905092915050565b6000602082019050919050565b6000614bd182614af4565b614bdb8185614aff565b9350614be683614b10565b8060005b83811015614c17578151614bfe8882614ba1565b9750614c0983614bb9565b925050600181019050614bea565b5085935050505092915050565b60006020820190508181036000830152614c3e8184614bc6565b905092915050565b600081519050919050565b600082825260208201905092915050565b6000819050602082019050919050565b60a082016000820151614c886000850182614b2a565b506020820151614c9b60208501826149d3565b506040820151614cae60408501826149d3565b506060820151614cc16060850182614b2a565b506080820151614cd46080850182614b2a565b50505050565b6000614ce68383614c72565b60a08301905092915050565b6000602082019050919050565b6000614d0a82614c46565b614d148185614c51565b9350614d1f83614c62565b8060005b83811015614d50578151614d378882614cda565b9750614d4283614cf2565b925050600181019050614d23565b5085935050505092915050565b60006020820190508181036000830152614d778184614cff565b905092915050565b614d8881614b20565b8114614d9357600080fd5b50565b600081359050614da581614d7f565b92915050565b600080600060608486031215614dc457614dc3614a91565b5b6000614dd286828701614ab2565b9350506020614de386828701614ab2565b9250506040614df486828701614d96565b9150509250925092565b614e0781614b20565b82525050565b614e16816149c1565b82525050565b600060a082019050614e316000830188614dfe565b614e3e6020830187614e0d565b614e4b6040830186614e0d565b614e586060830185614dfe565b614e656080830184614dfe565b9695505050505050565b600060208284031215614e8557614e84614a91565b5b6000614e9384828501614d96565b91505092915050565b60008115159050919050565b614eb181614e9c565b8114614ebc57600080fd5b50565b600081359050614ece81614ea8565b92915050565b600080600080600080600080610100898b031215614ef557614ef4614a91565b5b6000614f038b828c01614ab2565b9850506020614f148b828c01614ab2565b9750506040614f258b828c01614d96565b9650506060614f368b828c01614d96565b9550506080614f478b828c01614d96565b94505060a0614f588b828c01614ebf565b93505060c0614f698b828c01614d96565b92505060e0614f7a8b828c01614ebf565b9150509295985092959890939650565b60008060008060008060c08789031215614fa757614fa6614a91565b5b6000614fb589828a01614ab2565b9650506020614fc689828a01614ab2565b9550506040614fd789828a01614ab2565b9450506060614fe889828a01614d96565b9350506080614ff989828a01614d96565b92505060a061500a89828a01614ebf565b9150509295509295509295565b600060208201905061502c6000830184614e0d565b92915050565b600080600080600080600060e0888a03121561505157615050614a91565b5b600061505f8a828b01614ab2565b97505060206150708a828b01614ab2565b96505060406150818a828b01614d96565b95505060606150928a828b01614ebf565b94505060806150a38a828b01614d96565b93505060a06150b48a828b01614d96565b92505060c06150c58a828b01614ebf565b91505092959891949750929550565b600080600080608085870312156150ee576150ed614a91565b5b60006150fc87828801614ab2565b945050602061510d87828801614ab2565b935050604061511e87828801614d96565b925050606061512f87828801614d96565b91505092959194509250565b61514481614e9c565b82525050565b600060208201905061515f600083018461513b565b92915050565b600080600080600060a0868803121561518157615180614a91565b5b600061518f88828901614ab2565b95505060206151a088828901614d96565b94505060406151b188828901614d96565b93505060606151c288828901614ab2565b92505060806151d388828901614ebf565b9150509295509295909350565b60006020820190506151f56000830184614dfe565b92915050565b600060c0820190506152106000830189614dfe565b61521d6020830188614dfe565b61522a6040830187614dfe565b6152376060830186614dfe565b6152446080830185614dfe565b61525160a0830184614e0d565b979650505050505050565b600080600080600080600060e0888a03121561527b5761527a614a91565b5b60006152898a828b01614ab2565b975050602061529a8a828b01614ab2565b96505060406152ab8a828b01614ab2565b95505060606152bc8a828b01614d96565b94505060806152cd8a828b01614d96565b93505060a06152de8a828b01614d96565b92505060c06152ef8a828b01614ebf565b91505092959891949750929550565b600080fd5b6000601f19601f8301169050919050565b7f4e487b7100000000000000000000000000000000000000000000000000000000600052604160045260246000fd5b61534c82615303565b810181811067ffffffffffffffff8211171561536b5761536a615314565b5b80604052505050565b600061537e614a87565b905061538a8282615343565b919050565b600067ffffffffffffffff8211156153aa576153a9615314565b5b602082029050602081019050919050565b600080fd5b6000815190506153cf81614a9b565b92915050565b60006153e86153e38461538f565b615374565b9050808382526020820190506020840283018581111561540b5761540a6153bb565b5b835b81811015615434578061542088826153c0565b84526020840193505060208101905061540d565b5050509392505050565b600082601f830112615453576154526152fe565b5b81516154638482602086016153d5565b91505092915050565b60006020828403121561548257615481614a91565b5b600082015167ffffffffffffffff8111156154a05761549f614a96565b5b6154ac8482850161543e565b91505092915050565b7f4e487b7100000000000000000000000000000000000000000000000000000000600052603260045260246000fd5b7f4e487b7100000000000000000000000000000000000000000000000000000000600052601160045260246000fd5b600061551e82614b20565b91507fffffffffffffffffffffffffffffffffffffffffffffffffffffffffffffffff82036155505761554f6154e4565b5b600182019050919050565b600082825260208201905092915050565b7f416d6f756e74206d7573742062652067726561746572207468616e207a65726f600082015250565b60006155a260208361555b565b91506155ad8261556c565b602082019050919050565b600060208201905081810360008301526155d181615595565b9050919050565b7f52656c61796572206e6f742077686974656c6973746564000000000000000000600082015250565b600061560e60178361555b565b9150615619826155d8565b602082019050919050565b6000602082019050818103600083015261563d81615601565b9050919050565b600061564f82614b20565b915061565a83614b20565b9250828201905080821115615672576156716154e4565b5b92915050565b7f496e76616c696420696e64657820666f7220636c61696d000000000000000000600082015250565b60006156ae60178361555b565b91506156b982615678565b602082019050919050565b600060208201905081810360008301526156dd816156a1565b9050919050565b7f41756374696f6e206973207374696c6c206f70656e0000000000000000000000600082015250565b600061571a60158361555b565b9150615725826156e4565b602082019050919050565b600060208201905081810360008301526157498161570d565b9050919050565b7f4e6f7420612063757272656e7420626964646572000000000000000000000000600082015250565b600061578660148361555b565b915061579182615750565b602082019050919050565b600060208201905081810360008301526157b581615779565b9050919050565b7f4e6f204e465420746f20636c61696d0000000000000000000000000000000000600082015250565b60006157f2600f8361555b565b91506157fd826157bc565b602082019050919050565b60006020820190508181036000830152615821816157e5565b9050919050565b600061583382614b20565b915061583e83614b20565b9250828203905081811115615856576158556154e4565b5b92915050565b600082825260208201905092915050565b50565b600061587d60008361585c565b91506158888261586d565b600082019050919050565b600060a0820190506158a86000830187614e0d565b6158b56020830186614e0d565b6158c26040830185614dfe565b6158cf6060830184614dfe565b81810360808301526158e081615870565b905095945050505050565b600060a0820190506159006000830188614e0d565b61590d6020830187614e0d565b61591a6040830186614dfe565b6159276060830185614dfe565b6159346080830184614dfe565b9695505050505050565b60006020828403121561595457615953614a91565b5b6000615962848285016153c0565b91505092915050565b7f596f752063616e27742063616e63656c206c697374696e670000000000000000600082015250565b60006159a160188361555b565b91506159ac8261596b565b602082019050919050565b600060208201905081810360008301526159d081615994565b9050919050565b60006080820190506159ec6000830187614e0d565b6159f96020830186614e0d565b615a066040830185614dfe565b615a136060830184614dfe565b95945050505050565b7f4e6f7420656e6f75676820616d6f756e74206c69737465640000000000000000600082015250565b6000615a5260188361555b565b9150615a5d82615a1c565b602082019050919050565b60006020820190508181036000830152615a8181615a45565b9050919050565b7f496e76616c696420696e64657800000000000000000000000000000000000000600082015250565b6000615abe600d8361555b565b9150615ac982615a88565b602082019050919050565b60006020820190508181036000830152615aed81615ab1565b9050919050565b7f4f776e65722063616e2774206275790000000000000000000000000000000000600082015250565b6000615b2a600f8361555b565b9150615b3582615af4565b602082019050919050565b60006020820190508181036000830152615b5981615b1d565b9050919050565b7f4e6f7420656e6f756768206c6973746564206e66747300000000000000000000600082015250565b6000615b9660168361555b565b9150615ba182615b60565b602082019050919050565b60006020820190508181036000830152615bc581615b89565b9050919050565b7f4c697374656420616d6f756e7420657863656564730000000000000000000000600082015250565b6000615c0260158361555b565b9150615c0d82615bcc565b602082019050919050565b60006020820190508181036000830152615c3181615bf5565b9050919050565b6000615c4382614b20565b9150615c4e83614b20565b9250828202615c5c81614b20565b91508282048414831517615c7357615c726154e4565b5b5092915050565b7f4f776e61626c653a206e6577206f776e657220697320746865207a65726f206160008201527f6464726573730000000000000000000000000000000000000000000000000000602082015250565b6000615cd660268361555b565b9150615ce182615c7a565b604082019050919050565b60006020820190508181036000830152615d0581615cc9565b9050919050565b7f496e64657820696e76616c696420666f722062696464696e6700000000000000600082015250565b6000615d4260198361555b565b9150615d4d82615d0c565b602082019050919050565b60006020820190508181036000830152615d7181615d35565b9050919050565b7f4f776e65722063616e2774206269640000000000000000000000000000000000600082015250565b6000615dae600f8361555b565b9150615db982615d78565b602082019050919050565b60006020820190508181036000830152615ddd81615da1565b9050919050565b7f41756374696f6e2074696d65206f766572000000000000000000000000000000600082015250565b6000615e1a60118361555b565b9150615e2582615de4565b602082019050919050565b60006020820190508181036000830152615e4981615e0d565b9050919050565b7f466972737420626964206973206c657373207468616e20707269636500000000600082015250565b6000615e86601c8361555b565b9150615e9182615e50565b602082019050919050565b60006020820190508181036000830152615eb581615e79565b9050919050565b7f4c6f7720707269636520666f722062696464696e670000000000000000000000600082015250565b6000615ef260158361555b565b9150615efd82615ebc565b602082019050919050565b60006020820190508181036000830152615f2181615ee5565b9050919050565b7f4f776e61626c653a2063616c6c6572206973206e6f7420746865206f776e6572600082015250565b6000615f5e60208361555b565b9150615f6982615f28565b602082019050919050565b60006020820190508181036000830152615f8d81615f51565b9050919050565b7f5265656e7472616e637947756172643a207265656e7472616e742063616c6c00600082015250565b6000615fca601f8361555b565b9150615fd582615f94565b602082019050919050565b60006020820190508181036000830152615ff981615fbd565b9050919050565b60006040820190506160156000830185614e0d565b6160226020830184614dfe565b9392505050565b60008151905061603881614d7f565b92915050565b60006020828403121561605457616053614a91565b5b600061606284828501616029565b91505092915050565b7f4e6f7420656e6f7567682062616c616e63650000000000000000000000000000600082015250565b60006160a160128361555b565b91506160ac8261606b565b602082019050919050565b600060208201905081810360008301526160d081616094565b9050919050565b7f496e73756666696369656e74206e66742062616c616e63650000000000000000600082015250565b600061610d60188361555b565b9150616118826160d7565b602082019050919050565b6000602082019050818103600083015261613c81616100565b9050919050565b600060ff82169050919050565b600061615b82616143565b915060ff820361616e5761616d6154e4565b5b600182019050919050565b600060c08201905061618e6000830189614dfe565b61619b6020830188614e0d565b6161a86040830187614e0d565b6161b56060830186614dfe565b6161c26080830185614dfe565b6161cf60a0830184614dfe565b979650505050505050565b60006060820190506161ef6000830186614e0d565b6161fc6020830185614e0d565b6162096040830184614dfe565b949350505050565b60008151905061622081614ea8565b92915050565b60006020828403121561623c5761623b614a91565b5b600061624a84828501616211565b91505092915050565b7f416464726573733a20696e73756666696369656e742062616c616e636520666f60008201527f722063616c6c0000000000000000000000000000000000000000000000000000602082015250565b60006162af60268361555b565b91506162ba82616253565b604082019050919050565b600060208201905081810360008301526162de816162a2565b9050919050565b600081519050919050565b600081905092915050565b60005b838110156163195780820151818401526020810190506162fe565b60008484015250505050565b6000616330826162e5565b61633a81856162f0565b935061634a8185602086016162fb565b80840191505092915050565b60006163628284616325565b915081905092915050565b7f416464726573733a2063616c6c20746f206e6f6e2d636f6e7472616374000000600082015250565b60006163a3601d8361555b565b91506163ae8261636d565b602082019050919050565b600060208201905081810360008301526163d281616396565b9050919050565b600081519050919050565b60006163ef826163d9565b6163f9818561555b565b93506164098185602086016162fb565b61641281615303565b840191505092915050565b6000602082019050818103600083015261643781846163e4565b90509291505056fea2646970667358221220eedeef047b1ad1bebe3eb746dc26ada80bd321868e8e791f07a749621b3ea09664736f6c63430008130033",
  "linkReferences": {},
  "deployedLinkReferences": {}
}