{"contracts/crowdsale.sol":{"Crowdsale":{"abi":[{"inputs":[{"internalType":"contract IERC20","name":"_token","type":"address"},{"internalType":"uint256","name":"_startTimestamp","type":"uint256"},{"internalType":"uint256","name":"_endTimestamp","type":"uint256"},{"internalType":"uint256","name":"_cliffTime","type":"uint256"},{"internalType":"uint256","name":"_vestingTime","type":"uint256"}],"stateMutability":"nonpayable","type":"constructor"},{"anonymous":false,"inputs":[{"indexed":true,"internalType":"address","name":"previousOwner","type":"address"},{"indexed":true,"internalType":"address","name":"newOwner","type":"address"}],"name":"OwnershipTransferred","type":"event"},{"anonymous":false,"inputs":[{"indexed":true,"internalType":"address","name":"purchaser","type":"address"},{"indexed":false,"internalType":"uint256","name":"amount","type":"uint256"}],"name":"TokensPurchased","type":"event"},{"inputs":[{"internalType":"address","name":"","type":"address"}],"name":"balances","outputs":[{"internalType":"uint256","name":"","type":"uint256"}],"stateMutability":"view","type":"function"},{"inputs":[],"name":"buyTokens","outputs":[],"stateMutability":"payable","type":"function"},{"inputs":[{"internalType":"uint256","name":"_tokensPerEth","type":"uint256"}],"name":"changeTokensPerEth","outputs":[],"stateMutability":"nonpayable","type":"function"},{"inputs":[{"internalType":"uint256","name":"_amountInEth","type":"uint256"}],"name":"checkTokens","outputs":[{"internalType":"uint256","name":"","type":"uint256"}],"stateMutability":"view","type":"function"},{"inputs":[],"name":"cliffTime","outputs":[{"internalType":"uint256","name":"","type":"uint256"}],"stateMutability":"view","type":"function"},{"inputs":[],"name":"endTimestamp","outputs":[{"internalType":"uint256","name":"","type":"uint256"}],"stateMutability":"view","type":"function"},{"inputs":[{"internalType":"uint256","name":"_amount","type":"uint256"}],"name":"fundTokens","outputs":[],"stateMutability":"nonpayable","type":"function"},{"inputs":[],"name":"getTokenBalance","outputs":[{"internalType":"uint256","name":"","type":"uint256"}],"stateMutability":"view","type":"function"},{"inputs":[],"name":"haltSale","outputs":[],"stateMutability":"nonpayable","type":"function"},{"inputs":[],"name":"isSaleActive","outputs":[{"internalType":"bool","name":"","type":"bool"}],"stateMutability":"view","type":"function"},{"inputs":[],"name":"owner","outputs":[{"internalType":"address","name":"","type":"address"}],"stateMutability":"view","type":"function"},{"inputs":[{"internalType":"address","name":"_beneficiary","type":"address"}],"name":"releasableAmount","outputs":[{"internalType":"uint256","name":"","type":"uint256"}],"stateMutability":"view","type":"function"},{"inputs":[],"name":"releaseVestedTokens","outputs":[],"stateMutability":"nonpayable","type":"function"},{"inputs":[],"name":"renounceOwnership","outputs":[],"stateMutability":"nonpayable","type":"function"},{"inputs":[],"name":"startSale","outputs":[],"stateMutability":"nonpayable","type":"function"},{"inputs":[],"name":"startTimestamp","outputs":[{"internalType":"uint256","name":"","type":"uint256"}],"stateMutability":"view","type":"function"},{"inputs":[],"name":"token","outputs":[{"internalType":"contract IERC20","name":"","type":"address"}],"stateMutability":"view","type":"function"},{"inputs":[],"name":"tokensPerETh","outputs":[{"internalType":"uint256","name":"","type":"uint256"}],"stateMutability":"view","type":"function"},{"inputs":[],"name":"totalTokens","outputs":[{"internalType":"uint256","name":"","type":"uint256"}],"stateMutability":"view","type":"function"},{"inputs":[{"internalType":"address","name":"newOwner","type":"address"}],"name":"transferOwnership","outputs":[],"stateMutability":"nonpayable","type":"function"},{"inputs":[{"internalType":"address","name":"","type":"address"}],"name":"vestingStartTime","outputs":[{"internalType":"uint256","name":"","type":"uint256"}],"stateMutability":"view","type":"function"},{"inputs":[],"name":"vestingTime","outputs":[{"internalType":"uint256","name":"","type":"uint256"}],"stateMutability":"view","type":"function"},{"inputs":[],"name":"withdrawEth","outputs":[],"stateMutability":"nonpayable","type":"function"},{"inputs":[],"name":"withdrawStuckTokens","outputs":[],"stateMutability":"nonpayable","type":"function"},{"stateMutability":"payable","type":"receive"}],"evm":{"bytecode":{"linkReferences":{},"object":"60806040523480156200001157600080fd5b50604051620027c3380380620027c3833981810160405281019062000037919062000419565b620000576200004b6200029460201b60201c565b6200029c60201b60201c565b60018081905550600073ffffffffffffffffffffffffffffffffffffffff168573ffffffffffffffffffffffffffffffffffffffff1603620000d0576040517f08c379a0000000000000000000000000000000000000000000000000000000008152600401620000c79062000528565b60405180910390fd5b83831162000115576040517f08c379a00000000000000000000000000000000000000000000000000000000081526004016200010c90620005c0565b60405180910390fd5b8082106200015a576040517f08c379a0000000000000000000000000000000000000000000000000000000008152600401620001519062000658565b60405180910390fd5b84600260006101000a81548173ffffffffffffffffffffffffffffffffffffffff021916908373ffffffffffffffffffffffffffffffffffffffff160217905550600260009054906101000a900473ffffffffffffffffffffffffffffffffffffffff1673ffffffffffffffffffffffffffffffffffffffff1663313ce5676040518163ffffffff1660e01b8152600401602060405180830381865afa15801562000209573d6000803e3d6000fd5b505050506040513d601f19601f820116820180604052508101906200022f9190620006b8565b600a6200023d91906200086d565b620f42406200024d9190620008be565b600481905550834262000261919062000909565b600581905550824262000275919062000909565b6006819055508160078190555080600881905550505050505062000944565b600033905090565b60008060009054906101000a900473ffffffffffffffffffffffffffffffffffffffff169050816000806101000a81548173ffffffffffffffffffffffffffffffffffffffff021916908373ffffffffffffffffffffffffffffffffffffffff1602179055508173ffffffffffffffffffffffffffffffffffffffff168173ffffffffffffffffffffffffffffffffffffffff167f8be0079c531659141344cd1fd0a4f28419497f9722a3daafe3b4186f6b6457e060405160405180910390a35050565b600080fd5b600073ffffffffffffffffffffffffffffffffffffffff82169050919050565b6000620003928262000365565b9050919050565b6000620003a68262000385565b9050919050565b620003b88162000399565b8114620003c457600080fd5b50565b600081519050620003d881620003ad565b92915050565b6000819050919050565b620003f381620003de565b8114620003ff57600080fd5b50565b6000815190506200041381620003e8565b92915050565b600080600080600060a0868803121562000438576200043762000360565b5b60006200044888828901620003c7565b95505060206200045b8882890162000402565b94505060406200046e8882890162000402565b9350506060620004818882890162000402565b9250506080620004948882890162000402565b9150509295509295909350565b600082825260208201905092915050565b7f43726f776473616c653a20546f6b656e20616464726573732063616e6e6f742060008201527f6265207a65726f00000000000000000000000000000000000000000000000000602082015250565b600062000510602783620004a1565b91506200051d82620004b2565b604082019050919050565b60006020820190508181036000830152620005438162000501565b9050919050565b7f43726f776473616c653a20456e642074696d65206d757374206265206166746560008201527f722073746172742074696d650000000000000000000000000000000000000000602082015250565b6000620005a8602c83620004a1565b9150620005b5826200054a565b604082019050919050565b60006020820190508181036000830152620005db8162000599565b9050919050565b7f436c6966662074696d652073686f756c64206265206c657373207468616e207660008201527f657374696e672074696d65000000000000000000000000000000000000000000602082015250565b600062000640602b83620004a1565b91506200064d82620005e2565b604082019050919050565b60006020820190508181036000830152620006738162000631565b9050919050565b600060ff82169050919050565b62000692816200067a565b81146200069e57600080fd5b50565b600081519050620006b28162000687565b92915050565b600060208284031215620006d157620006d062000360565b5b6000620006e184828501620006a1565b91505092915050565b7f4e487b7100000000000000000000000000000000000000000000000000000000600052601160045260246000fd5b60008160011c9050919050565b6000808291508390505b6001851115620007785780860481111562000750576200074f620006ea565b5b6001851615620007605780820291505b8081029050620007708562000719565b945062000730565b94509492505050565b60008262000793576001905062000866565b81620007a3576000905062000866565b8160018114620007bc5760028114620007c757620007fd565b600191505062000866565b60ff841115620007dc57620007db620006ea565b5b8360020a915084821115620007f657620007f5620006ea565b5b5062000866565b5060208310610133831016604e8410600b8410161715620008375782820a905083811115620008315762000830620006ea565b5b62000866565b62000846848484600162000726565b9250905081840481111562000860576200085f620006ea565b5b81810290505b9392505050565b60006200087a82620003de565b915062000887836200067a565b9250620008b67fffffffffffffffffffffffffffffffffffffffffffffffffffffffffffffffff848462000781565b905092915050565b6000620008cb82620003de565b9150620008d883620003de565b9250828202620008e881620003de565b91508282048414831517620009025762000901620006ea565b5b5092915050565b60006200091682620003de565b91506200092383620003de565b92508282019050808211156200093e576200093d620006ea565b5b92915050565b611e6f80620009546000396000f3fe60806040526004361061014f5760003560e01c80638da5cb5b116100b6578063e3c203691161006f578063e3c20369146103fc578063e6fd48bc14610427578063ea63fb2614610452578063f2fde38b1461048f578063fc0c546a146104b8578063fff1939c146104e357610156565b80638da5cb5b14610343578063a0ef91df1461036e578063a85adeab14610385578063b66a0e5d146103b0578063c7dab436146103c7578063d0febe4c146103f257610156565b8063564566a811610108578063564566a81461027d5780635fbaa390146102a8578063715018a6146102bf5780637e1c0c09146102d65780638183b3c81461030157806382b2e2571461031857610156565b806303f891bd1461015b5780630f1a6444146101845780631726cbc8146101af57806327e235e3146101ec578063420797c81461022957806354dd1da41461026657610156565b3661015657005b600080fd5b34801561016757600080fd5b50610182600480360381019061017d919061135b565b61050c565b005b34801561019057600080fd5b5061019961051e565b6040516101a69190611397565b60405180910390f35b3480156101bb57600080fd5b506101d660048036038101906101d19190611410565b610524565b6040516101e39190611397565b60405180910390f35b3480156101f857600080fd5b50610213600480360381019061020e9190611410565b6106f0565b6040516102209190611397565b60405180910390f35b34801561023557600080fd5b50610250600480360381019061024b919061135b565b610708565b60405161025d9190611397565b60405180910390f35b34801561027257600080fd5b5061027b6107d4565b005b34801561028957600080fd5b5061029261096d565b60405161029f9190611458565b60405180910390f35b3480156102b457600080fd5b506102bd610980565b005b3480156102cb57600080fd5b506102d46109f4565b005b3480156102e257600080fd5b506102eb610a08565b6040516102f89190611397565b60405180910390f35b34801561030d57600080fd5b50610316610a0e565b005b34801561032457600080fd5b5061032d610b09565b60405161033a9190611397565b60405180910390f35b34801561034f57600080fd5b50610358610bac565b6040516103659190611482565b60405180910390f35b34801561037a57600080fd5b50610383610bd5565b005b34801561039157600080fd5b5061039a610c26565b6040516103a79190611397565b60405180910390f35b3480156103bc57600080fd5b506103c5610c2c565b005b3480156103d357600080fd5b506103dc610ca1565b6040516103e99190611397565b60405180910390f35b6103fa610ca7565b005b34801561040857600080fd5b50610411610f32565b60405161041e9190611397565b60405180910390f35b34801561043357600080fd5b5061043c610f38565b6040516104499190611397565b60405180910390f35b34801561045e57600080fd5b5061047960048036038101906104749190611410565b610f3e565b6040516104869190611397565b60405180910390f35b34801561049b57600080fd5b506104b660048036038101906104b19190611410565b610f56565b005b3480156104c457600080fd5b506104cd610fd9565b6040516104da91906114fc565b60405180910390f35b3480156104ef57600080fd5b5061050a6004803603810190610505919061135b565b610fff565b005b6105146110c8565b8060048190555050565b60075481565b600061057a600754600b60008573ffffffffffffffffffffffffffffffffffffffff1673ffffffffffffffffffffffffffffffffffffffff1681526020019081526020016000205461114690919063ffffffff16565b42101561058a57600090506106eb565b6105de600854600b60008573ffffffffffffffffffffffffffffffffffffffff1673ffffffffffffffffffffffffffffffffffffffff1681526020019081526020016000205461114690919063ffffffff16565b421061062b57600a60008373ffffffffffffffffffffffffffffffffffffffff1673ffffffffffffffffffffffffffffffffffffffff1681526020019081526020016000205490506106eb565b60006106e46008546106d6610688600b60008873ffffffffffffffffffffffffffffffffffffffff1673ffffffffffffffffffffffffffffffffffffffff168152602001908152602001600020544261117290919063ffffffff16565b600a60008873ffffffffffffffffffffffffffffffffffffffff1673ffffffffffffffffffffffffffffffffffffffff1681526020019081526020016000205461119990919063ffffffff16565b6111e190919063ffffffff16565b9050809150505b919050565b600a6020528060005260406000206000915090505481565b60006107cd600260009054906101000a900473ffffffffffffffffffffffffffffffffffffffff1673ffffffffffffffffffffffffffffffffffffffff1663313ce5676040518163ffffffff1660e01b8152600401602060405180830381865afa15801561077a573d6000803e3d6000fd5b505050506040513d601f19601f8201168201806040525081019061079e9190611550565b600a6107aa91906116df565b6107bf6004548561119990919063ffffffff16565b6111e190919063ffffffff16565b9050919050565b6107dc6111fc565b60006107e733610524565b90506000811161082c576040517f08c379a000000000000000000000000000000000000000000000000000000000815260040161082390611787565b60405180910390fd5b600260009054906101000a900473ffffffffffffffffffffffffffffffffffffffff1673ffffffffffffffffffffffffffffffffffffffff1663a9059cbb33836040518363ffffffff1660e01b81526004016108899291906117a7565b6020604051808303816000875af11580156108a8573d6000803e3d6000fd5b505050506040513d601f19601f820116820180604052508101906108cc91906117fc565b5061091f81600a60003373ffffffffffffffffffffffffffffffffffffffff1673ffffffffffffffffffffffffffffffffffffffff1681526020019081526020016000205461117290919063ffffffff16565b600a60003373ffffffffffffffffffffffffffffffffffffffff1673ffffffffffffffffffffffffffffffffffffffff168152602001908152602001600020819055505061096b61124b565b565b600960009054906101000a900460ff1681565b6109886110c8565b600960009054906101000a900460ff166109d7576040517f08c379a00000000000000000000000000000000000000000000000000000000081526004016109ce90611875565b60405180910390fd5b6000600960006101000a81548160ff021916908315150217905550565b6109fc6110c8565b610a066000611254565b565b60035481565b610a166110c8565b6000610a20610b09565b905060008111610a65576040517f08c379a0000000000000000000000000000000000000000000000000000000008152600401610a5c906118e1565b60405180910390fd5b600260009054906101000a900473ffffffffffffffffffffffffffffffffffffffff1673ffffffffffffffffffffffffffffffffffffffff1663a9059cbb33836040518363ffffffff1660e01b8152600401610ac29291906117a7565b6020604051808303816000875af1158015610ae1573d6000803e3d6000fd5b505050506040513d601f19601f82011682018060405250810190610b0591906117fc565b5050565b6000600260009054906101000a900473ffffffffffffffffffffffffffffffffffffffff1673ffffffffffffffffffffffffffffffffffffffff166370a08231306040518263ffffffff1660e01b8152600401610b669190611482565b602060405180830381865afa158015610b83573d6000803e3d6000fd5b505050506040513d601f19601f82011682018060405250810190610ba79190611916565b905090565b60008060009054906101000a900473ffffffffffffffffffffffffffffffffffffffff16905090565b610bdd6110c8565b3373ffffffffffffffffffffffffffffffffffffffff166108fc479081150290604051600060405180830381858888f19350505050158015610c23573d6000803e3d6000fd5b50565b60065481565b610c346110c8565b600960009054906101000a900460ff1615610c84576040517f08c379a0000000000000000000000000000000000000000000000000000000008152600401610c7b9061198f565b60405180910390fd5b6001600960006101000a81548160ff021916908315150217905550565b60085481565b6005544210158015610cba575060065442105b610cf9576040517f08c379a0000000000000000000000000000000000000000000000000000000008152600401610cf0906119fb565b60405180910390fd5b610d016111fc565b600960009054906101000a900460ff16610d50576040517f08c379a0000000000000000000000000000000000000000000000000000000008152600401610d4790611a67565b60405180910390fd5b60003411610d93576040517f08c379a0000000000000000000000000000000000000000000000000000000008152600401610d8a90611ad3565b60405180910390fd5b6000610d9e34610708565b9050600354811115610de5576040517f08c379a0000000000000000000000000000000000000000000000000000000008152600401610ddc90611b3f565b60405180910390fd5b610dfa8160035461117290919063ffffffff16565b60038190555042600b60003373ffffffffffffffffffffffffffffffffffffffff1673ffffffffffffffffffffffffffffffffffffffff16815260200190815260200160002081905550610e9681600a60003373ffffffffffffffffffffffffffffffffffffffff1673ffffffffffffffffffffffffffffffffffffffff1681526020019081526020016000205461114690919063ffffffff16565b600a60003373ffffffffffffffffffffffffffffffffffffffff1673ffffffffffffffffffffffffffffffffffffffff168152602001908152602001600020819055503373ffffffffffffffffffffffffffffffffffffffff167f8f28852646c20cc973d3a8218f7eefed58c25c909f78f0265af4818c3d4dc27182604051610f1f9190611397565b60405180910390a250610f3061124b565b565b60045481565b60055481565b600b6020528060005260406000206000915090505481565b610f5e6110c8565b600073ffffffffffffffffffffffffffffffffffffffff168173ffffffffffffffffffffffffffffffffffffffff1603610fcd576040517f08c379a0000000000000000000000000000000000000000000000000000000008152600401610fc490611bd1565b60405180910390fd5b610fd681611254565b50565b600260009054906101000a900473ffffffffffffffffffffffffffffffffffffffff1681565b6110076110c8565b600260009054906101000a900473ffffffffffffffffffffffffffffffffffffffff1673ffffffffffffffffffffffffffffffffffffffff166323b872dd3330846040518463ffffffff1660e01b815260040161106693929190611bf1565b6020604051808303816000875af1158015611085573d6000803e3d6000fd5b505050506040513d601f19601f820116820180604052508101906110a991906117fc565b506110bf8160035461114690919063ffffffff16565b60038190555050565b6110d0611318565b73ffffffffffffffffffffffffffffffffffffffff166110ee610bac565b73ffffffffffffffffffffffffffffffffffffffff1614611144576040517f08c379a000000000000000000000000000000000000000000000000000000000815260040161113b90611c74565b60405180910390fd5b565b60008082846111559190611c94565b90508381101561116857611167611cc8565b5b8091505092915050565b60008282111561118557611184611cc8565b5b81836111919190611cf7565b905092915050565b60008083036111ab57600090506111db565b600082846111b99190611d2b565b90508284826111c89190611d9c565b146111d6576111d5611cc8565b5b809150505b92915050565b60008082846111f09190611d9c565b90508091505092915050565b600260015403611241576040517f08c379a000000000000000000000000000000000000000000000000000000000815260040161123890611e19565b60405180910390fd5b6002600181905550565b60018081905550565b60008060009054906101000a900473ffffffffffffffffffffffffffffffffffffffff169050816000806101000a81548173ffffffffffffffffffffffffffffffffffffffff021916908373ffffffffffffffffffffffffffffffffffffffff1602179055508173ffffffffffffffffffffffffffffffffffffffff168173ffffffffffffffffffffffffffffffffffffffff167f8be0079c531659141344cd1fd0a4f28419497f9722a3daafe3b4186f6b6457e060405160405180910390a35050565b600033905090565b600080fd5b6000819050919050565b61133881611325565b811461134357600080fd5b50565b6000813590506113558161132f565b92915050565b60006020828403121561137157611370611320565b5b600061137f84828501611346565b91505092915050565b61139181611325565b82525050565b60006020820190506113ac6000830184611388565b92915050565b600073ffffffffffffffffffffffffffffffffffffffff82169050919050565b60006113dd826113b2565b9050919050565b6113ed816113d2565b81146113f857600080fd5b50565b60008135905061140a816113e4565b92915050565b60006020828403121561142657611425611320565b5b6000611434848285016113fb565b91505092915050565b60008115159050919050565b6114528161143d565b82525050565b600060208201905061146d6000830184611449565b92915050565b61147c816113d2565b82525050565b60006020820190506114976000830184611473565b92915050565b6000819050919050565b60006114c26114bd6114b8846113b2565b61149d565b6113b2565b9050919050565b60006114d4826114a7565b9050919050565b60006114e6826114c9565b9050919050565b6114f6816114db565b82525050565b600060208201905061151160008301846114ed565b92915050565b600060ff82169050919050565b61152d81611517565b811461153857600080fd5b50565b60008151905061154a81611524565b92915050565b60006020828403121561156657611565611320565b5b60006115748482850161153b565b91505092915050565b7f4e487b7100000000000000000000000000000000000000000000000000000000600052601160045260246000fd5b60008160011c9050919050565b6000808291508390505b6001851115611603578086048111156115df576115de61157d565b5b60018516156115ee5780820291505b80810290506115fc856115ac565b94506115c3565b94509492505050565b60008261161c57600190506116d8565b8161162a57600090506116d8565b8160018114611640576002811461164a57611679565b60019150506116d8565b60ff84111561165c5761165b61157d565b5b8360020a9150848211156116735761167261157d565b5b506116d8565b5060208310610133831016604e8410600b84101617156116ae5782820a9050838111156116a9576116a861157d565b5b6116d8565b6116bb84848460016115b9565b925090508184048111156116d2576116d161157d565b5b81810290505b9392505050565b60006116ea82611325565b91506116f583611517565b92506117227fffffffffffffffffffffffffffffffffffffffffffffffffffffffffffffffff848461160c565b905092915050565b600082825260208201905092915050565b7f43726f776473616c653a204e6f20746f6b656e7320746f2072656c6561736500600082015250565b6000611771601f8361172a565b915061177c8261173b565b602082019050919050565b600060208201905081810360008301526117a081611764565b9050919050565b60006040820190506117bc6000830185611473565b6117c96020830184611388565b9392505050565b6117d98161143d565b81146117e457600080fd5b50565b6000815190506117f6816117d0565b92915050565b60006020828403121561181257611811611320565b5b6000611820848285016117e7565b91505092915050565b7f53616c65206973206e6f74206163746976650000000000000000000000000000600082015250565b600061185f60128361172a565b915061186a82611829565b602082019050919050565b6000602082019050818103600083015261188e81611852565b9050919050565b7f4e6f7420656e6f75676820746f6b656e73000000000000000000000000000000600082015250565b60006118cb60118361172a565b91506118d682611895565b602082019050919050565b600060208201905081810360008301526118fa816118be565b9050919050565b6000815190506119108161132f565b92915050565b60006020828403121561192c5761192b611320565b5b600061193a84828501611901565b91505092915050565b7f53616c6520697320616c72656164792061637469766500000000000000000000600082015250565b600061197960168361172a565b915061198482611943565b602082019050919050565b600060208201905081810360008301526119a88161196c565b9050919050565b7f43726f776473616c653a2053616c65206e6f7420616374697665000000000000600082015250565b60006119e5601a8361172a565b91506119f0826119af565b602082019050919050565b60006020820190508181036000830152611a14816119d8565b9050919050565b7f43726f776473616c653a2053616c65206973206e6f7420616374697665000000600082015250565b6000611a51601d8361172a565b9150611a5c82611a1b565b602082019050919050565b60006020820190508181036000830152611a8081611a44565b9050919050565b7f4e6f7420656e6f75676820616d6f756e74207061696400000000000000000000600082015250565b6000611abd60168361172a565b9150611ac882611a87565b602082019050919050565b60006020820190508181036000830152611aec81611ab0565b9050919050565b7f4e6f7420656e6f75676820746f6b656e7320696e2073616c6500000000000000600082015250565b6000611b2960198361172a565b9150611b3482611af3565b602082019050919050565b60006020820190508181036000830152611b5881611b1c565b9050919050565b7f4f776e61626c653a206e6577206f776e657220697320746865207a65726f206160008201527f6464726573730000000000000000000000000000000000000000000000000000602082015250565b6000611bbb60268361172a565b9150611bc682611b5f565b604082019050919050565b60006020820190508181036000830152611bea81611bae565b9050919050565b6000606082019050611c066000830186611473565b611c136020830185611473565b611c206040830184611388565b949350505050565b7f4f776e61626c653a2063616c6c6572206973206e6f7420746865206f776e6572600082015250565b6000611c5e60208361172a565b9150611c6982611c28565b602082019050919050565b60006020820190508181036000830152611c8d81611c51565b9050919050565b6000611c9f82611325565b9150611caa83611325565b9250828201905080821115611cc257611cc161157d565b5b92915050565b7f4e487b7100000000000000000000000000000000000000000000000000000000600052600160045260246000fd5b6000611d0282611325565b9150611d0d83611325565b9250828203905081811115611d2557611d2461157d565b5b92915050565b6000611d3682611325565b9150611d4183611325565b9250828202611d4f81611325565b91508282048414831517611d6657611d6561157d565b5b5092915050565b7f4e487b7100000000000000000000000000000000000000000000000000000000600052601260045260246000fd5b6000611da782611325565b9150611db283611325565b925082611dc257611dc1611d6d565b5b828204905092915050565b7f5265656e7472616e637947756172643a207265656e7472616e742063616c6c00600082015250565b6000611e03601f8361172a565b9150611e0e82611dcd565b602082019050919050565b60006020820190508181036000830152611e3281611df6565b905091905056fea2646970667358221220843ecbd72f9facdb5af6a65f8e6f8d42dfe573c570d49e12ee6120c2c03be62264736f6c63430008130033","opcodes":"PUSH1 0x80 PUSH1 0x40 MSTORE CALLVALUE DUP1 ISZERO PUSH3 0x11 JUMPI PUSH1 0x0 DUP1 REVERT JUMPDEST POP PUSH1 0x40 MLOAD PUSH3 0x27C3 CODESIZE SUB DUP1 PUSH3 0x27C3 DUP4 CODECOPY DUP2 DUP2 ADD PUSH1 0x40 MSTORE DUP2 ADD SWAP1 PUSH3 0x37 SWAP2 SWAP1 PUSH3 0x419 JUMP JUMPDEST PUSH3 0x57 PUSH3 0x4B PUSH3 0x294 PUSH1 0x20 SHL PUSH1 0x20 SHR JUMP JUMPDEST PUSH3 0x29C PUSH1 0x20 SHL PUSH1 0x20 SHR JUMP JUMPDEST PUSH1 0x1 DUP1 DUP2 SWAP1 SSTORE POP PUSH1 0x0 PUSH20 0xFFFFFFFFFFFFFFFFFFFFFFFFFFFFFFFFFFFFFFFF AND DUP6 PUSH20 0xFFFFFFFFFFFFFFFFFFFFFFFFFFFFFFFFFFFFFFFF AND SUB PUSH3 0xD0 JUMPI PUSH1 0x40 MLOAD PUSH32 0x8C379A000000000000000000000000000000000000000000000000000000000 DUP2 MSTORE PUSH1 0x4 ADD PUSH3 0xC7 SWAP1 PUSH3 0x528 JUMP JUMPDEST PUSH1 0x40 MLOAD DUP1 SWAP2 SUB SWAP1 REVERT JUMPDEST DUP4 DUP4 GT PUSH3 0x115 JUMPI PUSH1 0x40 MLOAD PUSH32 0x8C379A000000000000000000000000000000000000000000000000000000000 DUP2 MSTORE PUSH1 0x4 ADD PUSH3 0x10C SWAP1 PUSH3 0x5C0 JUMP JUMPDEST PUSH1 0x40 MLOAD DUP1 SWAP2 SUB SWAP1 REVERT JUMPDEST DUP1 DUP3 LT PUSH3 0x15A JUMPI PUSH1 0x40 MLOAD PUSH32 0x8C379A000000000000000000000000000000000000000000000000000000000 DUP2 MSTORE PUSH1 0x4 ADD PUSH3 0x151 SWAP1 PUSH3 0x658 JUMP JUMPDEST PUSH1 0x40 MLOAD DUP1 SWAP2 SUB SWAP1 REVERT JUMPDEST DUP5 PUSH1 0x2 PUSH1 0x0 PUSH2 0x100 EXP DUP2 SLOAD DUP2 PUSH20 0xFFFFFFFFFFFFFFFFFFFFFFFFFFFFFFFFFFFFFFFF MUL NOT AND SWAP1 DUP4 PUSH20 0xFFFFFFFFFFFFFFFFFFFFFFFFFFFFFFFFFFFFFFFF AND MUL OR SWAP1 SSTORE POP PUSH1 0x2 PUSH1 0x0 SWAP1 SLOAD SWAP1 PUSH2 0x100 EXP SWAP1 DIV PUSH20 0xFFFFFFFFFFFFFFFFFFFFFFFFFFFFFFFFFFFFFFFF AND PUSH20 0xFFFFFFFFFFFFFFFFFFFFFFFFFFFFFFFFFFFFFFFF AND PUSH4 0x313CE567 PUSH1 0x40 MLOAD DUP2 PUSH4 0xFFFFFFFF AND PUSH1 0xE0 SHL DUP2 MSTORE PUSH1 0x4 ADD PUSH1 0x20 PUSH1 0x40 MLOAD DUP1 DUP4 SUB DUP2 DUP7 GAS STATICCALL ISZERO DUP1 ISZERO PUSH3 0x209 JUMPI RETURNDATASIZE PUSH1 0x0 DUP1 RETURNDATACOPY RETURNDATASIZE PUSH1 0x0 REVERT JUMPDEST POP POP POP POP PUSH1 0x40 MLOAD RETURNDATASIZE PUSH1 0x1F NOT PUSH1 0x1F DUP3 ADD AND DUP3 ADD DUP1 PUSH1 0x40 MSTORE POP DUP2 ADD SWAP1 PUSH3 0x22F SWAP2 SWAP1 PUSH3 0x6B8 JUMP JUMPDEST PUSH1 0xA PUSH3 0x23D SWAP2 SWAP1 PUSH3 0x86D JUMP JUMPDEST PUSH3 0xF4240 PUSH3 0x24D SWAP2 SWAP1 PUSH3 0x8BE JUMP JUMPDEST PUSH1 0x4 DUP2 SWAP1 SSTORE POP DUP4 TIMESTAMP PUSH3 0x261 SWAP2 SWAP1 PUSH3 0x909 JUMP JUMPDEST PUSH1 0x5 DUP2 SWAP1 SSTORE POP DUP3 TIMESTAMP PUSH3 0x275 SWAP2 SWAP1 PUSH3 0x909 JUMP JUMPDEST PUSH1 0x6 DUP2 SWAP1 SSTORE POP DUP2 PUSH1 0x7 DUP2 SWAP1 SSTORE POP DUP1 PUSH1 0x8 DUP2 SWAP1 SSTORE POP POP POP POP POP POP PUSH3 0x944 JUMP JUMPDEST PUSH1 0x0 CALLER SWAP1 POP SWAP1 JUMP JUMPDEST PUSH1 0x0 DUP1 PUSH1 0x0 SWAP1 SLOAD SWAP1 PUSH2 0x100 EXP SWAP1 DIV PUSH20 0xFFFFFFFFFFFFFFFFFFFFFFFFFFFFFFFFFFFFFFFF AND SWAP1 POP DUP2 PUSH1 0x0 DUP1 PUSH2 0x100 EXP DUP2 SLOAD DUP2 PUSH20 0xFFFFFFFFFFFFFFFFFFFFFFFFFFFFFFFFFFFFFFFF MUL NOT AND SWAP1 DUP4 PUSH20 0xFFFFFFFFFFFFFFFFFFFFFFFFFFFFFFFFFFFFFFFF AND MUL OR SWAP1 SSTORE POP DUP2 PUSH20 0xFFFFFFFFFFFFFFFFFFFFFFFFFFFFFFFFFFFFFFFF AND DUP2 PUSH20 0xFFFFFFFFFFFFFFFFFFFFFFFFFFFFFFFFFFFFFFFF AND PUSH32 0x8BE0079C531659141344CD1FD0A4F28419497F9722A3DAAFE3B4186F6B6457E0 PUSH1 0x40 MLOAD PUSH1 0x40 MLOAD DUP1 SWAP2 SUB SWAP1 LOG3 POP POP JUMP JUMPDEST PUSH1 0x0 DUP1 REVERT JUMPDEST PUSH1 0x0 PUSH20 0xFFFFFFFFFFFFFFFFFFFFFFFFFFFFFFFFFFFFFFFF DUP3 AND SWAP1 POP SWAP2 SWAP1 POP JUMP JUMPDEST PUSH1 0x0 PUSH3 0x392 DUP3 PUSH3 0x365 JUMP JUMPDEST SWAP1 POP SWAP2 SWAP1 POP JUMP JUMPDEST PUSH1 0x0 PUSH3 0x3A6 DUP3 PUSH3 0x385 JUMP JUMPDEST SWAP1 POP SWAP2 SWAP1 POP JUMP JUMPDEST PUSH3 0x3B8 DUP2 PUSH3 0x399 JUMP JUMPDEST DUP2 EQ PUSH3 0x3C4 JUMPI PUSH1 0x0 DUP1 REVERT JUMPDEST POP JUMP JUMPDEST PUSH1 0x0 DUP2 MLOAD SWAP1 POP PUSH3 0x3D8 DUP2 PUSH3 0x3AD JUMP JUMPDEST SWAP3 SWAP2 POP POP JUMP JUMPDEST PUSH1 0x0 DUP2 SWAP1 POP SWAP2 SWAP1 POP JUMP JUMPDEST PUSH3 0x3F3 DUP2 PUSH3 0x3DE JUMP JUMPDEST DUP2 EQ PUSH3 0x3FF JUMPI PUSH1 0x0 DUP1 REVERT JUMPDEST POP JUMP JUMPDEST PUSH1 0x0 DUP2 MLOAD SWAP1 POP PUSH3 0x413 DUP2 PUSH3 0x3E8 JUMP JUMPDEST SWAP3 SWAP2 POP POP JUMP JUMPDEST PUSH1 0x0 DUP1 PUSH1 0x0 DUP1 PUSH1 0x0 PUSH1 0xA0 DUP7 DUP9 SUB SLT ISZERO PUSH3 0x438 JUMPI PUSH3 0x437 PUSH3 0x360 JUMP JUMPDEST JUMPDEST PUSH1 0x0 PUSH3 0x448 DUP9 DUP3 DUP10 ADD PUSH3 0x3C7 JUMP JUMPDEST SWAP6 POP POP PUSH1 0x20 PUSH3 0x45B DUP9 DUP3 DUP10 ADD PUSH3 0x402 JUMP JUMPDEST SWAP5 POP POP PUSH1 0x40 PUSH3 0x46E DUP9 DUP3 DUP10 ADD PUSH3 0x402 JUMP JUMPDEST SWAP4 POP POP PUSH1 0x60 PUSH3 0x481 DUP9 DUP3 DUP10 ADD PUSH3 0x402 JUMP JUMPDEST SWAP3 POP POP PUSH1 0x80 PUSH3 0x494 DUP9 DUP3 DUP10 ADD PUSH3 0x402 JUMP JUMPDEST SWAP2 POP POP SWAP3 SWAP6 POP SWAP3 SWAP6 SWAP1 SWAP4 POP JUMP JUMPDEST PUSH1 0x0 DUP3 DUP3 MSTORE PUSH1 0x20 DUP3 ADD SWAP1 POP SWAP3 SWAP2 POP POP JUMP JUMPDEST PUSH32 0x43726F776473616C653A20546F6B656E20616464726573732063616E6E6F7420 PUSH1 0x0 DUP3 ADD MSTORE PUSH32 0x6265207A65726F00000000000000000000000000000000000000000000000000 PUSH1 0x20 DUP3 ADD MSTORE POP JUMP JUMPDEST PUSH1 0x0 PUSH3 0x510 PUSH1 0x27 DUP4 PUSH3 0x4A1 JUMP JUMPDEST SWAP2 POP PUSH3 0x51D DUP3 PUSH3 0x4B2 JUMP JUMPDEST PUSH1 0x40 DUP3 ADD SWAP1 POP SWAP2 SWAP1 POP JUMP JUMPDEST PUSH1 0x0 PUSH1 0x20 DUP3 ADD SWAP1 POP DUP2 DUP2 SUB PUSH1 0x0 DUP4 ADD MSTORE PUSH3 0x543 DUP2 PUSH3 0x501 JUMP JUMPDEST SWAP1 POP SWAP2 SWAP1 POP JUMP JUMPDEST PUSH32 0x43726F776473616C653A20456E642074696D65206D7573742062652061667465 PUSH1 0x0 DUP3 ADD MSTORE PUSH32 0x722073746172742074696D650000000000000000000000000000000000000000 PUSH1 0x20 DUP3 ADD MSTORE POP JUMP JUMPDEST PUSH1 0x0 PUSH3 0x5A8 PUSH1 0x2C DUP4 PUSH3 0x4A1 JUMP JUMPDEST SWAP2 POP PUSH3 0x5B5 DUP3 PUSH3 0x54A JUMP JUMPDEST PUSH1 0x40 DUP3 ADD SWAP1 POP SWAP2 SWAP1 POP JUMP JUMPDEST PUSH1 0x0 PUSH1 0x20 DUP3 ADD SWAP1 POP DUP2 DUP2 SUB PUSH1 0x0 DUP4 ADD MSTORE PUSH3 0x5DB DUP2 PUSH3 0x599 JUMP JUMPDEST SWAP1 POP SWAP2 SWAP1 POP JUMP JUMPDEST PUSH32 0x436C6966662074696D652073686F756C64206265206C657373207468616E2076 PUSH1 0x0 DUP3 ADD MSTORE PUSH32 0x657374696E672074696D65000000000000000000000000000000000000000000 PUSH1 0x20 DUP3 ADD MSTORE POP JUMP JUMPDEST PUSH1 0x0 PUSH3 0x640 PUSH1 0x2B DUP4 PUSH3 0x4A1 JUMP JUMPDEST SWAP2 POP PUSH3 0x64D DUP3 PUSH3 0x5E2 JUMP JUMPDEST PUSH1 0x40 DUP3 ADD SWAP1 POP SWAP2 SWAP1 POP JUMP JUMPDEST PUSH1 0x0 PUSH1 0x20 DUP3 ADD SWAP1 POP DUP2 DUP2 SUB PUSH1 0x0 DUP4 ADD MSTORE PUSH3 0x673 DUP2 PUSH3 0x631 JUMP JUMPDEST SWAP1 POP SWAP2 SWAP1 POP JUMP JUMPDEST PUSH1 0x0 PUSH1 0xFF DUP3 AND SWAP1 POP SWAP2 SWAP1 POP JUMP JUMPDEST PUSH3 0x692 DUP2 PUSH3 0x67A JUMP JUMPDEST DUP2 EQ PUSH3 0x69E JUMPI PUSH1 0x0 DUP1 REVERT JUMPDEST POP JUMP JUMPDEST PUSH1 0x0 DUP2 MLOAD SWAP1 POP PUSH3 0x6B2 DUP2 PUSH3 0x687 JUMP JUMPDEST SWAP3 SWAP2 POP POP JUMP JUMPDEST PUSH1 0x0 PUSH1 0x20 DUP3 DUP5 SUB SLT ISZERO PUSH3 0x6D1 JUMPI PUSH3 0x6D0 PUSH3 0x360 JUMP JUMPDEST JUMPDEST PUSH1 0x0 PUSH3 0x6E1 DUP5 DUP3 DUP6 ADD PUSH3 0x6A1 JUMP JUMPDEST SWAP2 POP POP SWAP3 SWAP2 POP POP JUMP JUMPDEST PUSH32 0x4E487B7100000000000000000000000000000000000000000000000000000000 PUSH1 0x0 MSTORE PUSH1 0x11 PUSH1 0x4 MSTORE PUSH1 0x24 PUSH1 0x0 REVERT JUMPDEST PUSH1 0x0 DUP2 PUSH1 0x1 SHR SWAP1 POP SWAP2 SWAP1 POP JUMP JUMPDEST PUSH1 0x0 DUP1 DUP3 SWAP2 POP DUP4 SWAP1 POP JUMPDEST PUSH1 0x1 DUP6 GT ISZERO PUSH3 0x778 JUMPI DUP1 DUP7 DIV DUP2 GT ISZERO PUSH3 0x750 JUMPI PUSH3 0x74F PUSH3 0x6EA JUMP JUMPDEST JUMPDEST PUSH1 0x1 DUP6 AND ISZERO PUSH3 0x760 JUMPI DUP1 DUP3 MUL SWAP2 POP JUMPDEST DUP1 DUP2 MUL SWAP1 POP PUSH3 0x770 DUP6 PUSH3 0x719 JUMP JUMPDEST SWAP5 POP PUSH3 0x730 JUMP JUMPDEST SWAP5 POP SWAP5 SWAP3 POP POP POP JUMP JUMPDEST PUSH1 0x0 DUP3 PUSH3 0x793 JUMPI PUSH1 0x1 SWAP1 POP PUSH3 0x866 JUMP JUMPDEST DUP2 PUSH3 0x7A3 JUMPI PUSH1 0x0 SWAP1 POP PUSH3 0x866 JUMP JUMPDEST DUP2 PUSH1 0x1 DUP2 EQ PUSH3 0x7BC JUMPI PUSH1 0x2 DUP2 EQ PUSH3 0x7C7 JUMPI PUSH3 0x7FD JUMP JUMPDEST PUSH1 0x1 SWAP2 POP POP PUSH3 0x866 JUMP JUMPDEST PUSH1 0xFF DUP5 GT ISZERO PUSH3 0x7DC JUMPI PUSH3 0x7DB PUSH3 0x6EA JUMP JUMPDEST JUMPDEST DUP4 PUSH1 0x2 EXP SWAP2 POP DUP5 DUP3 GT ISZERO PUSH3 0x7F6 JUMPI PUSH3 0x7F5 PUSH3 0x6EA JUMP JUMPDEST JUMPDEST POP PUSH3 0x866 JUMP JUMPDEST POP PUSH1 0x20 DUP4 LT PUSH2 0x133 DUP4 LT AND PUSH1 0x4E DUP5 LT PUSH1 0xB DUP5 LT AND OR ISZERO PUSH3 0x837 JUMPI DUP3 DUP3 EXP SWAP1 POP DUP4 DUP2 GT ISZERO PUSH3 0x831 JUMPI PUSH3 0x830 PUSH3 0x6EA JUMP JUMPDEST JUMPDEST PUSH3 0x866 JUMP JUMPDEST PUSH3 0x846 DUP5 DUP5 DUP5 PUSH1 0x1 PUSH3 0x726 JUMP JUMPDEST SWAP3 POP SWAP1 POP DUP2 DUP5 DIV DUP2 GT ISZERO PUSH3 0x860 JUMPI PUSH3 0x85F PUSH3 0x6EA JUMP JUMPDEST JUMPDEST DUP2 DUP2 MUL SWAP1 POP JUMPDEST SWAP4 SWAP3 POP POP POP JUMP JUMPDEST PUSH1 0x0 PUSH3 0x87A DUP3 PUSH3 0x3DE JUMP JUMPDEST SWAP2 POP PUSH3 0x887 DUP4 PUSH3 0x67A JUMP JUMPDEST SWAP3 POP PUSH3 0x8B6 PUSH32 0xFFFFFFFFFFFFFFFFFFFFFFFFFFFFFFFFFFFFFFFFFFFFFFFFFFFFFFFFFFFFFFFF DUP5 DUP5 PUSH3 0x781 JUMP JUMPDEST SWAP1 POP SWAP3 SWAP2 POP POP JUMP JUMPDEST PUSH1 0x0 PUSH3 0x8CB DUP3 PUSH3 0x3DE JUMP JUMPDEST SWAP2 POP PUSH3 0x8D8 DUP4 PUSH3 0x3DE JUMP JUMPDEST SWAP3 POP DUP3 DUP3 MUL PUSH3 0x8E8 DUP2 PUSH3 0x3DE JUMP JUMPDEST SWAP2 POP DUP3 DUP3 DIV DUP5 EQ DUP4 ISZERO OR PUSH3 0x902 JUMPI PUSH3 0x901 PUSH3 0x6EA JUMP JUMPDEST JUMPDEST POP SWAP3 SWAP2 POP POP JUMP JUMPDEST PUSH1 0x0 PUSH3 0x916 DUP3 PUSH3 0x3DE JUMP JUMPDEST SWAP2 POP PUSH3 0x923 DUP4 PUSH3 0x3DE JUMP JUMPDEST SWAP3 POP DUP3 DUP3 ADD SWAP1 POP DUP1 DUP3 GT ISZERO PUSH3 0x93E JUMPI PUSH3 0x93D PUSH3 0x6EA JUMP JUMPDEST JUMPDEST SWAP3 SWAP2 POP POP JUMP JUMPDEST PUSH2 0x1E6F DUP1 PUSH3 0x954 PUSH1 0x0 CODECOPY PUSH1 0x0 RETURN INVALID PUSH1 0x80 PUSH1 0x40 MSTORE PUSH1 0x4 CALLDATASIZE LT PUSH2 0x14F JUMPI PUSH1 0x0 CALLDATALOAD PUSH1 0xE0 SHR DUP1 PUSH4 0x8DA5CB5B GT PUSH2 0xB6 JUMPI DUP1 PUSH4 0xE3C20369 GT PUSH2 0x6F JUMPI DUP1 PUSH4 0xE3C20369 EQ PUSH2 0x3FC JUMPI DUP1 PUSH4 0xE6FD48BC EQ PUSH2 0x427 JUMPI DUP1 PUSH4 0xEA63FB26 EQ PUSH2 0x452 JUMPI DUP1 PUSH4 0xF2FDE38B EQ PUSH2 0x48F JUMPI DUP1 PUSH4 0xFC0C546A EQ PUSH2 0x4B8 JUMPI DUP1 PUSH4 0xFFF1939C EQ PUSH2 0x4E3 JUMPI PUSH2 0x156 JUMP JUMPDEST DUP1 PUSH4 0x8DA5CB5B EQ PUSH2 0x343 JUMPI DUP1 PUSH4 0xA0EF91DF EQ PUSH2 0x36E JUMPI DUP1 PUSH4 0xA85ADEAB EQ PUSH2 0x385 JUMPI DUP1 PUSH4 0xB66A0E5D EQ PUSH2 0x3B0 JUMPI DUP1 PUSH4 0xC7DAB436 EQ PUSH2 0x3C7 JUMPI DUP1 PUSH4 0xD0FEBE4C EQ PUSH2 0x3F2 JUMPI PUSH2 0x156 JUMP JUMPDEST DUP1 PUSH4 0x564566A8 GT PUSH2 0x108 JUMPI DUP1 PUSH4 0x564566A8 EQ PUSH2 0x27D JUMPI DUP1 PUSH4 0x5FBAA390 EQ PUSH2 0x2A8 JUMPI DUP1 PUSH4 0x715018A6 EQ PUSH2 0x2BF JUMPI DUP1 PUSH4 0x7E1C0C09 EQ PUSH2 0x2D6 JUMPI DUP1 PUSH4 0x8183B3C8 EQ PUSH2 0x301 JUMPI DUP1 PUSH4 0x82B2E257 EQ PUSH2 0x318 JUMPI PUSH2 0x156 JUMP JUMPDEST DUP1 PUSH4 0x3F891BD EQ PUSH2 0x15B JUMPI DUP1 PUSH4 0xF1A6444 EQ PUSH2 0x184 JUMPI DUP1 PUSH4 0x1726CBC8 EQ PUSH2 0x1AF JUMPI DUP1 PUSH4 0x27E235E3 EQ PUSH2 0x1EC JUMPI DUP1 PUSH4 0x420797C8 EQ PUSH2 0x229 JUMPI DUP1 PUSH4 0x54DD1DA4 EQ PUSH2 0x266 JUMPI PUSH2 0x156 JUMP JUMPDEST CALLDATASIZE PUSH2 0x156 JUMPI STOP JUMPDEST PUSH1 0x0 DUP1 REVERT JUMPDEST CALLVALUE DUP1 ISZERO PUSH2 0x167 JUMPI PUSH1 0x0 DUP1 REVERT JUMPDEST POP PUSH2 0x182 PUSH1 0x4 DUP1 CALLDATASIZE SUB DUP2 ADD SWAP1 PUSH2 0x17D SWAP2 SWAP1 PUSH2 0x135B JUMP JUMPDEST PUSH2 0x50C JUMP JUMPDEST STOP JUMPDEST CALLVALUE DUP1 ISZERO PUSH2 0x190 JUMPI PUSH1 0x0 DUP1 REVERT JUMPDEST POP PUSH2 0x199 PUSH2 0x51E JUMP JUMPDEST PUSH1 0x40 MLOAD PUSH2 0x1A6 SWAP2 SWAP1 PUSH2 0x1397 JUMP JUMPDEST PUSH1 0x40 MLOAD DUP1 SWAP2 SUB SWAP1 RETURN JUMPDEST CALLVALUE DUP1 ISZERO PUSH2 0x1BB JUMPI PUSH1 0x0 DUP1 REVERT JUMPDEST POP PUSH2 0x1D6 PUSH1 0x4 DUP1 CALLDATASIZE SUB DUP2 ADD SWAP1 PUSH2 0x1D1 SWAP2 SWAP1 PUSH2 0x1410 JUMP JUMPDEST PUSH2 0x524 JUMP JUMPDEST PUSH1 0x40 MLOAD PUSH2 0x1E3 SWAP2 SWAP1 PUSH2 0x1397 JUMP JUMPDEST PUSH1 0x40 MLOAD DUP1 SWAP2 SUB SWAP1 RETURN JUMPDEST CALLVALUE DUP1 ISZERO PUSH2 0x1F8 JUMPI PUSH1 0x0 DUP1 REVERT JUMPDEST POP PUSH2 0x213 PUSH1 0x4 DUP1 CALLDATASIZE SUB DUP2 ADD SWAP1 PUSH2 0x20E SWAP2 SWAP1 PUSH2 0x1410 JUMP JUMPDEST PUSH2 0x6F0 JUMP JUMPDEST PUSH1 0x40 MLOAD PUSH2 0x220 SWAP2 SWAP1 PUSH2 0x1397 JUMP JUMPDEST PUSH1 0x40 MLOAD DUP1 SWAP2 SUB SWAP1 RETURN JUMPDEST CALLVALUE DUP1 ISZERO PUSH2 0x235 JUMPI PUSH1 0x0 DUP1 REVERT JUMPDEST POP PUSH2 0x250 PUSH1 0x4 DUP1 CALLDATASIZE SUB DUP2 ADD SWAP1 PUSH2 0x24B SWAP2 SWAP1 PUSH2 0x135B JUMP JUMPDEST PUSH2 0x708 JUMP JUMPDEST PUSH1 0x40 MLOAD PUSH2 0x25D SWAP2 SWAP1 PUSH2 0x1397 JUMP JUMPDEST PUSH1 0x40 MLOAD DUP1 SWAP2 SUB SWAP1 RETURN JUMPDEST CALLVALUE DUP1 ISZERO PUSH2 0x272 JUMPI PUSH1 0x0 DUP1 REVERT JUMPDEST POP PUSH2 0x27B PUSH2 0x7D4 JUMP JUMPDEST STOP JUMPDEST CALLVALUE DUP1 ISZERO PUSH2 0x289 JUMPI PUSH1 0x0 DUP1 REVERT JUMPDEST POP PUSH2 0x292 PUSH2 0x96D JUMP JUMPDEST PUSH1 0x40 MLOAD PUSH2 0x29F SWAP2 SWAP1 PUSH2 0x1458 JUMP JUMPDEST PUSH1 0x40 MLOAD DUP1 SWAP2 SUB SWAP1 RETURN JUMPDEST CALLVALUE DUP1 ISZERO PUSH2 0x2B4 JUMPI PUSH1 0x0 DUP1 REVERT JUMPDEST POP PUSH2 0x2BD PUSH2 0x980 JUMP JUMPDEST STOP JUMPDEST CALLVALUE DUP1 ISZERO PUSH2 0x2CB JUMPI PUSH1 0x0 DUP1 REVERT JUMPDEST POP PUSH2 0x2D4 PUSH2 0x9F4 JUMP JUMPDEST STOP JUMPDEST CALLVALUE DUP1 ISZERO PUSH2 0x2E2 JUMPI PUSH1 0x0 DUP1 REVERT JUMPDEST POP PUSH2 0x2EB PUSH2 0xA08 JUMP JUMPDEST PUSH1 0x40 MLOAD PUSH2 0x2F8 SWAP2 SWAP1 PUSH2 0x1397 JUMP JUMPDEST PUSH1 0x40 MLOAD DUP1 SWAP2 SUB SWAP1 RETURN JUMPDEST CALLVALUE DUP1 ISZERO PUSH2 0x30D JUMPI PUSH1 0x0 DUP1 REVERT JUMPDEST POP PUSH2 0x316 PUSH2 0xA0E JUMP JUMPDEST STOP JUMPDEST CALLVALUE DUP1 ISZERO PUSH2 0x324 JUMPI PUSH1 0x0 DUP1 REVERT JUMPDEST POP PUSH2 0x32D PUSH2 0xB09 JUMP JUMPDEST PUSH1 0x40 MLOAD PUSH2 0x33A SWAP2 SWAP1 PUSH2 0x1397 JUMP JUMPDEST PUSH1 0x40 MLOAD DUP1 SWAP2 SUB SWAP1 RETURN JUMPDEST CALLVALUE DUP1 ISZERO PUSH2 0x34F JUMPI PUSH1 0x0 DUP1 REVERT JUMPDEST POP PUSH2 0x358 PUSH2 0xBAC JUMP JUMPDEST PUSH1 0x40 MLOAD PUSH2 0x365 SWAP2 SWAP1 PUSH2 0x1482 JUMP JUMPDEST PUSH1 0x40 MLOAD DUP1 SWAP2 SUB SWAP1 RETURN JUMPDEST CALLVALUE DUP1 ISZERO PUSH2 0x37A JUMPI PUSH1 0x0 DUP1 REVERT JUMPDEST POP PUSH2 0x383 PUSH2 0xBD5 JUMP JUMPDEST STOP JUMPDEST CALLVALUE DUP1 ISZERO PUSH2 0x391 JUMPI PUSH1 0x0 DUP1 REVERT JUMPDEST POP PUSH2 0x39A PUSH2 0xC26 JUMP JUMPDEST PUSH1 0x40 MLOAD PUSH2 0x3A7 SWAP2 SWAP1 PUSH2 0x1397 JUMP JUMPDEST PUSH1 0x40 MLOAD DUP1 SWAP2 SUB SWAP1 RETURN JUMPDEST CALLVALUE DUP1 ISZERO PUSH2 0x3BC JUMPI PUSH1 0x0 DUP1 REVERT JUMPDEST POP PUSH2 0x3C5 PUSH2 0xC2C JUMP JUMPDEST STOP JUMPDEST CALLVALUE DUP1 ISZERO PUSH2 0x3D3 JUMPI PUSH1 0x0 DUP1 REVERT JUMPDEST POP PUSH2 0x3DC PUSH2 0xCA1 JUMP JUMPDEST PUSH1 0x40 MLOAD PUSH2 0x3E9 SWAP2 SWAP1 PUSH2 0x1397 JUMP JUMPDEST PUSH1 0x40 MLOAD DUP1 SWAP2 SUB SWAP1 RETURN JUMPDEST PUSH2 0x3FA PUSH2 0xCA7 JUMP JUMPDEST STOP JUMPDEST CALLVALUE DUP1 ISZERO PUSH2 0x408 JUMPI PUSH1 0x0 DUP1 REVERT JUMPDEST POP PUSH2 0x411 PUSH2 0xF32 JUMP JUMPDEST PUSH1 0x40 MLOAD PUSH2 0x41E SWAP2 SWAP1 PUSH2 0x1397 JUMP JUMPDEST PUSH1 0x40 MLOAD DUP1 SWAP2 SUB SWAP1 RETURN JUMPDEST CALLVALUE DUP1 ISZERO PUSH2 0x433 JUMPI PUSH1 0x0 DUP1 REVERT JUMPDEST POP PUSH2 0x43C PUSH2 0xF38 JUMP JUMPDEST PUSH1 0x40 MLOAD PUSH2 0x449 SWAP2 SWAP1 PUSH2 0x1397 JUMP JUMPDEST PUSH1 0x40 MLOAD DUP1 SWAP2 SUB SWAP1 RETURN JUMPDEST CALLVALUE DUP1 ISZERO PUSH2 0x45E JUMPI PUSH1 0x0 DUP1 REVERT JUMPDEST POP PUSH2 0x479 PUSH1 0x4 DUP1 CALLDATASIZE SUB DUP2 ADD SWAP1 PUSH2 0x474 SWAP2 SWAP1 PUSH2 0x1410 JUMP JUMPDEST PUSH2 0xF3E JUMP JUMPDEST PUSH1 0x40 MLOAD PUSH2 0x486 SWAP2 SWAP1 PUSH2 0x1397 JUMP JUMPDEST PUSH1 0x40 MLOAD DUP1 SWAP2 SUB SWAP1 RETURN JUMPDEST CALLVALUE DUP1 ISZERO PUSH2 0x49B JUMPI PUSH1 0x0 DUP1 REVERT JUMPDEST POP PUSH2 0x4B6 PUSH1 0x4 DUP1 CALLDATASIZE SUB DUP2 ADD SWAP1 PUSH2 0x4B1 SWAP2 SWAP1 PUSH2 0x1410 JUMP JUMPDEST PUSH2 0xF56 JUMP JUMPDEST STOP JUMPDEST CALLVALUE DUP1 ISZERO PUSH2 0x4C4 JUMPI PUSH1 0x0 DUP1 REVERT JUMPDEST POP PUSH2 0x4CD PUSH2 0xFD9 JUMP JUMPDEST PUSH1 0x40 MLOAD PUSH2 0x4DA SWAP2 SWAP1 PUSH2 0x14FC JUMP JUMPDEST PUSH1 0x40 MLOAD DUP1 SWAP2 SUB SWAP1 RETURN JUMPDEST CALLVALUE DUP1 ISZERO PUSH2 0x4EF JUMPI PUSH1 0x0 DUP1 REVERT JUMPDEST POP PUSH2 0x50A PUSH1 0x4 DUP1 CALLDATASIZE SUB DUP2 ADD SWAP1 PUSH2 0x505 SWAP2 SWAP1 PUSH2 0x135B JUMP JUMPDEST PUSH2 0xFFF JUMP JUMPDEST STOP JUMPDEST PUSH2 0x514 PUSH2 0x10C8 JUMP JUMPDEST DUP1 PUSH1 0x4 DUP2 SWAP1 SSTORE POP POP JUMP JUMPDEST PUSH1 0x7 SLOAD DUP2 JUMP JUMPDEST PUSH1 0x0 PUSH2 0x57A PUSH1 0x7 SLOAD PUSH1 0xB PUSH1 0x0 DUP6 PUSH20 0xFFFFFFFFFFFFFFFFFFFFFFFFFFFFFFFFFFFFFFFF AND PUSH20 0xFFFFFFFFFFFFFFFFFFFFFFFFFFFFFFFFFFFFFFFF AND DUP2 MSTORE PUSH1 0x20 ADD SWAP1 DUP2 MSTORE PUSH1 0x20 ADD PUSH1 0x0 KECCAK256 SLOAD PUSH2 0x1146 SWAP1 SWAP2 SWAP1 PUSH4 0xFFFFFFFF AND JUMP JUMPDEST TIMESTAMP LT ISZERO PUSH2 0x58A JUMPI PUSH1 0x0 SWAP1 POP PUSH2 0x6EB JUMP JUMPDEST PUSH2 0x5DE PUSH1 0x8 SLOAD PUSH1 0xB PUSH1 0x0 DUP6 PUSH20 0xFFFFFFFFFFFFFFFFFFFFFFFFFFFFFFFFFFFFFFFF AND PUSH20 0xFFFFFFFFFFFFFFFFFFFFFFFFFFFFFFFFFFFFFFFF AND DUP2 MSTORE PUSH1 0x20 ADD SWAP1 DUP2 MSTORE PUSH1 0x20 ADD PUSH1 0x0 KECCAK256 SLOAD PUSH2 0x1146 SWAP1 SWAP2 SWAP1 PUSH4 0xFFFFFFFF AND JUMP JUMPDEST TIMESTAMP LT PUSH2 0x62B JUMPI PUSH1 0xA PUSH1 0x0 DUP4 PUSH20 0xFFFFFFFFFFFFFFFFFFFFFFFFFFFFFFFFFFFFFFFF AND PUSH20 0xFFFFFFFFFFFFFFFFFFFFFFFFFFFFFFFFFFFFFFFF AND DUP2 MSTORE PUSH1 0x20 ADD SWAP1 DUP2 MSTORE PUSH1 0x20 ADD PUSH1 0x0 KECCAK256 SLOAD SWAP1 POP PUSH2 0x6EB JUMP JUMPDEST PUSH1 0x0 PUSH2 0x6E4 PUSH1 0x8 SLOAD PUSH2 0x6D6 PUSH2 0x688 PUSH1 0xB PUSH1 0x0 DUP9 PUSH20 0xFFFFFFFFFFFFFFFFFFFFFFFFFFFFFFFFFFFFFFFF AND PUSH20 0xFFFFFFFFFFFFFFFFFFFFFFFFFFFFFFFFFFFFFFFF AND DUP2 MSTORE PUSH1 0x20 ADD SWAP1 DUP2 MSTORE PUSH1 0x20 ADD PUSH1 0x0 KECCAK256 SLOAD TIMESTAMP PUSH2 0x1172 SWAP1 SWAP2 SWAP1 PUSH4 0xFFFFFFFF AND JUMP JUMPDEST PUSH1 0xA PUSH1 0x0 DUP9 PUSH20 0xFFFFFFFFFFFFFFFFFFFFFFFFFFFFFFFFFFFFFFFF AND PUSH20 0xFFFFFFFFFFFFFFFFFFFFFFFFFFFFFFFFFFFFFFFF AND DUP2 MSTORE PUSH1 0x20 ADD SWAP1 DUP2 MSTORE PUSH1 0x20 ADD PUSH1 0x0 KECCAK256 SLOAD PUSH2 0x1199 SWAP1 SWAP2 SWAP1 PUSH4 0xFFFFFFFF AND JUMP JUMPDEST PUSH2 0x11E1 SWAP1 SWAP2 SWAP1 PUSH4 0xFFFFFFFF AND JUMP JUMPDEST SWAP1 POP DUP1 SWAP2 POP POP JUMPDEST SWAP2 SWAP1 POP JUMP JUMPDEST PUSH1 0xA PUSH1 0x20 MSTORE DUP1 PUSH1 0x0 MSTORE PUSH1 0x40 PUSH1 0x0 KECCAK256 PUSH1 0x0 SWAP2 POP SWAP1 POP SLOAD DUP2 JUMP JUMPDEST PUSH1 0x0 PUSH2 0x7CD PUSH1 0x2 PUSH1 0x0 SWAP1 SLOAD SWAP1 PUSH2 0x100 EXP SWAP1 DIV PUSH20 0xFFFFFFFFFFFFFFFFFFFFFFFFFFFFFFFFFFFFFFFF AND PUSH20 0xFFFFFFFFFFFFFFFFFFFFFFFFFFFFFFFFFFFFFFFF AND PUSH4 0x313CE567 PUSH1 0x40 MLOAD DUP2 PUSH4 0xFFFFFFFF AND PUSH1 0xE0 SHL DUP2 MSTORE PUSH1 0x4 ADD PUSH1 0x20 PUSH1 0x40 MLOAD DUP1 DUP4 SUB DUP2 DUP7 GAS STATICCALL ISZERO DUP1 ISZERO PUSH2 0x77A JUMPI RETURNDATASIZE PUSH1 0x0 DUP1 RETURNDATACOPY RETURNDATASIZE PUSH1 0x0 REVERT JUMPDEST POP POP POP POP PUSH1 0x40 MLOAD RETURNDATASIZE PUSH1 0x1F NOT PUSH1 0x1F DUP3 ADD AND DUP3 ADD DUP1 PUSH1 0x40 MSTORE POP DUP2 ADD SWAP1 PUSH2 0x79E SWAP2 SWAP1 PUSH2 0x1550 JUMP JUMPDEST PUSH1 0xA PUSH2 0x7AA SWAP2 SWAP1 PUSH2 0x16DF JUMP JUMPDEST PUSH2 0x7BF PUSH1 0x4 SLOAD DUP6 PUSH2 0x1199 SWAP1 SWAP2 SWAP1 PUSH4 0xFFFFFFFF AND JUMP JUMPDEST PUSH2 0x11E1 SWAP1 SWAP2 SWAP1 PUSH4 0xFFFFFFFF AND JUMP JUMPDEST SWAP1 POP SWAP2 SWAP1 POP JUMP JUMPDEST PUSH2 0x7DC PUSH2 0x11FC JUMP JUMPDEST PUSH1 0x0 PUSH2 0x7E7 CALLER PUSH2 0x524 JUMP JUMPDEST SWAP1 POP PUSH1 0x0 DUP2 GT PUSH2 0x82C JUMPI PUSH1 0x40 MLOAD PUSH32 0x8C379A000000000000000000000000000000000000000000000000000000000 DUP2 MSTORE PUSH1 0x4 ADD PUSH2 0x823 SWAP1 PUSH2 0x1787 JUMP JUMPDEST PUSH1 0x40 MLOAD DUP1 SWAP2 SUB SWAP1 REVERT JUMPDEST PUSH1 0x2 PUSH1 0x0 SWAP1 SLOAD SWAP1 PUSH2 0x100 EXP SWAP1 DIV PUSH20 0xFFFFFFFFFFFFFFFFFFFFFFFFFFFFFFFFFFFFFFFF AND PUSH20 0xFFFFFFFFFFFFFFFFFFFFFFFFFFFFFFFFFFFFFFFF AND PUSH4 0xA9059CBB CALLER DUP4 PUSH1 0x40 MLOAD DUP4 PUSH4 0xFFFFFFFF AND PUSH1 0xE0 SHL DUP2 MSTORE PUSH1 0x4 ADD PUSH2 0x889 SWAP3 SWAP2 SWAP1 PUSH2 0x17A7 JUMP JUMPDEST PUSH1 0x20 PUSH1 0x40 MLOAD DUP1 DUP4 SUB DUP2 PUSH1 0x0 DUP8 GAS CALL ISZERO DUP1 ISZERO PUSH2 0x8A8 JUMPI RETURNDATASIZE PUSH1 0x0 DUP1 RETURNDATACOPY RETURNDATASIZE PUSH1 0x0 REVERT JUMPDEST POP POP POP POP PUSH1 0x40 MLOAD RETURNDATASIZE PUSH1 0x1F NOT PUSH1 0x1F DUP3 ADD AND DUP3 ADD DUP1 PUSH1 0x40 MSTORE POP DUP2 ADD SWAP1 PUSH2 0x8CC SWAP2 SWAP1 PUSH2 0x17FC JUMP JUMPDEST POP PUSH2 0x91F DUP2 PUSH1 0xA PUSH1 0x0 CALLER PUSH20 0xFFFFFFFFFFFFFFFFFFFFFFFFFFFFFFFFFFFFFFFF AND PUSH20 0xFFFFFFFFFFFFFFFFFFFFFFFFFFFFFFFFFFFFFFFF AND DUP2 MSTORE PUSH1 0x20 ADD SWAP1 DUP2 MSTORE PUSH1 0x20 ADD PUSH1 0x0 KECCAK256 SLOAD PUSH2 0x1172 SWAP1 SWAP2 SWAP1 PUSH4 0xFFFFFFFF AND JUMP JUMPDEST PUSH1 0xA PUSH1 0x0 CALLER PUSH20 0xFFFFFFFFFFFFFFFFFFFFFFFFFFFFFFFFFFFFFFFF AND PUSH20 0xFFFFFFFFFFFFFFFFFFFFFFFFFFFFFFFFFFFFFFFF AND DUP2 MSTORE PUSH1 0x20 ADD SWAP1 DUP2 MSTORE PUSH1 0x20 ADD PUSH1 0x0 KECCAK256 DUP2 SWAP1 SSTORE POP POP PUSH2 0x96B PUSH2 0x124B JUMP JUMPDEST JUMP JUMPDEST PUSH1 0x9 PUSH1 0x0 SWAP1 SLOAD SWAP1 PUSH2 0x100 EXP SWAP1 DIV PUSH1 0xFF AND DUP2 JUMP JUMPDEST PUSH2 0x988 PUSH2 0x10C8 JUMP JUMPDEST PUSH1 0x9 PUSH1 0x0 SWAP1 SLOAD SWAP1 PUSH2 0x100 EXP SWAP1 DIV PUSH1 0xFF AND PUSH2 0x9D7 JUMPI PUSH1 0x40 MLOAD PUSH32 0x8C379A000000000000000000000000000000000000000000000000000000000 DUP2 MSTORE PUSH1 0x4 ADD PUSH2 0x9CE SWAP1 PUSH2 0x1875 JUMP JUMPDEST PUSH1 0x40 MLOAD DUP1 SWAP2 SUB SWAP1 REVERT JUMPDEST PUSH1 0x0 PUSH1 0x9 PUSH1 0x0 PUSH2 0x100 EXP DUP2 SLOAD DUP2 PUSH1 0xFF MUL NOT AND SWAP1 DUP4 ISZERO ISZERO MUL OR SWAP1 SSTORE POP JUMP JUMPDEST PUSH2 0x9FC PUSH2 0x10C8 JUMP JUMPDEST PUSH2 0xA06 PUSH1 0x0 PUSH2 0x1254 JUMP JUMPDEST JUMP JUMPDEST PUSH1 0x3 SLOAD DUP2 JUMP JUMPDEST PUSH2 0xA16 PUSH2 0x10C8 JUMP JUMPDEST PUSH1 0x0 PUSH2 0xA20 PUSH2 0xB09 JUMP JUMPDEST SWAP1 POP PUSH1 0x0 DUP2 GT PUSH2 0xA65 JUMPI PUSH1 0x40 MLOAD PUSH32 0x8C379A000000000000000000000000000000000000000000000000000000000 DUP2 MSTORE PUSH1 0x4 ADD PUSH2 0xA5C SWAP1 PUSH2 0x18E1 JUMP JUMPDEST PUSH1 0x40 MLOAD DUP1 SWAP2 SUB SWAP1 REVERT JUMPDEST PUSH1 0x2 PUSH1 0x0 SWAP1 SLOAD SWAP1 PUSH2 0x100 EXP SWAP1 DIV PUSH20 0xFFFFFFFFFFFFFFFFFFFFFFFFFFFFFFFFFFFFFFFF AND PUSH20 0xFFFFFFFFFFFFFFFFFFFFFFFFFFFFFFFFFFFFFFFF AND PUSH4 0xA9059CBB CALLER DUP4 PUSH1 0x40 MLOAD DUP4 PUSH4 0xFFFFFFFF AND PUSH1 0xE0 SHL DUP2 MSTORE PUSH1 0x4 ADD PUSH2 0xAC2 SWAP3 SWAP2 SWAP1 PUSH2 0x17A7 JUMP JUMPDEST PUSH1 0x20 PUSH1 0x40 MLOAD DUP1 DUP4 SUB DUP2 PUSH1 0x0 DUP8 GAS CALL ISZERO DUP1 ISZERO PUSH2 0xAE1 JUMPI RETURNDATASIZE PUSH1 0x0 DUP1 RETURNDATACOPY RETURNDATASIZE PUSH1 0x0 REVERT JUMPDEST POP POP POP POP PUSH1 0x40 MLOAD RETURNDATASIZE PUSH1 0x1F NOT PUSH1 0x1F DUP3 ADD AND DUP3 ADD DUP1 PUSH1 0x40 MSTORE POP DUP2 ADD SWAP1 PUSH2 0xB05 SWAP2 SWAP1 PUSH2 0x17FC JUMP JUMPDEST POP POP JUMP JUMPDEST PUSH1 0x0 PUSH1 0x2 PUSH1 0x0 SWAP1 SLOAD SWAP1 PUSH2 0x100 EXP SWAP1 DIV PUSH20 0xFFFFFFFFFFFFFFFFFFFFFFFFFFFFFFFFFFFFFFFF AND PUSH20 0xFFFFFFFFFFFFFFFFFFFFFFFFFFFFFFFFFFFFFFFF AND PUSH4 0x70A08231 ADDRESS PUSH1 0x40 MLOAD DUP3 PUSH4 0xFFFFFFFF AND PUSH1 0xE0 SHL DUP2 MSTORE PUSH1 0x4 ADD PUSH2 0xB66 SWAP2 SWAP1 PUSH2 0x1482 JUMP JUMPDEST PUSH1 0x20 PUSH1 0x40 MLOAD DUP1 DUP4 SUB DUP2 DUP7 GAS STATICCALL ISZERO DUP1 ISZERO PUSH2 0xB83 JUMPI RETURNDATASIZE PUSH1 0x0 DUP1 RETURNDATACOPY RETURNDATASIZE PUSH1 0x0 REVERT JUMPDEST POP POP POP POP PUSH1 0x40 MLOAD RETURNDATASIZE PUSH1 0x1F NOT PUSH1 0x1F DUP3 ADD AND DUP3 ADD DUP1 PUSH1 0x40 MSTORE POP DUP2 ADD SWAP1 PUSH2 0xBA7 SWAP2 SWAP1 PUSH2 0x1916 JUMP JUMPDEST SWAP1 POP SWAP1 JUMP JUMPDEST PUSH1 0x0 DUP1 PUSH1 0x0 SWAP1 SLOAD SWAP1 PUSH2 0x100 EXP SWAP1 DIV PUSH20 0xFFFFFFFFFFFFFFFFFFFFFFFFFFFFFFFFFFFFFFFF AND SWAP1 POP SWAP1 JUMP JUMPDEST PUSH2 0xBDD PUSH2 0x10C8 JUMP JUMPDEST CALLER PUSH20 0xFFFFFFFFFFFFFFFFFFFFFFFFFFFFFFFFFFFFFFFF AND PUSH2 0x8FC SELFBALANCE SWAP1 DUP2 ISZERO MUL SWAP1 PUSH1 0x40 MLOAD PUSH1 0x0 PUSH1 0x40 MLOAD DUP1 DUP4 SUB DUP2 DUP6 DUP9 DUP9 CALL SWAP4 POP POP POP POP ISZERO DUP1 ISZERO PUSH2 0xC23 JUMPI RETURNDATASIZE PUSH1 0x0 DUP1 RETURNDATACOPY RETURNDATASIZE PUSH1 0x0 REVERT JUMPDEST POP JUMP JUMPDEST PUSH1 0x6 SLOAD DUP2 JUMP JUMPDEST PUSH2 0xC34 PUSH2 0x10C8 JUMP JUMPDEST PUSH1 0x9 PUSH1 0x0 SWAP1 SLOAD SWAP1 PUSH2 0x100 EXP SWAP1 DIV PUSH1 0xFF AND ISZERO PUSH2 0xC84 JUMPI PUSH1 0x40 MLOAD PUSH32 0x8C379A000000000000000000000000000000000000000000000000000000000 DUP2 MSTORE PUSH1 0x4 ADD PUSH2 0xC7B SWAP1 PUSH2 0x198F JUMP JUMPDEST PUSH1 0x40 MLOAD DUP1 SWAP2 SUB SWAP1 REVERT JUMPDEST PUSH1 0x1 PUSH1 0x9 PUSH1 0x0 PUSH2 0x100 EXP DUP2 SLOAD DUP2 PUSH1 0xFF MUL NOT AND SWAP1 DUP4 ISZERO ISZERO MUL OR SWAP1 SSTORE POP JUMP JUMPDEST PUSH1 0x8 SLOAD DUP2 JUMP JUMPDEST PUSH1 0x5 SLOAD TIMESTAMP LT ISZERO DUP1 ISZERO PUSH2 0xCBA JUMPI POP PUSH1 0x6 SLOAD TIMESTAMP LT JUMPDEST PUSH2 0xCF9 JUMPI PUSH1 0x40 MLOAD PUSH32 0x8C379A000000000000000000000000000000000000000000000000000000000 DUP2 MSTORE PUSH1 0x4 ADD PUSH2 0xCF0 SWAP1 PUSH2 0x19FB JUMP JUMPDEST PUSH1 0x40 MLOAD DUP1 SWAP2 SUB SWAP1 REVERT JUMPDEST PUSH2 0xD01 PUSH2 0x11FC JUMP JUMPDEST PUSH1 0x9 PUSH1 0x0 SWAP1 SLOAD SWAP1 PUSH2 0x100 EXP SWAP1 DIV PUSH1 0xFF AND PUSH2 0xD50 JUMPI PUSH1 0x40 MLOAD PUSH32 0x8C379A000000000000000000000000000000000000000000000000000000000 DUP2 MSTORE PUSH1 0x4 ADD PUSH2 0xD47 SWAP1 PUSH2 0x1A67 JUMP JUMPDEST PUSH1 0x40 MLOAD DUP1 SWAP2 SUB SWAP1 REVERT JUMPDEST PUSH1 0x0 CALLVALUE GT PUSH2 0xD93 JUMPI PUSH1 0x40 MLOAD PUSH32 0x8C379A000000000000000000000000000000000000000000000000000000000 DUP2 MSTORE PUSH1 0x4 ADD PUSH2 0xD8A SWAP1 PUSH2 0x1AD3 JUMP JUMPDEST PUSH1 0x40 MLOAD DUP1 SWAP2 SUB SWAP1 REVERT JUMPDEST PUSH1 0x0 PUSH2 0xD9E CALLVALUE PUSH2 0x708 JUMP JUMPDEST SWAP1 POP PUSH1 0x3 SLOAD DUP2 GT ISZERO PUSH2 0xDE5 JUMPI PUSH1 0x40 MLOAD PUSH32 0x8C379A000000000000000000000000000000000000000000000000000000000 DUP2 MSTORE PUSH1 0x4 ADD PUSH2 0xDDC SWAP1 PUSH2 0x1B3F JUMP JUMPDEST PUSH1 0x40 MLOAD DUP1 SWAP2 SUB SWAP1 REVERT JUMPDEST PUSH2 0xDFA DUP2 PUSH1 0x3 SLOAD PUSH2 0x1172 SWAP1 SWAP2 SWAP1 PUSH4 0xFFFFFFFF AND JUMP JUMPDEST PUSH1 0x3 DUP2 SWAP1 SSTORE POP TIMESTAMP PUSH1 0xB PUSH1 0x0 CALLER PUSH20 0xFFFFFFFFFFFFFFFFFFFFFFFFFFFFFFFFFFFFFFFF AND PUSH20 0xFFFFFFFFFFFFFFFFFFFFFFFFFFFFFFFFFFFFFFFF AND DUP2 MSTORE PUSH1 0x20 ADD SWAP1 DUP2 MSTORE PUSH1 0x20 ADD PUSH1 0x0 KECCAK256 DUP2 SWAP1 SSTORE POP PUSH2 0xE96 DUP2 PUSH1 0xA PUSH1 0x0 CALLER PUSH20 0xFFFFFFFFFFFFFFFFFFFFFFFFFFFFFFFFFFFFFFFF AND PUSH20 0xFFFFFFFFFFFFFFFFFFFFFFFFFFFFFFFFFFFFFFFF AND DUP2 MSTORE PUSH1 0x20 ADD SWAP1 DUP2 MSTORE PUSH1 0x20 ADD PUSH1 0x0 KECCAK256 SLOAD PUSH2 0x1146 SWAP1 SWAP2 SWAP1 PUSH4 0xFFFFFFFF AND JUMP JUMPDEST PUSH1 0xA PUSH1 0x0 CALLER PUSH20 0xFFFFFFFFFFFFFFFFFFFFFFFFFFFFFFFFFFFFFFFF AND PUSH20 0xFFFFFFFFFFFFFFFFFFFFFFFFFFFFFFFFFFFFFFFF AND DUP2 MSTORE PUSH1 0x20 ADD SWAP1 DUP2 MSTORE PUSH1 0x20 ADD PUSH1 0x0 KECCAK256 DUP2 SWAP1 SSTORE POP CALLER PUSH20 0xFFFFFFFFFFFFFFFFFFFFFFFFFFFFFFFFFFFFFFFF AND PUSH32 0x8F28852646C20CC973D3A8218F7EEFED58C25C909F78F0265AF4818C3D4DC271 DUP3 PUSH1 0x40 MLOAD PUSH2 0xF1F SWAP2 SWAP1 PUSH2 0x1397 JUMP JUMPDEST PUSH1 0x40 MLOAD DUP1 SWAP2 SUB SWAP1 LOG2 POP PUSH2 0xF30 PUSH2 0x124B JUMP JUMPDEST JUMP JUMPDEST PUSH1 0x4 SLOAD DUP2 JUMP JUMPDEST PUSH1 0x5 SLOAD DUP2 JUMP JUMPDEST PUSH1 0xB PUSH1 0x20 MSTORE DUP1 PUSH1 0x0 MSTORE PUSH1 0x40 PUSH1 0x0 KECCAK256 PUSH1 0x0 SWAP2 POP SWAP1 POP SLOAD DUP2 JUMP JUMPDEST PUSH2 0xF5E PUSH2 0x10C8 JUMP JUMPDEST PUSH1 0x0 PUSH20 0xFFFFFFFFFFFFFFFFFFFFFFFFFFFFFFFFFFFFFFFF AND DUP2 PUSH20 0xFFFFFFFFFFFFFFFFFFFFFFFFFFFFFFFFFFFFFFFF AND SUB PUSH2 0xFCD JUMPI PUSH1 0x40 MLOAD PUSH32 0x8C379A000000000000000000000000000000000000000000000000000000000 DUP2 MSTORE PUSH1 0x4 ADD PUSH2 0xFC4 SWAP1 PUSH2 0x1BD1 JUMP JUMPDEST PUSH1 0x40 MLOAD DUP1 SWAP2 SUB SWAP1 REVERT JUMPDEST PUSH2 0xFD6 DUP2 PUSH2 0x1254 JUMP JUMPDEST POP JUMP JUMPDEST PUSH1 0x2 PUSH1 0x0 SWAP1 SLOAD SWAP1 PUSH2 0x100 EXP SWAP1 DIV PUSH20 0xFFFFFFFFFFFFFFFFFFFFFFFFFFFFFFFFFFFFFFFF AND DUP2 JUMP JUMPDEST PUSH2 0x1007 PUSH2 0x10C8 JUMP JUMPDEST PUSH1 0x2 PUSH1 0x0 SWAP1 SLOAD SWAP1 PUSH2 0x100 EXP SWAP1 DIV PUSH20 0xFFFFFFFFFFFFFFFFFFFFFFFFFFFFFFFFFFFFFFFF AND PUSH20 0xFFFFFFFFFFFFFFFFFFFFFFFFFFFFFFFFFFFFFFFF AND PUSH4 0x23B872DD CALLER ADDRESS DUP5 PUSH1 0x40 MLOAD DUP5 PUSH4 0xFFFFFFFF AND PUSH1 0xE0 SHL DUP2 MSTORE PUSH1 0x4 ADD PUSH2 0x1066 SWAP4 SWAP3 SWAP2 SWAP1 PUSH2 0x1BF1 JUMP JUMPDEST PUSH1 0x20 PUSH1 0x40 MLOAD DUP1 DUP4 SUB DUP2 PUSH1 0x0 DUP8 GAS CALL ISZERO DUP1 ISZERO PUSH2 0x1085 JUMPI RETURNDATASIZE PUSH1 0x0 DUP1 RETURNDATACOPY RETURNDATASIZE PUSH1 0x0 REVERT JUMPDEST POP POP POP POP PUSH1 0x40 MLOAD RETURNDATASIZE PUSH1 0x1F NOT PUSH1 0x1F DUP3 ADD AND DUP3 ADD DUP1 PUSH1 0x40 MSTORE POP DUP2 ADD SWAP1 PUSH2 0x10A9 SWAP2 SWAP1 PUSH2 0x17FC JUMP JUMPDEST POP PUSH2 0x10BF DUP2 PUSH1 0x3 SLOAD PUSH2 0x1146 SWAP1 SWAP2 SWAP1 PUSH4 0xFFFFFFFF AND JUMP JUMPDEST PUSH1 0x3 DUP2 SWAP1 SSTORE POP POP JUMP JUMPDEST PUSH2 0x10D0 PUSH2 0x1318 JUMP JUMPDEST PUSH20 0xFFFFFFFFFFFFFFFFFFFFFFFFFFFFFFFFFFFFFFFF AND PUSH2 0x10EE PUSH2 0xBAC JUMP JUMPDEST PUSH20 0xFFFFFFFFFFFFFFFFFFFFFFFFFFFFFFFFFFFFFFFF AND EQ PUSH2 0x1144 JUMPI PUSH1 0x40 MLOAD PUSH32 0x8C379A000000000000000000000000000000000000000000000000000000000 DUP2 MSTORE PUSH1 0x4 ADD PUSH2 0x113B SWAP1 PUSH2 0x1C74 JUMP JUMPDEST PUSH1 0x40 MLOAD DUP1 SWAP2 SUB SWAP1 REVERT JUMPDEST JUMP JUMPDEST PUSH1 0x0 DUP1 DUP3 DUP5 PUSH2 0x1155 SWAP2 SWAP1 PUSH2 0x1C94 JUMP JUMPDEST SWAP1 POP DUP4 DUP2 LT ISZERO PUSH2 0x1168 JUMPI PUSH2 0x1167 PUSH2 0x1CC8 JUMP JUMPDEST JUMPDEST DUP1 SWAP2 POP POP SWAP3 SWAP2 POP POP JUMP JUMPDEST PUSH1 0x0 DUP3 DUP3 GT ISZERO PUSH2 0x1185 JUMPI PUSH2 0x1184 PUSH2 0x1CC8 JUMP JUMPDEST JUMPDEST DUP2 DUP4 PUSH2 0x1191 SWAP2 SWAP1 PUSH2 0x1CF7 JUMP JUMPDEST SWAP1 POP SWAP3 SWAP2 POP POP JUMP JUMPDEST PUSH1 0x0 DUP1 DUP4 SUB PUSH2 0x11AB JUMPI PUSH1 0x0 SWAP1 POP PUSH2 0x11DB JUMP JUMPDEST PUSH1 0x0 DUP3 DUP5 PUSH2 0x11B9 SWAP2 SWAP1 PUSH2 0x1D2B JUMP JUMPDEST SWAP1 POP DUP3 DUP5 DUP3 PUSH2 0x11C8 SWAP2 SWAP1 PUSH2 0x1D9C JUMP JUMPDEST EQ PUSH2 0x11D6 JUMPI PUSH2 0x11D5 PUSH2 0x1CC8 JUMP JUMPDEST JUMPDEST DUP1 SWAP2 POP POP JUMPDEST SWAP3 SWAP2 POP POP JUMP JUMPDEST PUSH1 0x0 DUP1 DUP3 DUP5 PUSH2 0x11F0 SWAP2 SWAP1 PUSH2 0x1D9C JUMP JUMPDEST SWAP1 POP DUP1 SWAP2 POP POP SWAP3 SWAP2 POP POP JUMP JUMPDEST PUSH1 0x2 PUSH1 0x1 SLOAD SUB PUSH2 0x1241 JUMPI PUSH1 0x40 MLOAD PUSH32 0x8C379A000000000000000000000000000000000000000000000000000000000 DUP2 MSTORE PUSH1 0x4 ADD PUSH2 0x1238 SWAP1 PUSH2 0x1E19 JUMP JUMPDEST PUSH1 0x40 MLOAD DUP1 SWAP2 SUB SWAP1 REVERT JUMPDEST PUSH1 0x2 PUSH1 0x1 DUP2 SWAP1 SSTORE POP JUMP JUMPDEST PUSH1 0x1 DUP1 DUP2 SWAP1 SSTORE POP JUMP JUMPDEST PUSH1 0x0 DUP1 PUSH1 0x0 SWAP1 SLOAD SWAP1 PUSH2 0x100 EXP SWAP1 DIV PUSH20 0xFFFFFFFFFFFFFFFFFFFFFFFFFFFFFFFFFFFFFFFF AND SWAP1 POP DUP2 PUSH1 0x0 DUP1 PUSH2 0x100 EXP DUP2 SLOAD DUP2 PUSH20 0xFFFFFFFFFFFFFFFFFFFFFFFFFFFFFFFFFFFFFFFF MUL NOT AND SWAP1 DUP4 PUSH20 0xFFFFFFFFFFFFFFFFFFFFFFFFFFFFFFFFFFFFFFFF AND MUL OR SWAP1 SSTORE POP DUP2 PUSH20 0xFFFFFFFFFFFFFFFFFFFFFFFFFFFFFFFFFFFFFFFF AND DUP2 PUSH20 0xFFFFFFFFFFFFFFFFFFFFFFFFFFFFFFFFFFFFFFFF AND PUSH32 0x8BE0079C531659141344CD1FD0A4F28419497F9722A3DAAFE3B4186F6B6457E0 PUSH1 0x40 MLOAD PUSH1 0x40 MLOAD DUP1 SWAP2 SUB SWAP1 LOG3 POP POP JUMP JUMPDEST PUSH1 0x0 CALLER SWAP1 POP SWAP1 JUMP JUMPDEST PUSH1 0x0 DUP1 REVERT JUMPDEST PUSH1 0x0 DUP2 SWAP1 POP SWAP2 SWAP1 POP JUMP JUMPDEST PUSH2 0x1338 DUP2 PUSH2 0x1325 JUMP JUMPDEST DUP2 EQ PUSH2 0x1343 JUMPI PUSH1 0x0 DUP1 REVERT JUMPDEST POP JUMP JUMPDEST PUSH1 0x0 DUP2 CALLDATALOAD SWAP1 POP PUSH2 0x1355 DUP2 PUSH2 0x132F JUMP JUMPDEST SWAP3 SWAP2 POP POP JUMP JUMPDEST PUSH1 0x0 PUSH1 0x20 DUP3 DUP5 SUB SLT ISZERO PUSH2 0x1371 JUMPI PUSH2 0x1370 PUSH2 0x1320 JUMP JUMPDEST JUMPDEST PUSH1 0x0 PUSH2 0x137F DUP5 DUP3 DUP6 ADD PUSH2 0x1346 JUMP JUMPDEST SWAP2 POP POP SWAP3 SWAP2 POP POP JUMP JUMPDEST PUSH2 0x1391 DUP2 PUSH2 0x1325 JUMP JUMPDEST DUP3 MSTORE POP POP JUMP JUMPDEST PUSH1 0x0 PUSH1 0x20 DUP3 ADD SWAP1 POP PUSH2 0x13AC PUSH1 0x0 DUP4 ADD DUP5 PUSH2 0x1388 JUMP JUMPDEST SWAP3 SWAP2 POP POP JUMP JUMPDEST PUSH1 0x0 PUSH20 0xFFFFFFFFFFFFFFFFFFFFFFFFFFFFFFFFFFFFFFFF DUP3 AND SWAP1 POP SWAP2 SWAP1 POP JUMP JUMPDEST PUSH1 0x0 PUSH2 0x13DD DUP3 PUSH2 0x13B2 JUMP JUMPDEST SWAP1 POP SWAP2 SWAP1 POP JUMP JUMPDEST PUSH2 0x13ED DUP2 PUSH2 0x13D2 JUMP JUMPDEST DUP2 EQ PUSH2 0x13F8 JUMPI PUSH1 0x0 DUP1 REVERT JUMPDEST POP JUMP JUMPDEST PUSH1 0x0 DUP2 CALLDATALOAD SWAP1 POP PUSH2 0x140A DUP2 PUSH2 0x13E4 JUMP JUMPDEST SWAP3 SWAP2 POP POP JUMP JUMPDEST PUSH1 0x0 PUSH1 0x20 DUP3 DUP5 SUB SLT ISZERO PUSH2 0x1426 JUMPI PUSH2 0x1425 PUSH2 0x1320 JUMP JUMPDEST JUMPDEST PUSH1 0x0 PUSH2 0x1434 DUP5 DUP3 DUP6 ADD PUSH2 0x13FB JUMP JUMPDEST SWAP2 POP POP SWAP3 SWAP2 POP POP JUMP JUMPDEST PUSH1 0x0 DUP2 ISZERO ISZERO SWAP1 POP SWAP2 SWAP1 POP JUMP JUMPDEST PUSH2 0x1452 DUP2 PUSH2 0x143D JUMP JUMPDEST DUP3 MSTORE POP POP JUMP JUMPDEST PUSH1 0x0 PUSH1 0x20 DUP3 ADD SWAP1 POP PUSH2 0x146D PUSH1 0x0 DUP4 ADD DUP5 PUSH2 0x1449 JUMP JUMPDEST SWAP3 SWAP2 POP POP JUMP JUMPDEST PUSH2 0x147C DUP2 PUSH2 0x13D2 JUMP JUMPDEST DUP3 MSTORE POP POP JUMP JUMPDEST PUSH1 0x0 PUSH1 0x20 DUP3 ADD SWAP1 POP PUSH2 0x1497 PUSH1 0x0 DUP4 ADD DUP5 PUSH2 0x1473 JUMP JUMPDEST SWAP3 SWAP2 POP POP JUMP JUMPDEST PUSH1 0x0 DUP2 SWAP1 POP SWAP2 SWAP1 POP JUMP JUMPDEST PUSH1 0x0 PUSH2 0x14C2 PUSH2 0x14BD PUSH2 0x14B8 DUP5 PUSH2 0x13B2 JUMP JUMPDEST PUSH2 0x149D JUMP JUMPDEST PUSH2 0x13B2 JUMP JUMPDEST SWAP1 POP SWAP2 SWAP1 POP JUMP JUMPDEST PUSH1 0x0 PUSH2 0x14D4 DUP3 PUSH2 0x14A7 JUMP JUMPDEST SWAP1 POP SWAP2 SWAP1 POP JUMP JUMPDEST PUSH1 0x0 PUSH2 0x14E6 DUP3 PUSH2 0x14C9 JUMP JUMPDEST SWAP1 POP SWAP2 SWAP1 POP JUMP JUMPDEST PUSH2 0x14F6 DUP2 PUSH2 0x14DB JUMP JUMPDEST DUP3 MSTORE POP POP JUMP JUMPDEST PUSH1 0x0 PUSH1 0x20 DUP3 ADD SWAP1 POP PUSH2 0x1511 PUSH1 0x0 DUP4 ADD DUP5 PUSH2 0x14ED JUMP JUMPDEST SWAP3 SWAP2 POP POP JUMP JUMPDEST PUSH1 0x0 PUSH1 0xFF DUP3 AND SWAP1 POP SWAP2 SWAP1 POP JUMP JUMPDEST PUSH2 0x152D DUP2 PUSH2 0x1517 JUMP JUMPDEST DUP2 EQ PUSH2 0x1538 JUMPI PUSH1 0x0 DUP1 REVERT JUMPDEST POP JUMP JUMPDEST PUSH1 0x0 DUP2 MLOAD SWAP1 POP PUSH2 0x154A DUP2 PUSH2 0x1524 JUMP JUMPDEST SWAP3 SWAP2 POP POP JUMP JUMPDEST PUSH1 0x0 PUSH1 0x20 DUP3 DUP5 SUB SLT ISZERO PUSH2 0x1566 JUMPI PUSH2 0x1565 PUSH2 0x1320 JUMP JUMPDEST JUMPDEST PUSH1 0x0 PUSH2 0x1574 DUP5 DUP3 DUP6 ADD PUSH2 0x153B JUMP JUMPDEST SWAP2 POP POP SWAP3 SWAP2 POP POP JUMP JUMPDEST PUSH32 0x4E487B7100000000000000000000000000000000000000000000000000000000 PUSH1 0x0 MSTORE PUSH1 0x11 PUSH1 0x4 MSTORE PUSH1 0x24 PUSH1 0x0 REVERT JUMPDEST PUSH1 0x0 DUP2 PUSH1 0x1 SHR SWAP1 POP SWAP2 SWAP1 POP JUMP JUMPDEST PUSH1 0x0 DUP1 DUP3 SWAP2 POP DUP4 SWAP1 POP JUMPDEST PUSH1 0x1 DUP6 GT ISZERO PUSH2 0x1603 JUMPI DUP1 DUP7 DIV DUP2 GT ISZERO PUSH2 0x15DF JUMPI PUSH2 0x15DE PUSH2 0x157D JUMP JUMPDEST JUMPDEST PUSH1 0x1 DUP6 AND ISZERO PUSH2 0x15EE JUMPI DUP1 DUP3 MUL SWAP2 POP JUMPDEST DUP1 DUP2 MUL SWAP1 POP PUSH2 0x15FC DUP6 PUSH2 0x15AC JUMP JUMPDEST SWAP5 POP PUSH2 0x15C3 JUMP JUMPDEST SWAP5 POP SWAP5 SWAP3 POP POP POP JUMP JUMPDEST PUSH1 0x0 DUP3 PUSH2 0x161C JUMPI PUSH1 0x1 SWAP1 POP PUSH2 0x16D8 JUMP JUMPDEST DUP2 PUSH2 0x162A JUMPI PUSH1 0x0 SWAP1 POP PUSH2 0x16D8 JUMP JUMPDEST DUP2 PUSH1 0x1 DUP2 EQ PUSH2 0x1640 JUMPI PUSH1 0x2 DUP2 EQ PUSH2 0x164A JUMPI PUSH2 0x1679 JUMP JUMPDEST PUSH1 0x1 SWAP2 POP POP PUSH2 0x16D8 JUMP JUMPDEST PUSH1 0xFF DUP5 GT ISZERO PUSH2 0x165C JUMPI PUSH2 0x165B PUSH2 0x157D JUMP JUMPDEST JUMPDEST DUP4 PUSH1 0x2 EXP SWAP2 POP DUP5 DUP3 GT ISZERO PUSH2 0x1673 JUMPI PUSH2 0x1672 PUSH2 0x157D JUMP JUMPDEST JUMPDEST POP PUSH2 0x16D8 JUMP JUMPDEST POP PUSH1 0x20 DUP4 LT PUSH2 0x133 DUP4 LT AND PUSH1 0x4E DUP5 LT PUSH1 0xB DUP5 LT AND OR ISZERO PUSH2 0x16AE JUMPI DUP3 DUP3 EXP SWAP1 POP DUP4 DUP2 GT ISZERO PUSH2 0x16A9 JUMPI PUSH2 0x16A8 PUSH2 0x157D JUMP JUMPDEST JUMPDEST PUSH2 0x16D8 JUMP JUMPDEST PUSH2 0x16BB DUP5 DUP5 DUP5 PUSH1 0x1 PUSH2 0x15B9 JUMP JUMPDEST SWAP3 POP SWAP1 POP DUP2 DUP5 DIV DUP2 GT ISZERO PUSH2 0x16D2 JUMPI PUSH2 0x16D1 PUSH2 0x157D JUMP JUMPDEST JUMPDEST DUP2 DUP2 MUL SWAP1 POP JUMPDEST SWAP4 SWAP3 POP POP POP JUMP JUMPDEST PUSH1 0x0 PUSH2 0x16EA DUP3 PUSH2 0x1325 JUMP JUMPDEST SWAP2 POP PUSH2 0x16F5 DUP4 PUSH2 0x1517 JUMP JUMPDEST SWAP3 POP PUSH2 0x1722 PUSH32 0xFFFFFFFFFFFFFFFFFFFFFFFFFFFFFFFFFFFFFFFFFFFFFFFFFFFFFFFFFFFFFFFF DUP5 DUP5 PUSH2 0x160C JUMP JUMPDEST SWAP1 POP SWAP3 SWAP2 POP POP JUMP JUMPDEST PUSH1 0x0 DUP3 DUP3 MSTORE PUSH1 0x20 DUP3 ADD SWAP1 POP SWAP3 SWAP2 POP POP JUMP JUMPDEST PUSH32 0x43726F776473616C653A204E6F20746F6B656E7320746F2072656C6561736500 PUSH1 0x0 DUP3 ADD MSTORE POP JUMP JUMPDEST PUSH1 0x0 PUSH2 0x1771 PUSH1 0x1F DUP4 PUSH2 0x172A JUMP JUMPDEST SWAP2 POP PUSH2 0x177C DUP3 PUSH2 0x173B JUMP JUMPDEST PUSH1 0x20 DUP3 ADD SWAP1 POP SWAP2 SWAP1 POP JUMP JUMPDEST PUSH1 0x0 PUSH1 0x20 DUP3 ADD SWAP1 POP DUP2 DUP2 SUB PUSH1 0x0 DUP4 ADD MSTORE PUSH2 0x17A0 DUP2 PUSH2 0x1764 JUMP JUMPDEST SWAP1 POP SWAP2 SWAP1 POP JUMP JUMPDEST PUSH1 0x0 PUSH1 0x40 DUP3 ADD SWAP1 POP PUSH2 0x17BC PUSH1 0x0 DUP4 ADD DUP6 PUSH2 0x1473 JUMP JUMPDEST PUSH2 0x17C9 PUSH1 0x20 DUP4 ADD DUP5 PUSH2 0x1388 JUMP JUMPDEST SWAP4 SWAP3 POP POP POP JUMP JUMPDEST PUSH2 0x17D9 DUP2 PUSH2 0x143D JUMP JUMPDEST DUP2 EQ PUSH2 0x17E4 JUMPI PUSH1 0x0 DUP1 REVERT JUMPDEST POP JUMP JUMPDEST PUSH1 0x0 DUP2 MLOAD SWAP1 POP PUSH2 0x17F6 DUP2 PUSH2 0x17D0 JUMP JUMPDEST SWAP3 SWAP2 POP POP JUMP JUMPDEST PUSH1 0x0 PUSH1 0x20 DUP3 DUP5 SUB SLT ISZERO PUSH2 0x1812 JUMPI PUSH2 0x1811 PUSH2 0x1320 JUMP JUMPDEST JUMPDEST PUSH1 0x0 PUSH2 0x1820 DUP5 DUP3 DUP6 ADD PUSH2 0x17E7 JUMP JUMPDEST SWAP2 POP POP SWAP3 SWAP2 POP POP JUMP JUMPDEST PUSH32 0x53616C65206973206E6F74206163746976650000000000000000000000000000 PUSH1 0x0 DUP3 ADD MSTORE POP JUMP JUMPDEST PUSH1 0x0 PUSH2 0x185F PUSH1 0x12 DUP4 PUSH2 0x172A JUMP JUMPDEST SWAP2 POP PUSH2 0x186A DUP3 PUSH2 0x1829 JUMP JUMPDEST PUSH1 0x20 DUP3 ADD SWAP1 POP SWAP2 SWAP1 POP JUMP JUMPDEST PUSH1 0x0 PUSH1 0x20 DUP3 ADD SWAP1 POP DUP2 DUP2 SUB PUSH1 0x0 DUP4 ADD MSTORE PUSH2 0x188E DUP2 PUSH2 0x1852 JUMP JUMPDEST SWAP1 POP SWAP2 SWAP1 POP JUMP JUMPDEST PUSH32 0x4E6F7420656E6F75676820746F6B656E73000000000000000000000000000000 PUSH1 0x0 DUP3 ADD MSTORE POP JUMP JUMPDEST PUSH1 0x0 PUSH2 0x18CB PUSH1 0x11 DUP4 PUSH2 0x172A JUMP JUMPDEST SWAP2 POP PUSH2 0x18D6 DUP3 PUSH2 0x1895 JUMP JUMPDEST PUSH1 0x20 DUP3 ADD SWAP1 POP SWAP2 SWAP1 POP JUMP JUMPDEST PUSH1 0x0 PUSH1 0x20 DUP3 ADD SWAP1 POP DUP2 DUP2 SUB PUSH1 0x0 DUP4 ADD MSTORE PUSH2 0x18FA DUP2 PUSH2 0x18BE JUMP JUMPDEST SWAP1 POP SWAP2 SWAP1 POP JUMP JUMPDEST PUSH1 0x0 DUP2 MLOAD SWAP1 POP PUSH2 0x1910 DUP2 PUSH2 0x132F JUMP JUMPDEST SWAP3 SWAP2 POP POP JUMP JUMPDEST PUSH1 0x0 PUSH1 0x20 DUP3 DUP5 SUB SLT ISZERO PUSH2 0x192C JUMPI PUSH2 0x192B PUSH2 0x1320 JUMP JUMPDEST JUMPDEST PUSH1 0x0 PUSH2 0x193A DUP5 DUP3 DUP6 ADD PUSH2 0x1901 JUMP JUMPDEST SWAP2 POP POP SWAP3 SWAP2 POP POP JUMP JUMPDEST PUSH32 0x53616C6520697320616C72656164792061637469766500000000000000000000 PUSH1 0x0 DUP3 ADD MSTORE POP JUMP JUMPDEST PUSH1 0x0 PUSH2 0x1979 PUSH1 0x16 DUP4 PUSH2 0x172A JUMP JUMPDEST SWAP2 POP PUSH2 0x1984 DUP3 PUSH2 0x1943 JUMP JUMPDEST PUSH1 0x20 DUP3 ADD SWAP1 POP SWAP2 SWAP1 POP JUMP JUMPDEST PUSH1 0x0 PUSH1 0x20 DUP3 ADD SWAP1 POP DUP2 DUP2 SUB PUSH1 0x0 DUP4 ADD MSTORE PUSH2 0x19A8 DUP2 PUSH2 0x196C JUMP JUMPDEST SWAP1 POP SWAP2 SWAP1 POP JUMP JUMPDEST PUSH32 0x43726F776473616C653A2053616C65206E6F7420616374697665000000000000 PUSH1 0x0 DUP3 ADD MSTORE POP JUMP JUMPDEST PUSH1 0x0 PUSH2 0x19E5 PUSH1 0x1A DUP4 PUSH2 0x172A JUMP JUMPDEST SWAP2 POP PUSH2 0x19F0 DUP3 PUSH2 0x19AF JUMP JUMPDEST PUSH1 0x20 DUP3 ADD SWAP1 POP SWAP2 SWAP1 POP JUMP JUMPDEST PUSH1 0x0 PUSH1 0x20 DUP3 ADD SWAP1 POP DUP2 DUP2 SUB PUSH1 0x0 DUP4 ADD MSTORE PUSH2 0x1A14 DUP2 PUSH2 0x19D8 JUMP JUMPDEST SWAP1 POP SWAP2 SWAP1 POP JUMP JUMPDEST PUSH32 0x43726F776473616C653A2053616C65206973206E6F7420616374697665000000 PUSH1 0x0 DUP3 ADD MSTORE POP JUMP JUMPDEST PUSH1 0x0 PUSH2 0x1A51 PUSH1 0x1D DUP4 PUSH2 0x172A JUMP JUMPDEST SWAP2 POP PUSH2 0x1A5C DUP3 PUSH2 0x1A1B JUMP JUMPDEST PUSH1 0x20 DUP3 ADD SWAP1 POP SWAP2 SWAP1 POP JUMP JUMPDEST PUSH1 0x0 PUSH1 0x20 DUP3 ADD SWAP1 POP DUP2 DUP2 SUB PUSH1 0x0 DUP4 ADD MSTORE PUSH2 0x1A80 DUP2 PUSH2 0x1A44 JUMP JUMPDEST SWAP1 POP SWAP2 SWAP1 POP JUMP JUMPDEST PUSH32 0x4E6F7420656E6F75676820616D6F756E74207061696400000000000000000000 PUSH1 0x0 DUP3 ADD MSTORE POP JUMP JUMPDEST PUSH1 0x0 PUSH2 0x1ABD PUSH1 0x16 DUP4 PUSH2 0x172A JUMP JUMPDEST SWAP2 POP PUSH2 0x1AC8 DUP3 PUSH2 0x1A87 JUMP JUMPDEST PUSH1 0x20 DUP3 ADD SWAP1 POP SWAP2 SWAP1 POP JUMP JUMPDEST PUSH1 0x0 PUSH1 0x20 DUP3 ADD SWAP1 POP DUP2 DUP2 SUB PUSH1 0x0 DUP4 ADD MSTORE PUSH2 0x1AEC DUP2 PUSH2 0x1AB0 JUMP JUMPDEST SWAP1 POP SWAP2 SWAP1 POP JUMP JUMPDEST PUSH32 0x4E6F7420656E6F75676820746F6B656E7320696E2073616C6500000000000000 PUSH1 0x0 DUP3 ADD MSTORE POP JUMP JUMPDEST PUSH1 0x0 PUSH2 0x1B29 PUSH1 0x19 DUP4 PUSH2 0x172A JUMP JUMPDEST SWAP2 POP PUSH2 0x1B34 DUP3 PUSH2 0x1AF3 JUMP JUMPDEST PUSH1 0x20 DUP3 ADD SWAP1 POP SWAP2 SWAP1 POP JUMP JUMPDEST PUSH1 0x0 PUSH1 0x20 DUP3 ADD SWAP1 POP DUP2 DUP2 SUB PUSH1 0x0 DUP4 ADD MSTORE PUSH2 0x1B58 DUP2 PUSH2 0x1B1C JUMP JUMPDEST SWAP1 POP SWAP2 SWAP1 POP JUMP JUMPDEST PUSH32 0x4F776E61626C653A206E6577206F776E657220697320746865207A65726F2061 PUSH1 0x0 DUP3 ADD MSTORE PUSH32 0x6464726573730000000000000000000000000000000000000000000000000000 PUSH1 0x20 DUP3 ADD MSTORE POP JUMP JUMPDEST PUSH1 0x0 PUSH2 0x1BBB PUSH1 0x26 DUP4 PUSH2 0x172A JUMP JUMPDEST SWAP2 POP PUSH2 0x1BC6 DUP3 PUSH2 0x1B5F JUMP JUMPDEST PUSH1 0x40 DUP3 ADD SWAP1 POP SWAP2 SWAP1 POP JUMP JUMPDEST PUSH1 0x0 PUSH1 0x20 DUP3 ADD SWAP1 POP DUP2 DUP2 SUB PUSH1 0x0 DUP4 ADD MSTORE PUSH2 0x1BEA DUP2 PUSH2 0x1BAE JUMP JUMPDEST SWAP1 POP SWAP2 SWAP1 POP JUMP JUMPDEST PUSH1 0x0 PUSH1 0x60 DUP3 ADD SWAP1 POP PUSH2 0x1C06 PUSH1 0x0 DUP4 ADD DUP7 PUSH2 0x1473 JUMP JUMPDEST PUSH2 0x1C13 PUSH1 0x20 DUP4 ADD DUP6 PUSH2 0x1473 JUMP JUMPDEST PUSH2 0x1C20 PUSH1 0x40 DUP4 ADD DUP5 PUSH2 0x1388 JUMP JUMPDEST SWAP5 SWAP4 POP POP POP POP JUMP JUMPDEST PUSH32 0x4F776E61626C653A2063616C6C6572206973206E6F7420746865206F776E6572 PUSH1 0x0 DUP3 ADD MSTORE POP JUMP JUMPDEST PUSH1 0x0 PUSH2 0x1C5E PUSH1 0x20 DUP4 PUSH2 0x172A JUMP JUMPDEST SWAP2 POP PUSH2 0x1C69 DUP3 PUSH2 0x1C28 JUMP JUMPDEST PUSH1 0x20 DUP3 ADD SWAP1 POP SWAP2 SWAP1 POP JUMP JUMPDEST PUSH1 0x0 PUSH1 0x20 DUP3 ADD SWAP1 POP DUP2 DUP2 SUB PUSH1 0x0 DUP4 ADD MSTORE PUSH2 0x1C8D DUP2 PUSH2 0x1C51 JUMP JUMPDEST SWAP1 POP SWAP2 SWAP1 POP JUMP JUMPDEST PUSH1 0x0 PUSH2 0x1C9F DUP3 PUSH2 0x1325 JUMP JUMPDEST SWAP2 POP PUSH2 0x1CAA DUP4 PUSH2 0x1325 JUMP JUMPDEST SWAP3 POP DUP3 DUP3 ADD SWAP1 POP DUP1 DUP3 GT ISZERO PUSH2 0x1CC2 JUMPI PUSH2 0x1CC1 PUSH2 0x157D JUMP JUMPDEST JUMPDEST SWAP3 SWAP2 POP POP JUMP JUMPDEST PUSH32 0x4E487B7100000000000000000000000000000000000000000000000000000000 PUSH1 0x0 MSTORE PUSH1 0x1 PUSH1 0x4 MSTORE PUSH1 0x24 PUSH1 0x0 REVERT JUMPDEST PUSH1 0x0 PUSH2 0x1D02 DUP3 PUSH2 0x1325 JUMP JUMPDEST SWAP2 POP PUSH2 0x1D0D DUP4 PUSH2 0x1325 JUMP JUMPDEST SWAP3 POP DUP3 DUP3 SUB SWAP1 POP DUP2 DUP2 GT ISZERO PUSH2 0x1D25 JUMPI PUSH2 0x1D24 PUSH2 0x157D JUMP JUMPDEST JUMPDEST SWAP3 SWAP2 POP POP JUMP JUMPDEST PUSH1 0x0 PUSH2 0x1D36 DUP3 PUSH2 0x1325 JUMP JUMPDEST SWAP2 POP PUSH2 0x1D41 DUP4 PUSH2 0x1325 JUMP JUMPDEST SWAP3 POP DUP3 DUP3 MUL PUSH2 0x1D4F DUP2 PUSH2 0x1325 JUMP JUMPDEST SWAP2 POP DUP3 DUP3 DIV DUP5 EQ DUP4 ISZERO OR PUSH2 0x1D66 JUMPI PUSH2 0x1D65 PUSH2 0x157D JUMP JUMPDEST JUMPDEST POP SWAP3 SWAP2 POP POP JUMP JUMPDEST PUSH32 0x4E487B7100000000000000000000000000000000000000000000000000000000 PUSH1 0x0 MSTORE PUSH1 0x12 PUSH1 0x4 MSTORE PUSH1 0x24 PUSH1 0x0 REVERT JUMPDEST PUSH1 0x0 PUSH2 0x1DA7 DUP3 PUSH2 0x1325 JUMP JUMPDEST SWAP2 POP PUSH2 0x1DB2 DUP4 PUSH2 0x1325 JUMP JUMPDEST SWAP3 POP DUP3 PUSH2 0x1DC2 JUMPI PUSH2 0x1DC1 PUSH2 0x1D6D JUMP JUMPDEST JUMPDEST DUP3 DUP3 DIV SWAP1 POP SWAP3 SWAP2 POP POP JUMP JUMPDEST PUSH32 0x5265656E7472616E637947756172643A207265656E7472616E742063616C6C00 PUSH1 0x0 DUP3 ADD MSTORE POP JUMP JUMPDEST PUSH1 0x0 PUSH2 0x1E03 PUSH1 0x1F DUP4 PUSH2 0x172A JUMP JUMPDEST SWAP2 POP PUSH2 0x1E0E DUP3 PUSH2 0x1DCD JUMP JUMPDEST PUSH1 0x20 DUP3 ADD SWAP1 POP SWAP2 SWAP1 POP JUMP JUMPDEST PUSH1 0x0 PUSH1 0x20 DUP3 ADD SWAP1 POP DUP2 DUP2 SUB PUSH1 0x0 DUP4 ADD MSTORE PUSH2 0x1E32 DUP2 PUSH2 0x1DF6 JUMP JUMPDEST SWAP1 POP SWAP2 SWAP1 POP JUMP INVALID LOG2 PUSH5 0x6970667358 0x22 SLT KECCAK256 DUP5 RETURNDATACOPY 0xCB 0xD7 0x2F SWAP16 0xAC 0xDB GAS 0xF6 0xA6 0x5F DUP15 PUSH16 0x8D42DFE573C570D49E12EE6120C2C03B 0xE6 0x22 PUSH5 0x736F6C6343 STOP ADDMOD SGT STOP CALLER "},"methodIdentifiers":{"balances(address)":"27e235e3","buyTokens()":"d0febe4c","changeTokensPerEth(uint256)":"03f891bd","checkTokens(uint256)":"420797c8","cliffTime()":"0f1a6444","endTimestamp()":"a85adeab","fundTokens(uint256)":"fff1939c","getTokenBalance()":"82b2e257","haltSale()":"5fbaa390","isSaleActive()":"564566a8","owner()":"8da5cb5b","releasableAmount(address)":"1726cbc8","releaseVestedTokens()":"54dd1da4","renounceOwnership()":"715018a6","startSale()":"b66a0e5d","startTimestamp()":"e6fd48bc","token()":"fc0c546a","tokensPerETh()":"e3c20369","totalTokens()":"7e1c0c09","transferOwnership(address)":"f2fde38b","vestingStartTime(address)":"ea63fb26","vestingTime()":"c7dab436","withdrawEth()":"a0ef91df","withdrawStuckTokens()":"8183b3c8"}}}}}