{
  "_format": "hh-sol-artifact-1",
  "contractName": "PrimaryMarketplace",
  "sourceName": "contracts/primary.sol",
  "abi": [
    {
      "inputs": [
        {
          "internalType": "address",
          "name": "_factoryAddress",
          "type": "address"
        }
      ],
      "stateMutability": "nonpayable",
      "type": "constructor"
    },
    {
      "inputs": [
        {
          "internalType": "address",
          "name": "token",
          "type": "address"
        }
      ],
      "name": "SafeERC20FailedOperation",
      "type": "error"
    },
    {
      "anonymous": false,
      "inputs": [
        {
          "indexed": false,
          "internalType": "uint256",
          "name": "nftId",
          "type": "uint256"
        },
        {
          "indexed": false,
          "internalType": "address",
          "name": "_creator",
          "type": "address"
        }
      ],
      "name": "NFTListingCancelled",
      "type": "event"
    },
    {
      "anonymous": false,
      "inputs": [
        {
          "indexed": false,
          "internalType": "address",
          "name": "relayer",
          "type": "address"
        },
        {
          "indexed": false,
          "internalType": "address",
          "name": "buyer",
          "type": "address"
        },
        {
          "indexed": false,
          "internalType": "uint256",
          "name": "nftId",
          "type": "uint256"
        },
        {
          "indexed": false,
          "internalType": "uint256",
          "name": "amount",
          "type": "uint256"
        },
        {
          "indexed": false,
          "internalType": "uint256",
          "name": "_price",
          "type": "uint256"
        }
      ],
      "name": "NFTSold",
      "type": "event"
    },
    {
      "anonymous": false,
      "inputs": [
        {
          "indexed": true,
          "internalType": "address",
          "name": "previousOwner",
          "type": "address"
        },
        {
          "indexed": true,
          "internalType": "address",
          "name": "newOwner",
          "type": "address"
        }
      ],
      "name": "OwnershipTransferred",
      "type": "event"
    },
    {
      "anonymous": false,
      "inputs": [
        {
          "indexed": false,
          "internalType": "address",
          "name": "user",
          "type": "address"
        },
        {
          "indexed": false,
          "internalType": "uint256",
          "name": "_nftId",
          "type": "uint256"
        },
        {
          "indexed": false,
          "internalType": "uint256",
          "name": "amount",
          "type": "uint256"
        }
      ],
      "name": "Withdraw",
      "type": "event"
    },
    {
      "anonymous": false,
      "inputs": [
        {
          "indexed": false,
          "internalType": "address",
          "name": "creator",
          "type": "address"
        },
        {
          "indexed": false,
          "internalType": "uint256",
          "name": "id",
          "type": "uint256"
        }
      ],
      "name": "WithdrawRequest",
      "type": "event"
    },
    {
      "anonymous": false,
      "inputs": [
        {
          "indexed": false,
          "internalType": "uint256",
          "name": "nftId",
          "type": "uint256"
        },
        {
          "indexed": false,
          "internalType": "address",
          "name": "createdBy",
          "type": "address"
        },
        {
          "indexed": false,
          "internalType": "address",
          "name": "nftSource",
          "type": "address"
        },
        {
          "indexed": false,
          "internalType": "uint256",
          "name": "amount",
          "type": "uint256"
        },
        {
          "indexed": false,
          "internalType": "uint256",
          "name": "price",
          "type": "uint256"
        }
      ],
      "name": "newListing",
      "type": "event"
    },
    {
      "anonymous": false,
      "inputs": [
        {
          "indexed": false,
          "internalType": "address",
          "name": "owner",
          "type": "address"
        },
        {
          "indexed": false,
          "internalType": "address",
          "name": "nftAddress",
          "type": "address"
        },
        {
          "indexed": false,
          "internalType": "uint256",
          "name": "nftId",
          "type": "uint256"
        },
        {
          "indexed": false,
          "internalType": "uint256",
          "name": "price",
          "type": "uint256"
        }
      ],
      "name": "priceUpdated",
      "type": "event"
    },
    {
      "inputs": [
        {
          "internalType": "address",
          "name": "",
          "type": "address"
        },
        {
          "internalType": "uint256",
          "name": "",
          "type": "uint256"
        }
      ],
      "name": "_executiveDirector",
      "outputs": [
        {
          "internalType": "address",
          "name": "",
          "type": "address"
        }
      ],
      "stateMutability": "view",
      "type": "function"
    },
    {
      "inputs": [
        {
          "internalType": "address",
          "name": "_add",
          "type": "address"
        },
        {
          "internalType": "uint256",
          "name": "_nftId",
          "type": "uint256"
        }
      ],
      "name": "approveRequest",
      "outputs": [],
      "stateMutability": "nonpayable",
      "type": "function"
    },
    {
      "inputs": [
        {
          "internalType": "address",
          "name": "buyer",
          "type": "address"
        },
        {
          "internalType": "address",
          "name": "nftAddress",
          "type": "address"
        },
        {
          "internalType": "address",
          "name": "nftOwner",
          "type": "address"
        },
        {
          "internalType": "uint256",
          "name": "_nftId",
          "type": "uint256"
        },
        {
          "internalType": "uint256",
          "name": "_amount",
          "type": "uint256"
        }
      ],
      "name": "buyNFT",
      "outputs": [
        {
          "internalType": "bool",
          "name": "",
          "type": "bool"
        }
      ],
      "stateMutability": "nonpayable",
      "type": "function"
    },
    {
      "inputs": [
        {
          "internalType": "address",
          "name": "buyer",
          "type": "address"
        },
        {
          "internalType": "address",
          "name": "nftAddress",
          "type": "address"
        },
        {
          "internalType": "address",
          "name": "nftOwner",
          "type": "address"
        },
        {
          "internalType": "uint256",
          "name": "_nftId",
          "type": "uint256"
        },
        {
          "internalType": "uint256",
          "name": "_percentage",
          "type": "uint256"
        }
      ],
      "name": "buyNFTExecutive",
      "outputs": [
        {
          "internalType": "bool",
          "name": "",
          "type": "bool"
        }
      ],
      "stateMutability": "nonpayable",
      "type": "function"
    },
    {
      "inputs": [
        {
          "internalType": "address",
          "name": "_nftSource",
          "type": "address"
        },
        {
          "internalType": "uint256",
          "name": "_nftId",
          "type": "uint256"
        }
      ],
      "name": "cancelNFTListing",
      "outputs": [],
      "stateMutability": "nonpayable",
      "type": "function"
    },
    {
      "inputs": [
        {
          "internalType": "address",
          "name": "_factoryAddress",
          "type": "address"
        }
      ],
      "name": "changeFactoryAddress",
      "outputs": [],
      "stateMutability": "nonpayable",
      "type": "function"
    },
    {
      "inputs": [
        {
          "internalType": "uint256",
          "name": "_newFee",
          "type": "uint256"
        }
      ],
      "name": "changeFeePercentage",
      "outputs": [],
      "stateMutability": "nonpayable",
      "type": "function"
    },
    {
      "inputs": [],
      "name": "expirationTime",
      "outputs": [
        {
          "internalType": "uint256",
          "name": "",
          "type": "uint256"
        }
      ],
      "stateMutability": "view",
      "type": "function"
    },
    {
      "inputs": [],
      "name": "factoryAddress",
      "outputs": [
        {
          "internalType": "address",
          "name": "",
          "type": "address"
        }
      ],
      "stateMutability": "view",
      "type": "function"
    },
    {
      "inputs": [],
      "name": "feePercentage",
      "outputs": [
        {
          "internalType": "uint256",
          "name": "",
          "type": "uint256"
        }
      ],
      "stateMutability": "view",
      "type": "function"
    },
    {
      "inputs": [
        {
          "internalType": "address",
          "name": "user",
          "type": "address"
        }
      ],
      "name": "getAllNFTsForUser",
      "outputs": [
        {
          "components": [
            {
              "internalType": "uint256",
              "name": "nftId",
              "type": "uint256"
            },
            {
              "internalType": "address",
              "name": "creator",
              "type": "address"
            },
            {
              "internalType": "address",
              "name": "nftSource",
              "type": "address"
            },
            {
              "internalType": "uint256",
              "name": "amount",
              "type": "uint256"
            },
            {
              "internalType": "uint256",
              "name": "totalAmount",
              "type": "uint256"
            },
            {
              "internalType": "uint256",
              "name": "priceOfNFT",
              "type": "uint256"
            },
            {
              "internalType": "bool",
              "name": "forSale",
              "type": "bool"
            }
          ],
          "internalType": "struct PrimaryMarketplace.NFTDetail[]",
          "name": "",
          "type": "tuple[]"
        }
      ],
      "stateMutability": "view",
      "type": "function"
    },
    {
      "inputs": [],
      "name": "getUSDTAddress",
      "outputs": [
        {
          "internalType": "address",
          "name": "",
          "type": "address"
        }
      ],
      "stateMutability": "view",
      "type": "function"
    },
    {
      "inputs": [
        {
          "internalType": "address",
          "name": "nftOwner",
          "type": "address"
        },
        {
          "internalType": "address",
          "name": "_nftAddress",
          "type": "address"
        },
        {
          "internalType": "uint256",
          "name": "_nftId",
          "type": "uint256"
        }
      ],
      "name": "hasSold50Percent",
      "outputs": [
        {
          "internalType": "uint256",
          "name": "",
          "type": "uint256"
        }
      ],
      "stateMutability": "view",
      "type": "function"
    },
    {
      "inputs": [
        {
          "internalType": "address",
          "name": "",
          "type": "address"
        },
        {
          "internalType": "uint256",
          "name": "",
          "type": "uint256"
        }
      ],
      "name": "isListed",
      "outputs": [
        {
          "internalType": "bool",
          "name": "",
          "type": "bool"
        }
      ],
      "stateMutability": "view",
      "type": "function"
    },
    {
      "inputs": [
        {
          "internalType": "address",
          "name": "",
          "type": "address"
        },
        {
          "internalType": "uint256",
          "name": "",
          "type": "uint256"
        }
      ],
      "name": "isRequested",
      "outputs": [
        {
          "internalType": "bool",
          "name": "",
          "type": "bool"
        }
      ],
      "stateMutability": "view",
      "type": "function"
    },
    {
      "inputs": [
        {
          "internalType": "address",
          "name": "_nftSource",
          "type": "address"
        },
        {
          "internalType": "uint256",
          "name": "_nftId",
          "type": "uint256"
        },
        {
          "internalType": "uint256",
          "name": "_nftPrice",
          "type": "uint256"
        },
        {
          "internalType": "bool",
          "name": "top",
          "type": "bool"
        },
        {
          "internalType": "uint8",
          "name": "_index",
          "type": "uint8"
        }
      ],
      "name": "listNFT",
      "outputs": [],
      "stateMutability": "nonpayable",
      "type": "function"
    },
    {
      "inputs": [
        {
          "internalType": "address",
          "name": "_nftAddress",
          "type": "address"
        },
        {
          "internalType": "uint256",
          "name": "_nftId",
          "type": "uint256"
        }
      ],
      "name": "nftOfCollection",
      "outputs": [
        {
          "components": [
            {
              "internalType": "uint256",
              "name": "nftId",
              "type": "uint256"
            },
            {
              "internalType": "address",
              "name": "creator",
              "type": "address"
            },
            {
              "internalType": "address",
              "name": "nftSource",
              "type": "address"
            },
            {
              "internalType": "uint256",
              "name": "amount",
              "type": "uint256"
            },
            {
              "internalType": "uint256",
              "name": "totalAmount",
              "type": "uint256"
            },
            {
              "internalType": "uint256",
              "name": "priceOfNFT",
              "type": "uint256"
            },
            {
              "internalType": "bool",
              "name": "forSale",
              "type": "bool"
            }
          ],
          "internalType": "struct PrimaryMarketplace.NFTDetail",
          "name": "",
          "type": "tuple"
        }
      ],
      "stateMutability": "view",
      "type": "function"
    },
    {
      "inputs": [
        {
          "internalType": "address",
          "name": "_nftSource",
          "type": "address"
        }
      ],
      "name": "nftsForSale",
      "outputs": [
        {
          "internalType": "uint256[]",
          "name": "",
          "type": "uint256[]"
        }
      ],
      "stateMutability": "view",
      "type": "function"
    },
    {
      "inputs": [],
      "name": "owner",
      "outputs": [
        {
          "internalType": "address",
          "name": "",
          "type": "address"
        }
      ],
      "stateMutability": "view",
      "type": "function"
    },
    {
      "inputs": [],
      "name": "renounceOwnership",
      "outputs": [],
      "stateMutability": "nonpayable",
      "type": "function"
    },
    {
      "inputs": [
        {
          "internalType": "uint256",
          "name": "_nftId",
          "type": "uint256"
        }
      ],
      "name": "requestForPayment",
      "outputs": [],
      "stateMutability": "nonpayable",
      "type": "function"
    },
    {
      "inputs": [],
      "name": "retrieveAdmins",
      "outputs": [
        {
          "internalType": "address[]",
          "name": "",
          "type": "address[]"
        }
      ],
      "stateMutability": "view",
      "type": "function"
    },
    {
      "inputs": [],
      "name": "retrieveCollections",
      "outputs": [
        {
          "internalType": "address[]",
          "name": "",
          "type": "address[]"
        }
      ],
      "stateMutability": "view",
      "type": "function"
    },
    {
      "inputs": [],
      "name": "retrievePercentages",
      "outputs": [
        {
          "internalType": "uint256[6]",
          "name": "",
          "type": "uint256[6]"
        }
      ],
      "stateMutability": "view",
      "type": "function"
    },
    {
      "inputs": [
        {
          "internalType": "address",
          "name": "_relayer",
          "type": "address"
        }
      ],
      "name": "retrieveRelayerUsers",
      "outputs": [
        {
          "internalType": "address[]",
          "name": "",
          "type": "address[]"
        }
      ],
      "stateMutability": "view",
      "type": "function"
    },
    {
      "inputs": [],
      "name": "retrieveRelayers",
      "outputs": [
        {
          "internalType": "address[]",
          "name": "",
          "type": "address[]"
        }
      ],
      "stateMutability": "view",
      "type": "function"
    },
    {
      "inputs": [
        {
          "internalType": "uint8",
          "name": "_index",
          "type": "uint8"
        }
      ],
      "name": "retrieveTopLists",
      "outputs": [
        {
          "components": [
            {
              "internalType": "address",
              "name": "nftAddress",
              "type": "address"
            },
            {
              "internalType": "uint256",
              "name": "nftId",
              "type": "uint256"
            },
            {
              "internalType": "uint256",
              "name": "expiration",
              "type": "uint256"
            }
          ],
          "internalType": "struct PrimaryMarketplace.TopList[]",
          "name": "",
          "type": "tuple[]"
        }
      ],
      "stateMutability": "view",
      "type": "function"
    },
    {
      "inputs": [
        {
          "internalType": "uint256",
          "name": "_newExpiration",
          "type": "uint256"
        }
      ],
      "name": "setTopExpiration",
      "outputs": [],
      "stateMutability": "nonpayable",
      "type": "function"
    },
    {
      "inputs": [
        {
          "internalType": "address",
          "name": "newOwner",
          "type": "address"
        }
      ],
      "name": "transferOwnership",
      "outputs": [],
      "stateMutability": "nonpayable",
      "type": "function"
    },
    {
      "inputs": [
        {
          "internalType": "uint256",
          "name": "_nftId",
          "type": "uint256"
        },
        {
          "internalType": "uint256",
          "name": "_price",
          "type": "uint256"
        },
        {
          "internalType": "address",
          "name": "_nftAddress",
          "type": "address"
        }
      ],
      "name": "updatePriceOfNFT",
      "outputs": [],
      "stateMutability": "nonpayable",
      "type": "function"
    }
  ],
  "bytecode": "0x608060405262278d006002556040518060c00160405280603260ff168152602001603c60ff168152602001604660ff168152602001605060ff168152602001605a60ff168152602001606460ff16815250600590600662000062929190620001d6565b506002600b553480156200007557600080fd5b5060405162006a6e38038062006a6e83398181016040528101906200009b9190620002a9565b620000bb620000af6200010a60201b60201c565b6200011260201b60201c565b6001808190555080600460006101000a81548173ffffffffffffffffffffffffffffffffffffffff021916908373ffffffffffffffffffffffffffffffffffffffff16021790555050620002db565b600033905090565b60008060009054906101000a900473ffffffffffffffffffffffffffffffffffffffff169050816000806101000a81548173ffffffffffffffffffffffffffffffffffffffff021916908373ffffffffffffffffffffffffffffffffffffffff1602179055508173ffffffffffffffffffffffffffffffffffffffff168173ffffffffffffffffffffffffffffffffffffffff167f8be0079c531659141344cd1fd0a4f28419497f9722a3daafe3b4186f6b6457e060405160405180910390a35050565b82600681019282156200020d579160200282015b828111156200020c578251829060ff16905591602001919060010190620001ea565b5b5090506200021c919062000220565b5090565b5b808211156200023b57600081600090555060010162000221565b5090565b600080fd5b600073ffffffffffffffffffffffffffffffffffffffff82169050919050565b6000620002718262000244565b9050919050565b620002838162000264565b81146200028f57600080fd5b50565b600081519050620002a38162000278565b92915050565b600060208284031215620002c257620002c16200023f565b5b6000620002d28482850162000292565b91505092915050565b61678380620002eb6000396000f3fe608060405234801561001057600080fd5b50600436106101da5760003560e01c80638af3c40e11610104578063adf5f670116100a2578063eb99947d11610071578063eb99947d1461056b578063f2fde38b1461059b578063fae14192146105b7578063fafd7c54146105d3576101da565b8063adf5f670146104e3578063cdb3cd2514610501578063da284dcc14610531578063dd9b04d51461054f576101da565b8063966dae0e116100de578063966dae0e1461045b578063974779b514610479578063a001ecdd146104a9578063a86ae141146104c7576101da565b80638af3c40e146104035780638da5cb5b146104215780638e98e85b1461043f576101da565b806341b029121161017c578063715018a61161014b578063715018a61461038f57806372ab7e4014610399578063788c85ec146103b557806383006645146103e5576101da565b806341b02912146103095780636044e27614610325578063613d53c11461035557806369932f6314610371576101da565b806318ac3eb9116101b857806318ac3eb91461025d5780631db6e8941461028d5780633ab13e88146102bd5780633e3328e2146102ed576101da565b806305993adf146101df5780630d84c6e1146101fd578063176d743a1461022d575b600080fd5b6101e7610603565b6040516101f49190614b4b565b60405180910390f35b61021760048036038101906102129190614be3565b6106a0565b6040516102249190614c3e565b60405180910390f35b61024760048036038101906102429190614c59565b6106cf565b6040516102549190614b4b565b60405180910390f35b61027760048036038101906102729190614c59565b61079c565b6040516102849190614de1565b60405180910390f35b6102a760048036038101906102a29190614be3565b610929565b6040516102b49190614e12565b60405180910390f35b6102d760048036038101906102d29190614e2d565b61096b565b6040516102e49190614c3e565b60405180910390f35b61030760048036038101906103029190614be3565b61127f565b005b610323600480360381019061031e9190614be3565b6114d0565b005b61033f600480360381019061033a9190614ee1565b611861565b60405161034c9190614fff565b60405180910390f35b61036f600480360381019061036a9190615021565b611989565b005b610379611ce4565b6040516103869190614b4b565b60405180910390f35b610397611d81565b005b6103b360048036038101906103ae9190614c59565b611d95565b005b6103cf60048036038101906103ca9190615074565b611de1565b6040516103dc91906150d6565b60405180910390f35b6103ed611f84565b6040516103fa9190614b4b565b60405180910390f35b61040b612012565b6040516104189190614e12565b60405180910390f35b6104296120aa565b6040516104369190614e12565b60405180910390f35b6104596004803603810190610454919061511d565b6120d3565b005b610463612a2a565b6040516104709190614e12565b60405180910390f35b610493600480360381019061048e9190614be3565b612a50565b6040516104a09190615226565b60405180910390f35b6104b1612baa565b6040516104be91906150d6565b60405180910390f35b6104e160048036038101906104dc9190615241565b612bb0565b005b6104eb612bc2565b6040516104f8919061530a565b60405180910390f35b61051b60048036038101906105169190614be3565b612c0d565b6040516105289190614c3e565b60405180910390f35b610539612c3c565b60405161054691906150d6565b60405180910390f35b61056960048036038101906105649190615241565b612c42565b005b61058560048036038101906105809190614c59565b612e18565b60405161059291906153bc565b60405180910390f35b6105b560048036038101906105b09190614c59565b612eaf565b005b6105d160048036038101906105cc9190615241565b612f32565b005b6105ed60048036038101906105e89190614e2d565b612f44565b6040516105fa9190614c3e565b60405180910390f35b6060600460009054906101000a900473ffffffffffffffffffffffffffffffffffffffff1673ffffffffffffffffffffffffffffffffffffffff166305993adf6040518163ffffffff1660e01b8152600401600060405180830381865afa158015610672573d6000803e3d6000fd5b505050506040513d6000823e3d601f19601f8201168201806040525081019061069b919061554c565b905090565b600c6020528160005260406000206020528060005260406000206000915091509054906101000a900460ff1681565b6060601460008373ffffffffffffffffffffffffffffffffffffffff1673ffffffffffffffffffffffffffffffffffffffff16815260200190815260200160002080548060200260200160405190810160405280929190818152602001828054801561079057602002820191906000526020600020905b8160009054906101000a900473ffffffffffffffffffffffffffffffffffffffff1673ffffffffffffffffffffffffffffffffffffffff1681526020019060010190808311610746575b50505050509050919050565b6060600d60008373ffffffffffffffffffffffffffffffffffffffff1673ffffffffffffffffffffffffffffffffffffffff168152602001908152602001600020805480602002602001604051908101604052809291908181526020016000905b8282101561091e57838290600052602060002090600702016040518060e0016040529081600082015481526020016001820160009054906101000a900473ffffffffffffffffffffffffffffffffffffffff1673ffffffffffffffffffffffffffffffffffffffff1673ffffffffffffffffffffffffffffffffffffffff1681526020016002820160009054906101000a900473ffffffffffffffffffffffffffffffffffffffff1673ffffffffffffffffffffffffffffffffffffffff1673ffffffffffffffffffffffffffffffffffffffff1681526020016003820154815260200160048201548152602001600582015481526020016006820160009054906101000a900460ff161515151581525050815260200190600101906107fd565b505050509050919050565b60126020528160005260406000206020528060005260406000206000915091509054906101000a900473ffffffffffffffffffffffffffffffffffffffff1681565b60006109756135f4565b60011515600f60008773ffffffffffffffffffffffffffffffffffffffff1673ffffffffffffffffffffffffffffffffffffffff168152602001908152602001600020600085815260200190815260200160002060009054906101000a900460ff16151514610a19576040517f08c379a0000000000000000000000000000000000000000000000000000000008152600401610a10906155f2565b60405180910390fd5b3373ffffffffffffffffffffffffffffffffffffffff16600e60008773ffffffffffffffffffffffffffffffffffffffff1673ffffffffffffffffffffffffffffffffffffffff168152602001908152602001600020600085815260200190815260200160002060010160009054906101000a900473ffffffffffffffffffffffffffffffffffffffff1673ffffffffffffffffffffffffffffffffffffffff1603610afa576040517f08c379a0000000000000000000000000000000000000000000000000000000008152600401610af19061565e565b60405180910390fd5b6006821115610b3e576040517f08c379a0000000000000000000000000000000000000000000000000000000008152600401610b35906156ca565b60405180910390fd5b600073ffffffffffffffffffffffffffffffffffffffff16601260008773ffffffffffffffffffffffffffffffffffffffff1673ffffffffffffffffffffffffffffffffffffffff168152602001908152602001600020600085815260200190815260200160002060009054906101000a900473ffffffffffffffffffffffffffffffffffffffff1673ffffffffffffffffffffffffffffffffffffffff1614610c1d576040517f08c379a0000000000000000000000000000000000000000000000000000000008152600401610c1490615736565b60405180910390fd5b6000600e60008773ffffffffffffffffffffffffffffffffffffffff1673ffffffffffffffffffffffffffffffffffffffff16815260200190815260200160002060008581526020019081526020016000206003015490506000606460058560068110610c8d57610c8c615756565b5b0154600e60008a73ffffffffffffffffffffffffffffffffffffffff1673ffffffffffffffffffffffffffffffffffffffff168152602001908152602001600020600088815260200190815260200160002060040154610ced91906157b4565b610cf79190615825565b905081811115610d3c576040517f08c379a0000000000000000000000000000000000000000000000000000000008152600401610d33906158a2565b60405180910390fd5b6000610d4782613643565b905060058110610d6157600182610d5e91906158c2565b91505b6000600d60008973ffffffffffffffffffffffffffffffffffffffff1673ffffffffffffffffffffffffffffffffffffffff1681526020019081526020016000209050600080600090505b828054905081101561120c578a73ffffffffffffffffffffffffffffffffffffffff16838281548110610de257610de1615756565b5b906000526020600020906007020160020160009054906101000a900473ffffffffffffffffffffffffffffffffffffffff1673ffffffffffffffffffffffffffffffffffffffff16148015610e5a575088838281548110610e4657610e45615756565b5b906000526020600020906007020160000154145b156111f95784838281548110610e7357610e72615756565b5b906000526020600020906007020160050154610e8f91906157b4565b9150610ea4610e9c612012565b33308561367b565b60006064600b5484610eb691906157b4565b610ec09190615825565b9050610ef6610ecd612012565b600460009054906101000a900473ffffffffffffffffffffffffffffffffffffffff16836136fd565b8083610f0291906158f6565b601160008d73ffffffffffffffffffffffffffffffffffffffff1673ffffffffffffffffffffffffffffffffffffffff16815260200190815260200160002060008c81526020019081526020016000206000828254610f6191906158c2565b925050819055508b73ffffffffffffffffffffffffffffffffffffffff1663f242432a600e60008f73ffffffffffffffffffffffffffffffffffffffff1673ffffffffffffffffffffffffffffffffffffffff16815260200190815260200160002060008d815260200190815260200160002060010160009054906101000a900473ffffffffffffffffffffffffffffffffffffffff168f8d8a6040518563ffffffff1660e01b815260040161101a9493929190615961565b600060405180830381600087803b15801561103457600080fd5b505af1158015611048573d6000803e3d6000fd5b505050508c601260008e73ffffffffffffffffffffffffffffffffffffffff1673ffffffffffffffffffffffffffffffffffffffff16815260200190815260200160002060008c815260200190815260200160002060006101000a81548173ffffffffffffffffffffffffffffffffffffffff021916908373ffffffffffffffffffffffffffffffffffffffff160217905550858483815481106110ef576110ee615756565b5b9060005260206000209060070201600301600082825461110f91906158f6565b92505081905550600084838154811061112b5761112a615756565b5b906000526020600020906007020160030154036111f357600084838154811061115757611156615756565b5b906000526020600020906007020160060160006101000a81548160ff0219169083151502179055506000600f60008e73ffffffffffffffffffffffffffffffffffffffff1673ffffffffffffffffffffffffffffffffffffffff16815260200190815260200160002060008c815260200190815260200160002060006101000a81548160ff0219169083151502179055506111f28c8b61377c565b5b5061120c565b8080611204906159b9565b915050610dac565b5061121633613c47565b1561122657611225338c613cdb565b5b7fa902a4486ccec4dc84d6fe26c337009d182d01d9a89ed712a0f5b520484bf3c8338c8a878560405161125d959493929190615a01565b60405180910390a1600195505050505050611276613e67565b95945050505050565b61128833613e70565b6112c7576040517f08c379a00000000000000000000000000000000000000000000000000000000081526004016112be90615aa0565b60405180910390fd5b600c60008373ffffffffffffffffffffffffffffffffffffffff1673ffffffffffffffffffffffffffffffffffffffff168152602001908152602001600020600082815260200190815260200160002060009054906101000a900460ff16611364576040517f08c379a000000000000000000000000000000000000000000000000000000000815260040161135b90615b0c565b60405180910390fd5b6000601160008473ffffffffffffffffffffffffffffffffffffffff1673ffffffffffffffffffffffffffffffffffffffff16815260200190815260200160002060008381526020019081526020016000205490506000601160008573ffffffffffffffffffffffffffffffffffffffff1673ffffffffffffffffffffffffffffffffffffffff1681526020019081526020016000206000848152602001908152602001600020819055506000600c60008573ffffffffffffffffffffffffffffffffffffffff1673ffffffffffffffffffffffffffffffffffffffff168152602001908152602001600020600084815260200190815260200160002060006101000a81548160ff0219169083151502179055506000611482612012565b905061148f8185846136fd565b7ff279e6a1f5e320cca91135676d9cb6e44ca8a08c0b88342bcdb1144f6511b5688484846040516114c293929190615b2c565b60405180910390a150505050565b6114d86135f4565b60011515600f60008473ffffffffffffffffffffffffffffffffffffffff1673ffffffffffffffffffffffffffffffffffffffff168152602001908152602001600020600083815260200190815260200160002060009054906101000a900460ff1615151461157c576040517f08c379a000000000000000000000000000000000000000000000000000000000815260040161157390615baf565b60405180910390fd5b3373ffffffffffffffffffffffffffffffffffffffff16600e60008473ffffffffffffffffffffffffffffffffffffffff1673ffffffffffffffffffffffffffffffffffffffff168152602001908152602001600020600083815260200190815260200160002060010160009054906101000a900473ffffffffffffffffffffffffffffffffffffffff1673ffffffffffffffffffffffffffffffffffffffff161461165d576040517f08c379a000000000000000000000000000000000000000000000000000000000815260040161165490615c1b565b60405180910390fd5b6000600d60003373ffffffffffffffffffffffffffffffffffffffff1673ffffffffffffffffffffffffffffffffffffffff168152602001908152602001600020905060005b8180549050811015611810578373ffffffffffffffffffffffffffffffffffffffff168282815481106116d9576116d8615756565b5b906000526020600020906007020160020160009054906101000a900473ffffffffffffffffffffffffffffffffffffffff1673ffffffffffffffffffffffffffffffffffffffff1614801561175157508282828154811061173d5761173c615756565b5b906000526020600020906007020160000154145b1561179457600082828154811061176b5761176a615756565b5b906000526020600020906007020160060160006101000a81548160ff0219169083151502179055505b6000600f60008673ffffffffffffffffffffffffffffffffffffffff1673ffffffffffffffffffffffffffffffffffffffff168152602001908152602001600020600085815260200190815260200160002060006101000a81548160ff0219169083151502179055508080611808906159b9565b9150506116a3565b5061181b838361377c565b7f60d684fb8e0e3f4ae9b51912760d57e90172fe4eac3d2faed8f0b97fa6030cdb823360405161184c929190615c3b565b60405180910390a15061185d613e67565b5050565b606060038260ff16106118a9576040517f08c379a00000000000000000000000000000000000000000000000000000000081526004016118a090615cb0565b60405180910390fd5b601360008360ff1660ff168152602001908152602001600020805480602002602001604051908101604052809291908181526020016000905b8282101561197e57838290600052602060002090600302016040518060600160405290816000820160009054906101000a900473ffffffffffffffffffffffffffffffffffffffff1673ffffffffffffffffffffffffffffffffffffffff1673ffffffffffffffffffffffffffffffffffffffff16815260200160018201548152602001600282015481525050815260200190600101906118e2565b505050509050919050565b60011515600f60008373ffffffffffffffffffffffffffffffffffffffff1673ffffffffffffffffffffffffffffffffffffffff168152602001908152602001600020600085815260200190815260200160002060009054906101000a900460ff16151514611a2d576040517f08c379a0000000000000000000000000000000000000000000000000000000008152600401611a24906155f2565b60405180910390fd5b3373ffffffffffffffffffffffffffffffffffffffff16600e60008373ffffffffffffffffffffffffffffffffffffffff1673ffffffffffffffffffffffffffffffffffffffff168152602001908152602001600020600085815260200190815260200160002060010160009054906101000a900473ffffffffffffffffffffffffffffffffffffffff1673ffffffffffffffffffffffffffffffffffffffff1614611b0e576040517f08c379a0000000000000000000000000000000000000000000000000000000008152600401611b0590615c1b565b60405180910390fd5b6000600d60003373ffffffffffffffffffffffffffffffffffffffff1673ffffffffffffffffffffffffffffffffffffffff168152602001908152602001600020905060005b8180549050811015611c48578273ffffffffffffffffffffffffffffffffffffffff16828281548110611b8a57611b89615756565b5b906000526020600020906007020160020160009054906101000a900473ffffffffffffffffffffffffffffffffffffffff1673ffffffffffffffffffffffffffffffffffffffff16148015611c02575084828281548110611bee57611bed615756565b5b906000526020600020906007020160000154145b15611c355783828281548110611c1b57611c1a615756565b5b906000526020600020906007020160050181905550611c48565b8080611c40906159b9565b915050611b54565b5082600e60008473ffffffffffffffffffffffffffffffffffffffff1673ffffffffffffffffffffffffffffffffffffffff1681526020019081526020016000206000868152602001908152602001600020600501819055507f04eecd91127013bc902e735b247ba0ae90395fa531361d369bac351caffb5da733838686604051611cd69493929190615cd0565b60405180910390a150505050565b6060600460009054906101000a900473ffffffffffffffffffffffffffffffffffffffff1673ffffffffffffffffffffffffffffffffffffffff166369932f636040518163ffffffff1660e01b8152600401600060405180830381865afa158015611d53573d6000803e3d6000fd5b505050506040513d6000823e3d601f19601f82011682018060405250810190611d7c919061554c565b905090565b611d89613f04565b611d936000613f82565b565b611d9d613f04565b80600460006101000a81548173ffffffffffffffffffffffffffffffffffffffff021916908373ffffffffffffffffffffffffffffffffffffffff16021790555050565b600080600d60008673ffffffffffffffffffffffffffffffffffffffff1673ffffffffffffffffffffffffffffffffffffffff1681526020019081526020016000209050600080600090505b8280549050811015611f77578573ffffffffffffffffffffffffffffffffffffffff16838281548110611e6357611e62615756565b5b906000526020600020906007020160020160009054906101000a900473ffffffffffffffffffffffffffffffffffffffff1673ffffffffffffffffffffffffffffffffffffffff16148015611edb575084838281548110611ec757611ec6615756565b5b906000526020600020906007020160000154145b15611f64576000838281548110611ef557611ef4615756565b5b90600052602060002090600702016004015490506000848381548110611f1e57611f1d615756565b5b906000526020600020906007020160030154905060008183611f4091906158f6565b905082606482611f5091906157b4565b611f5a9190615825565b9450505050611f77565b8080611f6f906159b9565b915050611e2d565b5080925050509392505050565b6060600380548060200260200160405190810160405280929190818152602001828054801561200857602002820191906000526020600020905b8160009054906101000a900473ffffffffffffffffffffffffffffffffffffffff1673ffffffffffffffffffffffffffffffffffffffff1681526020019060010190808311611fbe575b5050505050905090565b6000600460009054906101000a900473ffffffffffffffffffffffffffffffffffffffff1673ffffffffffffffffffffffffffffffffffffffff1663581592f16040518163ffffffff1660e01b8152600401602060405180830381865afa158015612081573d6000803e3d6000fd5b505050506040513d601f19601f820116820180604052508101906120a59190615d15565b905090565b60008060009054906101000a900473ffffffffffffffffffffffffffffffffffffffff16905090565b60008311612116576040517f08c379a000000000000000000000000000000000000000000000000000000000815260040161210d90615d8e565b60405180910390fd5b600085905060001515600f60008873ffffffffffffffffffffffffffffffffffffffff1673ffffffffffffffffffffffffffffffffffffffff168152602001908152602001600020600087815260200190815260200160002060009054906101000a900460ff161515146121bf576040517f08c379a00000000000000000000000000000000000000000000000000000000081526004016121b690615dfa565b60405180910390fd5b60008173ffffffffffffffffffffffffffffffffffffffff1662fdd58e33886040518363ffffffff1660e01b81526004016121fb929190615e1a565b602060405180830381865afa158015612218573d6000803e3d6000fd5b505050506040513d601f19601f8201168201806040525081019061223c9190615e58565b905060008111612281576040517f08c379a000000000000000000000000000000000000000000000000000000000815260040161227890615ed1565b60405180910390fd5b831561256f576000600460009054906101000a900473ffffffffffffffffffffffffffffffffffffffff1673ffffffffffffffffffffffffffffffffffffffff1663e806df136040518163ffffffff1660e01b8152600401606060405180830381865afa1580156122f6573d6000803e3d6000fd5b505050506040513d601f19601f8201168201806040525081019061231a9190615fa2565b905060038460ff1610612362576040517f08c379a00000000000000000000000000000000000000000000000000000000081526004016123599061601b565b60405180910390fd5b600061236d85614046565b9050806123af576040517f08c379a00000000000000000000000000000000000000000000000000000000081526004016123a690616087565b60405180910390fd5b60006123b9612012565b905060008173ffffffffffffffffffffffffffffffffffffffff1663313ce5676040518163ffffffff1660e01b8152600401602060405180830381865afa158015612408573d6000803e3d6000fd5b505050506040513d601f19601f8201168201806040525081019061242c91906160bc565b600a612438919061621c565b848860ff166003811061244e5761244d615756565b5b602002015161245d91906157b4565b905061248d8233600460009054906101000a900473ffffffffffffffffffffffffffffffffffffffff168461367b565b601360008860ff1660ff16815260200190815260200160002060405180606001604052808d73ffffffffffffffffffffffffffffffffffffffff1681526020018c8152602001600254426124e191906158c2565b815250908060018154018082558091505060019003906000526020600020906003020160009091909190915060008201518160000160006101000a81548173ffffffffffffffffffffffffffffffffffffffff021916908373ffffffffffffffffffffffffffffffffffffffff16021790555060208201518160010155604082015181600201555050505050505b600d60003373ffffffffffffffffffffffffffffffffffffffff1673ffffffffffffffffffffffffffffffffffffffff1681526020019081526020016000206040518060e001604052808881526020013373ffffffffffffffffffffffffffffffffffffffff1681526020018973ffffffffffffffffffffffffffffffffffffffff1681526020018381526020018381526020018781526020016001151581525090806001815401808255809150506001900390600052602060002090600702016000909190919091506000820151816000015560208201518160010160006101000a81548173ffffffffffffffffffffffffffffffffffffffff021916908373ffffffffffffffffffffffffffffffffffffffff16021790555060408201518160020160006101000a81548173ffffffffffffffffffffffffffffffffffffffff021916908373ffffffffffffffffffffffffffffffffffffffff160217905550606082015181600301556080820151816004015560a0820151816005015560c08201518160060160006101000a81548160ff02191690831515021790555050506040518060e001604052808781526020013373ffffffffffffffffffffffffffffffffffffffff1681526020018873ffffffffffffffffffffffffffffffffffffffff16815260200182815260200182815260200186815260200160011515815250600e60008973ffffffffffffffffffffffffffffffffffffffff1673ffffffffffffffffffffffffffffffffffffffff16815260200190815260200160002060008881526020019081526020016000206000820151816000015560208201518160010160006101000a81548173ffffffffffffffffffffffffffffffffffffffff021916908373ffffffffffffffffffffffffffffffffffffffff16021790555060408201518160020160006101000a81548173ffffffffffffffffffffffffffffffffffffffff021916908373ffffffffffffffffffffffffffffffffffffffff160217905550606082015181600301556080820151816004015560a0820151816005015560c08201518160060160006101000a81548160ff021916908315150217905550905050601060008873ffffffffffffffffffffffffffffffffffffffff1673ffffffffffffffffffffffffffffffffffffffff1681526020019081526020016000208690806001815401808255809150506001900390600052602060002001600090919091909150556001600f60008973ffffffffffffffffffffffffffffffffffffffff1673ffffffffffffffffffffffffffffffffffffffff168152602001908152602001600020600088815260200190815260200160002060006101000a81548160ff02191690831515021790555060006129768861426e565b9050806129e1576003889080600181540180825580915050600190039060005260206000200160009091909190916101000a81548173ffffffffffffffffffffffffffffffffffffffff021916908373ffffffffffffffffffffffffffffffffffffffff1602179055505b7f307cad54d612739002c1d3fb9e45beec3961cc4a645f5f6c66e2d60f8a08d83c87338a858a604051612a18959493929190616267565b60405180910390a15050505050505050565b600460009054906101000a900473ffffffffffffffffffffffffffffffffffffffff1681565b612a586149ce565b600e60008473ffffffffffffffffffffffffffffffffffffffff1673ffffffffffffffffffffffffffffffffffffffff16815260200190815260200160002060008381526020019081526020016000206040518060e0016040529081600082015481526020016001820160009054906101000a900473ffffffffffffffffffffffffffffffffffffffff1673ffffffffffffffffffffffffffffffffffffffff1673ffffffffffffffffffffffffffffffffffffffff1681526020016002820160009054906101000a900473ffffffffffffffffffffffffffffffffffffffff1673ffffffffffffffffffffffffffffffffffffffff1673ffffffffffffffffffffffffffffffffffffffff1681526020016003820154815260200160048201548152602001600582015481526020016006820160009054906101000a900460ff161515151581525050905092915050565b600b5481565b612bb8613f04565b8060028190555050565b612bca614a39565b6005600680602002604051908101604052809291908260068015612c03576020028201915b815481526020019060010190808311612bef575b5050505050905090565b600f6020528160005260406000206020528060005260406000206000915091509054906101000a900460ff1681565b60025481565b6000601160003373ffffffffffffffffffffffffffffffffffffffff1673ffffffffffffffffffffffffffffffffffffffff16815260200190815260200160002060008381526020019081526020016000205411612cd5576040517f08c379a0000000000000000000000000000000000000000000000000000000008152600401612ccc90615ed1565b60405180910390fd5b600c60003373ffffffffffffffffffffffffffffffffffffffff1673ffffffffffffffffffffffffffffffffffffffff168152602001908152602001600020600082815260200190815260200160002060009054906101000a900460ff1615612d73576040517f08c379a0000000000000000000000000000000000000000000000000000000008152600401612d6a90616306565b60405180910390fd5b6001600c60003373ffffffffffffffffffffffffffffffffffffffff1673ffffffffffffffffffffffffffffffffffffffff168152602001908152602001600020600083815260200190815260200160002060006101000a81548160ff0219169083151502179055507f17040713250ec5f668a1c39e7939900e78558350dbaff0ebef34268dfa8ea4ac3382604051612e0d929190615e1a565b60405180910390a150565b6060601060008373ffffffffffffffffffffffffffffffffffffffff1673ffffffffffffffffffffffffffffffffffffffff168152602001908152602001600020805480602002602001604051908101604052809291908181526020018280548015612ea357602002820191906000526020600020905b815481526020019060010190808311612e8f575b50505050509050919050565b612eb7613f04565b600073ffffffffffffffffffffffffffffffffffffffff168173ffffffffffffffffffffffffffffffffffffffff1603612f26576040517f08c379a0000000000000000000000000000000000000000000000000000000008152600401612f1d90616398565b60405180910390fd5b612f2f81613f82565b50565b612f3a613f04565b80600b8190555050565b6000612f4e6135f4565b60011515600f60008773ffffffffffffffffffffffffffffffffffffffff1673ffffffffffffffffffffffffffffffffffffffff168152602001908152602001600020600085815260200190815260200160002060009054906101000a900460ff16151514612ff2576040517f08c379a0000000000000000000000000000000000000000000000000000000008152600401612fe9906155f2565b60405180910390fd5b3373ffffffffffffffffffffffffffffffffffffffff16600e60008773ffffffffffffffffffffffffffffffffffffffff1673ffffffffffffffffffffffffffffffffffffffff168152602001908152602001600020600085815260200190815260200160002060010160009054906101000a900473ffffffffffffffffffffffffffffffffffffffff1673ffffffffffffffffffffffffffffffffffffffff16036130d3576040517f08c379a00000000000000000000000000000000000000000000000000000000081526004016130ca9061565e565b60405180910390fd5b81600e60008773ffffffffffffffffffffffffffffffffffffffff1673ffffffffffffffffffffffffffffffffffffffff1681526020019081526020016000206000858152602001908152602001600020600301541015613169576040517f08c379a0000000000000000000000000000000000000000000000000000000008152600401613160906158a2565b60405180910390fd5b6000600d60008673ffffffffffffffffffffffffffffffffffffffff1673ffffffffffffffffffffffffffffffffffffffff1681526020019081526020016000209050600080600090505b8280549050811015613584578773ffffffffffffffffffffffffffffffffffffffff168382815481106131ea576131e9615756565b5b906000526020600020906007020160020160009054906101000a900473ffffffffffffffffffffffffffffffffffffffff1673ffffffffffffffffffffffffffffffffffffffff1614801561326257508583828154811061324e5761324d615756565b5b906000526020600020906007020160000154145b15613571578483828154811061327b5761327a615756565b5b90600052602060002090600702016005015461329791906157b4565b915060006132a3612012565b90506132b18133308661367b565b60006064600b54856132c391906157b4565b6132cd9190615825565b90506132fc82600460009054906101000a900473ffffffffffffffffffffffffffffffffffffffff16836136fd565b808461330891906158f6565b601160008b73ffffffffffffffffffffffffffffffffffffffff1673ffffffffffffffffffffffffffffffffffffffff16815260200190815260200160002060008a8152602001908152602001600020600082825461336791906158c2565b925050819055508973ffffffffffffffffffffffffffffffffffffffff1663f242432a600e60008d73ffffffffffffffffffffffffffffffffffffffff1673ffffffffffffffffffffffffffffffffffffffff16815260200190815260200160002060008b815260200190815260200160002060010160009054906101000a900473ffffffffffffffffffffffffffffffffffffffff168d8b8b6040518563ffffffff1660e01b81526004016134209493929190615961565b600060405180830381600087803b15801561343a57600080fd5b505af115801561344e573d6000803e3d6000fd5b505050508685848154811061346657613465615756565b5b9060005260206000209060070201600301600082825461348691906158f6565b9250508190555060008584815481106134a2576134a1615756565b5b9060005260206000209060070201600301540361356a5760008584815481106134ce576134cd615756565b5b906000526020600020906007020160060160006101000a81548160ff0219169083151502179055506000600f60008c73ffffffffffffffffffffffffffffffffffffffff1673ffffffffffffffffffffffffffffffffffffffff16815260200190815260200160002060008a815260200190815260200160002060006101000a81548160ff0219169083151502179055506135698a8961377c565b5b5050613584565b808061357c906159b9565b9150506131b4565b5061358e33613c47565b1561359e5761359d3389613cdb565b5b7fa902a4486ccec4dc84d6fe26c337009d182d01d9a89ed712a0f5b520484bf3c833898787856040516135d5959493929190615a01565b60405180910390a16001925050506135eb613e67565b95945050505050565b600260015403613639576040517f08c379a000000000000000000000000000000000000000000000000000000000815260040161363090616404565b60405180910390fd5b6002600181905550565b600080600a836136539190615825565b90506000600a8261366491906157b4565b8461366f91906158f6565b90508092505050919050565b6136f7848573ffffffffffffffffffffffffffffffffffffffff166323b872dd8686866040516024016136b093929190616424565b604051602081830303815290604052915060e01b6020820180517bffffffffffffffffffffffffffffffffffffffffffffffffffffffff838183161783525050505061431c565b50505050565b613777838473ffffffffffffffffffffffffffffffffffffffff1663a9059cbb8585604051602401613730929190615e1a565b604051602081830303815290604052915060e01b6020820180517bffffffffffffffffffffffffffffffffffffffffffffffffffffffff838183161783525050505061431c565b505050565b6000600d60003373ffffffffffffffffffffffffffffffffffffffff1673ffffffffffffffffffffffffffffffffffffffff168152602001908152602001600020905060005b8180549050811015613ab557600015158282815481106137e5576137e4615756565b5b906000526020600020906007020160060160009054906101000a900460ff161515148015613874575060001515600f60008673ffffffffffffffffffffffffffffffffffffffff1673ffffffffffffffffffffffffffffffffffffffff168152602001908152602001600020600085815260200190815260200160002060009054906101000a900460ff161515145b15613aa257816001838054905061388b91906158f6565b8154811061389c5761389b615756565b5b90600052602060002090600702018282815481106138bd576138bc615756565b5b9060005260206000209060070201600082015481600001556001820160009054906101000a900473ffffffffffffffffffffffffffffffffffffffff168160010160006101000a81548173ffffffffffffffffffffffffffffffffffffffff021916908373ffffffffffffffffffffffffffffffffffffffff1602179055506002820160009054906101000a900473ffffffffffffffffffffffffffffffffffffffff168160020160006101000a81548173ffffffffffffffffffffffffffffffffffffffff021916908373ffffffffffffffffffffffffffffffffffffffff1602179055506003820154816003015560048201548160040155600582015481600501556006820160009054906101000a900460ff168160060160006101000a81548160ff02191690831515021790555090505081805480613a0257613a0161645b565b5b60019003818190600052602060002090600702016000808201600090556001820160006101000a81549073ffffffffffffffffffffffffffffffffffffffff02191690556002820160006101000a81549073ffffffffffffffffffffffffffffffffffffffff02191690556003820160009055600482016000905560058201600090556006820160006101000a81549060ff021916905550509055613ab5565b8080613aad906159b9565b9150506137c2565b506000601060008573ffffffffffffffffffffffffffffffffffffffff1673ffffffffffffffffffffffffffffffffffffffff168152602001908152602001600020905060005b8180549050811015613bba5783828281548110613b1c57613b1b615756565b5b906000526020600020015403613ba7578160018380549050613b3e91906158f6565b81548110613b4f57613b4e615756565b5b9060005260206000200154828281548110613b6d57613b6c615756565b5b906000526020600020018190555081805480613b8c57613b8b61645b565b5b60019003818190600052602060002001600090559055613bba565b8080613bb2906159b9565b915050613afc565b50613bc584846143b3565b15613bd557613bd48484614574565b5b6000600e60008673ffffffffffffffffffffffffffffffffffffffff1673ffffffffffffffffffffffffffffffffffffffff168152602001908152602001600020600085815260200190815260200160002060060160006101000a81548160ff02191690831515021790555050505050565b600080613c52610603565b90506000805b82518160ff161015613cd0578473ffffffffffffffffffffffffffffffffffffffff16838260ff1681518110613c9157613c90615756565b5b602002602001015173ffffffffffffffffffffffffffffffffffffffff1603613cbd5760019150613cd0565b8080613cc89061648a565b915050613c58565b508092505050919050565b600080601460008573ffffffffffffffffffffffffffffffffffffffff1673ffffffffffffffffffffffffffffffffffffffff168152602001908152602001600020905060005b8180549050811015613dba578373ffffffffffffffffffffffffffffffffffffffff16828281548110613d5857613d57615756565b5b9060005260206000200160009054906101000a900473ffffffffffffffffffffffffffffffffffffffff1673ffffffffffffffffffffffffffffffffffffffff1603613da75760019250613dba565b8080613db2906159b9565b915050613d22565b5081613e6157601460008573ffffffffffffffffffffffffffffffffffffffff1673ffffffffffffffffffffffffffffffffffffffff168152602001908152602001600020839080600181540180825580915050600190039060005260206000200160009091909190916101000a81548173ffffffffffffffffffffffffffffffffffffffff021916908373ffffffffffffffffffffffffffffffffffffffff1602179055505b50505050565b60018081905550565b600080613e7b611ce4565b90506000805b82518160ff161015613ef9578473ffffffffffffffffffffffffffffffffffffffff16838260ff1681518110613eba57613eb9615756565b5b602002602001015173ffffffffffffffffffffffffffffffffffffffff1603613ee65760019150613ef9565b8080613ef19061648a565b915050613e81565b508092505050919050565b613f0c6147c5565b73ffffffffffffffffffffffffffffffffffffffff16613f2a6120aa565b73ffffffffffffffffffffffffffffffffffffffff1614613f80576040517f08c379a0000000000000000000000000000000000000000000000000000000008152600401613f77906164ff565b60405180910390fd5b565b60008060009054906101000a900473ffffffffffffffffffffffffffffffffffffffff169050816000806101000a81548173ffffffffffffffffffffffffffffffffffffffff021916908373ffffffffffffffffffffffffffffffffffffffff1602179055508173ffffffffffffffffffffffffffffffffffffffff168173ffffffffffffffffffffffffffffffffffffffff167f8be0079c531659141344cd1fd0a4f28419497f9722a3daafe3b4186f6b6457e060405160405180910390a35050565b600080601360008460ff1660ff168152602001908152602001600020905060008360ff1614801561407b575060058180549050145b80614099575060018360ff161480156140985750600f8180549050145b5b806140b7575060028360ff161480156140b6575060198180549050145b5b1561426357600080600090505b82805490508160ff1610156142585742838260ff16815481106140ea576140e9615756565b5b9060005260206000209060030201600201541161424457826001848054905061411391906158f6565b8154811061412457614123615756565b5b9060005260206000209060030201838260ff168154811061414857614147615756565b5b90600052602060002090600302016000820160009054906101000a900473ffffffffffffffffffffffffffffffffffffffff168160000160006101000a81548173ffffffffffffffffffffffffffffffffffffffff021916908373ffffffffffffffffffffffffffffffffffffffff1602179055506001820154816001015560028201548160020155905050828054806141e5576141e461645b565b5b6001900381819060005260206000209060030201600080820160006101000a81549073ffffffffffffffffffffffffffffffffffffffff021916905560018201600090556002820160009055505090558161423f57600191505b614253565b808061424f9061648a565b9150505b6140c4565b819350505050614269565b60019150505b919050565b600080600090505b600380549050811015614311578273ffffffffffffffffffffffffffffffffffffffff16600382815481106142ae576142ad615756565b5b9060005260206000200160009054906101000a900473ffffffffffffffffffffffffffffffffffffffff1673ffffffffffffffffffffffffffffffffffffffff16036142fe576001915050614317565b8080614309906159b9565b915050614276565b50600090505b919050565b6000614347828473ffffffffffffffffffffffffffffffffffffffff166147cd90919063ffffffff16565b9050600081511415801561436c57508080602001905181019061436a9190616534565b155b156143ae57826040517f5274afe70000000000000000000000000000000000000000000000000000000081526004016143a59190614e12565b60405180910390fd5b505050565b600080600090505b60038160ff161015614568576000601360008360ff1660ff168152602001908152602001600020805480602002602001604051908101604052809291908181526020016000905b8282101561449e57838290600052602060002090600302016040518060600160405290816000820160009054906101000a900473ffffffffffffffffffffffffffffffffffffffff1673ffffffffffffffffffffffffffffffffffffffff1673ffffffffffffffffffffffffffffffffffffffff1681526020016001820154815260200160028201548152505081526020019060010190614402565b50505050905060005b81518160ff161015614553578573ffffffffffffffffffffffffffffffffffffffff16828260ff16815181106144e0576144df615756565b5b60200260200101516000015173ffffffffffffffffffffffffffffffffffffffff1614801561452f575084828260ff168151811061452157614520615756565b5b602002602001015160200151145b15614540576001935050505061456e565b808061454b9061648a565b9150506144a7565b505080806145609061648a565b9150506143bb565b50600090505b92915050565b60005b60038160ff1610156147c0576000601360008360ff1660ff168152602001908152602001600020905060005b81805490508160ff1610156147ab578473ffffffffffffffffffffffffffffffffffffffff16828260ff16815481106145df576145de615756565b5b906000526020600020906003020160000160009054906101000a900473ffffffffffffffffffffffffffffffffffffffff1673ffffffffffffffffffffffffffffffffffffffff1614801561465a575083828260ff168154811061464657614645615756565b5b906000526020600020906003020160010154145b1561479857816001838054905061467191906158f6565b8154811061468257614681615756565b5b9060005260206000209060030201828260ff16815481106146a6576146a5615756565b5b90600052602060002090600302016000820160009054906101000a900473ffffffffffffffffffffffffffffffffffffffff168160000160006101000a81548173ffffffffffffffffffffffffffffffffffffffff021916908373ffffffffffffffffffffffffffffffffffffffff1602179055506001820154816001015560028201548160020155905050818054806147435761474261645b565b5b6001900381819060005260206000209060030201600080820160006101000a81549073ffffffffffffffffffffffffffffffffffffffff021916905560018201600090556002820160009055505090556147ab565b80806147a39061648a565b9150506145a3565b505080806147b89061648a565b915050614577565b505050565b600033905090565b6060614811838360006040518060400160405280601e81526020017f416464726573733a206c6f772d6c6576656c2063616c6c206661696c65640000815250614819565b905092915050565b60608247101561485e576040517f08c379a0000000000000000000000000000000000000000000000000000000008152600401614855906165d3565b60405180910390fd5b6000808673ffffffffffffffffffffffffffffffffffffffff1685876040516148879190616664565b60006040518083038185875af1925050503d80600081146148c4576040519150601f19603f3d011682016040523d82523d6000602084013e6148c9565b606091505b50915091506148da878383876148e6565b92505050949350505050565b60608315614948576000835103614940576149008561495b565b61493f576040517f08c379a0000000000000000000000000000000000000000000000000000000008152600401614936906166c7565b60405180910390fd5b5b829050614953565b614952838361497e565b5b949350505050565b6000808273ffffffffffffffffffffffffffffffffffffffff163b119050919050565b6000825111156149915781518083602001fd5b806040517f08c379a00000000000000000000000000000000000000000000000000000000081526004016149c5919061672b565b60405180910390fd5b6040518060e0016040528060008152602001600073ffffffffffffffffffffffffffffffffffffffff168152602001600073ffffffffffffffffffffffffffffffffffffffff1681526020016000815260200160008152602001600081526020016000151581525090565b6040518060c00160405280600690602082028036833780820191505090505090565b600081519050919050565b600082825260208201905092915050565b6000819050602082019050919050565b600073ffffffffffffffffffffffffffffffffffffffff82169050919050565b6000614ab282614a87565b9050919050565b614ac281614aa7565b82525050565b6000614ad48383614ab9565b60208301905092915050565b6000602082019050919050565b6000614af882614a5b565b614b028185614a66565b9350614b0d83614a77565b8060005b83811015614b3e578151614b258882614ac8565b9750614b3083614ae0565b925050600181019050614b11565b5085935050505092915050565b60006020820190508181036000830152614b658184614aed565b905092915050565b6000604051905090565b600080fd5b600080fd5b614b8a81614aa7565b8114614b9557600080fd5b50565b600081359050614ba781614b81565b92915050565b6000819050919050565b614bc081614bad565b8114614bcb57600080fd5b50565b600081359050614bdd81614bb7565b92915050565b60008060408385031215614bfa57614bf9614b77565b5b6000614c0885828601614b98565b9250506020614c1985828601614bce565b9150509250929050565b60008115159050919050565b614c3881614c23565b82525050565b6000602082019050614c536000830184614c2f565b92915050565b600060208284031215614c6f57614c6e614b77565b5b6000614c7d84828501614b98565b91505092915050565b600081519050919050565b600082825260208201905092915050565b6000819050602082019050919050565b614cbb81614bad565b82525050565b614cca81614c23565b82525050565b60e082016000820151614ce66000850182614cb2565b506020820151614cf96020850182614ab9565b506040820151614d0c6040850182614ab9565b506060820151614d1f6060850182614cb2565b506080820151614d326080850182614cb2565b5060a0820151614d4560a0850182614cb2565b5060c0820151614d5860c0850182614cc1565b50505050565b6000614d6a8383614cd0565b60e08301905092915050565b6000602082019050919050565b6000614d8e82614c86565b614d988185614c91565b9350614da383614ca2565b8060005b83811015614dd4578151614dbb8882614d5e565b9750614dc683614d76565b925050600181019050614da7565b5085935050505092915050565b60006020820190508181036000830152614dfb8184614d83565b905092915050565b614e0c81614aa7565b82525050565b6000602082019050614e276000830184614e03565b92915050565b600080600080600060a08688031215614e4957614e48614b77565b5b6000614e5788828901614b98565b9550506020614e6888828901614b98565b9450506040614e7988828901614b98565b9350506060614e8a88828901614bce565b9250506080614e9b88828901614bce565b9150509295509295909350565b600060ff82169050919050565b614ebe81614ea8565b8114614ec957600080fd5b50565b600081359050614edb81614eb5565b92915050565b600060208284031215614ef757614ef6614b77565b5b6000614f0584828501614ecc565b91505092915050565b600081519050919050565b600082825260208201905092915050565b6000819050602082019050919050565b606082016000820151614f506000850182614ab9565b506020820151614f636020850182614cb2565b506040820151614f766040850182614cb2565b50505050565b6000614f888383614f3a565b60608301905092915050565b6000602082019050919050565b6000614fac82614f0e565b614fb68185614f19565b9350614fc183614f2a565b8060005b83811015614ff2578151614fd98882614f7c565b9750614fe483614f94565b925050600181019050614fc5565b5085935050505092915050565b600060208201905081810360008301526150198184614fa1565b905092915050565b60008060006060848603121561503a57615039614b77565b5b600061504886828701614bce565b935050602061505986828701614bce565b925050604061506a86828701614b98565b9150509250925092565b60008060006060848603121561508d5761508c614b77565b5b600061509b86828701614b98565b93505060206150ac86828701614b98565b92505060406150bd86828701614bce565b9150509250925092565b6150d081614bad565b82525050565b60006020820190506150eb60008301846150c7565b92915050565b6150fa81614c23565b811461510557600080fd5b50565b600081359050615117816150f1565b92915050565b600080600080600060a0868803121561513957615138614b77565b5b600061514788828901614b98565b955050602061515888828901614bce565b945050604061516988828901614bce565b935050606061517a88828901615108565b925050608061518b88828901614ecc565b9150509295509295909350565b60e0820160008201516151ae6000850182614cb2565b5060208201516151c16020850182614ab9565b5060408201516151d46040850182614ab9565b5060608201516151e76060850182614cb2565b5060808201516151fa6080850182614cb2565b5060a082015161520d60a0850182614cb2565b5060c082015161522060c0850182614cc1565b50505050565b600060e08201905061523b6000830184615198565b92915050565b60006020828403121561525757615256614b77565b5b600061526584828501614bce565b91505092915050565b600060069050919050565b600081905092915050565b6000819050919050565b600061529a8383614cb2565b60208301905092915050565b6000602082019050919050565b6152bc8161526e565b6152c68184615279565b92506152d182615284565b8060005b838110156153025781516152e9878261528e565b96506152f4836152a6565b9250506001810190506152d5565b505050505050565b600060c08201905061531f60008301846152b3565b92915050565b600081519050919050565b600082825260208201905092915050565b6000819050602082019050919050565b6000602082019050919050565b600061536982615325565b6153738185615330565b935061537e83615341565b8060005b838110156153af578151615396888261528e565b97506153a183615351565b925050600181019050615382565b5085935050505092915050565b600060208201905081810360008301526153d6818461535e565b905092915050565b600080fd5b6000601f19601f8301169050919050565b7f4e487b7100000000000000000000000000000000000000000000000000000000600052604160045260246000fd5b61542c826153e3565b810181811067ffffffffffffffff8211171561544b5761544a6153f4565b5b80604052505050565b600061545e614b6d565b905061546a8282615423565b919050565b600067ffffffffffffffff82111561548a576154896153f4565b5b602082029050602081019050919050565b600080fd5b6000815190506154af81614b81565b92915050565b60006154c86154c38461546f565b615454565b905080838252602082019050602084028301858111156154eb576154ea61549b565b5b835b81811015615514578061550088826154a0565b8452602084019350506020810190506154ed565b5050509392505050565b600082601f830112615533576155326153de565b5b81516155438482602086016154b5565b91505092915050565b60006020828403121561556257615561614b77565b5b600082015167ffffffffffffffff8111156155805761557f614b7c565b5b61558c8482850161551e565b91505092915050565b600082825260208201905092915050565b7f546f6b656e204e6f742045786973747300000000000000000000000000000000600082015250565b60006155dc601083615595565b91506155e7826155a6565b602082019050919050565b6000602082019050818103600083015261560b816155cf565b9050919050565b7f4f776e65722063616e2774206275790000000000000000000000000000000000600082015250565b6000615648600f83615595565b915061565382615612565b602082019050919050565b600060208201905081810360008301526156778161563b565b9050919050565b7f496e76616c69642070657263656e7461676520696e6465780000000000000000600082015250565b60006156b4601883615595565b91506156bf8261567e565b602082019050919050565b600060208201905081810360008301526156e3816156a7565b9050919050565b7f457865637574697665204469726563746f7220616c7265616479206578697374600082015250565b6000615720602083615595565b915061572b826156ea565b602082019050919050565b6000602082019050818103600083015261574f81615713565b9050919050565b7f4e487b7100000000000000000000000000000000000000000000000000000000600052603260045260246000fd5b7f4e487b7100000000000000000000000000000000000000000000000000000000600052601160045260246000fd5b60006157bf82614bad565b91506157ca83614bad565b92508282026157d881614bad565b915082820484148315176157ef576157ee615785565b5b5092915050565b7f4e487b7100000000000000000000000000000000000000000000000000000000600052601260045260246000fd5b600061583082614bad565b915061583b83614bad565b92508261584b5761584a6157f6565b5b828204905092915050565b7f4c697374656420616d6f756e7420657863656564730000000000000000000000600082015250565b600061588c601583615595565b915061589782615856565b602082019050919050565b600060208201905081810360008301526158bb8161587f565b9050919050565b60006158cd82614bad565b91506158d883614bad565b92508282019050808211156158f0576158ef615785565b5b92915050565b600061590182614bad565b915061590c83614bad565b925082820390508181111561592457615923615785565b5b92915050565b600082825260208201905092915050565b50565b600061594b60008361592a565b91506159568261593b565b600082019050919050565b600060a0820190506159766000830187614e03565b6159836020830186614e03565b61599060408301856150c7565b61599d60608301846150c7565b81810360808301526159ae8161593e565b905095945050505050565b60006159c482614bad565b91507fffffffffffffffffffffffffffffffffffffffffffffffffffffffffffffffff82036159f6576159f5615785565b5b600182019050919050565b600060a082019050615a166000830188614e03565b615a236020830187614e03565b615a3060408301866150c7565b615a3d60608301856150c7565b615a4a60808301846150c7565b9695505050505050565b7f596f7520617265206e6f742061646d696e210000000000000000000000000000600082015250565b6000615a8a601283615595565b9150615a9582615a54565b602082019050919050565b60006020820190508181036000830152615ab981615a7d565b9050919050565b7f55736572206e6f74207265717565737465640000000000000000000000000000600082015250565b6000615af6601283615595565b9150615b0182615ac0565b602082019050919050565b60006020820190508181036000830152615b2581615ae9565b9050919050565b6000606082019050615b416000830186614e03565b615b4e60208301856150c7565b615b5b60408301846150c7565b949350505050565b7f4e6674206e6f7420666f722073616c6500000000000000000000000000000000600082015250565b6000615b99601083615595565b9150615ba482615b63565b602082019050919050565b60006020820190508181036000830152615bc881615b8c565b9050919050565b7f4e6f7420616e206f776e65720000000000000000000000000000000000000000600082015250565b6000615c05600c83615595565b9150615c1082615bcf565b602082019050919050565b60006020820190508181036000830152615c3481615bf8565b9050919050565b6000604082019050615c5060008301856150c7565b615c5d6020830184614e03565b9392505050565b7f496e76616c696420696e64657800000000000000000000000000000000000000600082015250565b6000615c9a600d83615595565b9150615ca582615c64565b602082019050919050565b60006020820190508181036000830152615cc981615c8d565b9050919050565b6000608082019050615ce56000830187614e03565b615cf26020830186614e03565b615cff60408301856150c7565b615d0c60608301846150c7565b95945050505050565b600060208284031215615d2b57615d2a614b77565b5b6000615d39848285016154a0565b91505092915050565b7f416d6f756e74206d7573742062652067726561746572207468616e207a65726f600082015250565b6000615d78602083615595565b9150615d8382615d42565b602082019050919050565b60006020820190508181036000830152615da781615d6b565b9050919050565b7f416c7265616479204c6973746564000000000000000000000000000000000000600082015250565b6000615de4600e83615595565b9150615def82615dae565b602082019050919050565b60006020820190508181036000830152615e1381615dd7565b9050919050565b6000604082019050615e2f6000830185614e03565b615e3c60208301846150c7565b9392505050565b600081519050615e5281614bb7565b92915050565b600060208284031215615e6e57615e6d614b77565b5b6000615e7c84828501615e43565b91505092915050565b7f4e6f7420656e6f7567682062616c616e63650000000000000000000000000000600082015250565b6000615ebb601283615595565b9150615ec682615e85565b602082019050919050565b60006020820190508181036000830152615eea81615eae565b9050919050565b600067ffffffffffffffff821115615f0c57615f0b6153f4565b5b602082029050919050565b6000615f2a615f2584615ef1565b615454565b90508060208402830185811115615f4457615f4361549b565b5b835b81811015615f6d5780615f598882615e43565b845260208401935050602081019050615f46565b5050509392505050565b600082601f830112615f8c57615f8b6153de565b5b6003615f99848285615f17565b91505092915050565b600060608284031215615fb857615fb7614b77565b5b6000615fc684828501615f77565b91505092915050565b7f496e76616c696420746f702066656520696e6465780000000000000000000000600082015250565b6000616005601583615595565b915061601082615fcf565b602082019050919050565b6000602082019050818103600083015261603481615ff8565b9050919050565b7f546f70206c697374696e67206661696c65640000000000000000000000000000600082015250565b6000616071601283615595565b915061607c8261603b565b602082019050919050565b600060208201905081810360008301526160a081616064565b9050919050565b6000815190506160b681614eb5565b92915050565b6000602082840312156160d2576160d1614b77565b5b60006160e0848285016160a7565b91505092915050565b60008160011c9050919050565b6000808291508390505b60018511156161405780860481111561611c5761611b615785565b5b600185161561612b5780820291505b8081029050616139856160e9565b9450616100565b94509492505050565b6000826161595760019050616215565b816161675760009050616215565b816001811461617d5760028114616187576161b6565b6001915050616215565b60ff84111561619957616198615785565b5b8360020a9150848211156161b0576161af615785565b5b50616215565b5060208310610133831016604e8410600b84101617156161eb5782820a9050838111156161e6576161e5615785565b5b616215565b6161f884848460016160f6565b9250905081840481111561620f5761620e615785565b5b81810290505b9392505050565b600061622782614bad565b915061623283614ea8565b925061625f7fffffffffffffffffffffffffffffffffffffffffffffffffffffffffffffffff8484616149565b905092915050565b600060a08201905061627c60008301886150c7565b6162896020830187614e03565b6162966040830186614e03565b6162a360608301856150c7565b6162b060808301846150c7565b9695505050505050565b7f416c726561647920726571756573746564000000000000000000000000000000600082015250565b60006162f0601183615595565b91506162fb826162ba565b602082019050919050565b6000602082019050818103600083015261631f816162e3565b9050919050565b7f4f776e61626c653a206e6577206f776e657220697320746865207a65726f206160008201527f6464726573730000000000000000000000000000000000000000000000000000602082015250565b6000616382602683615595565b915061638d82616326565b604082019050919050565b600060208201905081810360008301526163b181616375565b9050919050565b7f5265656e7472616e637947756172643a207265656e7472616e742063616c6c00600082015250565b60006163ee601f83615595565b91506163f9826163b8565b602082019050919050565b6000602082019050818103600083015261641d816163e1565b9050919050565b60006060820190506164396000830186614e03565b6164466020830185614e03565b61645360408301846150c7565b949350505050565b7f4e487b7100000000000000000000000000000000000000000000000000000000600052603160045260246000fd5b600061649582614ea8565b915060ff82036164a8576164a7615785565b5b600182019050919050565b7f4f776e61626c653a2063616c6c6572206973206e6f7420746865206f776e6572600082015250565b60006164e9602083615595565b91506164f4826164b3565b602082019050919050565b60006020820190508181036000830152616518816164dc565b9050919050565b60008151905061652e816150f1565b92915050565b60006020828403121561654a57616549614b77565b5b60006165588482850161651f565b91505092915050565b7f416464726573733a20696e73756666696369656e742062616c616e636520666f60008201527f722063616c6c0000000000000000000000000000000000000000000000000000602082015250565b60006165bd602683615595565b91506165c882616561565b604082019050919050565b600060208201905081810360008301526165ec816165b0565b9050919050565b600081519050919050565b600081905092915050565b60005b8381101561662757808201518184015260208101905061660c565b60008484015250505050565b600061663e826165f3565b61664881856165fe565b9350616658818560208601616609565b80840191505092915050565b60006166708284616633565b915081905092915050565b7f416464726573733a2063616c6c20746f206e6f6e2d636f6e7472616374000000600082015250565b60006166b1601d83615595565b91506166bc8261667b565b602082019050919050565b600060208201905081810360008301526166e0816166a4565b9050919050565b600081519050919050565b60006166fd826166e7565b6167078185615595565b9350616717818560208601616609565b616720816153e3565b840191505092915050565b6000602082019050818103600083015261674581846166f2565b90509291505056fea264697066735822122010fecaf91b29847512d3b61f666c2e0943fdab42bcb52f7e35d42ed1f451016364736f6c63430008130033",
  "linkReferences": {},
  "deployedLinkReferences": {}
}