{
  "_format": "hh-sol-artifact-1",
  "contractName": "MovieFactory",
  "sourceName": "contracts/factory.sol",
  "abi": [
    {
      "inputs": [
        {
          "internalType": "address",
          "name": "_usdt",
          "type": "address"
        },
        {
          "internalType": "uint256",
          "name": "_fee",
          "type": "uint256"
        }
      ],
      "stateMutability": "nonpayable",
      "type": "constructor"
    },
    {
      "inputs": [
        {
          "internalType": "address",
          "name": "token",
          "type": "address"
        }
      ],
      "name": "SafeERC20FailedOperation",
      "type": "error"
    },
    {
      "anonymous": false,
      "inputs": [
        {
          "indexed": true,
          "internalType": "address",
          "name": "admin",
          "type": "address"
        },
        {
          "indexed": true,
          "internalType": "address",
          "name": "creator",
          "type": "address"
        }
      ],
      "name": "ApproveRequest",
      "type": "event"
    },
    {
      "anonymous": false,
      "inputs": [
        {
          "indexed": true,
          "internalType": "address",
          "name": "contractAddress",
          "type": "address"
        },
        {
          "indexed": true,
          "internalType": "address",
          "name": "newOwner",
          "type": "address"
        }
      ],
      "name": "ChangeOwnership",
      "type": "event"
    },
    {
      "anonymous": false,
      "inputs": [
        {
          "indexed": true,
          "internalType": "address",
          "name": "creator",
          "type": "address"
        },
        {
          "indexed": true,
          "internalType": "address",
          "name": "colletion",
          "type": "address"
        }
      ],
      "name": "CollectionCreated",
      "type": "event"
    },
    {
      "anonymous": false,
      "inputs": [
        {
          "indexed": true,
          "internalType": "address",
          "name": "previousOwner",
          "type": "address"
        },
        {
          "indexed": true,
          "internalType": "address",
          "name": "newOwner",
          "type": "address"
        }
      ],
      "name": "OwnershipTransferred",
      "type": "event"
    },
    {
      "anonymous": false,
      "inputs": [
        {
          "indexed": true,
          "internalType": "address",
          "name": "creator",
          "type": "address"
        },
        {
          "indexed": true,
          "internalType": "bool",
          "name": "",
          "type": "bool"
        }
      ],
      "name": "Requested",
      "type": "event"
    },
    {
      "inputs": [
        {
          "internalType": "address",
          "name": "_admin",
          "type": "address"
        }
      ],
      "name": "addAdmin",
      "outputs": [],
      "stateMutability": "nonpayable",
      "type": "function"
    },
    {
      "inputs": [
        {
          "internalType": "address",
          "name": "_creator",
          "type": "address"
        }
      ],
      "name": "approveRequest",
      "outputs": [],
      "stateMutability": "nonpayable",
      "type": "function"
    },
    {
      "inputs": [
        {
          "internalType": "address",
          "name": "_contractAddress",
          "type": "address"
        },
        {
          "internalType": "uint256",
          "name": "_newFees",
          "type": "uint256"
        }
      ],
      "name": "changeCollectionMintFee",
      "outputs": [],
      "stateMutability": "nonpayable",
      "type": "function"
    },
    {
      "inputs": [
        {
          "internalType": "address",
          "name": "_contractAddress",
          "type": "address"
        },
        {
          "internalType": "address",
          "name": "_newOwner",
          "type": "address"
        }
      ],
      "name": "changeCollectionOwner",
      "outputs": [],
      "stateMutability": "nonpayable",
      "type": "function"
    },
    {
      "inputs": [
        {
          "internalType": "uint256",
          "name": "_fee",
          "type": "uint256"
        }
      ],
      "name": "changePlatformFee",
      "outputs": [],
      "stateMutability": "nonpayable",
      "type": "function"
    },
    {
      "inputs": [
        {
          "internalType": "address",
          "name": "",
          "type": "address"
        }
      ],
      "name": "creatorCollection",
      "outputs": [
        {
          "internalType": "address",
          "name": "",
          "type": "address"
        }
      ],
      "stateMutability": "view",
      "type": "function"
    },
    {
      "inputs": [
        {
          "internalType": "string",
          "name": "_name",
          "type": "string"
        },
        {
          "internalType": "string",
          "name": "_symbol",
          "type": "string"
        },
        {
          "internalType": "string",
          "name": "_uri",
          "type": "string"
        },
        {
          "internalType": "uint256",
          "name": "_amount",
          "type": "uint256"
        },
        {
          "internalType": "uint256",
          "name": "_splitPercentage",
          "type": "uint256"
        }
      ],
      "name": "deployCollection",
      "outputs": [
        {
          "internalType": "contract Collection",
          "name": "NFTs",
          "type": "address"
        }
      ],
      "stateMutability": "nonpayable",
      "type": "function"
    },
    {
      "inputs": [],
      "name": "getUSDT",
      "outputs": [
        {
          "internalType": "address",
          "name": "",
          "type": "address"
        }
      ],
      "stateMutability": "view",
      "type": "function"
    },
    {
      "inputs": [
        {
          "internalType": "address",
          "name": "",
          "type": "address"
        }
      ],
      "name": "isConfirmed",
      "outputs": [
        {
          "internalType": "bool",
          "name": "",
          "type": "bool"
        }
      ],
      "stateMutability": "view",
      "type": "function"
    },
    {
      "inputs": [
        {
          "internalType": "address",
          "name": "",
          "type": "address"
        }
      ],
      "name": "isDeployed",
      "outputs": [
        {
          "internalType": "bool",
          "name": "",
          "type": "bool"
        }
      ],
      "stateMutability": "view",
      "type": "function"
    },
    {
      "inputs": [
        {
          "internalType": "address",
          "name": "",
          "type": "address"
        }
      ],
      "name": "isRelayerWhiteListed",
      "outputs": [
        {
          "internalType": "bool",
          "name": "",
          "type": "bool"
        }
      ],
      "stateMutability": "view",
      "type": "function"
    },
    {
      "inputs": [
        {
          "internalType": "address",
          "name": "",
          "type": "address"
        }
      ],
      "name": "isRequested",
      "outputs": [
        {
          "internalType": "bool",
          "name": "",
          "type": "bool"
        }
      ],
      "stateMutability": "view",
      "type": "function"
    },
    {
      "inputs": [],
      "name": "mintFee",
      "outputs": [
        {
          "internalType": "uint256",
          "name": "",
          "type": "uint256"
        }
      ],
      "stateMutability": "view",
      "type": "function"
    },
    {
      "inputs": [],
      "name": "owner",
      "outputs": [
        {
          "internalType": "address",
          "name": "",
          "type": "address"
        }
      ],
      "stateMutability": "view",
      "type": "function"
    },
    {
      "inputs": [],
      "name": "platformFee",
      "outputs": [
        {
          "internalType": "uint256",
          "name": "",
          "type": "uint256"
        }
      ],
      "stateMutability": "view",
      "type": "function"
    },
    {
      "inputs": [],
      "name": "primaryMarketplace",
      "outputs": [
        {
          "internalType": "address",
          "name": "",
          "type": "address"
        }
      ],
      "stateMutability": "view",
      "type": "function"
    },
    {
      "inputs": [
        {
          "internalType": "address",
          "name": "_admin",
          "type": "address"
        }
      ],
      "name": "removeAdmin",
      "outputs": [],
      "stateMutability": "nonpayable",
      "type": "function"
    },
    {
      "inputs": [
        {
          "internalType": "address",
          "name": "_addr",
          "type": "address"
        }
      ],
      "name": "removeRelayer",
      "outputs": [],
      "stateMutability": "nonpayable",
      "type": "function"
    },
    {
      "inputs": [],
      "name": "renounceOwnership",
      "outputs": [],
      "stateMutability": "nonpayable",
      "type": "function"
    },
    {
      "inputs": [],
      "name": "request",
      "outputs": [],
      "stateMutability": "nonpayable",
      "type": "function"
    },
    {
      "inputs": [],
      "name": "retrieveAdmins",
      "outputs": [
        {
          "internalType": "address[]",
          "name": "",
          "type": "address[]"
        }
      ],
      "stateMutability": "view",
      "type": "function"
    },
    {
      "inputs": [
        {
          "internalType": "address",
          "name": "_collection",
          "type": "address"
        }
      ],
      "name": "retrieveMintFeeForCollection",
      "outputs": [
        {
          "internalType": "uint256",
          "name": "",
          "type": "uint256"
        }
      ],
      "stateMutability": "view",
      "type": "function"
    },
    {
      "inputs": [],
      "name": "retrieveRelayers",
      "outputs": [
        {
          "internalType": "address[]",
          "name": "",
          "type": "address[]"
        }
      ],
      "stateMutability": "view",
      "type": "function"
    },
    {
      "inputs": [],
      "name": "retrieveTopFees",
      "outputs": [
        {
          "internalType": "uint256[3]",
          "name": "",
          "type": "uint256[3]"
        }
      ],
      "stateMutability": "view",
      "type": "function"
    },
    {
      "inputs": [],
      "name": "secondaryMarketplace",
      "outputs": [
        {
          "internalType": "address",
          "name": "",
          "type": "address"
        }
      ],
      "stateMutability": "view",
      "type": "function"
    },
    {
      "inputs": [
        {
          "internalType": "address",
          "name": "_primary",
          "type": "address"
        },
        {
          "internalType": "address",
          "name": "_secondary",
          "type": "address"
        }
      ],
      "name": "setMarketplaces",
      "outputs": [],
      "stateMutability": "nonpayable",
      "type": "function"
    },
    {
      "inputs": [
        {
          "internalType": "address",
          "name": "newOwner",
          "type": "address"
        }
      ],
      "name": "transferOwnership",
      "outputs": [],
      "stateMutability": "nonpayable",
      "type": "function"
    },
    {
      "inputs": [
        {
          "internalType": "uint256",
          "name": "_fee",
          "type": "uint256"
        }
      ],
      "name": "updateMintFee",
      "outputs": [],
      "stateMutability": "nonpayable",
      "type": "function"
    },
    {
      "inputs": [
        {
          "internalType": "uint256",
          "name": "_newFee",
          "type": "uint256"
        },
        {
          "internalType": "uint16",
          "name": "_index",
          "type": "uint16"
        }
      ],
      "name": "updateTopFee",
      "outputs": [],
      "stateMutability": "nonpayable",
      "type": "function"
    },
    {
      "inputs": [
        {
          "internalType": "address",
          "name": "_usdt",
          "type": "address"
        }
      ],
      "name": "updateUSDT",
      "outputs": [],
      "stateMutability": "nonpayable",
      "type": "function"
    },
    {
      "inputs": [
        {
          "internalType": "address[]",
          "name": "_relayers",
          "type": "address[]"
        }
      ],
      "name": "whiteListRelayer",
      "outputs": [],
      "stateMutability": "nonpayable",
      "type": "function"
    },
    {
      "inputs": [],
      "name": "withdrawEth",
      "outputs": [],
      "stateMutability": "nonpayable",
      "type": "function"
    },
    {
      "inputs": [],
      "name": "withdrawTokens",
      "outputs": [],
      "stateMutability": "nonpayable",
      "type": "function"
    },
    {
      "stateMutability": "payable",
      "type": "receive"
    }
  ],
  "bytecode": "0x60806040526040518060600160405280601960ff168152602001601460ff168152602001600f60ff16815250600f9060036200003d92919062000263565b503480156200004b57600080fd5b5060405162009a6f38038062009a6f833981810160405281019062000071919062000371565b62000091620000856200019760201b60201c565b6200019f60201b60201c565b81600160006101000a81548173ffffffffffffffffffffffffffffffffffffffff021916908373ffffffffffffffffffffffffffffffffffffffff16021790555080600281905550600160009054906101000a900473ffffffffffffffffffffffffffffffffffffffff1673ffffffffffffffffffffffffffffffffffffffff1663313ce5676040518163ffffffff1660e01b8152600401602060405180830381865afa15801562000147573d6000803e3d6000fd5b505050506040513d601f19601f820116820180604052508101906200016d9190620003f6565b600a6200017b9190620005ab565b6001620001899190620005fc565b600681905550505062000647565b600033905090565b60008060009054906101000a900473ffffffffffffffffffffffffffffffffffffffff169050816000806101000a81548173ffffffffffffffffffffffffffffffffffffffff021916908373ffffffffffffffffffffffffffffffffffffffff1602179055508173ffffffffffffffffffffffffffffffffffffffff168173ffffffffffffffffffffffffffffffffffffffff167f8be0079c531659141344cd1fd0a4f28419497f9722a3daafe3b4186f6b6457e060405160405180910390a35050565b82600381019282156200029a579160200282015b8281111562000299578251829060ff1690559160200191906001019062000277565b5b509050620002a99190620002ad565b5090565b5b80821115620002c8576000816000905550600101620002ae565b5090565b600080fd5b600073ffffffffffffffffffffffffffffffffffffffff82169050919050565b6000620002fe82620002d1565b9050919050565b6200031081620002f1565b81146200031c57600080fd5b50565b600081519050620003308162000305565b92915050565b6000819050919050565b6200034b8162000336565b81146200035757600080fd5b50565b6000815190506200036b8162000340565b92915050565b600080604083850312156200038b576200038a620002cc565b5b60006200039b858286016200031f565b9250506020620003ae858286016200035a565b9150509250929050565b600060ff82169050919050565b620003d081620003b8565b8114620003dc57600080fd5b50565b600081519050620003f081620003c5565b92915050565b6000602082840312156200040f576200040e620002cc565b5b60006200041f84828501620003df565b91505092915050565b7f4e487b7100000000000000000000000000000000000000000000000000000000600052601160045260246000fd5b60008160011c9050919050565b6000808291508390505b6001851115620004b6578086048111156200048e576200048d62000428565b5b60018516156200049e5780820291505b8081029050620004ae8562000457565b94506200046e565b94509492505050565b600082620004d15760019050620005a4565b81620004e15760009050620005a4565b8160018114620004fa576002811462000505576200053b565b6001915050620005a4565b60ff8411156200051a576200051962000428565b5b8360020a91508482111562000534576200053362000428565b5b50620005a4565b5060208310610133831016604e8410600b8410161715620005755782820a9050838111156200056f576200056e62000428565b5b620005a4565b62000584848484600162000464565b925090508184048111156200059e576200059d62000428565b5b81810290505b9392505050565b6000620005b88262000336565b9150620005c583620003b8565b9250620005f47fffffffffffffffffffffffffffffffffffffffffffffffffffffffffffffffff8484620004bf565b905092915050565b6000620006098262000336565b9150620006168362000336565b9250828202620006268162000336565b9150828204841483151762000640576200063f62000428565b5b5092915050565b61941880620006576000396000f3fe608060405260043610620002235760003560e01c806360f0a5ac11620001275780638d8f2adb11620000af578063ae7467f31162000079578063ae7467f3146200077c578063cd61e64e14620007c0578063d7a5791a14620007ee578063e806df13146200081c578063f2fde38b146200084c576200022b565b80638d8f2adb14620006d45780638da5cb5b14620006ee57806390184b02146200071e578063a0ef91df1462000762576200022b565b80637048027511620000f1578063704802751462000630578063715018a6146200065e5780637ee6994c146200067857806384017e5214620006a6576200022b565b806360f0a5ac146200057457806361b148fb14620005a257806369932f6314620005d05780636b31c5e91462000600576200022b565b8063337ac7c411620001ab57806355cf0858116200017557806355cf085814620004a457806357cb5a3b14620004d2578063581592f1146200050057806360529b0e1462000530576200022b565b8063337ac7c414620003e8578063338cdca1146200041657806334b80fa6146200043057806354d2184b1462000460576200022b565b806318e4ac3511620001ed57806318e4ac3514620002ec57806322f6ef42146200033057806326232a2e14620003745780632771acef14620003a4576200022b565b806305993adf1462000230578063061dff9a146200026057806313966db5146200028e5780631785f53c14620002be576200022b565b366200022b57005b600080fd5b3480156200023d57600080fd5b50620002486200087a565b604051620002579190620025b9565b60405180910390f35b3480156200026d57600080fd5b506200028c600480360381019062000286919062002622565b6200090a565b005b3480156200029b57600080fd5b50620002a662000b6d565b604051620002b591906200266f565b60405180910390f35b348015620002cb57600080fd5b50620002ea6004803603810190620002e4919062002622565b62000b73565b005b348015620002f957600080fd5b5062000318600480360381019062000312919062002622565b62000e08565b604051620003279190620026a9565b60405180910390f35b3480156200033d57600080fd5b506200035c600480360381019062000356919062002622565b62000e28565b6040516200036b9190620026a9565b60405180910390f35b3480156200038157600080fd5b506200038c62000e48565b6040516200039b91906200266f565b60405180910390f35b348015620003b157600080fd5b50620003d06004803603810190620003ca919062002622565b62000e4e565b604051620003df91906200266f565b60405180910390f35b348015620003f557600080fd5b506200041460048036038101906200040e9190620026c6565b62000e97565b005b3480156200042357600080fd5b506200042e62000f27565b005b3480156200043d57600080fd5b506200044862001058565b6040516200045791906200271e565b60405180910390f35b3480156200046d57600080fd5b506200048c600480360381019062000486919062002622565b6200107e565b6040516200049b9190620026a9565b60405180910390f35b348015620004b157600080fd5b50620004d06004803603810190620004ca91906200276c565b6200109e565b005b348015620004df57600080fd5b50620004fe6004803603810190620004f89190620027f2565b620010f0565b005b3480156200050d57600080fd5b506200051862001169565b6040516200052791906200271e565b60405180910390f35b3480156200053d57600080fd5b506200055c60048036038101906200055691906200299b565b62001193565b6040516200056b919062002aeb565b60405180910390f35b3480156200058157600080fd5b50620005a060048036038101906200059a919062002622565b620014f2565b005b348015620005af57600080fd5b50620005ce6004803603810190620005c8919062002622565b62001787565b005b348015620005dd57600080fd5b50620005e8620017d5565b604051620005f79190620025b9565b60405180910390f35b3480156200060d57600080fd5b506200061862001865565b6040516200062791906200271e565b60405180910390f35b3480156200063d57600080fd5b506200065c600480360381019062000656919062002622565b6200188b565b005b3480156200066b57600080fd5b5062000676620019e3565b005b3480156200068557600080fd5b50620006a460048036038101906200069e9190620026c6565b620019fb565b005b348015620006b357600080fd5b50620006d26004803603810190620006cc919062002b08565b62001ad2565b005b348015620006e157600080fd5b50620006ec62001ae6565b005b348015620006fb57600080fd5b506200070662001bd0565b6040516200071591906200271e565b60405180910390f35b3480156200072b57600080fd5b506200074a600480360381019062000744919062002622565b62001bf9565b604051620007599190620026a9565b60405180910390f35b3480156200076f57600080fd5b506200077a62001c19565b005b3480156200078957600080fd5b50620007a86004803603810190620007a2919062002622565b62001c76565b604051620007b791906200271e565b60405180910390f35b348015620007cd57600080fd5b50620007ec6004803603810190620007e6919062002c15565b62001ca9565b005b348015620007fb57600080fd5b506200081a600480360381019062000814919062002b08565b62001e88565b005b3480156200082957600080fd5b506200083462001e9c565b60405162000843919062002d21565b60405180910390f35b3480156200085957600080fd5b5062000878600480360381019062000872919062002622565b62001eeb565b005b606060058054806020026020016040519081016040528092919081815260200182805480156200090057602002820191906000526020600020905b8160009054906101000a900473ffffffffffffffffffffffffffffffffffffffff1673ffffffffffffffffffffffffffffffffffffffff1681526020019060010190808311620008b5575b5050505050905090565b600a60003373ffffffffffffffffffffffffffffffffffffffff1673ffffffffffffffffffffffffffffffffffffffff16815260200190815260200160002060009054906101000a900460ff1662000999576040517f08c379a0000000000000000000000000000000000000000000000000000000008152600401620009909062002d9f565b60405180910390fd5b600760008273ffffffffffffffffffffffffffffffffffffffff1673ffffffffffffffffffffffffffffffffffffffff16815260200190815260200160002060009054906101000a900460ff1662000a28576040517f08c379a000000000000000000000000000000000000000000000000000000000815260040162000a1f9062002e11565b60405180910390fd5b600860008273ffffffffffffffffffffffffffffffffffffffff1673ffffffffffffffffffffffffffffffffffffffff16815260200190815260200160002060009054906101000a900460ff161562000ab8576040517f08c379a000000000000000000000000000000000000000000000000000000000815260040162000aaf9062002e83565b60405180910390fd5b6001600860008373ffffffffffffffffffffffffffffffffffffffff1673ffffffffffffffffffffffffffffffffffffffff16815260200190815260200160002060006101000a81548160ff0219169083151502179055508073ffffffffffffffffffffffffffffffffffffffff163373ffffffffffffffffffffffffffffffffffffffff167f6a159f11c1f661899c709a6f93a4fea91c60904b8ce7db2619c92dcdd9c04d7b60405160405180910390a350565b60065481565b62000b7d62001f75565b600a60008273ffffffffffffffffffffffffffffffffffffffff1673ffffffffffffffffffffffffffffffffffffffff16815260200190815260200160002060009054906101000a900460ff1662000c0c576040517f08c379a000000000000000000000000000000000000000000000000000000000815260040162000c039062002ef5565b60405180910390fd5b6000600a60008373ffffffffffffffffffffffffffffffffffffffff1673ffffffffffffffffffffffffffffffffffffffff16815260200190815260200160002060006101000a81548160ff02191690831515021790555060005b600e8054905081101562000e04578173ffffffffffffffffffffffffffffffffffffffff16600e828154811062000ca35762000ca262002f17565b5b9060005260206000200160009054906101000a900473ffffffffffffffffffffffffffffffffffffffff1673ffffffffffffffffffffffffffffffffffffffff160362000dee57600e6001600e8054905062000d00919062002f75565b8154811062000d145762000d1362002f17565b5b9060005260206000200160009054906101000a900473ffffffffffffffffffffffffffffffffffffffff16600e828154811062000d565762000d5562002f17565b5b9060005260206000200160006101000a81548173ffffffffffffffffffffffffffffffffffffffff021916908373ffffffffffffffffffffffffffffffffffffffff160217905550600e80548062000db35762000db262002fb0565b5b6001900381819060005260206000200160006101000a81549073ffffffffffffffffffffffffffffffffffffffff0219169055905562000e04565b808062000dfb9062002fdf565b91505062000c67565b5050565b60086020528060005260406000206000915054906101000a900460ff1681565b600d6020528060005260406000206000915054906101000a900460ff1681565b60025481565b6000600c60008373ffffffffffffffffffffffffffffffffffffffff1673ffffffffffffffffffffffffffffffffffffffff168152602001908152602001600020549050919050565b62000ea162001f75565b81600360006101000a81548173ffffffffffffffffffffffffffffffffffffffff021916908373ffffffffffffffffffffffffffffffffffffffff16021790555080600460006101000a81548173ffffffffffffffffffffffffffffffffffffffff021916908373ffffffffffffffffffffffffffffffffffffffff1602179055505050565b600760003373ffffffffffffffffffffffffffffffffffffffff1673ffffffffffffffffffffffffffffffffffffffff16815260200190815260200160002060009054906101000a900460ff161562000fb7576040517f08c379a000000000000000000000000000000000000000000000000000000000815260040162000fae906200307c565b60405180910390fd5b6001600760003373ffffffffffffffffffffffffffffffffffffffff1673ffffffffffffffffffffffffffffffffffffffff16815260200190815260200160002060006101000a81548160ff021916908315150217905550600115153373ffffffffffffffffffffffffffffffffffffffff167f636d250b520c47d04b7e434aa03ec3a8cc6d329358c5d8c0149625743de3a14d60405160405180910390a3565b600360009054906101000a900473ffffffffffffffffffffffffffffffffffffffff1681565b60076020528060005260406000206000915054906101000a900460ff1681565b620010a862001f75565b80600c60008473ffffffffffffffffffffffffffffffffffffffff1673ffffffffffffffffffffffffffffffffffffffff168152602001908152602001600020819055505050565b620010fa62001f75565b60038161ffff161062001144576040517f08c379a00000000000000000000000000000000000000000000000000000000081526004016200113b90620030ee565b60405180910390fd5b81600f8261ffff166003811062001160576200115f62002f17565b5b01819055505050565b6000600160009054906101000a900473ffffffffffffffffffffffffffffffffffffffff16905090565b6000600860003373ffffffffffffffffffffffffffffffffffffffff1673ffffffffffffffffffffffffffffffffffffffff16815260200190815260200160002060009054906101000a900460ff1662001224576040517f08c379a00000000000000000000000000000000000000000000000000000000081526004016200121b9062003160565b60405180910390fd5b600960003373ffffffffffffffffffffffffffffffffffffffff1673ffffffffffffffffffffffffffffffffffffffff16815260200190815260200160002060009054906101000a900460ff1615620012b4576040517f08c379a0000000000000000000000000000000000000000000000000000000008152600401620012ab90620031d2565b60405180910390fd5b620012e6600160009054906101000a900473ffffffffffffffffffffffffffffffffffffffff16333060025462001ffa565b338686868686600360009054906101000a900473ffffffffffffffffffffffffffffffffffffffff16600460009054906101000a900473ffffffffffffffffffffffffffffffffffffffff16604051620013409062002487565b620013539897969594939291906200326c565b604051809103906000f08015801562001370573d6000803e3d6000fd5b509050600654600c60008373ffffffffffffffffffffffffffffffffffffffff1673ffffffffffffffffffffffffffffffffffffffff1681526020019081526020016000208190555080600b60003373ffffffffffffffffffffffffffffffffffffffff1673ffffffffffffffffffffffffffffffffffffffff16815260200190815260200160002060006101000a81548173ffffffffffffffffffffffffffffffffffffffff021916908373ffffffffffffffffffffffffffffffffffffffff1602179055506001600960003373ffffffffffffffffffffffffffffffffffffffff1673ffffffffffffffffffffffffffffffffffffffff16815260200190815260200160002060006101000a81548160ff0219169083151502179055508073ffffffffffffffffffffffffffffffffffffffff163373ffffffffffffffffffffffffffffffffffffffff167f5d0de243db1669e3a7056744cd715c625f0c1c348736c2c2d53d0ddebff1a6c760405160405180910390a395945050505050565b620014fc62001f75565b600d60008273ffffffffffffffffffffffffffffffffffffffff1673ffffffffffffffffffffffffffffffffffffffff16815260200190815260200160002060009054906101000a900460ff166200158b576040517f08c379a000000000000000000000000000000000000000000000000000000000815260040162001582906200335f565b60405180910390fd5b6000600d60008373ffffffffffffffffffffffffffffffffffffffff1673ffffffffffffffffffffffffffffffffffffffff16815260200190815260200160002060006101000a81548160ff02191690831515021790555060005b60058054905081101562001783578173ffffffffffffffffffffffffffffffffffffffff166005828154811062001622576200162162002f17565b5b9060005260206000200160009054906101000a900473ffffffffffffffffffffffffffffffffffffffff1673ffffffffffffffffffffffffffffffffffffffff16036200176d57600560016005805490506200167f919062002f75565b8154811062001693576200169262002f17565b5b9060005260206000200160009054906101000a900473ffffffffffffffffffffffffffffffffffffffff1660058281548110620016d557620016d462002f17565b5b9060005260206000200160006101000a81548173ffffffffffffffffffffffffffffffffffffffff021916908373ffffffffffffffffffffffffffffffffffffffff160217905550600580548062001732576200173162002fb0565b5b6001900381819060005260206000200160006101000a81549073ffffffffffffffffffffffffffffffffffffffff0219169055905562001783565b80806200177a9062002fdf565b915050620015e6565b5050565b6200179162001f75565b80600160006101000a81548173ffffffffffffffffffffffffffffffffffffffff021916908373ffffffffffffffffffffffffffffffffffffffff16021790555050565b6060600e8054806020026020016040519081016040528092919081815260200182805480156200185b57602002820191906000526020600020905b8160009054906101000a900473ffffffffffffffffffffffffffffffffffffffff1673ffffffffffffffffffffffffffffffffffffffff168152602001906001019080831162001810575b5050505050905090565b600460009054906101000a900473ffffffffffffffffffffffffffffffffffffffff1681565b6200189562001f75565b600a60008273ffffffffffffffffffffffffffffffffffffffff1673ffffffffffffffffffffffffffffffffffffffff16815260200190815260200160002060009054906101000a900460ff161562001925576040517f08c379a00000000000000000000000000000000000000000000000000000000081526004016200191c90620033d1565b60405180910390fd5b6001600a60008373ffffffffffffffffffffffffffffffffffffffff1673ffffffffffffffffffffffffffffffffffffffff16815260200190815260200160002060006101000a81548160ff021916908315150217905550600e819080600181540180825580915050600190039060005260206000200160009091909190916101000a81548173ffffffffffffffffffffffffffffffffffffffff021916908373ffffffffffffffffffffffffffffffffffffffff16021790555050565b620019ed62001f75565b620019f9600062002080565b565b62001a0562001f75565b8173ffffffffffffffffffffffffffffffffffffffff1663a6f9dae1826040518263ffffffff1660e01b815260040162001a4091906200271e565b600060405180830381600087803b15801562001a5b57600080fd5b505af115801562001a70573d6000803e3d6000fd5b505050508073ffffffffffffffffffffffffffffffffffffffff168273ffffffffffffffffffffffffffffffffffffffff167fdf73496bb06edd4685dc2027b9d115504a7130d57f4f33dfd66679517060f45760405160405180910390a35050565b62001adc62001f75565b8060068190555050565b62001af062001f75565b6000600160009054906101000a900473ffffffffffffffffffffffffffffffffffffffff1673ffffffffffffffffffffffffffffffffffffffff166370a08231306040518263ffffffff1660e01b815260040162001b4f91906200271e565b602060405180830381865afa15801562001b6d573d6000803e3d6000fd5b505050506040513d601f19601f8201168201806040525081019062001b9391906200340a565b905062001bcd600160009054906101000a900473ffffffffffffffffffffffffffffffffffffffff1662001bc662001bd0565b8362002144565b50565b60008060009054906101000a900473ffffffffffffffffffffffffffffffffffffffff16905090565b60096020528060005260406000206000915054906101000a900460ff1681565b62001c2362001f75565b62001c2d62001bd0565b73ffffffffffffffffffffffffffffffffffffffff166108fc479081150290604051600060405180830381858888f1935050505015801562001c73573d6000803e3d6000fd5b50565b600b6020528060005260406000206000915054906101000a900473ffffffffffffffffffffffffffffffffffffffff1681565b62001cb362001f75565b60005b81518160ff16101562001e8457600d6000838360ff168151811062001ce05762001cdf62002f17565b5b602002602001015173ffffffffffffffffffffffffffffffffffffffff1673ffffffffffffffffffffffffffffffffffffffff16815260200190815260200160002060009054906101000a900460ff161562001d73576040517f08c379a000000000000000000000000000000000000000000000000000000000815260040162001d6a906200348c565b60405180910390fd5b6001600d6000848460ff168151811062001d925762001d9162002f17565b5b602002602001015173ffffffffffffffffffffffffffffffffffffffff1673ffffffffffffffffffffffffffffffffffffffff16815260200190815260200160002060006101000a81548160ff0219169083151502179055506005828260ff168151811062001e065762001e0562002f17565b5b60200260200101519080600181540180825580915050600190039060005260206000200160009091909190916101000a81548173ffffffffffffffffffffffffffffffffffffffff021916908373ffffffffffffffffffffffffffffffffffffffff160217905550808062001e7b90620034bb565b91505062001cb6565b5050565b62001e9262001f75565b8060028190555050565b62001ea662002495565b600f60038060200260405190810160405280929190826003801562001ee1576020028201915b81548152602001906001019080831162001ecc575b5050505050905090565b62001ef562001f75565b600073ffffffffffffffffffffffffffffffffffffffff168173ffffffffffffffffffffffffffffffffffffffff160362001f67576040517f08c379a000000000000000000000000000000000000000000000000000000000815260040162001f5e906200355f565b60405180910390fd5b62001f728162002080565b50565b62001f7f620021c7565b73ffffffffffffffffffffffffffffffffffffffff1662001f9f62001bd0565b73ffffffffffffffffffffffffffffffffffffffff161462001ff8576040517f08c379a000000000000000000000000000000000000000000000000000000000815260040162001fef90620035d1565b60405180910390fd5b565b6200207a848573ffffffffffffffffffffffffffffffffffffffff166323b872dd8686866040516024016200203293929190620035f3565b604051602081830303815290604052915060e01b6020820180517bffffffffffffffffffffffffffffffffffffffffffffffffffffffff8381831617835250505050620021cf565b50505050565b60008060009054906101000a900473ffffffffffffffffffffffffffffffffffffffff169050816000806101000a81548173ffffffffffffffffffffffffffffffffffffffff021916908373ffffffffffffffffffffffffffffffffffffffff1602179055508173ffffffffffffffffffffffffffffffffffffffff168173ffffffffffffffffffffffffffffffffffffffff167f8be0079c531659141344cd1fd0a4f28419497f9722a3daafe3b4186f6b6457e060405160405180910390a35050565b620021c2838473ffffffffffffffffffffffffffffffffffffffff1663a9059cbb85856040516024016200217a92919062003630565b604051602081830303815290604052915060e01b6020820180517bffffffffffffffffffffffffffffffffffffffffffffffffffffffff8381831617835250505050620021cf565b505050565b600033905090565b6000620021fc828473ffffffffffffffffffffffffffffffffffffffff166200226e90919063ffffffff16565b90506000815114158015620022245750808060200190518101906200222291906200368e565b155b156200226957826040517f5274afe70000000000000000000000000000000000000000000000000000000081526004016200226091906200271e565b60405180910390fd5b505050565b6060620022b4838360006040518060400160405280601e81526020017f416464726573733a206c6f772d6c6576656c2063616c6c206661696c65640000815250620022bc565b905092915050565b60608247101562002304576040517f08c379a0000000000000000000000000000000000000000000000000000000008152600401620022fb9062003736565b60405180910390fd5b6000808673ffffffffffffffffffffffffffffffffffffffff1685876040516200232f9190620037a5565b60006040518083038185875af1925050503d80600081146200236e576040519150601f19603f3d011682016040523d82523d6000602084013e62002373565b606091505b5091509150620023868783838762002392565b92505050949350505050565b60608315620023fc576000835103620023f357620023b08562002411565b620023f2576040517f08c379a0000000000000000000000000000000000000000000000000000000008152600401620023e9906200380e565b60405180910390fd5b5b82905062002409565b62002408838362002434565b5b949350505050565b6000808273ffffffffffffffffffffffffffffffffffffffff163b119050919050565b600082511115620024485781518083602001fd5b806040517f08c379a00000000000000000000000000000000000000000000000000000000081526004016200247e919062003830565b60405180910390fd5b615b8e806200385583390190565b6040518060600160405280600390602082028036833780820191505090505090565b600081519050919050565b600082825260208201905092915050565b6000819050602082019050919050565b600073ffffffffffffffffffffffffffffffffffffffff82169050919050565b60006200251082620024e3565b9050919050565b620025228162002503565b82525050565b600062002536838362002517565b60208301905092915050565b6000602082019050919050565b60006200255c82620024b7565b620025688185620024c2565b93506200257583620024d3565b8060005b83811015620025ac57815162002590888262002528565b97506200259d8362002542565b92505060018101905062002579565b5085935050505092915050565b60006020820190508181036000830152620025d581846200254f565b905092915050565b6000604051905090565b600080fd5b600080fd5b620025fc8162002503565b81146200260857600080fd5b50565b6000813590506200261c81620025f1565b92915050565b6000602082840312156200263b576200263a620025e7565b5b60006200264b848285016200260b565b91505092915050565b6000819050919050565b620026698162002654565b82525050565b60006020820190506200268660008301846200265e565b92915050565b60008115159050919050565b620026a3816200268c565b82525050565b6000602082019050620026c0600083018462002698565b92915050565b60008060408385031215620026e057620026df620025e7565b5b6000620026f0858286016200260b565b925050602062002703858286016200260b565b9150509250929050565b620027188162002503565b82525050565b60006020820190506200273560008301846200270d565b92915050565b620027468162002654565b81146200275257600080fd5b50565b60008135905062002766816200273b565b92915050565b60008060408385031215620027865762002785620025e7565b5b600062002796858286016200260b565b9250506020620027a98582860162002755565b9150509250929050565b600061ffff82169050919050565b620027cc81620027b3565b8114620027d857600080fd5b50565b600081359050620027ec81620027c1565b92915050565b600080604083850312156200280c576200280b620025e7565b5b60006200281c8582860162002755565b92505060206200282f85828601620027db565b9150509250929050565b600080fd5b600080fd5b6000601f19601f8301169050919050565b7f4e487b7100000000000000000000000000000000000000000000000000000000600052604160045260246000fd5b6200288e8262002843565b810181811067ffffffffffffffff82111715620028b057620028af62002854565b5b80604052505050565b6000620028c5620025dd565b9050620028d3828262002883565b919050565b600067ffffffffffffffff821115620028f657620028f562002854565b5b620029018262002843565b9050602081019050919050565b82818337600083830152505050565b6000620029346200292e84620028d8565b620028b9565b9050828152602081018484840111156200295357620029526200283e565b5b620029608482856200290e565b509392505050565b600082601f83011262002980576200297f62002839565b5b8135620029928482602086016200291d565b91505092915050565b600080600080600060a08688031215620029ba57620029b9620025e7565b5b600086013567ffffffffffffffff811115620029db57620029da620025ec565b5b620029e98882890162002968565b955050602086013567ffffffffffffffff81111562002a0d5762002a0c620025ec565b5b62002a1b8882890162002968565b945050604086013567ffffffffffffffff81111562002a3f5762002a3e620025ec565b5b62002a4d8882890162002968565b935050606062002a608882890162002755565b925050608062002a738882890162002755565b9150509295509295909350565b6000819050919050565b600062002aab62002aa562002a9f84620024e3565b62002a80565b620024e3565b9050919050565b600062002abf8262002a8a565b9050919050565b600062002ad38262002ab2565b9050919050565b62002ae58162002ac6565b82525050565b600060208201905062002b02600083018462002ada565b92915050565b60006020828403121562002b215762002b20620025e7565b5b600062002b318482850162002755565b91505092915050565b600067ffffffffffffffff82111562002b585762002b5762002854565b5b602082029050602081019050919050565b600080fd5b600062002b8562002b7f8462002b3a565b620028b9565b9050808382526020820190506020840283018581111562002bab5762002baa62002b69565b5b835b8181101562002bd8578062002bc388826200260b565b84526020840193505060208101905062002bad565b5050509392505050565b600082601f83011262002bfa5762002bf962002839565b5b813562002c0c84826020860162002b6e565b91505092915050565b60006020828403121562002c2e5762002c2d620025e7565b5b600082013567ffffffffffffffff81111562002c4f5762002c4e620025ec565b5b62002c5d8482850162002be2565b91505092915050565b600060039050919050565b600081905092915050565b6000819050919050565b62002c918162002654565b82525050565b600062002ca5838362002c86565b60208301905092915050565b6000602082019050919050565b62002cc98162002c66565b62002cd5818462002c71565b925062002ce28262002c7c565b8060005b8381101562002d1957815162002cfd878262002c97565b965062002d0a8362002cb1565b92505060018101905062002ce6565b505050505050565b600060608201905062002d38600083018462002cbe565b92915050565b600082825260208201905092915050565b7f4f6e6c792041646d696e2063616e2063616c6c00000000000000000000000000600082015250565b600062002d8760138362002d3e565b915062002d948262002d4f565b602082019050919050565b6000602082019050818103600083015262002dba8162002d78565b9050919050565b7f43726561746f72206e6f74207265717565737465640000000000000000000000600082015250565b600062002df960158362002d3e565b915062002e068262002dc1565b602082019050919050565b6000602082019050818103600083015262002e2c8162002dea565b9050919050565b7f416c726561647920617070726f76656400000000000000000000000000000000600082015250565b600062002e6b60108362002d3e565b915062002e788262002e33565b602082019050919050565b6000602082019050818103600083015262002e9e8162002e5c565b9050919050565b7f41646d696e20646f6573206e6f74206578697374000000000000000000000000600082015250565b600062002edd60148362002d3e565b915062002eea8262002ea5565b602082019050919050565b6000602082019050818103600083015262002f108162002ece565b9050919050565b7f4e487b7100000000000000000000000000000000000000000000000000000000600052603260045260246000fd5b7f4e487b7100000000000000000000000000000000000000000000000000000000600052601160045260246000fd5b600062002f828262002654565b915062002f8f8362002654565b925082820390508181111562002faa5762002fa962002f46565b5b92915050565b7f4e487b7100000000000000000000000000000000000000000000000000000000600052603160045260246000fd5b600062002fec8262002654565b91507fffffffffffffffffffffffffffffffffffffffffffffffffffffffffffffffff820362003021576200302062002f46565b5b600182019050919050565b7f5573657220697320616c72656164792072657175657374656400000000000000600082015250565b60006200306460198362002d3e565b915062003071826200302c565b602082019050919050565b60006020820190508181036000830152620030978162003055565b9050919050565b7f4e6f742076616c696420696e6465780000000000000000000000000000000000600082015250565b6000620030d6600f8362002d3e565b9150620030e3826200309e565b602082019050919050565b600060208201905081810360008301526200310981620030c7565b9050919050565b7f4e6f7420636f6e6669726d656420796574000000000000000000000000000000600082015250565b60006200314860118362002d3e565b9150620031558262003110565b602082019050919050565b600060208201905081810360008301526200317b8162003139565b9050919050565b7f416c7265616479206465706c6f79656400000000000000000000000000000000600082015250565b6000620031ba60108362002d3e565b9150620031c78262003182565b602082019050919050565b60006020820190508181036000830152620031ed81620031ab565b9050919050565b600081519050919050565b60005b838110156200321f57808201518184015260208101905062003202565b60008484015250505050565b60006200323882620031f4565b62003244818562002d3e565b935062003256818560208601620031ff565b620032618162002843565b840191505092915050565b60006101008201905062003284600083018b6200270d565b818103602083015262003298818a6200322b565b90508181036040830152620032ae81896200322b565b90508181036060830152620032c481886200322b565b9050620032d560808301876200265e565b620032e460a08301866200265e565b620032f360c08301856200270d565b6200330260e08301846200270d565b9998505050505050505050565b7f4e6f742077686974656c69737465640000000000000000000000000000000000600082015250565b600062003347600f8362002d3e565b915062003354826200330f565b602082019050919050565b600060208201905081810360008301526200337a8162003338565b9050919050565b7f41646d696e206578697374000000000000000000000000000000000000000000600082015250565b6000620033b9600b8362002d3e565b9150620033c68262003381565b602082019050919050565b60006020820190508181036000830152620033ec81620033aa565b9050919050565b60008151905062003404816200273b565b92915050565b600060208284031215620034235762003422620025e7565b5b60006200343384828501620033f3565b91505092915050565b7f416c72656164792077686974656c697374656400000000000000000000000000600082015250565b60006200347460138362002d3e565b915062003481826200343c565b602082019050919050565b60006020820190508181036000830152620034a78162003465565b9050919050565b600060ff82169050919050565b6000620034c882620034ae565b915060ff8203620034de57620034dd62002f46565b5b600182019050919050565b7f4f776e61626c653a206e6577206f776e657220697320746865207a65726f206160008201527f6464726573730000000000000000000000000000000000000000000000000000602082015250565b60006200354760268362002d3e565b91506200355482620034e9565b604082019050919050565b600060208201905081810360008301526200357a8162003538565b9050919050565b7f4f776e61626c653a2063616c6c6572206973206e6f7420746865206f776e6572600082015250565b6000620035b960208362002d3e565b9150620035c68262003581565b602082019050919050565b60006020820190508181036000830152620035ec81620035aa565b9050919050565b60006060820190506200360a60008301866200270d565b6200361960208301856200270d565b6200362860408301846200265e565b949350505050565b60006040820190506200364760008301856200270d565b6200365660208301846200265e565b9392505050565b62003668816200268c565b81146200367457600080fd5b50565b60008151905062003688816200365d565b92915050565b600060208284031215620036a757620036a6620025e7565b5b6000620036b78482850162003677565b91505092915050565b7f416464726573733a20696e73756666696369656e742062616c616e636520666f60008201527f722063616c6c0000000000000000000000000000000000000000000000000000602082015250565b60006200371e60268362002d3e565b91506200372b82620036c0565b604082019050919050565b6000602082019050818103600083015262003751816200370f565b9050919050565b600081519050919050565b600081905092915050565b60006200377b8262003758565b62003787818562003763565b935062003799818560208601620031ff565b80840191505092915050565b6000620037b382846200376e565b915081905092915050565b7f416464726573733a2063616c6c20746f206e6f6e2d636f6e7472616374000000600082015250565b6000620037f6601d8362002d3e565b91506200380382620037be565b602082019050919050565b600060208201905081810360008301526200382981620037e7565b9050919050565b600060208201905081810360008301526200384c81846200322b565b90509291505056fe608060405260056008556000600c553480156200001b57600080fd5b5060405162005b8e38038062005b8e833981810160405281019062000041919062000a5c565b6040518060200160405280600081525062000062816200020c60201b60201c565b5087600360006101000a81548173ffffffffffffffffffffffffffffffffffffffff021916908373ffffffffffffffffffffffffffffffffffffffff16021790555033600460006101000a81548173ffffffffffffffffffffffffffffffffffffffff021916908373ffffffffffffffffffffffffffffffffffffffff1602179055508660069081620000f6919062000dc3565b50856007908162000108919062000dc3565b5080600560006101000a81548173ffffffffffffffffffffffffffffffffffffffff021916908373ffffffffffffffffffffffffffffffffffffffff1602179055506200016f88600c5486604051806020016040528060008152506200022160201b60201c565b620001a5600360009054906101000a900473ffffffffffffffffffffffffffffffffffffffff168360016200040860201b60201c565b82600a6000600c548152602001908152602001600020819055508460096000600c5481526020019081526020016000209081620001e3919062000dc3565b50600c6000815480929190620001f99062000ed9565b919050555050505050505050506200150c565b80600290816200021d919062000dc3565b5050565b600073ffffffffffffffffffffffffffffffffffffffff168473ffffffffffffffffffffffffffffffffffffffff160362000293576040517f08c379a00000000000000000000000000000000000000000000000000000000081526004016200028a9062000fad565b60405180910390fd5b6000620002a56200057960201b60201c565b90506000620002ba856200058160201b60201c565b90506000620002cf856200058160201b60201c565b9050620002e8836000898585896200060260201b60201c565b8460008088815260200190815260200160002060008973ffffffffffffffffffffffffffffffffffffffff1673ffffffffffffffffffffffffffffffffffffffff168152602001908152602001600020600082825462000349919062000fcf565b925050819055508673ffffffffffffffffffffffffffffffffffffffff16600073ffffffffffffffffffffffffffffffffffffffff168473ffffffffffffffffffffffffffffffffffffffff167fc3d58168c5ae7397731d063d5bbf3d657854427343f4c083240f7aacaa2d0f628989604051620003c99291906200101b565b60405180910390a4620003e8836000898585896200060a60201b60201c565b620003ff836000898989896200061260201b60201c565b50505050505050565b8173ffffffffffffffffffffffffffffffffffffffff168373ffffffffffffffffffffffffffffffffffffffff160362000479576040517f08c379a00000000000000000000000000000000000000000000000000000000081526004016200047090620010be565b60405180910390fd5b80600160008573ffffffffffffffffffffffffffffffffffffffff1673ffffffffffffffffffffffffffffffffffffffff16815260200190815260200160002060008473ffffffffffffffffffffffffffffffffffffffff1673ffffffffffffffffffffffffffffffffffffffff16815260200190815260200160002060006101000a81548160ff0219169083151502179055508173ffffffffffffffffffffffffffffffffffffffff168373ffffffffffffffffffffffffffffffffffffffff167f17307eab39ab6107e8899845ad3d59bd9653f200f220920489ca2b5937696c31836040516200056c9190620010fd565b60405180910390a3505050565b600033905090565b60606000600167ffffffffffffffff811115620005a357620005a2620008bd565b5b604051908082528060200260200182016040528015620005d25781602001602082028036833780820191505090505b5090508281600081518110620005ed57620005ec6200111a565b5b60200260200101818152505080915050919050565b505050505050565b505050505050565b620006398473ffffffffffffffffffffffffffffffffffffffff166200080660201b60201c565b15620007fe578373ffffffffffffffffffffffffffffffffffffffff1663f23a6e6187878686866040518663ffffffff1660e01b815260040162000682959493929190620011b7565b6020604051808303816000875af1925050508015620006c157506040513d601f19601f82011682018060405250810190620006be919062001278565b60015b6200077257620006d0620012b7565b806308c379a003620007335750620006e7620012dc565b80620006f4575062000735565b806040517f08c379a00000000000000000000000000000000000000000000000000000000081526004016200072a9190620013b8565b60405180910390fd5b505b6040517f08c379a0000000000000000000000000000000000000000000000000000000008152600401620007699062001452565b60405180910390fd5b63f23a6e6160e01b7bffffffffffffffffffffffffffffffffffffffffffffffffffffffff1916817bffffffffffffffffffffffffffffffffffffffffffffffffffffffff191614620007fc576040517f08c379a0000000000000000000000000000000000000000000000000000000008152600401620007f390620014ea565b60405180910390fd5b505b505050505050565b6000808273ffffffffffffffffffffffffffffffffffffffff163b119050919050565b6000604051905090565b600080fd5b600080fd5b600073ffffffffffffffffffffffffffffffffffffffff82169050919050565b60006200086a826200083d565b9050919050565b6200087c816200085d565b81146200088857600080fd5b50565b6000815190506200089c8162000871565b92915050565b600080fd5b600080fd5b6000601f19601f8301169050919050565b7f4e487b7100000000000000000000000000000000000000000000000000000000600052604160045260246000fd5b620008f782620008ac565b810181811067ffffffffffffffff82111715620009195762000918620008bd565b5b80604052505050565b60006200092e62000829565b90506200093c8282620008ec565b919050565b600067ffffffffffffffff8211156200095f576200095e620008bd565b5b6200096a82620008ac565b9050602081019050919050565b60005b83811015620009975780820151818401526020810190506200097a565b60008484015250505050565b6000620009ba620009b48462000941565b62000922565b905082815260208101848484011115620009d957620009d8620008a7565b5b620009e684828562000977565b509392505050565b600082601f83011262000a065762000a05620008a2565b5b815162000a18848260208601620009a3565b91505092915050565b6000819050919050565b62000a368162000a21565b811462000a4257600080fd5b50565b60008151905062000a568162000a2b565b92915050565b600080600080600080600080610100898b03121562000a805762000a7f62000833565b5b600062000a908b828c016200088b565b985050602089015167ffffffffffffffff81111562000ab45762000ab362000838565b5b62000ac28b828c01620009ee565b975050604089015167ffffffffffffffff81111562000ae65762000ae562000838565b5b62000af48b828c01620009ee565b965050606089015167ffffffffffffffff81111562000b185762000b1762000838565b5b62000b268b828c01620009ee565b955050608062000b398b828c0162000a45565b94505060a062000b4c8b828c0162000a45565b93505060c062000b5f8b828c016200088b565b92505060e062000b728b828c016200088b565b9150509295985092959890939650565b600081519050919050565b7f4e487b7100000000000000000000000000000000000000000000000000000000600052602260045260246000fd5b6000600282049050600182168062000bd557607f821691505b60208210810362000beb5762000bea62000b8d565b5b50919050565b60008190508160005260206000209050919050565b60006020601f8301049050919050565b600082821b905092915050565b60006008830262000c557fffffffffffffffffffffffffffffffffffffffffffffffffffffffffffffffff8262000c16565b62000c61868362000c16565b95508019841693508086168417925050509392505050565b6000819050919050565b600062000ca462000c9e62000c988462000a21565b62000c79565b62000a21565b9050919050565b6000819050919050565b62000cc08362000c83565b62000cd862000ccf8262000cab565b84845462000c23565b825550505050565b600090565b62000cef62000ce0565b62000cfc81848462000cb5565b505050565b5b8181101562000d245762000d1860008262000ce5565b60018101905062000d02565b5050565b601f82111562000d735762000d3d8162000bf1565b62000d488462000c06565b8101602085101562000d58578190505b62000d7062000d678562000c06565b83018262000d01565b50505b505050565b600082821c905092915050565b600062000d986000198460080262000d78565b1980831691505092915050565b600062000db3838362000d85565b9150826002028217905092915050565b62000dce8262000b82565b67ffffffffffffffff81111562000dea5762000de9620008bd565b5b62000df6825462000bbc565b62000e0382828562000d28565b600060209050601f83116001811462000e3b576000841562000e26578287015190505b62000e32858262000da5565b86555062000ea2565b601f19841662000e4b8662000bf1565b60005b8281101562000e755784890151825560018201915060208501945060208101905062000e4e565b8683101562000e95578489015162000e91601f89168262000d85565b8355505b6001600288020188555050505b505050505050565b7f4e487b7100000000000000000000000000000000000000000000000000000000600052601160045260246000fd5b600062000ee68262000a21565b91507fffffffffffffffffffffffffffffffffffffffffffffffffffffffffffffffff820362000f1b5762000f1a62000eaa565b5b600182019050919050565b600082825260208201905092915050565b7f455243313135353a206d696e7420746f20746865207a65726f2061646472657360008201527f7300000000000000000000000000000000000000000000000000000000000000602082015250565b600062000f9560218362000f26565b915062000fa28262000f37565b604082019050919050565b6000602082019050818103600083015262000fc88162000f86565b9050919050565b600062000fdc8262000a21565b915062000fe98362000a21565b925082820190508082111562001004576200100362000eaa565b5b92915050565b620010158162000a21565b82525050565b60006040820190506200103260008301856200100a565b6200104160208301846200100a565b9392505050565b7f455243313135353a2073657474696e6720617070726f76616c2073746174757360008201527f20666f722073656c660000000000000000000000000000000000000000000000602082015250565b6000620010a660298362000f26565b9150620010b38262001048565b604082019050919050565b60006020820190508181036000830152620010d98162001097565b9050919050565b60008115159050919050565b620010f781620010e0565b82525050565b6000602082019050620011146000830184620010ec565b92915050565b7f4e487b7100000000000000000000000000000000000000000000000000000000600052603260045260246000fd5b62001154816200085d565b82525050565b600081519050919050565b600082825260208201905092915050565b600062001183826200115a565b6200118f818562001165565b9350620011a181856020860162000977565b620011ac81620008ac565b840191505092915050565b600060a082019050620011ce600083018862001149565b620011dd602083018762001149565b620011ec60408301866200100a565b620011fb60608301856200100a565b81810360808301526200120f818462001176565b90509695505050505050565b60007fffffffff0000000000000000000000000000000000000000000000000000000082169050919050565b62001252816200121b565b81146200125e57600080fd5b50565b600081519050620012728162001247565b92915050565b60006020828403121562001291576200129062000833565b5b6000620012a18482850162001261565b91505092915050565b60008160e01c9050919050565b600060033d1115620012d95760046000803e620012d6600051620012aa565b90505b90565b600060443d106200137457620012f162000829565b60043d036004823e80513d602482011167ffffffffffffffff821117156200131b57505062001374565b808201805167ffffffffffffffff8111156200133b575050505062001374565b80602083010160043d0385018111156200135a57505050505062001374565b6200136b82602001850186620008ec565b82955050505050505b90565b6000620013848262000b82565b62001390818562000f26565b9350620013a281856020860162000977565b620013ad81620008ac565b840191505092915050565b60006020820190508181036000830152620013d4818462001377565b905092915050565b7f455243313135353a207472616e7366657220746f206e6f6e2d4552433131353560008201527f526563656976657220696d706c656d656e746572000000000000000000000000602082015250565b60006200143a60348362000f26565b91506200144782620013dc565b604082019050919050565b600060208201905081810360008301526200146d816200142b565b9050919050565b7f455243313135353a204552433131353552656365697665722072656a6563746560008201527f6420746f6b656e73000000000000000000000000000000000000000000000000602082015250565b6000620014d260288362000f26565b9150620014df8262001474565b604082019050919050565b600060208201905081810360008301526200150581620014c3565b9050919050565b614672806200151c6000396000f3fe608060405234801561001057600080fd5b506004361061014c5760003560e01c806383ca4b6f116100c3578063a6f9dae11161007c578063a6f9dae1146103c3578063acca6b31146103df578063b390c0ab146103fb578063e985e9c514610417578063f242432a14610447578063fe69ec74146104635761014c565b806383ca4b6f14610315578063862440e2146103315780638af3c40e1461034d5780638da5cb5b1461036b57806395d89b4114610389578063a22cb465146103a75761014c565b80632eb2c2d6116101155780632eb2c2d61461021d578063496b4cc8146102395780634e1273f4146102555780635edbc4fd1461028557806363f5bac3146102b55780638362219e146102e55761014c565b8062fdd58e1461015157806301ffc9a71461018157806306661abd146101b157806306fdde03146101cf5780630e89341c146101ed575b600080fd5b61016b60048036038101906101669190612998565b61047f565b60405161017891906129e7565b60405180910390f35b61019b60048036038101906101969190612a5a565b610547565b6040516101a89190612aa2565b60405180910390f35b6101b9610629565b6040516101c691906129e7565b60405180910390f35b6101d761062f565b6040516101e49190612b4d565b60405180910390f35b61020760048036038101906102029190612b6f565b6106bd565b6040516102149190612b4d565b60405180910390f35b61023760048036038101906102329190612d99565b610762565b005b610253600480360381019061024e9190612e68565b610803565b005b61026f600480360381019061026a9190612f6b565b6108af565b60405161027c91906130a1565b60405180910390f35b61029f600480360381019061029a9190612b6f565b6109c8565b6040516102ac91906129e7565b60405180910390f35b6102cf60048036038101906102ca9190612b6f565b610a0a565b6040516102dc91906129e7565b60405180910390f35b6102ff60048036038101906102fa91906130c3565b610a22565b60405161030c9190612aa2565b60405180910390f35b61032f600480360381019061032a9190613132565b610b90565b005b61034b6004803603810190610346919061324b565b610b9f565b005b610355610c8c565b60405161036291906132b6565b60405180910390f35b610373610d24565b60405161038091906132b6565b60405180910390f35b610391610d4a565b60405161039e9190612b4d565b60405180910390f35b6103c160048036038101906103bc91906132fd565b610dd8565b005b6103dd60048036038101906103d8919061333d565b610dee565b005b6103f960048036038101906103f4919061336a565b610ec2565b005b61041560048036038101906104109190612e68565b611122565b005b610431600480360381019061042c91906133d9565b611131565b60405161043e9190612aa2565b60405180910390f35b610461600480360381019061045c9190613419565b6111c5565b005b61047d60048036038101906104789190612e68565b611294565b005b60008073ffffffffffffffffffffffffffffffffffffffff168373ffffffffffffffffffffffffffffffffffffffff16036104ef576040517f08c379a00000000000000000000000000000000000000000000000000000000081526004016104e690613522565b60405180910390fd5b60008083815260200190815260200160002060008473ffffffffffffffffffffffffffffffffffffffff1673ffffffffffffffffffffffffffffffffffffffff16815260200190815260200160002054905092915050565b60007fd9b67a26000000000000000000000000000000000000000000000000000000007bffffffffffffffffffffffffffffffffffffffffffffffffffffffff1916827bffffffffffffffffffffffffffffffffffffffffffffffffffffffff1916148061061257507f0e89341c000000000000000000000000000000000000000000000000000000007bffffffffffffffffffffffffffffffffffffffffffffffffffffffff1916827bffffffffffffffffffffffffffffffffffffffffffffffffffffffff1916145b80610622575061062182611340565b5b9050919050565b600c5481565b6006805461063c90613571565b80601f016020809104026020016040519081016040528092919081815260200182805461066890613571565b80156106b55780601f1061068a576101008083540402835291602001916106b5565b820191906000526020600020905b81548152906001019060200180831161069857829003601f168201915b505050505081565b60606009600083815260200190815260200160002080546106dd90613571565b80601f016020809104026020016040519081016040528092919081815260200182805461070990613571565b80156107565780601f1061072b57610100808354040283529160200191610756565b820191906000526020600020905b81548152906001019060200180831161073957829003601f168201915b50505050509050919050565b61076a6113aa565b73ffffffffffffffffffffffffffffffffffffffff168573ffffffffffffffffffffffffffffffffffffffff1614806107b057506107af856107aa6113aa565b611131565b5b6107ef576040517f08c379a00000000000000000000000000000000000000000000000000000000081526004016107e690613614565b60405180910390fd5b6107fc85858585856113b2565b5050505050565b600360009054906101000a900473ffffffffffffffffffffffffffffffffffffffff1673ffffffffffffffffffffffffffffffffffffffff163373ffffffffffffffffffffffffffffffffffffffff1614610893576040517f08c379a000000000000000000000000000000000000000000000000000000000815260040161088a90613680565b60405180910390fd5b80600b6000848152602001908152602001600020819055505050565b606081518351146108f5576040517f08c379a00000000000000000000000000000000000000000000000000000000081526004016108ec90613712565b60405180910390fd5b6000835167ffffffffffffffff81111561091257610911612ba1565b5b6040519080825280602002602001820160405280156109405781602001602082028036833780820191505090505b50905060005b84518110156109bd5761098d85828151811061096557610964613732565b5b60200260200101518583815181106109805761097f613732565b5b602002602001015161047f565b8282815181106109a05761099f613732565b5b602002602001018181525050806109b690613790565b9050610946565b508091505092915050565b600080600b600084815260200190815260200160002054036109ee576008549050610a05565b600b60008381526020019081526020016000205490505b919050565b600a6020528060005260406000206000915090505481565b6000600360009054906101000a900473ffffffffffffffffffffffffffffffffffffffff1673ffffffffffffffffffffffffffffffffffffffff163373ffffffffffffffffffffffffffffffffffffffff1614610ab4576040517f08c379a0000000000000000000000000000000000000000000000000000000008152600401610aab90613680565b60405180910390fd5b6000845183610ac39190613807565b90506000610acf610c8c565b905060005b8651811015610b82576000610b03888381518110610af557610af4613732565b5b60200260200101518861047f565b905060008111610b48576040517f08c379a0000000000000000000000000000000000000000000000000000000008152600401610b3f90613884565b60405180910390fd5b610b6e83338a8581518110610b6057610b5f613732565b5b6020026020010151876116d3565b508080610b7a90613790565b915050610ad4565b506001925050509392505050565b610b9b338383611755565b5050565b600360009054906101000a900473ffffffffffffffffffffffffffffffffffffffff1673ffffffffffffffffffffffffffffffffffffffff163373ffffffffffffffffffffffffffffffffffffffff1614610c2f576040517f08c379a0000000000000000000000000000000000000000000000000000000008152600401610c2690613680565b60405180910390fd5b80600960008481526020019081526020016000209081610c4f9190613a50565b50817f6bb7ff708619ba0610cba295a58592e0451dee2622938c8755667688daf3529b82604051610c809190612b4d565b60405180910390a25050565b6000600460009054906101000a900473ffffffffffffffffffffffffffffffffffffffff1673ffffffffffffffffffffffffffffffffffffffff1663581592f16040518163ffffffff1660e01b8152600401602060405180830381865afa158015610cfb573d6000803e3d6000fd5b505050506040513d601f19601f82011682018060405250810190610d1f9190613b37565b905090565b600360009054906101000a900473ffffffffffffffffffffffffffffffffffffffff1681565b60078054610d5790613571565b80601f0160208091040260200160405190810160405280929190818152602001828054610d8390613571565b8015610dd05780601f10610da557610100808354040283529160200191610dd0565b820191906000526020600020905b815481529060010190602001808311610db357829003601f168201915b505050505081565b610dea610de36113aa565b8383611a23565b5050565b600460009054906101000a900473ffffffffffffffffffffffffffffffffffffffff1673ffffffffffffffffffffffffffffffffffffffff163373ffffffffffffffffffffffffffffffffffffffff1614610e7e576040517f08c379a0000000000000000000000000000000000000000000000000000000008152600401610e7590613bb0565b60405180910390fd5b80600360006101000a81548173ffffffffffffffffffffffffffffffffffffffff021916908373ffffffffffffffffffffffffffffffffffffffff16021790555050565b600360009054906101000a900473ffffffffffffffffffffffffffffffffffffffff1673ffffffffffffffffffffffffffffffffffffffff163373ffffffffffffffffffffffffffffffffffffffff1614610f52576040517f08c379a0000000000000000000000000000000000000000000000000000000008152600401610f4990613680565b60405180910390fd5b60008311610f95576040517f08c379a0000000000000000000000000000000000000000000000000000000008152600401610f8c90613c42565b60405180910390fd5b6000610f9f610c8c565b90506000600460009054906101000a900473ffffffffffffffffffffffffffffffffffffffff1673ffffffffffffffffffffffffffffffffffffffff16632771acef306040518263ffffffff1660e01b8152600401610ffe91906132b6565b602060405180830381865afa15801561101b573d6000803e3d6000fd5b505050506040513d601f19601f8201168201806040525081019061103f9190613c77565b905061106f8233600460009054906101000a900473ffffffffffffffffffffffffffffffffffffffff16846116d3565b61108c33600c548760405180602001604052806000815250611b8f565b8360096000600c54815260200190815260200160002090816110ae9190613a50565b5082600a6000600c54815260200190815260200160002081905550600c547f6bb7ff708619ba0610cba295a58592e0451dee2622938c8755667688daf3529b856040516110fb9190612b4d565b60405180910390a2600c600081548092919061111690613790565b91905055505050505050565b61112d338383611d3f565b5050565b6000600160008473ffffffffffffffffffffffffffffffffffffffff1673ffffffffffffffffffffffffffffffffffffffff16815260200190815260200160002060008373ffffffffffffffffffffffffffffffffffffffff1673ffffffffffffffffffffffffffffffffffffffff16815260200190815260200160002060009054906101000a900460ff16905092915050565b6111cd6113aa565b73ffffffffffffffffffffffffffffffffffffffff168573ffffffffffffffffffffffffffffffffffffffff16148061121357506112128561120d6113aa565b611131565b5b611252576040517f08c379a000000000000000000000000000000000000000000000000000000000815260040161124990613614565b60405180910390fd5b61125f8585858585611f85565b61128d84600560009054906101000a900473ffffffffffffffffffffffffffffffffffffffff166001611a23565b5050505050565b600360009054906101000a900473ffffffffffffffffffffffffffffffffffffffff1673ffffffffffffffffffffffffffffffffffffffff163373ffffffffffffffffffffffffffffffffffffffff1614611324576040517f08c379a000000000000000000000000000000000000000000000000000000000815260040161131b90613680565b60405180910390fd5b80600a6000848152602001908152602001600020819055505050565b60007f01ffc9a7000000000000000000000000000000000000000000000000000000007bffffffffffffffffffffffffffffffffffffffffffffffffffffffff1916827bffffffffffffffffffffffffffffffffffffffffffffffffffffffff1916149050919050565b600033905090565b81518351146113f6576040517f08c379a00000000000000000000000000000000000000000000000000000000081526004016113ed90613d16565b60405180910390fd5b600073ffffffffffffffffffffffffffffffffffffffff168473ffffffffffffffffffffffffffffffffffffffff1603611465576040517f08c379a000000000000000000000000000000000000000000000000000000000815260040161145c90613da8565b60405180910390fd5b600061146f6113aa565b905061147f818787878787612220565b60005b84518110156116305760008582815181106114a05761149f613732565b5b6020026020010151905060008583815181106114bf576114be613732565b5b60200260200101519050600080600084815260200190815260200160002060008b73ffffffffffffffffffffffffffffffffffffffff1673ffffffffffffffffffffffffffffffffffffffff16815260200190815260200160002054905081811015611560576040517f08c379a000000000000000000000000000000000000000000000000000000000815260040161155790613e3a565b60405180910390fd5b81810360008085815260200190815260200160002060008c73ffffffffffffffffffffffffffffffffffffffff1673ffffffffffffffffffffffffffffffffffffffff168152602001908152602001600020819055508160008085815260200190815260200160002060008b73ffffffffffffffffffffffffffffffffffffffff1673ffffffffffffffffffffffffffffffffffffffff16815260200190815260200160002060008282546116159190613e5a565b925050819055505050508061162990613790565b9050611482565b508473ffffffffffffffffffffffffffffffffffffffff168673ffffffffffffffffffffffffffffffffffffffff168273ffffffffffffffffffffffffffffffffffffffff167f4a39dc06d4c0dbc64b70af90fd698a233a518aa5d07e595d983b8c0526c8f7fb87876040516116a7929190613e8e565b60405180910390a46116bd818787878787612228565b6116cb818787878787612230565b505050505050565b61174f848573ffffffffffffffffffffffffffffffffffffffff166323b872dd86868660405160240161170893929190613ec5565b604051602081830303815290604052915060e01b6020820180517bffffffffffffffffffffffffffffffffffffffffffffffffffffffff8381831617835250505050612407565b50505050565b600073ffffffffffffffffffffffffffffffffffffffff168373ffffffffffffffffffffffffffffffffffffffff16036117c4576040517f08c379a00000000000000000000000000000000000000000000000000000000081526004016117bb90613f6e565b60405180910390fd5b8051825114611808576040517f08c379a00000000000000000000000000000000000000000000000000000000081526004016117ff90613d16565b60405180910390fd5b60006118126113aa565b905061183281856000868660405180602001604052806000815250612220565b60005b835181101561197f57600084828151811061185357611852613732565b5b60200260200101519050600084838151811061187257611871613732565b5b60200260200101519050600080600084815260200190815260200160002060008973ffffffffffffffffffffffffffffffffffffffff1673ffffffffffffffffffffffffffffffffffffffff16815260200190815260200160002054905081811015611913576040517f08c379a000000000000000000000000000000000000000000000000000000000815260040161190a90614000565b60405180910390fd5b81810360008085815260200190815260200160002060008a73ffffffffffffffffffffffffffffffffffffffff1673ffffffffffffffffffffffffffffffffffffffff16815260200190815260200160002081905550505050808061197790613790565b915050611835565b50600073ffffffffffffffffffffffffffffffffffffffff168473ffffffffffffffffffffffffffffffffffffffff168273ffffffffffffffffffffffffffffffffffffffff167f4a39dc06d4c0dbc64b70af90fd698a233a518aa5d07e595d983b8c0526c8f7fb86866040516119f7929190613e8e565b60405180910390a4611a1d81856000868660405180602001604052806000815250612228565b50505050565b8173ffffffffffffffffffffffffffffffffffffffff168373ffffffffffffffffffffffffffffffffffffffff1603611a91576040517f08c379a0000000000000000000000000000000000000000000000000000000008152600401611a8890614092565b60405180910390fd5b80600160008573ffffffffffffffffffffffffffffffffffffffff1673ffffffffffffffffffffffffffffffffffffffff16815260200190815260200160002060008473ffffffffffffffffffffffffffffffffffffffff1673ffffffffffffffffffffffffffffffffffffffff16815260200190815260200160002060006101000a81548160ff0219169083151502179055508173ffffffffffffffffffffffffffffffffffffffff168373ffffffffffffffffffffffffffffffffffffffff167f17307eab39ab6107e8899845ad3d59bd9653f200f220920489ca2b5937696c3183604051611b829190612aa2565b60405180910390a3505050565b600073ffffffffffffffffffffffffffffffffffffffff168473ffffffffffffffffffffffffffffffffffffffff1603611bfe576040517f08c379a0000000000000000000000000000000000000000000000000000000008152600401611bf590614124565b60405180910390fd5b6000611c086113aa565b90506000611c158561249e565b90506000611c228561249e565b9050611c3383600089858589612220565b8460008088815260200190815260200160002060008973ffffffffffffffffffffffffffffffffffffffff1673ffffffffffffffffffffffffffffffffffffffff1681526020019081526020016000206000828254611c929190613e5a565b925050819055508673ffffffffffffffffffffffffffffffffffffffff16600073ffffffffffffffffffffffffffffffffffffffff168473ffffffffffffffffffffffffffffffffffffffff167fc3d58168c5ae7397731d063d5bbf3d657854427343f4c083240f7aacaa2d0f628989604051611d10929190614144565b60405180910390a4611d2783600089858589612228565b611d3683600089898989612518565b50505050505050565b600073ffffffffffffffffffffffffffffffffffffffff168373ffffffffffffffffffffffffffffffffffffffff1603611dae576040517f08c379a0000000000000000000000000000000000000000000000000000000008152600401611da590613f6e565b60405180910390fd5b6000611db86113aa565b90506000611dc58461249e565b90506000611dd28461249e565b9050611df283876000858560405180602001604052806000815250612220565b600080600087815260200190815260200160002060008873ffffffffffffffffffffffffffffffffffffffff1673ffffffffffffffffffffffffffffffffffffffff16815260200190815260200160002054905084811015611e89576040517f08c379a0000000000000000000000000000000000000000000000000000000008152600401611e8090614000565b60405180910390fd5b84810360008088815260200190815260200160002060008973ffffffffffffffffffffffffffffffffffffffff1673ffffffffffffffffffffffffffffffffffffffff16815260200190815260200160002081905550600073ffffffffffffffffffffffffffffffffffffffff168773ffffffffffffffffffffffffffffffffffffffff168573ffffffffffffffffffffffffffffffffffffffff167fc3d58168c5ae7397731d063d5bbf3d657854427343f4c083240f7aacaa2d0f628989604051611f56929190614144565b60405180910390a4611f7c84886000868660405180602001604052806000815250612228565b50505050505050565b600073ffffffffffffffffffffffffffffffffffffffff168473ffffffffffffffffffffffffffffffffffffffff1603611ff4576040517f08c379a0000000000000000000000000000000000000000000000000000000008152600401611feb90613da8565b60405180910390fd5b6000611ffe6113aa565b9050600061200b8561249e565b905060006120188561249e565b9050612028838989858589612220565b600080600088815260200190815260200160002060008a73ffffffffffffffffffffffffffffffffffffffff1673ffffffffffffffffffffffffffffffffffffffff168152602001908152602001600020549050858110156120bf576040517f08c379a00000000000000000000000000000000000000000000000000000000081526004016120b690613e3a565b60405180910390fd5b85810360008089815260200190815260200160002060008b73ffffffffffffffffffffffffffffffffffffffff1673ffffffffffffffffffffffffffffffffffffffff168152602001908152602001600020819055508560008089815260200190815260200160002060008a73ffffffffffffffffffffffffffffffffffffffff1673ffffffffffffffffffffffffffffffffffffffff16815260200190815260200160002060008282546121749190613e5a565b925050819055508773ffffffffffffffffffffffffffffffffffffffff168973ffffffffffffffffffffffffffffffffffffffff168573ffffffffffffffffffffffffffffffffffffffff167fc3d58168c5ae7397731d063d5bbf3d657854427343f4c083240f7aacaa2d0f628a8a6040516121f1929190614144565b60405180910390a4612207848a8a86868a612228565b612215848a8a8a8a8a612518565b505050505050505050565b505050505050565b505050505050565b61224f8473ffffffffffffffffffffffffffffffffffffffff166126ef565b156123ff578373ffffffffffffffffffffffffffffffffffffffff1663bc197c8187878686866040518663ffffffff1660e01b81526004016122959594939291906141c2565b6020604051808303816000875af19250505080156122d157506040513d601f19601f820116820180604052508101906122ce919061423f565b60015b612376576122dd614279565b806308c379a00361233957506122f161429b565b806122fc575061233b565b806040517f08c379a00000000000000000000000000000000000000000000000000000000081526004016123309190612b4d565b60405180910390fd5b505b6040517f08c379a000000000000000000000000000000000000000000000000000000000815260040161236d9061439d565b60405180910390fd5b63bc197c8160e01b7bffffffffffffffffffffffffffffffffffffffffffffffffffffffff1916817bffffffffffffffffffffffffffffffffffffffffffffffffffffffff1916146123fd576040517f08c379a00000000000000000000000000000000000000000000000000000000081526004016123f49061442f565b60405180910390fd5b505b505050505050565b6000612432828473ffffffffffffffffffffffffffffffffffffffff1661271290919063ffffffff16565b905060008151141580156124575750808060200190518101906124559190614464565b155b1561249957826040517f5274afe700000000000000000000000000000000000000000000000000000000815260040161249091906132b6565b60405180910390fd5b505050565b60606000600167ffffffffffffffff8111156124bd576124bc612ba1565b5b6040519080825280602002602001820160405280156124eb5781602001602082028036833780820191505090505b509050828160008151811061250357612502613732565b5b60200260200101818152505080915050919050565b6125378473ffffffffffffffffffffffffffffffffffffffff166126ef565b156126e7578373ffffffffffffffffffffffffffffffffffffffff1663f23a6e6187878686866040518663ffffffff1660e01b815260040161257d959493929190614491565b6020604051808303816000875af19250505080156125b957506040513d601f19601f820116820180604052508101906125b6919061423f565b60015b61265e576125c5614279565b806308c379a00361262157506125d961429b565b806125e45750612623565b806040517f08c379a00000000000000000000000000000000000000000000000000000000081526004016126189190612b4d565b60405180910390fd5b505b6040517f08c379a00000000000000000000000000000000000000000000000000000000081526004016126559061439d565b60405180910390fd5b63f23a6e6160e01b7bffffffffffffffffffffffffffffffffffffffffffffffffffffffff1916817bffffffffffffffffffffffffffffffffffffffffffffffffffffffff1916146126e5576040517f08c379a00000000000000000000000000000000000000000000000000000000081526004016126dc9061442f565b60405180910390fd5b505b505050505050565b6000808273ffffffffffffffffffffffffffffffffffffffff163b119050919050565b6060612756838360006040518060400160405280601e81526020017f416464726573733a206c6f772d6c6576656c2063616c6c206661696c6564000081525061275e565b905092915050565b6060824710156127a3576040517f08c379a000000000000000000000000000000000000000000000000000000000815260040161279a9061455d565b60405180910390fd5b6000808673ffffffffffffffffffffffffffffffffffffffff1685876040516127cc91906145b9565b60006040518083038185875af1925050503d8060008114612809576040519150601f19603f3d011682016040523d82523d6000602084013e61280e565b606091505b509150915061281f8783838761282b565b92505050949350505050565b6060831561288d57600083510361288557612845856126ef565b612884576040517f08c379a000000000000000000000000000000000000000000000000000000000815260040161287b9061461c565b60405180910390fd5b5b829050612898565b61289783836128a0565b5b949350505050565b6000825111156128b35781518083602001fd5b806040517f08c379a00000000000000000000000000000000000000000000000000000000081526004016128e79190612b4d565b60405180910390fd5b6000604051905090565b600080fd5b600080fd5b600073ffffffffffffffffffffffffffffffffffffffff82169050919050565b600061292f82612904565b9050919050565b61293f81612924565b811461294a57600080fd5b50565b60008135905061295c81612936565b92915050565b6000819050919050565b61297581612962565b811461298057600080fd5b50565b6000813590506129928161296c565b92915050565b600080604083850312156129af576129ae6128fa565b5b60006129bd8582860161294d565b92505060206129ce85828601612983565b9150509250929050565b6129e181612962565b82525050565b60006020820190506129fc60008301846129d8565b92915050565b60007fffffffff0000000000000000000000000000000000000000000000000000000082169050919050565b612a3781612a02565b8114612a4257600080fd5b50565b600081359050612a5481612a2e565b92915050565b600060208284031215612a7057612a6f6128fa565b5b6000612a7e84828501612a45565b91505092915050565b60008115159050919050565b612a9c81612a87565b82525050565b6000602082019050612ab76000830184612a93565b92915050565b600081519050919050565b600082825260208201905092915050565b60005b83811015612af7578082015181840152602081019050612adc565b60008484015250505050565b6000601f19601f8301169050919050565b6000612b1f82612abd565b612b298185612ac8565b9350612b39818560208601612ad9565b612b4281612b03565b840191505092915050565b60006020820190508181036000830152612b678184612b14565b905092915050565b600060208284031215612b8557612b846128fa565b5b6000612b9384828501612983565b91505092915050565b600080fd5b7f4e487b7100000000000000000000000000000000000000000000000000000000600052604160045260246000fd5b612bd982612b03565b810181811067ffffffffffffffff82111715612bf857612bf7612ba1565b5b80604052505050565b6000612c0b6128f0565b9050612c178282612bd0565b919050565b600067ffffffffffffffff821115612c3757612c36612ba1565b5b602082029050602081019050919050565b600080fd5b6000612c60612c5b84612c1c565b612c01565b90508083825260208201905060208402830185811115612c8357612c82612c48565b5b835b81811015612cac5780612c988882612983565b845260208401935050602081019050612c85565b5050509392505050565b600082601f830112612ccb57612cca612b9c565b5b8135612cdb848260208601612c4d565b91505092915050565b600080fd5b600067ffffffffffffffff821115612d0457612d03612ba1565b5b612d0d82612b03565b9050602081019050919050565b82818337600083830152505050565b6000612d3c612d3784612ce9565b612c01565b905082815260208101848484011115612d5857612d57612ce4565b5b612d63848285612d1a565b509392505050565b600082601f830112612d8057612d7f612b9c565b5b8135612d90848260208601612d29565b91505092915050565b600080600080600060a08688031215612db557612db46128fa565b5b6000612dc38882890161294d565b9550506020612dd48882890161294d565b945050604086013567ffffffffffffffff811115612df557612df46128ff565b5b612e0188828901612cb6565b935050606086013567ffffffffffffffff811115612e2257612e216128ff565b5b612e2e88828901612cb6565b925050608086013567ffffffffffffffff811115612e4f57612e4e6128ff565b5b612e5b88828901612d6b565b9150509295509295909350565b60008060408385031215612e7f57612e7e6128fa565b5b6000612e8d85828601612983565b9250506020612e9e85828601612983565b9150509250929050565b600067ffffffffffffffff821115612ec357612ec2612ba1565b5b602082029050602081019050919050565b6000612ee7612ee284612ea8565b612c01565b90508083825260208201905060208402830185811115612f0a57612f09612c48565b5b835b81811015612f335780612f1f888261294d565b845260208401935050602081019050612f0c565b5050509392505050565b600082601f830112612f5257612f51612b9c565b5b8135612f62848260208601612ed4565b91505092915050565b60008060408385031215612f8257612f816128fa565b5b600083013567ffffffffffffffff811115612fa057612f9f6128ff565b5b612fac85828601612f3d565b925050602083013567ffffffffffffffff811115612fcd57612fcc6128ff565b5b612fd985828601612cb6565b9150509250929050565b600081519050919050565b600082825260208201905092915050565b6000819050602082019050919050565b61301881612962565b82525050565b600061302a838361300f565b60208301905092915050565b6000602082019050919050565b600061304e82612fe3565b6130588185612fee565b935061306383612fff565b8060005b8381101561309457815161307b888261301e565b975061308683613036565b925050600181019050613067565b5085935050505092915050565b600060208201905081810360008301526130bb8184613043565b905092915050565b6000806000606084860312156130dc576130db6128fa565b5b600084013567ffffffffffffffff8111156130fa576130f96128ff565b5b61310686828701612f3d565b935050602061311786828701612983565b925050604061312886828701612983565b9150509250925092565b60008060408385031215613149576131486128fa565b5b600083013567ffffffffffffffff811115613167576131666128ff565b5b61317385828601612cb6565b925050602083013567ffffffffffffffff811115613194576131936128ff565b5b6131a085828601612cb6565b9150509250929050565b600067ffffffffffffffff8211156131c5576131c4612ba1565b5b6131ce82612b03565b9050602081019050919050565b60006131ee6131e9846131aa565b612c01565b90508281526020810184848401111561320a57613209612ce4565b5b613215848285612d1a565b509392505050565b600082601f83011261323257613231612b9c565b5b81356132428482602086016131db565b91505092915050565b60008060408385031215613262576132616128fa565b5b600061327085828601612983565b925050602083013567ffffffffffffffff811115613291576132906128ff565b5b61329d8582860161321d565b9150509250929050565b6132b081612924565b82525050565b60006020820190506132cb60008301846132a7565b92915050565b6132da81612a87565b81146132e557600080fd5b50565b6000813590506132f7816132d1565b92915050565b60008060408385031215613314576133136128fa565b5b60006133228582860161294d565b9250506020613333858286016132e8565b9150509250929050565b600060208284031215613353576133526128fa565b5b60006133618482850161294d565b91505092915050565b600080600060608486031215613383576133826128fa565b5b600061339186828701612983565b935050602084013567ffffffffffffffff8111156133b2576133b16128ff565b5b6133be8682870161321d565b92505060406133cf86828701612983565b9150509250925092565b600080604083850312156133f0576133ef6128fa565b5b60006133fe8582860161294d565b925050602061340f8582860161294d565b9150509250929050565b600080600080600060a08688031215613435576134346128fa565b5b60006134438882890161294d565b95505060206134548882890161294d565b945050604061346588828901612983565b935050606061347688828901612983565b925050608086013567ffffffffffffffff811115613497576134966128ff565b5b6134a388828901612d6b565b9150509295509295909350565b7f455243313135353a2061646472657373207a65726f206973206e6f742061207660008201527f616c6964206f776e657200000000000000000000000000000000000000000000602082015250565b600061350c602a83612ac8565b9150613517826134b0565b604082019050919050565b6000602082019050818103600083015261353b816134ff565b9050919050565b7f4e487b7100000000000000000000000000000000000000000000000000000000600052602260045260246000fd5b6000600282049050600182168061358957607f821691505b60208210810361359c5761359b613542565b5b50919050565b7f455243313135353a2063616c6c6572206973206e6f7420746f6b656e206f776e60008201527f6572206f7220617070726f766564000000000000000000000000000000000000602082015250565b60006135fe602e83612ac8565b9150613609826135a2565b604082019050919050565b6000602082019050818103600083015261362d816135f1565b9050919050565b7f43616c6c6572206973206e6f7420616e206f776e657200000000000000000000600082015250565b600061366a601683612ac8565b915061367582613634565b602082019050919050565b600060208201905081810360008301526136998161365d565b9050919050565b7f455243313135353a206163636f756e747320616e6420696473206c656e67746860008201527f206d69736d617463680000000000000000000000000000000000000000000000602082015250565b60006136fc602983612ac8565b9150613707826136a0565b604082019050919050565b6000602082019050818103600083015261372b816136ef565b9050919050565b7f4e487b7100000000000000000000000000000000000000000000000000000000600052603260045260246000fd5b7f4e487b7100000000000000000000000000000000000000000000000000000000600052601160045260246000fd5b600061379b82612962565b91507fffffffffffffffffffffffffffffffffffffffffffffffffffffffffffffffff82036137cd576137cc613761565b5b600182019050919050565b7f4e487b7100000000000000000000000000000000000000000000000000000000600052601260045260246000fd5b600061381282612962565b915061381d83612962565b92508261382d5761382c6137d8565b5b828204905092915050565b7f4e6f7420656e6f756768204e4654732062616c61636500000000000000000000600082015250565b600061386e601683612ac8565b915061387982613838565b602082019050919050565b6000602082019050818103600083015261389d81613861565b9050919050565b60008190508160005260206000209050919050565b60006020601f8301049050919050565b600082821b905092915050565b6000600883026139067fffffffffffffffffffffffffffffffffffffffffffffffffffffffffffffffff826138c9565b61391086836138c9565b95508019841693508086168417925050509392505050565b6000819050919050565b600061394d61394861394384612962565b613928565b612962565b9050919050565b6000819050919050565b61396783613932565b61397b61397382613954565b8484546138d6565b825550505050565b600090565b613990613983565b61399b81848461395e565b505050565b5b818110156139bf576139b4600082613988565b6001810190506139a1565b5050565b601f821115613a04576139d5816138a4565b6139de846138b9565b810160208510156139ed578190505b613a016139f9856138b9565b8301826139a0565b50505b505050565b600082821c905092915050565b6000613a2760001984600802613a09565b1980831691505092915050565b6000613a408383613a16565b9150826002028217905092915050565b613a5982612abd565b67ffffffffffffffff811115613a7257613a71612ba1565b5b613a7c8254613571565b613a878282856139c3565b600060209050601f831160018114613aba5760008415613aa8578287015190505b613ab28582613a34565b865550613b1a565b601f198416613ac8866138a4565b60005b82811015613af057848901518255600182019150602085019450602081019050613acb565b86831015613b0d5784890151613b09601f891682613a16565b8355505b6001600288020188555050505b505050505050565b600081519050613b3181612936565b92915050565b600060208284031215613b4d57613b4c6128fa565b5b6000613b5b84828501613b22565b91505092915050565b7f4f6e6c792063616c6c61626c652066726f6d20666163746f7279000000000000600082015250565b6000613b9a601a83612ac8565b9150613ba582613b64565b602082019050919050565b60006020820190508181036000830152613bc981613b8d565b9050919050565b7f4d696e7420616d6f756e74206d7573742062652067726561746572207468616e60008201527f207a65726f3a0000000000000000000000000000000000000000000000000000602082015250565b6000613c2c602683612ac8565b9150613c3782613bd0565b604082019050919050565b60006020820190508181036000830152613c5b81613c1f565b9050919050565b600081519050613c718161296c565b92915050565b600060208284031215613c8d57613c8c6128fa565b5b6000613c9b84828501613c62565b91505092915050565b7f455243313135353a2069647320616e6420616d6f756e7473206c656e6774682060008201527f6d69736d61746368000000000000000000000000000000000000000000000000602082015250565b6000613d00602883612ac8565b9150613d0b82613ca4565b604082019050919050565b60006020820190508181036000830152613d2f81613cf3565b9050919050565b7f455243313135353a207472616e7366657220746f20746865207a65726f20616460008201527f6472657373000000000000000000000000000000000000000000000000000000602082015250565b6000613d92602583612ac8565b9150613d9d82613d36565b604082019050919050565b60006020820190508181036000830152613dc181613d85565b9050919050565b7f455243313135353a20696e73756666696369656e742062616c616e636520666f60008201527f72207472616e7366657200000000000000000000000000000000000000000000602082015250565b6000613e24602a83612ac8565b9150613e2f82613dc8565b604082019050919050565b60006020820190508181036000830152613e5381613e17565b9050919050565b6000613e6582612962565b9150613e7083612962565b9250828201905080821115613e8857613e87613761565b5b92915050565b60006040820190508181036000830152613ea88185613043565b90508181036020830152613ebc8184613043565b90509392505050565b6000606082019050613eda60008301866132a7565b613ee760208301856132a7565b613ef460408301846129d8565b949350505050565b7f455243313135353a206275726e2066726f6d20746865207a65726f206164647260008201527f6573730000000000000000000000000000000000000000000000000000000000602082015250565b6000613f58602383612ac8565b9150613f6382613efc565b604082019050919050565b60006020820190508181036000830152613f8781613f4b565b9050919050565b7f455243313135353a206275726e20616d6f756e7420657863656564732062616c60008201527f616e636500000000000000000000000000000000000000000000000000000000602082015250565b6000613fea602483612ac8565b9150613ff582613f8e565b604082019050919050565b6000602082019050818103600083015261401981613fdd565b9050919050565b7f455243313135353a2073657474696e6720617070726f76616c2073746174757360008201527f20666f722073656c660000000000000000000000000000000000000000000000602082015250565b600061407c602983612ac8565b915061408782614020565b604082019050919050565b600060208201905081810360008301526140ab8161406f565b9050919050565b7f455243313135353a206d696e7420746f20746865207a65726f2061646472657360008201527f7300000000000000000000000000000000000000000000000000000000000000602082015250565b600061410e602183612ac8565b9150614119826140b2565b604082019050919050565b6000602082019050818103600083015261413d81614101565b9050919050565b600060408201905061415960008301856129d8565b61416660208301846129d8565b9392505050565b600081519050919050565b600082825260208201905092915050565b60006141948261416d565b61419e8185614178565b93506141ae818560208601612ad9565b6141b781612b03565b840191505092915050565b600060a0820190506141d760008301886132a7565b6141e460208301876132a7565b81810360408301526141f68186613043565b9050818103606083015261420a8185613043565b9050818103608083015261421e8184614189565b90509695505050505050565b60008151905061423981612a2e565b92915050565b600060208284031215614255576142546128fa565b5b60006142638482850161422a565b91505092915050565b60008160e01c9050919050565b600060033d11156142985760046000803e61429560005161426c565b90505b90565b600060443d10614328576142ad6128f0565b60043d036004823e80513d602482011167ffffffffffffffff821117156142d5575050614328565b808201805167ffffffffffffffff8111156142f35750505050614328565b80602083010160043d038501811115614310575050505050614328565b61431f82602001850186612bd0565b82955050505050505b90565b7f455243313135353a207472616e7366657220746f206e6f6e2d4552433131353560008201527f526563656976657220696d706c656d656e746572000000000000000000000000602082015250565b6000614387603483612ac8565b91506143928261432b565b604082019050919050565b600060208201905081810360008301526143b68161437a565b9050919050565b7f455243313135353a204552433131353552656365697665722072656a6563746560008201527f6420746f6b656e73000000000000000000000000000000000000000000000000602082015250565b6000614419602883612ac8565b9150614424826143bd565b604082019050919050565b600060208201905081810360008301526144488161440c565b9050919050565b60008151905061445e816132d1565b92915050565b60006020828403121561447a576144796128fa565b5b60006144888482850161444f565b91505092915050565b600060a0820190506144a660008301886132a7565b6144b360208301876132a7565b6144c060408301866129d8565b6144cd60608301856129d8565b81810360808301526144df8184614189565b90509695505050505050565b7f416464726573733a20696e73756666696369656e742062616c616e636520666f60008201527f722063616c6c0000000000000000000000000000000000000000000000000000602082015250565b6000614547602683612ac8565b9150614552826144eb565b604082019050919050565b600060208201905081810360008301526145768161453a565b9050919050565b600081905092915050565b60006145938261416d565b61459d818561457d565b93506145ad818560208601612ad9565b80840191505092915050565b60006145c58284614588565b915081905092915050565b7f416464726573733a2063616c6c20746f206e6f6e2d636f6e7472616374000000600082015250565b6000614606601d83612ac8565b9150614611826145d0565b602082019050919050565b60006020820190508181036000830152614635816145f9565b905091905056fea2646970667358221220d03a5fe0afc4b320268cad605d09031a74b0965deb00811fafb6289e4fe8408164736f6c63430008130033a264697066735822122031d6bd473d4681bc3c47fcf713d4af9022a13d92c8abe5dd3fa5f933ee0c96f364736f6c63430008130033",
  "linkReferences": {},
  "deployedLinkReferences": {}
}