{
  "_format": "hh-sol-artifact-1",
  "contractName": "Crowdsale",
  "sourceName": "contracts/crowdsale.sol",
  "abi": [
    {
      "inputs": [
        {
          "internalType": "contract IERC20",
          "name": "_token",
          "type": "address"
        },
        {
          "internalType": "uint256",
          "name": "_startTimestamp",
          "type": "uint256"
        },
        {
          "internalType": "uint256",
          "name": "_endTimestamp",
          "type": "uint256"
        },
        {
          "internalType": "uint256",
          "name": "_cliffTime",
          "type": "uint256"
        },
        {
          "internalType": "uint256",
          "name": "_vestingTime",
          "type": "uint256"
        }
      ],
      "stateMutability": "nonpayable",
      "type": "constructor"
    },
    {
      "anonymous": false,
      "inputs": [
        {
          "indexed": true,
          "internalType": "address",
          "name": "previousOwner",
          "type": "address"
        },
        {
          "indexed": true,
          "internalType": "address",
          "name": "newOwner",
          "type": "address"
        }
      ],
      "name": "OwnershipTransferred",
      "type": "event"
    },
    {
      "anonymous": false,
      "inputs": [
        {
          "indexed": true,
          "internalType": "address",
          "name": "purchaser",
          "type": "address"
        },
        {
          "indexed": false,
          "internalType": "uint256",
          "name": "amount",
          "type": "uint256"
        }
      ],
      "name": "TokensPurchased",
      "type": "event"
    },
    {
      "inputs": [
        {
          "internalType": "address",
          "name": "",
          "type": "address"
        }
      ],
      "name": "balances",
      "outputs": [
        {
          "internalType": "uint256",
          "name": "",
          "type": "uint256"
        }
      ],
      "stateMutability": "view",
      "type": "function"
    },
    {
      "inputs": [],
      "name": "buyTokens",
      "outputs": [],
      "stateMutability": "payable",
      "type": "function"
    },
    {
      "inputs": [
        {
          "internalType": "uint256",
          "name": "_tokensPerEth",
          "type": "uint256"
        }
      ],
      "name": "changeTokensPerEth",
      "outputs": [],
      "stateMutability": "nonpayable",
      "type": "function"
    },
    {
      "inputs": [
        {
          "internalType": "uint256",
          "name": "_amountInEth",
          "type": "uint256"
        }
      ],
      "name": "checkTokens",
      "outputs": [
        {
          "internalType": "uint256",
          "name": "",
          "type": "uint256"
        }
      ],
      "stateMutability": "view",
      "type": "function"
    },
    {
      "inputs": [],
      "name": "cliffTime",
      "outputs": [
        {
          "internalType": "uint256",
          "name": "",
          "type": "uint256"
        }
      ],
      "stateMutability": "view",
      "type": "function"
    },
    {
      "inputs": [],
      "name": "endTimestamp",
      "outputs": [
        {
          "internalType": "uint256",
          "name": "",
          "type": "uint256"
        }
      ],
      "stateMutability": "view",
      "type": "function"
    },
    {
      "inputs": [
        {
          "internalType": "uint256",
          "name": "_amount",
          "type": "uint256"
        }
      ],
      "name": "fundTokens",
      "outputs": [],
      "stateMutability": "nonpayable",
      "type": "function"
    },
    {
      "inputs": [],
      "name": "getTokenBalance",
      "outputs": [
        {
          "internalType": "uint256",
          "name": "",
          "type": "uint256"
        }
      ],
      "stateMutability": "view",
      "type": "function"
    },
    {
      "inputs": [],
      "name": "haltSale",
      "outputs": [],
      "stateMutability": "nonpayable",
      "type": "function"
    },
    {
      "inputs": [],
      "name": "isSaleActive",
      "outputs": [
        {
          "internalType": "bool",
          "name": "",
          "type": "bool"
        }
      ],
      "stateMutability": "view",
      "type": "function"
    },
    {
      "inputs": [],
      "name": "owner",
      "outputs": [
        {
          "internalType": "address",
          "name": "",
          "type": "address"
        }
      ],
      "stateMutability": "view",
      "type": "function"
    },
    {
      "inputs": [
        {
          "internalType": "address",
          "name": "_beneficiary",
          "type": "address"
        }
      ],
      "name": "releasableAmount",
      "outputs": [
        {
          "internalType": "uint256",
          "name": "",
          "type": "uint256"
        }
      ],
      "stateMutability": "view",
      "type": "function"
    },
    {
      "inputs": [],
      "name": "releaseVestedTokens",
      "outputs": [],
      "stateMutability": "nonpayable",
      "type": "function"
    },
    {
      "inputs": [],
      "name": "renounceOwnership",
      "outputs": [],
      "stateMutability": "nonpayable",
      "type": "function"
    },
    {
      "inputs": [],
      "name": "startSale",
      "outputs": [],
      "stateMutability": "nonpayable",
      "type": "function"
    },
    {
      "inputs": [],
      "name": "startTimestamp",
      "outputs": [
        {
          "internalType": "uint256",
          "name": "",
          "type": "uint256"
        }
      ],
      "stateMutability": "view",
      "type": "function"
    },
    {
      "inputs": [],
      "name": "token",
      "outputs": [
        {
          "internalType": "contract IERC20",
          "name": "",
          "type": "address"
        }
      ],
      "stateMutability": "view",
      "type": "function"
    },
    {
      "inputs": [],
      "name": "tokensPerETh",
      "outputs": [
        {
          "internalType": "uint256",
          "name": "",
          "type": "uint256"
        }
      ],
      "stateMutability": "view",
      "type": "function"
    },
    {
      "inputs": [],
      "name": "totalTokens",
      "outputs": [
        {
          "internalType": "uint256",
          "name": "",
          "type": "uint256"
        }
      ],
      "stateMutability": "view",
      "type": "function"
    },
    {
      "inputs": [
        {
          "internalType": "address",
          "name": "newOwner",
          "type": "address"
        }
      ],
      "name": "transferOwnership",
      "outputs": [],
      "stateMutability": "nonpayable",
      "type": "function"
    },
    {
      "inputs": [
        {
          "internalType": "address",
          "name": "",
          "type": "address"
        }
      ],
      "name": "vestingStartTime",
      "outputs": [
        {
          "internalType": "uint256",
          "name": "",
          "type": "uint256"
        }
      ],
      "stateMutability": "view",
      "type": "function"
    },
    {
      "inputs": [],
      "name": "vestingTime",
      "outputs": [
        {
          "internalType": "uint256",
          "name": "",
          "type": "uint256"
        }
      ],
      "stateMutability": "view",
      "type": "function"
    },
    {
      "inputs": [],
      "name": "withdrawEth",
      "outputs": [],
      "stateMutability": "nonpayable",
      "type": "function"
    },
    {
      "inputs": [],
      "name": "withdrawStuckTokens",
      "outputs": [],
      "stateMutability": "nonpayable",
      "type": "function"
    },
    {
      "stateMutability": "payable",
      "type": "receive"
    }
  ],
  "bytecode": "0x60806040523480156200001157600080fd5b50604051620027c3380380620027c3833981810160405281019062000037919062000419565b620000576200004b6200029460201b60201c565b6200029c60201b60201c565b60018081905550600073ffffffffffffffffffffffffffffffffffffffff168573ffffffffffffffffffffffffffffffffffffffff1603620000d0576040517f08c379a0000000000000000000000000000000000000000000000000000000008152600401620000c79062000528565b60405180910390fd5b83831162000115576040517f08c379a00000000000000000000000000000000000000000000000000000000081526004016200010c90620005c0565b60405180910390fd5b8082106200015a576040517f08c379a0000000000000000000000000000000000000000000000000000000008152600401620001519062000658565b60405180910390fd5b84600260006101000a81548173ffffffffffffffffffffffffffffffffffffffff021916908373ffffffffffffffffffffffffffffffffffffffff160217905550600260009054906101000a900473ffffffffffffffffffffffffffffffffffffffff1673ffffffffffffffffffffffffffffffffffffffff1663313ce5676040518163ffffffff1660e01b8152600401602060405180830381865afa15801562000209573d6000803e3d6000fd5b505050506040513d601f19601f820116820180604052508101906200022f9190620006b8565b600a6200023d91906200086d565b620f42406200024d9190620008be565b600481905550834262000261919062000909565b600581905550824262000275919062000909565b6006819055508160078190555080600881905550505050505062000944565b600033905090565b60008060009054906101000a900473ffffffffffffffffffffffffffffffffffffffff169050816000806101000a81548173ffffffffffffffffffffffffffffffffffffffff021916908373ffffffffffffffffffffffffffffffffffffffff1602179055508173ffffffffffffffffffffffffffffffffffffffff168173ffffffffffffffffffffffffffffffffffffffff167f8be0079c531659141344cd1fd0a4f28419497f9722a3daafe3b4186f6b6457e060405160405180910390a35050565b600080fd5b600073ffffffffffffffffffffffffffffffffffffffff82169050919050565b6000620003928262000365565b9050919050565b6000620003a68262000385565b9050919050565b620003b88162000399565b8114620003c457600080fd5b50565b600081519050620003d881620003ad565b92915050565b6000819050919050565b620003f381620003de565b8114620003ff57600080fd5b50565b6000815190506200041381620003e8565b92915050565b600080600080600060a0868803121562000438576200043762000360565b5b60006200044888828901620003c7565b95505060206200045b8882890162000402565b94505060406200046e8882890162000402565b9350506060620004818882890162000402565b9250506080620004948882890162000402565b9150509295509295909350565b600082825260208201905092915050565b7f43726f776473616c653a20546f6b656e20616464726573732063616e6e6f742060008201527f6265207a65726f00000000000000000000000000000000000000000000000000602082015250565b600062000510602783620004a1565b91506200051d82620004b2565b604082019050919050565b60006020820190508181036000830152620005438162000501565b9050919050565b7f43726f776473616c653a20456e642074696d65206d757374206265206166746560008201527f722073746172742074696d650000000000000000000000000000000000000000602082015250565b6000620005a8602c83620004a1565b9150620005b5826200054a565b604082019050919050565b60006020820190508181036000830152620005db8162000599565b9050919050565b7f436c6966662074696d652073686f756c64206265206c657373207468616e207660008201527f657374696e672074696d65000000000000000000000000000000000000000000602082015250565b600062000640602b83620004a1565b91506200064d82620005e2565b604082019050919050565b60006020820190508181036000830152620006738162000631565b9050919050565b600060ff82169050919050565b62000692816200067a565b81146200069e57600080fd5b50565b600081519050620006b28162000687565b92915050565b600060208284031215620006d157620006d062000360565b5b6000620006e184828501620006a1565b91505092915050565b7f4e487b7100000000000000000000000000000000000000000000000000000000600052601160045260246000fd5b60008160011c9050919050565b6000808291508390505b6001851115620007785780860481111562000750576200074f620006ea565b5b6001851615620007605780820291505b8081029050620007708562000719565b945062000730565b94509492505050565b60008262000793576001905062000866565b81620007a3576000905062000866565b8160018114620007bc5760028114620007c757620007fd565b600191505062000866565b60ff841115620007dc57620007db620006ea565b5b8360020a915084821115620007f657620007f5620006ea565b5b5062000866565b5060208310610133831016604e8410600b8410161715620008375782820a905083811115620008315762000830620006ea565b5b62000866565b62000846848484600162000726565b9250905081840481111562000860576200085f620006ea565b5b81810290505b9392505050565b60006200087a82620003de565b915062000887836200067a565b9250620008b67fffffffffffffffffffffffffffffffffffffffffffffffffffffffffffffffff848462000781565b905092915050565b6000620008cb82620003de565b9150620008d883620003de565b9250828202620008e881620003de565b91508282048414831517620009025762000901620006ea565b5b5092915050565b60006200091682620003de565b91506200092383620003de565b92508282019050808211156200093e576200093d620006ea565b5b92915050565b611e6f80620009546000396000f3fe60806040526004361061014f5760003560e01c80638da5cb5b116100b6578063e3c203691161006f578063e3c20369146103fc578063e6fd48bc14610427578063ea63fb2614610452578063f2fde38b1461048f578063fc0c546a146104b8578063fff1939c146104e357610156565b80638da5cb5b14610343578063a0ef91df1461036e578063a85adeab14610385578063b66a0e5d146103b0578063c7dab436146103c7578063d0febe4c146103f257610156565b8063564566a811610108578063564566a81461027d5780635fbaa390146102a8578063715018a6146102bf5780637e1c0c09146102d65780638183b3c81461030157806382b2e2571461031857610156565b806303f891bd1461015b5780630f1a6444146101845780631726cbc8146101af57806327e235e3146101ec578063420797c81461022957806354dd1da41461026657610156565b3661015657005b600080fd5b34801561016757600080fd5b50610182600480360381019061017d919061135b565b61050c565b005b34801561019057600080fd5b5061019961051e565b6040516101a69190611397565b60405180910390f35b3480156101bb57600080fd5b506101d660048036038101906101d19190611410565b610524565b6040516101e39190611397565b60405180910390f35b3480156101f857600080fd5b50610213600480360381019061020e9190611410565b6106f0565b6040516102209190611397565b60405180910390f35b34801561023557600080fd5b50610250600480360381019061024b919061135b565b610708565b60405161025d9190611397565b60405180910390f35b34801561027257600080fd5b5061027b6107d4565b005b34801561028957600080fd5b5061029261096d565b60405161029f9190611458565b60405180910390f35b3480156102b457600080fd5b506102bd610980565b005b3480156102cb57600080fd5b506102d46109f4565b005b3480156102e257600080fd5b506102eb610a08565b6040516102f89190611397565b60405180910390f35b34801561030d57600080fd5b50610316610a0e565b005b34801561032457600080fd5b5061032d610b09565b60405161033a9190611397565b60405180910390f35b34801561034f57600080fd5b50610358610bac565b6040516103659190611482565b60405180910390f35b34801561037a57600080fd5b50610383610bd5565b005b34801561039157600080fd5b5061039a610c26565b6040516103a79190611397565b60405180910390f35b3480156103bc57600080fd5b506103c5610c2c565b005b3480156103d357600080fd5b506103dc610ca1565b6040516103e99190611397565b60405180910390f35b6103fa610ca7565b005b34801561040857600080fd5b50610411610f32565b60405161041e9190611397565b60405180910390f35b34801561043357600080fd5b5061043c610f38565b6040516104499190611397565b60405180910390f35b34801561045e57600080fd5b5061047960048036038101906104749190611410565b610f3e565b6040516104869190611397565b60405180910390f35b34801561049b57600080fd5b506104b660048036038101906104b19190611410565b610f56565b005b3480156104c457600080fd5b506104cd610fd9565b6040516104da91906114fc565b60405180910390f35b3480156104ef57600080fd5b5061050a6004803603810190610505919061135b565b610fff565b005b6105146110c8565b8060048190555050565b60075481565b600061057a600754600b60008573ffffffffffffffffffffffffffffffffffffffff1673ffffffffffffffffffffffffffffffffffffffff1681526020019081526020016000205461114690919063ffffffff16565b42101561058a57600090506106eb565b6105de600854600b60008573ffffffffffffffffffffffffffffffffffffffff1673ffffffffffffffffffffffffffffffffffffffff1681526020019081526020016000205461114690919063ffffffff16565b421061062b57600a60008373ffffffffffffffffffffffffffffffffffffffff1673ffffffffffffffffffffffffffffffffffffffff1681526020019081526020016000205490506106eb565b60006106e46008546106d6610688600b60008873ffffffffffffffffffffffffffffffffffffffff1673ffffffffffffffffffffffffffffffffffffffff168152602001908152602001600020544261117290919063ffffffff16565b600a60008873ffffffffffffffffffffffffffffffffffffffff1673ffffffffffffffffffffffffffffffffffffffff1681526020019081526020016000205461119990919063ffffffff16565b6111e190919063ffffffff16565b9050809150505b919050565b600a6020528060005260406000206000915090505481565b60006107cd600260009054906101000a900473ffffffffffffffffffffffffffffffffffffffff1673ffffffffffffffffffffffffffffffffffffffff1663313ce5676040518163ffffffff1660e01b8152600401602060405180830381865afa15801561077a573d6000803e3d6000fd5b505050506040513d601f19601f8201168201806040525081019061079e9190611550565b600a6107aa91906116df565b6107bf6004548561119990919063ffffffff16565b6111e190919063ffffffff16565b9050919050565b6107dc6111fc565b60006107e733610524565b90506000811161082c576040517f08c379a000000000000000000000000000000000000000000000000000000000815260040161082390611787565b60405180910390fd5b600260009054906101000a900473ffffffffffffffffffffffffffffffffffffffff1673ffffffffffffffffffffffffffffffffffffffff1663a9059cbb33836040518363ffffffff1660e01b81526004016108899291906117a7565b6020604051808303816000875af11580156108a8573d6000803e3d6000fd5b505050506040513d601f19601f820116820180604052508101906108cc91906117fc565b5061091f81600a60003373ffffffffffffffffffffffffffffffffffffffff1673ffffffffffffffffffffffffffffffffffffffff1681526020019081526020016000205461117290919063ffffffff16565b600a60003373ffffffffffffffffffffffffffffffffffffffff1673ffffffffffffffffffffffffffffffffffffffff168152602001908152602001600020819055505061096b61124b565b565b600960009054906101000a900460ff1681565b6109886110c8565b600960009054906101000a900460ff166109d7576040517f08c379a00000000000000000000000000000000000000000000000000000000081526004016109ce90611875565b60405180910390fd5b6000600960006101000a81548160ff021916908315150217905550565b6109fc6110c8565b610a066000611254565b565b60035481565b610a166110c8565b6000610a20610b09565b905060008111610a65576040517f08c379a0000000000000000000000000000000000000000000000000000000008152600401610a5c906118e1565b60405180910390fd5b600260009054906101000a900473ffffffffffffffffffffffffffffffffffffffff1673ffffffffffffffffffffffffffffffffffffffff1663a9059cbb33836040518363ffffffff1660e01b8152600401610ac29291906117a7565b6020604051808303816000875af1158015610ae1573d6000803e3d6000fd5b505050506040513d601f19601f82011682018060405250810190610b0591906117fc565b5050565b6000600260009054906101000a900473ffffffffffffffffffffffffffffffffffffffff1673ffffffffffffffffffffffffffffffffffffffff166370a08231306040518263ffffffff1660e01b8152600401610b669190611482565b602060405180830381865afa158015610b83573d6000803e3d6000fd5b505050506040513d601f19601f82011682018060405250810190610ba79190611916565b905090565b60008060009054906101000a900473ffffffffffffffffffffffffffffffffffffffff16905090565b610bdd6110c8565b3373ffffffffffffffffffffffffffffffffffffffff166108fc479081150290604051600060405180830381858888f19350505050158015610c23573d6000803e3d6000fd5b50565b60065481565b610c346110c8565b600960009054906101000a900460ff1615610c84576040517f08c379a0000000000000000000000000000000000000000000000000000000008152600401610c7b9061198f565b60405180910390fd5b6001600960006101000a81548160ff021916908315150217905550565b60085481565b6005544210158015610cba575060065442105b610cf9576040517f08c379a0000000000000000000000000000000000000000000000000000000008152600401610cf0906119fb565b60405180910390fd5b610d016111fc565b600960009054906101000a900460ff16610d50576040517f08c379a0000000000000000000000000000000000000000000000000000000008152600401610d4790611a67565b60405180910390fd5b60003411610d93576040517f08c379a0000000000000000000000000000000000000000000000000000000008152600401610d8a90611ad3565b60405180910390fd5b6000610d9e34610708565b9050600354811115610de5576040517f08c379a0000000000000000000000000000000000000000000000000000000008152600401610ddc90611b3f565b60405180910390fd5b610dfa8160035461117290919063ffffffff16565b60038190555042600b60003373ffffffffffffffffffffffffffffffffffffffff1673ffffffffffffffffffffffffffffffffffffffff16815260200190815260200160002081905550610e9681600a60003373ffffffffffffffffffffffffffffffffffffffff1673ffffffffffffffffffffffffffffffffffffffff1681526020019081526020016000205461114690919063ffffffff16565b600a60003373ffffffffffffffffffffffffffffffffffffffff1673ffffffffffffffffffffffffffffffffffffffff168152602001908152602001600020819055503373ffffffffffffffffffffffffffffffffffffffff167f8f28852646c20cc973d3a8218f7eefed58c25c909f78f0265af4818c3d4dc27182604051610f1f9190611397565b60405180910390a250610f3061124b565b565b60045481565b60055481565b600b6020528060005260406000206000915090505481565b610f5e6110c8565b600073ffffffffffffffffffffffffffffffffffffffff168173ffffffffffffffffffffffffffffffffffffffff1603610fcd576040517f08c379a0000000000000000000000000000000000000000000000000000000008152600401610fc490611bd1565b60405180910390fd5b610fd681611254565b50565b600260009054906101000a900473ffffffffffffffffffffffffffffffffffffffff1681565b6110076110c8565b600260009054906101000a900473ffffffffffffffffffffffffffffffffffffffff1673ffffffffffffffffffffffffffffffffffffffff166323b872dd3330846040518463ffffffff1660e01b815260040161106693929190611bf1565b6020604051808303816000875af1158015611085573d6000803e3d6000fd5b505050506040513d601f19601f820116820180604052508101906110a991906117fc565b506110bf8160035461114690919063ffffffff16565b60038190555050565b6110d0611318565b73ffffffffffffffffffffffffffffffffffffffff166110ee610bac565b73ffffffffffffffffffffffffffffffffffffffff1614611144576040517f08c379a000000000000000000000000000000000000000000000000000000000815260040161113b90611c74565b60405180910390fd5b565b60008082846111559190611c94565b90508381101561116857611167611cc8565b5b8091505092915050565b60008282111561118557611184611cc8565b5b81836111919190611cf7565b905092915050565b60008083036111ab57600090506111db565b600082846111b99190611d2b565b90508284826111c89190611d9c565b146111d6576111d5611cc8565b5b809150505b92915050565b60008082846111f09190611d9c565b90508091505092915050565b600260015403611241576040517f08c379a000000000000000000000000000000000000000000000000000000000815260040161123890611e19565b60405180910390fd5b6002600181905550565b60018081905550565b60008060009054906101000a900473ffffffffffffffffffffffffffffffffffffffff169050816000806101000a81548173ffffffffffffffffffffffffffffffffffffffff021916908373ffffffffffffffffffffffffffffffffffffffff1602179055508173ffffffffffffffffffffffffffffffffffffffff168173ffffffffffffffffffffffffffffffffffffffff167f8be0079c531659141344cd1fd0a4f28419497f9722a3daafe3b4186f6b6457e060405160405180910390a35050565b600033905090565b600080fd5b6000819050919050565b61133881611325565b811461134357600080fd5b50565b6000813590506113558161132f565b92915050565b60006020828403121561137157611370611320565b5b600061137f84828501611346565b91505092915050565b61139181611325565b82525050565b60006020820190506113ac6000830184611388565b92915050565b600073ffffffffffffffffffffffffffffffffffffffff82169050919050565b60006113dd826113b2565b9050919050565b6113ed816113d2565b81146113f857600080fd5b50565b60008135905061140a816113e4565b92915050565b60006020828403121561142657611425611320565b5b6000611434848285016113fb565b91505092915050565b60008115159050919050565b6114528161143d565b82525050565b600060208201905061146d6000830184611449565b92915050565b61147c816113d2565b82525050565b60006020820190506114976000830184611473565b92915050565b6000819050919050565b60006114c26114bd6114b8846113b2565b61149d565b6113b2565b9050919050565b60006114d4826114a7565b9050919050565b60006114e6826114c9565b9050919050565b6114f6816114db565b82525050565b600060208201905061151160008301846114ed565b92915050565b600060ff82169050919050565b61152d81611517565b811461153857600080fd5b50565b60008151905061154a81611524565b92915050565b60006020828403121561156657611565611320565b5b60006115748482850161153b565b91505092915050565b7f4e487b7100000000000000000000000000000000000000000000000000000000600052601160045260246000fd5b60008160011c9050919050565b6000808291508390505b6001851115611603578086048111156115df576115de61157d565b5b60018516156115ee5780820291505b80810290506115fc856115ac565b94506115c3565b94509492505050565b60008261161c57600190506116d8565b8161162a57600090506116d8565b8160018114611640576002811461164a57611679565b60019150506116d8565b60ff84111561165c5761165b61157d565b5b8360020a9150848211156116735761167261157d565b5b506116d8565b5060208310610133831016604e8410600b84101617156116ae5782820a9050838111156116a9576116a861157d565b5b6116d8565b6116bb84848460016115b9565b925090508184048111156116d2576116d161157d565b5b81810290505b9392505050565b60006116ea82611325565b91506116f583611517565b92506117227fffffffffffffffffffffffffffffffffffffffffffffffffffffffffffffffff848461160c565b905092915050565b600082825260208201905092915050565b7f43726f776473616c653a204e6f20746f6b656e7320746f2072656c6561736500600082015250565b6000611771601f8361172a565b915061177c8261173b565b602082019050919050565b600060208201905081810360008301526117a081611764565b9050919050565b60006040820190506117bc6000830185611473565b6117c96020830184611388565b9392505050565b6117d98161143d565b81146117e457600080fd5b50565b6000815190506117f6816117d0565b92915050565b60006020828403121561181257611811611320565b5b6000611820848285016117e7565b91505092915050565b7f53616c65206973206e6f74206163746976650000000000000000000000000000600082015250565b600061185f60128361172a565b915061186a82611829565b602082019050919050565b6000602082019050818103600083015261188e81611852565b9050919050565b7f4e6f7420656e6f75676820746f6b656e73000000000000000000000000000000600082015250565b60006118cb60118361172a565b91506118d682611895565b602082019050919050565b600060208201905081810360008301526118fa816118be565b9050919050565b6000815190506119108161132f565b92915050565b60006020828403121561192c5761192b611320565b5b600061193a84828501611901565b91505092915050565b7f53616c6520697320616c72656164792061637469766500000000000000000000600082015250565b600061197960168361172a565b915061198482611943565b602082019050919050565b600060208201905081810360008301526119a88161196c565b9050919050565b7f43726f776473616c653a2053616c65206e6f7420616374697665000000000000600082015250565b60006119e5601a8361172a565b91506119f0826119af565b602082019050919050565b60006020820190508181036000830152611a14816119d8565b9050919050565b7f43726f776473616c653a2053616c65206973206e6f7420616374697665000000600082015250565b6000611a51601d8361172a565b9150611a5c82611a1b565b602082019050919050565b60006020820190508181036000830152611a8081611a44565b9050919050565b7f4e6f7420656e6f75676820616d6f756e74207061696400000000000000000000600082015250565b6000611abd60168361172a565b9150611ac882611a87565b602082019050919050565b60006020820190508181036000830152611aec81611ab0565b9050919050565b7f4e6f7420656e6f75676820746f6b656e7320696e2073616c6500000000000000600082015250565b6000611b2960198361172a565b9150611b3482611af3565b602082019050919050565b60006020820190508181036000830152611b5881611b1c565b9050919050565b7f4f776e61626c653a206e6577206f776e657220697320746865207a65726f206160008201527f6464726573730000000000000000000000000000000000000000000000000000602082015250565b6000611bbb60268361172a565b9150611bc682611b5f565b604082019050919050565b60006020820190508181036000830152611bea81611bae565b9050919050565b6000606082019050611c066000830186611473565b611c136020830185611473565b611c206040830184611388565b949350505050565b7f4f776e61626c653a2063616c6c6572206973206e6f7420746865206f776e6572600082015250565b6000611c5e60208361172a565b9150611c6982611c28565b602082019050919050565b60006020820190508181036000830152611c8d81611c51565b9050919050565b6000611c9f82611325565b9150611caa83611325565b9250828201905080821115611cc257611cc161157d565b5b92915050565b7f4e487b7100000000000000000000000000000000000000000000000000000000600052600160045260246000fd5b6000611d0282611325565b9150611d0d83611325565b9250828203905081811115611d2557611d2461157d565b5b92915050565b6000611d3682611325565b9150611d4183611325565b9250828202611d4f81611325565b91508282048414831517611d6657611d6561157d565b5b5092915050565b7f4e487b7100000000000000000000000000000000000000000000000000000000600052601260045260246000fd5b6000611da782611325565b9150611db283611325565b925082611dc257611dc1611d6d565b5b828204905092915050565b7f5265656e7472616e637947756172643a207265656e7472616e742063616c6c00600082015250565b6000611e03601f8361172a565b9150611e0e82611dcd565b602082019050919050565b60006020820190508181036000830152611e3281611df6565b905091905056fea2646970667358221220843ecbd72f9facdb5af6a65f8e6f8d42dfe573c570d49e12ee6120c2c03be62264736f6c63430008130033",
  "linkReferences": {},
  "deployedLinkReferences": {}
}