{
  "_format": "hh-sol-artifact-1",
  "contractName": "ArabianHorses",
  "sourceName": "contracts/token.sol",
  "abi": [
    {
      "inputs": [],
      "stateMutability": "nonpayable",
      "type": "constructor"
    },
    {
      "anonymous": false,
      "inputs": [
        {
          "indexed": true,
          "internalType": "address",
          "name": "owner",
          "type": "address"
        },
        {
          "indexed": true,
          "internalType": "address",
          "name": "spender",
          "type": "address"
        },
        {
          "indexed": false,
          "internalType": "uint256",
          "name": "value",
          "type": "uint256"
        }
      ],
      "name": "Approval",
      "type": "event"
    },
    {
      "anonymous": false,
      "inputs": [
        {
          "indexed": true,
          "internalType": "address",
          "name": "previousOwner",
          "type": "address"
        },
        {
          "indexed": true,
          "internalType": "address",
          "name": "newOwner",
          "type": "address"
        }
      ],
      "name": "OwnershipTransferred",
      "type": "event"
    },
    {
      "anonymous": false,
      "inputs": [
        {
          "indexed": true,
          "internalType": "address",
          "name": "from",
          "type": "address"
        },
        {
          "indexed": true,
          "internalType": "address",
          "name": "to",
          "type": "address"
        },
        {
          "indexed": false,
          "internalType": "uint256",
          "name": "value",
          "type": "uint256"
        }
      ],
      "name": "Transfer",
      "type": "event"
    },
    {
      "inputs": [],
      "name": "_buyCount",
      "outputs": [
        {
          "internalType": "uint256",
          "name": "",
          "type": "uint256"
        }
      ],
      "stateMutability": "view",
      "type": "function"
    },
    {
      "inputs": [
        {
          "internalType": "address",
          "name": "",
          "type": "address"
        }
      ],
      "name": "_isExcludedFromLock",
      "outputs": [
        {
          "internalType": "bool",
          "name": "",
          "type": "bool"
        }
      ],
      "stateMutability": "view",
      "type": "function"
    },
    {
      "inputs": [
        {
          "internalType": "address",
          "name": "owner",
          "type": "address"
        },
        {
          "internalType": "address",
          "name": "spender",
          "type": "address"
        }
      ],
      "name": "allowance",
      "outputs": [
        {
          "internalType": "uint256",
          "name": "",
          "type": "uint256"
        }
      ],
      "stateMutability": "view",
      "type": "function"
    },
    {
      "inputs": [
        {
          "internalType": "address",
          "name": "spender",
          "type": "address"
        },
        {
          "internalType": "uint256",
          "name": "amount",
          "type": "uint256"
        }
      ],
      "name": "approve",
      "outputs": [
        {
          "internalType": "bool",
          "name": "",
          "type": "bool"
        }
      ],
      "stateMutability": "nonpayable",
      "type": "function"
    },
    {
      "inputs": [
        {
          "internalType": "address",
          "name": "account",
          "type": "address"
        }
      ],
      "name": "balanceOf",
      "outputs": [
        {
          "internalType": "uint256",
          "name": "",
          "type": "uint256"
        }
      ],
      "stateMutability": "view",
      "type": "function"
    },
    {
      "inputs": [
        {
          "internalType": "uint256",
          "name": "amount",
          "type": "uint256"
        }
      ],
      "name": "burn",
      "outputs": [],
      "stateMutability": "nonpayable",
      "type": "function"
    },
    {
      "inputs": [],
      "name": "decimals",
      "outputs": [
        {
          "internalType": "uint8",
          "name": "",
          "type": "uint8"
        }
      ],
      "stateMutability": "pure",
      "type": "function"
    },
    {
      "inputs": [
        {
          "internalType": "bool",
          "name": "_state",
          "type": "bool"
        }
      ],
      "name": "enableOrDisableLock",
      "outputs": [],
      "stateMutability": "nonpayable",
      "type": "function"
    },
    {
      "inputs": [
        {
          "internalType": "address",
          "name": "router",
          "type": "address"
        },
        {
          "internalType": "address",
          "name": "pair",
          "type": "address"
        }
      ],
      "name": "enableTrading",
      "outputs": [],
      "stateMutability": "nonpayable",
      "type": "function"
    },
    {
      "inputs": [
        {
          "internalType": "address",
          "name": "_addr",
          "type": "address"
        },
        {
          "internalType": "bool",
          "name": "_state",
          "type": "bool"
        }
      ],
      "name": "includeOrExcludeFromLock",
      "outputs": [],
      "stateMutability": "nonpayable",
      "type": "function"
    },
    {
      "inputs": [
        {
          "internalType": "address",
          "name": "",
          "type": "address"
        }
      ],
      "name": "lastBuyTimestamp",
      "outputs": [
        {
          "internalType": "uint256",
          "name": "",
          "type": "uint256"
        }
      ],
      "stateMutability": "view",
      "type": "function"
    },
    {
      "inputs": [],
      "name": "lockEnabled",
      "outputs": [
        {
          "internalType": "bool",
          "name": "",
          "type": "bool"
        }
      ],
      "stateMutability": "view",
      "type": "function"
    },
    {
      "inputs": [],
      "name": "lockedSupply",
      "outputs": [
        {
          "internalType": "uint256",
          "name": "",
          "type": "uint256"
        }
      ],
      "stateMutability": "view",
      "type": "function"
    },
    {
      "inputs": [
        {
          "internalType": "address",
          "name": "account",
          "type": "address"
        },
        {
          "internalType": "uint256",
          "name": "amount",
          "type": "uint256"
        }
      ],
      "name": "mint",
      "outputs": [],
      "stateMutability": "nonpayable",
      "type": "function"
    },
    {
      "inputs": [],
      "name": "name",
      "outputs": [
        {
          "internalType": "string",
          "name": "",
          "type": "string"
        }
      ],
      "stateMutability": "pure",
      "type": "function"
    },
    {
      "inputs": [],
      "name": "owner",
      "outputs": [
        {
          "internalType": "address",
          "name": "",
          "type": "address"
        }
      ],
      "stateMutability": "view",
      "type": "function"
    },
    {
      "inputs": [],
      "name": "renounceOwnership",
      "outputs": [],
      "stateMutability": "nonpayable",
      "type": "function"
    },
    {
      "inputs": [],
      "name": "sellLockedTime",
      "outputs": [
        {
          "internalType": "uint256",
          "name": "",
          "type": "uint256"
        }
      ],
      "stateMutability": "view",
      "type": "function"
    },
    {
      "inputs": [
        {
          "internalType": "uint256",
          "name": "_time",
          "type": "uint256"
        }
      ],
      "name": "setSellLockPeriod",
      "outputs": [],
      "stateMutability": "nonpayable",
      "type": "function"
    },
    {
      "inputs": [],
      "name": "symbol",
      "outputs": [
        {
          "internalType": "string",
          "name": "",
          "type": "string"
        }
      ],
      "stateMutability": "pure",
      "type": "function"
    },
    {
      "inputs": [],
      "name": "totalSupply",
      "outputs": [
        {
          "internalType": "uint256",
          "name": "",
          "type": "uint256"
        }
      ],
      "stateMutability": "view",
      "type": "function"
    },
    {
      "inputs": [
        {
          "internalType": "address",
          "name": "recipient",
          "type": "address"
        },
        {
          "internalType": "uint256",
          "name": "amount",
          "type": "uint256"
        }
      ],
      "name": "transfer",
      "outputs": [
        {
          "internalType": "bool",
          "name": "",
          "type": "bool"
        }
      ],
      "stateMutability": "nonpayable",
      "type": "function"
    },
    {
      "inputs": [
        {
          "internalType": "address",
          "name": "sender",
          "type": "address"
        },
        {
          "internalType": "address",
          "name": "recipient",
          "type": "address"
        },
        {
          "internalType": "uint256",
          "name": "amount",
          "type": "uint256"
        }
      ],
      "name": "transferFrom",
      "outputs": [
        {
          "internalType": "bool",
          "name": "",
          "type": "bool"
        }
      ],
      "stateMutability": "nonpayable",
      "type": "function"
    },
    {
      "inputs": [],
      "name": "withDrawETH",
      "outputs": [],
      "stateMutability": "nonpayable",
      "type": "function"
    },
    {
      "inputs": [],
      "name": "withdrawLockedTokens",
      "outputs": [],
      "stateMutability": "nonpayable",
      "type": "function"
    },
    {
      "stateMutability": "payable",
      "type": "receive"
    }
  ],
  "bytecode": "0x60806040526000600555620000176012600a62000284565b62000028906402540be4006200029c565b6006556009805460ff191660011790553480156200004557600080fd5b50600080546001600160a01b031916339081178255604051909182917f8be0079c531659141344cd1fd0a4f28419497f9722a3daafe3b4186f6b6457e0908290a350606460065460146200009a91906200029c565b620000a69190620002b6565b6007819055600654600091620000bc91620002d9565b336000818152600160208181526040808420869055600754308086528286209190915584546001600160a01b0316855260038352818520805460ff19908116861790915590855281852080549091169093179092556276a70060085590518481529394509192909160008051602062001608833981519152910160405180910390a36007546040519081523090600090600080516020620016088339815191529060200160405180910390a350620002ef565b634e487b7160e01b600052601160045260246000fd5b600181815b80851115620001c6578160001904821115620001aa57620001aa6200016f565b80851615620001b857918102915b93841c93908002906200018a565b509250929050565b600082620001df575060016200027e565b81620001ee575060006200027e565b8160018114620002075760028114620002125762000232565b60019150506200027e565b60ff8411156200022657620002266200016f565b50506001821b6200027e565b5060208310610133831016604e8410600b841016171562000257575081810a6200027e565b62000263838362000185565b80600019048211156200027a576200027a6200016f565b0290505b92915050565b60006200029560ff841683620001ce565b9392505050565b80820281158282048414176200027e576200027e6200016f565b600082620002d457634e487b7160e01b600052601260045260246000fd5b500490565b818103818111156200027e576200027e6200016f565b61130980620002ff6000396000f3fe60806040526004361061016a5760003560e01c80636b246db7116100d157806395d89b411161008a578063ca5c7b9111610064578063ca5c7b9114610457578063dd62ed3e1461046d578063de48abf4146104b3578063ef7898d0146104c857600080fd5b806395d89b41146103ea578063a9059cbb14610417578063b14216a01461043757600080fd5b80636b246db7146103215780636b6c3a35146103375780636f9fb2511461035757806370a0823114610377578063715018a6146103ad5780638da5cb5b146103c257600080fd5b8063313ce56711610123578063313ce5671461025b5780633166b8481461027757806340c10f191461029157806342966c68146102b157806344e351d7146102d157806358cd498a146102f157600080fd5b806306fdde0314610176578063095ea7b3146101bf57806318160ddd146101ef57806323b872dd1461020e578063269cdaac1461022e57806327b1a8e91461024557600080fd5b3661017157005b600080fd5b34801561018257600080fd5b5060408051808201909152600e81526d4172616269616e20686f7273657360901b60208201525b6040516101b69190611095565b60405180910390f35b3480156101cb57600080fd5b506101df6101da3660046110ff565b6104f5565b60405190151581526020016101b6565b3480156101fb57600080fd5b506006545b6040519081526020016101b6565b34801561021a57600080fd5b506101df610229366004611129565b61050c565b34801561023a57600080fd5b50610243610575565b005b34801561025157600080fd5b5061020060055481565b34801561026757600080fd5b50604051601281526020016101b6565b34801561028357600080fd5b506009546101df9060ff1681565b34801561029d57600080fd5b506102436102ac3660046110ff565b610615565b3480156102bd57600080fd5b506102436102cc366004611165565b610701565b3480156102dd57600080fd5b506102436102ec36600461118e565b61083c565b3480156102fd57600080fd5b506101df61030c3660046111a9565b60036020526000908152604090205460ff1681565b34801561032d57600080fd5b5061020060085481565b34801561034357600080fd5b506102436103523660046111c4565b610879565b34801561036357600080fd5b506102436103723660046111f7565b6108e2565b34801561038357600080fd5b506102006103923660046111a9565b6001600160a01b031660009081526001602052604090205490565b3480156103b957600080fd5b50610243610937565b3480156103ce57600080fd5b506000546040516001600160a01b0390911681526020016101b6565b3480156103f657600080fd5b50604080518082019091526004815263082a484960e31b60208201526101a9565b34801561042357600080fd5b506101df6104323660046110ff565b6109ab565b34801561044357600080fd5b50610243610452366004611165565b6109b8565b34801561046357600080fd5b5061020060075481565b34801561047957600080fd5b506102006104883660046111c4565b6001600160a01b03918216600090815260026020908152604080832093909416825291909152205490565b3480156104bf57600080fd5b506102436109e7565b3480156104d457600080fd5b506102006104e33660046111a9565b60046020526000908152604090205481565b6000610502338484610a8c565b5060015b92915050565b6000610519848484610bb1565b61056b8433610566856040518060600160405280602881526020016112ac602891396001600160a01b038a1660009081526002602090815260408083203384529091529020549190610fb3565b610a8c565b5060019392505050565b6000546001600160a01b031633146105a85760405162461bcd60e51b815260040161059f90611221565b60405180910390fd5b600754806105f15760405162461bcd60e51b81526020600482015260166024820152754e6f2062616c616e636520746f20776974686472617760501b604482015260640161059f565b60006007556106123061060c6000546001600160a01b031690565b83610bb1565b50565b6000546001600160a01b0316331461063f5760405162461bcd60e51b815260040161059f90611221565b6001600160a01b0382166106955760405162461bcd60e51b815260206004820152601f60248201527f45524332303a206d696e7420746f20746865207a65726f206164647265737300604482015260640161059f565b80600660008282546106a7919061126c565b90915550506001600160a01b0382166000818152600160209081526040808320805486019055518481527fddf252ad1be2c89b69c2b068fc378daa952ba7f163c4a11628f55a4df523b3ef91015b60405180910390a35050565b6000546001600160a01b0316331461072b5760405162461bcd60e51b815260040161059f90611221565b336107825760405162461bcd60e51b815260206004820152602160248201527f45524332303a206275726e2066726f6d20746865207a65726f206164647265736044820152607360f81b606482015260840161059f565b33600090815260016020526040902054818110156107ed5760405162461bcd60e51b815260206004820152602260248201527f45524332303a206275726e20616d6f756e7420657863656564732062616c616e604482015261636560f01b606482015260840161059f565b3360008181526001602090815260408083208686039055600680548790039055518581529192917fddf252ad1be2c89b69c2b068fc378daa952ba7f163c4a11628f55a4df523b3ef91016106f5565b6000546001600160a01b031633146108665760405162461bcd60e51b815260040161059f90611221565b6009805460ff1916911515919091179055565b6000546001600160a01b031633146108a35760405162461bcd60e51b815260040161059f90611221565b60098054610100610100600160b01b0319909116620100006001600160a01b039586160217179055600a80546001600160a01b03191691909216179055565b6000546001600160a01b0316331461090c5760405162461bcd60e51b815260040161059f90611221565b6001600160a01b03919091166000908152600360205260409020805460ff1916911515919091179055565b6000546001600160a01b031633146109615760405162461bcd60e51b815260040161059f90611221565b600080546040516001600160a01b03909116907f8be0079c531659141344cd1fd0a4f28419497f9722a3daafe3b4186f6b6457e0908390a3600080546001600160a01b0319169055565b6000610502338484610bb1565b6000546001600160a01b031633146109e25760405162461bcd60e51b815260040161059f90611221565b600855565b6000546001600160a01b03163314610a115760405162461bcd60e51b815260040161059f90611221565b60004711610a525760405162461bcd60e51b815260206004820152600e60248201526d09cdee840cadcdeeaced040cae8d60931b604482015260640161059f565b600080546040516001600160a01b03909116914780156108fc02929091818181858888f19350505050158015610612573d6000803e3d6000fd5b6001600160a01b038316610aee5760405162461bcd60e51b8152602060048201526024808201527f45524332303a20617070726f76652066726f6d20746865207a65726f206164646044820152637265737360e01b606482015260840161059f565b6001600160a01b038216610b4f5760405162461bcd60e51b815260206004820152602260248201527f45524332303a20617070726f766520746f20746865207a65726f206164647265604482015261737360f01b606482015260840161059f565b6001600160a01b0383811660008181526002602090815260408083209487168084529482529182902085905590518481527f8c5be1e5ebec7d5bd14f71427d1e84f3dd0314c0f7b2291e5b200ac8c7c3b92591015b60405180910390a3505050565b6001600160a01b038316610c155760405162461bcd60e51b815260206004820152602560248201527f45524332303a207472616e736665722066726f6d20746865207a65726f206164604482015264647265737360d81b606482015260840161059f565b6001600160a01b038216610c775760405162461bcd60e51b815260206004820152602360248201527f45524332303a207472616e7366657220746f20746865207a65726f206164647260448201526265737360e81b606482015260840161059f565b60008111610cd95760405162461bcd60e51b815260206004820152602960248201527f5472616e7366657220616d6f756e74206d7573742062652067726561746572206044820152687468616e207a65726f60b81b606482015260840161059f565b6000546001600160a01b03848116911614801590610d0557506000546001600160a01b03838116911614155b15610f0d57600954610100900460ff16610d615760405162461bcd60e51b815260206004820152601a60248201527f54726164696e67206973206e6f74207374617274656420796574000000000000604482015260640161059f565b600a546001600160a01b038481169116148015610d9257506009546001600160a01b03838116620100009092041614155b15610dfd5760095460ff168015610dc257506001600160a01b03821660009081526003602052604090205460ff16155b15610de3576001600160a01b03821660009081526004602052604090204290555b60058054906000610df38361127f565b9190505550610f0d565b600a546001600160a01b0390811690831603610eb15760095460ff168015610e3557503260009081526003602052604090205460ff16155b15610eac57600854326000908152600460205260408120549091610e589161126c565b905042811115610eaa5760405162461bcd60e51b815260206004820152601860248201527f546f6b656e7320617265207374696c6c206c6f636b6564210000000000000000604482015260640161059f565b505b610f0d565b6001600160a01b0383163014610f0d5760095460ff168015610eec57506001600160a01b03821660009081526003602052604090205460ff16155b15610f0d576001600160a01b03821660009081526004602052604090204290555b6001600160a01b038316600090815260016020526040902054610f309082610fed565b6001600160a01b038085166000908152600160205260408082209390935590841681522054610f5f9082611036565b6001600160a01b0380841660008181526001602052604090819020939093559151908516907fddf252ad1be2c89b69c2b068fc378daa952ba7f163c4a11628f55a4df523b3ef90610ba49085815260200190565b60008184841115610fd75760405162461bcd60e51b815260040161059f9190611095565b506000610fe48486611298565b95945050505050565b600061102f83836040518060400160405280601e81526020017f536166654d6174683a207375627472616374696f6e206f766572666c6f770000815250610fb3565b9392505050565b600080611043838561126c565b90508381101561102f5760405162461bcd60e51b815260206004820152601b60248201527f536166654d6174683a206164646974696f6e206f766572666c6f770000000000604482015260640161059f565b600060208083528351808285015260005b818110156110c2578581018301518582016040015282016110a6565b506000604082860101526040601f19601f8301168501019250505092915050565b80356001600160a01b03811681146110fa57600080fd5b919050565b6000806040838503121561111257600080fd5b61111b836110e3565b946020939093013593505050565b60008060006060848603121561113e57600080fd5b611147846110e3565b9250611155602085016110e3565b9150604084013590509250925092565b60006020828403121561117757600080fd5b5035919050565b803580151581146110fa57600080fd5b6000602082840312156111a057600080fd5b61102f8261117e565b6000602082840312156111bb57600080fd5b61102f826110e3565b600080604083850312156111d757600080fd5b6111e0836110e3565b91506111ee602084016110e3565b90509250929050565b6000806040838503121561120a57600080fd5b611213836110e3565b91506111ee6020840161117e565b6020808252818101527f4f776e61626c653a2063616c6c6572206973206e6f7420746865206f776e6572604082015260600190565b634e487b7160e01b600052601160045260246000fd5b8082018082111561050657610506611256565b60006001820161129157611291611256565b5060010190565b818103818111156105065761050661125656fe45524332303a207472616e7366657220616d6f756e74206578636565647320616c6c6f77616e6365a2646970667358221220233a89aa11d863731c11af865bdee164b51cacf2c24c6d8cb5de4ff207702cbd64736f6c63430008130033ddf252ad1be2c89b69c2b068fc378daa952ba7f163c4a11628f55a4df523b3ef",
  "linkReferences": {},
  "deployedLinkReferences": {}
}